:100000000C942A000C9447000C9447000C94470071
:100010000C9447000C9447000C9422010C94470068
:100020000C9447000C9447000C9447000C94470034
:100030000C9447000C9447000C9447000C94470024
:100040000C9447000C9447000C9447000C94470014
:100050000C94470011241FBECFE5D4E0DEBFCDBF16
:1000600010E0A0E6B0E0EAE5FDE102C005900D92E7
:10007000A03BB107D9F713E0A0EBB0E001C01D929F
:10008000AC3FB107E1F70E942F0D0C94AB0E0C941E
:100090000000FC0191E1908322E2229383E38293AA
:1000A00062937293129280E88293129282E082931A
:1000B00083E0829384E0829385E0829386E082935A
:1000C00087E0829388E0829389E0829380E1829343
:1000D000929382E1829383E1829384E1829385E12A
:1000E000829386E1829387E1829388E1829389E11A
:1000F000829380E2829381E28293229383E28293CD
:100100004293529386E2829387E2829388E28293BB
:1001100089E2829380E3829381E382933197CF01D6
:1001200008951BBC8AEB8ABD8BE08EBD89B78061C8
:1001300089BFA0913B03B0913C03CD91CDBFDD9130
:10014000DEBFFF91EF91DF91CF91BF91AF919F9172
:100150008F917F916F915F914F913F912F911F915F
:100160000F91FF90EF90DF90CF90BF90AF909F9056
:100170008F907F906F905F904F903F902F901F9047
:100180000F900FBE0F90089581E0089508950F928B
:100190000FB6F8940F921F9211242F923F924F9214
:1001A0005F926F927F928F929F92AF92BF92CF9207
:1001B000DF92EF92FF920F931F932F933F934F93F2
:1001C0005F936F937F938F939F93AF93BF93CF93DF
:1001D000DF93EF93FF93A0913B03B0913C030DB6E7
:1001E0000D920EB60D920E94A9080E94DB07A09105
:1001F0003B03B0913C03CD91CDBFDD91DEBFFF91BC
:10020000EF91DF91CF91BF91AF919F918F917F91AE
:100210006F915F914F913F912F911F910F91FF909F
:10022000EF90DF90CF90BF90AF909F908F907F9096
:100230006F905F904F903F902F901F900F900FBE48
:100240000F9008950E94C70018950F920FB6F8946A
:100250000F921F9211242F923F924F925F926F92B2
:100260007F928F929F92AF92BF92CF92DF92EF9246
:10027000FF920F931F932F933F934F935F936F932F
:100280007F938F939F93AF93BF93CF93DF93EF931E
:10029000FF93A0913B03B0913C030DB60D920EB6B7
:1002A0000D920E94DB07A0913B03B0913C03CD91DE
:1002B000CDBFDD91DEBFFF91EF91DF91CF91BF9177
:1002C000AF919F918F917F916F915F914F913F91EE
:1002D0002F911F910F91FF90EF90DF90CF90BF90E3
:1002E000AF909F908F907F906F905F904F903F90D6
:1002F0002F901F900F900FBE0F9008950F931F9394
:10030000CF93DF93FC018081882319F4C0E0D0E013
:1003100005C00580F681E02DC681D7818E01045F7E
:100320001F4FC8010E94AC0388ED90E0B8010E9405
:100330004E0320E0E091B000F091B1009E898689E3
:10034000981708F021E0822FDF91CF911F910F9134
:100350000895FF920F931F93CF93DF9399E0F92EA7
:1003600028C0F8948091D800882319F4C0E0D0E028
:1003700006C0E091DD00F091DE00C681D781CE019C
:100380000C960E94AC0378948E010E5F1F4FC8013B
:100390000E94AC039E898091B200891710F490935B
:1003A000B2009F9DC001112487549F4FB8010E9445
:1003B0004E038091D8008823A1F60E94CD0720919A
:1003C000B3003091B400821B930B9093B6008093DE
:1003D000B50089E0F82E54C001969093B800809340
:1003E000B700215030403093B6002093B500892BE0
:1003F000C9F52091D4003091D5008091D60090911C
:10040000D7009093D5008093D4003093D7002093E9
:10041000D60028C02091B7003091B8008A819B8116
:100420002817390768F1F8948E010E5F1F4FC80135
:100430000E94AC038C899D89892B21F0CE010C96FA
:100440000E94AC0378949E898091B200891710F4C1
:100450009093B2009F9DC001112487549F4FB80113
:100460000E944E03E091D400F091D5008081882352
:1004700039F00580F681E02DC681D781209751F6AD
:100480002091B5003091B6008091B7009091B800EE
:100490002115310509F0A0CF9093B4008093B300EB
:1004A0009091B20029E006C0992319F41092B2008D
:1004B00032C09150929FD0011124A754BF4F8C910C
:1004C000882391F39093B2001196ED91FC911297CD
:1004D0000280F381E02D1296FC93EE931197CD01EB
:1004E0000396E817F90731F48281938112969C9361
:1004F0008E9311971196ED91FC9112970680F781DA
:10050000E02DF093B100E093B00020813181CF0164
:100510006789F9010995DF91CF911F910F91FF90A4
:1005200008950F931F93CF93DF93EB010091B700D2
:100530001091B800080F191F8091B0009091B10080
:1005400002960E94AC03E091B000F091B1001383D9
:1005500002838091B7009091B800BF016E5F7F4F1A
:100560000817190728F48091D6009091D70004C08D
:100570008091D4009091D5000E947703209749F094
:100580006091B0007091B100645F7F4FCE010E9416
:100590007703DF91CF911F910F910895BF92CF9272
:1005A000DF92EF92FF920F931F93CF93DF936C0133
:1005B000B42E8AE190E00E94E403EC01009711F46C
:1005C0008FEF4EC08091B0009091B100892B01F562
:1005D000D093B100C093B00089EB90E00E943A0341
:1005E00022ECE22E20E0F22EC7010E943A030BEC2F
:1005F00010E0C8010E943A0388ED90E00E943A039F
:10060000F092D500E092D4001093D7000093D6006A
:10061000198E188E1E8ABF8AFE01C192D1928F0157
:10062000CF010E944A03CE010C960E944A03D9874B
:10063000C887DB8BCA8B81E090E09D878C879E8981
:100640008091B200891710F49093B20089E0989FCE
:10065000C001112487549F4FB8010E944E0381E0CE
:10066000DF91CF911F910F91FF90EF90DF90CF908E
:10067000BF900895FC019C012D5F3F4F3283218381
:100680008FEF9FEF9483838336832583308727837F
:1006900010820895FC01118610860895CF93DF9390
:1006A000AC01DB01EC0129813A81F901828193815E
:1006B00013969C938E93129789819A8115969C9399
:1006C0008E9314970280F381E02D75836483E90192
:1006D0007B836A83FA017283618319965C934E93DC
:1006E000189780818F5F8083DF91CF910895CF939A
:1006F000DF939C01EB01488159818FEF4F3F5807F1
:1007000021F4F901A781B08510C0D901139604C066
:1007100012960D90BC91A02D1296ED91FC9113971D
:10072000808191814817590798F71296ED91FC91B5
:100730001397FB83EA83D583C483BD83AC8313966D
:10074000DC93CE93129739872887F90180818F5FD8
:100750008083DF91CF910895CF93DF93DC011296D0
:10076000ED91FC91139714968D919C91159795831B
:1007700084831496CD91DC911597FB83EA831896B8
:10078000ED91FC911997818192818A179B0711F451
:10079000D283C18319961C921E9218978081815032
:1007A0008083DF91CF91089508951092E200109216
:1007B000E100089528E532E08091E1009091E200A7
:1007C000281B390BC90108950F931F93CF93DF9313
:1007D0008C010E94C7078091E1009091E20098018E
:1007E000280F391F42E02835340758F48217930741
:1007F00040F4EC01CD51DF4F3093E2002093E10053
:1008000002C0C0E0D0E00E945809CE01DF91CF9134
:100810001F910F910895FC010FB6F8940F92828DED
:100820000F900FBE0895FC01828D0895FC01828D0A
:1008300090E0882309F491E0892F0895FC01928DBE
:1008400020E0838D981709F421E0822F0895CF933B
:10085000DF93EC01842F4C8D4423A1F18823B1F464
:100860008C819D8150E00E948C0E8C8D2C813D816D
:10087000280F311D3D832C838A819B8128173907DE
:1008800008F1888199819D838C831CC08E819F8112
:1008900050E00E948C0E8C8D90E044275527481B19
:1008A000590B8E819F81840F951F9F838E83288192
:1008B00039818217930730F48A819B81840F951FB9
:1008C0009F838E838A8D8F5F8A8FDF91CF9108956A
:1008D0000F931F93CF93DF93EC01FB018A018A8D65
:1008E000882361F18C8D2E813F81280F311D3F833C
:1008F0002E838A819B812817390720F0888199816E
:100900009F838E838A8D81508A8F4C8D6E817F81EB
:10091000CF0150E00E948C0EF8018081882369F499
:100920008885882351F0CE0108960E947E01882395
:1009300021F081E0F801808301C081E0DF91CF9157
:100940001F910F9108951F93CF93DF93EC01142F04
:100950009A8D8B8D981788F4CE0140E00E94270471
:10096000112359F48989882341F0CE0141960E94D0
:100970007E01482F811141E0142F812FDF91CF910B
:100980001F910895CF93DF93EC01FB01F8948A8DBA
:10099000882371F44115510541F06196CA01BE01E9
:1009A0000E94910278948CEF30C0789480E02DC042
:1009B00078940000F8948A8D882331F18C8D2E81F3
:1009C0003F81280F311D3F832E838A819B81281709
:1009D000390720F0888199819F838E838A8D815089
:1009E0008A8F4C8D6E817F81CF0150E00E948C0EEA
:1009F0008885882341F0CE0108960E947E018823D5
:100A000011F08BEF01C081E07894DF91CF910895D0
:100A1000CF93DF93EC01F8940FB6F8940F928A8D80
:100A20009B8D0F900FBE891771F44115510541F050
:100A30002896CA01BE010E94910278948CEF1CC0D6
:100A4000789480E019C078940000F8948A8D891712
:100A500010F080E010C0CE0140E00E942704898998
:100A6000882341F0CE0141960E947E01882311F037
:100A70008BEF01C081E07894DF91CF9108950F93BF
:100A80001F938C01FC01808191810E94D403C801D5
:100A90000E94D4031F910F9108950F931F93CF933A
:100AA000DF93EC01FB018A018A8D882381F1488163
:100AB000598141155105A9F08C8D2E813F81280F58
:100AC000311D3F832E838A819B812817390710F0BF
:100AD0005F834E834C8D6E817F81CF0150E00E94F9
:100AE0008C0E8A8D81508A8F8D8D8F3F69F4888519
:100AF000882361F0CE0108960E946608882331F0B1
:100B000081E0F801808303C08F5F8D8F81E0DF91EA
:100B1000CF911F910F9108950F931F93CF93DF9360
:100B2000EC018A019A8D8B8D981710F080E017C028
:100B3000CE01422F0E9427048E8D8F3F69F4898950
:100B4000882361F0CE0141960E946608882331F027
:100B500081E0F801808303C08F5F8E8F81E0DF9199
:100B6000CF911F910F9108950F931F93CF93DF9310
:100B7000EC010FB6F8940F928C010F5E1F4F0DC061
:100B80008989882369F0C8010E946608882311F0CA
:100B90000E9462088E8D81508E8F8E8D181684F380
:100BA0008FEF8E8F0F900FBE0FB6F8940F928E01BD
:100BB000085F1F4F0DC08885882369F0C8010E9417
:100BC0006608882311F00E9462088D8D81508D8FF8
:100BD0008D8D181684F38FEF8D8F0F900FBEDF91E0
:100BE000CF911F910F9108957F928F929F92AF9214
:100BF000BF92CF92DF92EF92FF920F931F93DF93FA
:100C0000CF9300D000D00F92CDB7DEB78C01962ED7
:100C1000872E5D834C83722E91E1C92ED12CC00E9C
:100C2000D11E20E07E010894E11CF11C84E0A82E76
:100C3000B12CAC0EBD1E01C021E00FB6F8940F928E
:100C4000F801828D882309F43EC0E680F780408158
:100C5000518141155105B1F0848D9701280F311D47
:100C600037832683828193812817390710F05783B1
:100C70004683F801448D66817781892D982D50E057
:100C80000E948C0E772071F4F801828D8150828F42
:100C900080858823A1F0C80108960E9466088130EB
:100CA00071F40BC0F801F782E6828189882339F05C
:100CB000C6010E946608882311F00E9425010F904A
:100CC0000FBE81E04AC08C819D81892B19F40F9061
:100CD0000FBE42C0222319F4C7010E941D080F90C5
:100CE0000FBE0E94C7070FB6F8940F92F801858DCA
:100CF0008F3F09F4158EF801868D8F3F09F4168E0B
:100D00000F900FBEC701B5010E9428088823F9F48F
:100D10000FB6F8940F92F801828D0F900FBE8823C2
:100D200081F46C817D81C6010E941F09C8010E9467
:100D3000B4050E945809882309F07ECF0E9425013E
:100D40007BCFC8010E94B4050E94580975CFC80125
:100D50000E94B4050E94580980E00F900F900F90F8
:100D60000F900F90CF91DF911F910F91FF90EF9017
:100D7000DF90CF90BF90AF909F908F907F9008951D
:100D80007F928F929F92AF92BF92CF92DF92EF921B
:100D9000FF920F931F93DF93CF9300D000D00F9259
:100DA000CDB7DEB78C016B015D834C83722E48E0BA
:100DB000E42EF12CE80EF91E20E05E010894A11C3F
:100DC000B11C34E0832E912C8C0E9D1E01C021E0BD
:100DD0000FB6F8940F92F801928D838D9817A8F4AE
:100DE000C801B601472D0E942704F8018189882394
:100DF00041F0C80141960E946608813011F40E94BA
:100E000025010F900FBE81E04CC08C819D81892B04
:100E100019F40F900FBE44C0222319F4C5010E949B
:100E20001D080F900FBE0E94C7070FB6F8940F92CF
:100E3000F801858D8F3F09F4158EF801868D8F3F5F
:100E400009F4168E0F900FBEC501B4010E94280848
:100E5000882309F50FB6F8940F92F801928D0F9040
:100E60000FBEF801838D981781F46C817D81C701D5
:100E70000E941F09C8010E94B4050E9458098823D6
:100E800009F0A5CF0E942501A2CFC8010E94B40598
:100E90000E9458099CCFC8010E94B4050E945809BD
:100EA00080E00F900F900F900F900F90CF91DF91F7
:100EB0001F910F91FF90EF90DF90CF90BF90AF9078
:100EC0009F908F907F9008958F929F92AF92BF9244
:100ED000CF92DF92EF92FF920F931F93CF93DF9306
:100EE000982E862E882309F442C08FE190E00E945C
:100EF000E4038C01EC010097E1F1C92CDD24A82C5E
:100F0000BB24AC9C7001AD9CF00CBC9CF00C11247B
:100F1000C70101960E94E4039C019983888300978E
:100F200019F1E80EF91EFB82EA821A8E9D838C83EA
:100F30000894C108D108CA9CC001CB9C900DDA9CD2
:100F4000900D1124280F391F3F832E839B8E8C8E8A
:100F50008FEF8D8F8E8FC80108960E943A03C801CB
:100F600041960E943A0305C0C8010E94D403C0E024
:100F7000D0E0CE01DF91CF911F910F91FF90EF90C4
:100F8000DF90CF90BF90AF909F908F900895809109
:100F900041038F5F8093410308950FB6F8940F9239
:100FA00020913F03309140030F900FBEC901089577
:100FB00080914403089580914103882351F081E09A
:100FC00080933D03089580914203815080934203B2
:100FD00001C099E0E0914203E99FF0011124E85B30
:100FE000FC4F8081882379F39091420389E0989F98
:100FF000D0011124A85BBC4F1196ED91FC91129782
:101000000280F381E02D1296FC93EE931197CD01AF
:101010000396E817F90731F48281938112969C9325
:101020008E9311971196ED91FC911297868197817D
:1010300090933C0380933B030895FC0180913E0311
:10104000808380913F039091400392838183089530
:10105000FC01DB010FB6F8940F9290913E03808162
:10106000981749F020913F0330914003818192818C
:101070002817390718F580913F039091400321818B
:1010800032814D915C911197821B930B84179507C8
:10109000A8F480913F0390914003281B390B240F43
:1010A000351F2D933C9380913E03808380913F03B5
:1010B000909140039283818380E001C081E00F9092
:1010C0000FBE089581E080933D0308950F931F9311
:1010D000CF93DF93FC018081882319F4C0E0D0E036
:1010E00005C00580F681E02DC681D7818E01045FA1
:1010F0001F4FC8010E94AC03809141038823A1F4D3
:101100008E010E5F1F4FC8010E94AC039E89809123
:101110004203891710F49093420389E0989FC0011D
:101120001124885B9C4F02C087E693E0B8010E94BF
:101130004E03E0913B03F0913C0320E09E898689B9
:10114000981708F021E0822FDF91CF911F910F9126
:101150000895FF920F931F93CF93DF9380914103E4
:10116000882309F061C080913F039091400301966C
:101170009093400380933F0380913F0390914003FD
:10118000892BE9F5809163039091640320916503B5
:101190003091660330936403209363039093660356
:1011A0008093650380913E038F5F80933E0327C049
:1011B00020913F03309140038A819B812817390792
:1011C000C0F18E010E5F1F4FC8010E94AC038C89D5
:1011D0009D89892B21F0CE010C960E94AC039E893B
:1011E00080914203891710F4909342039F9DC001A0
:1011F0001124885B9C4FB8010E944E0302C089E015
:10120000F82EE0916303F09164038081882389F0D4
:10121000E0916303F09164030580F681E02DC681BF
:10122000D781209729F605C0809143038F5F809373
:101230004303DF91CF911F910F91FF9008950F937A
:101240001F938B0160913B0370913C03645F7F4F60
:101250000E94770380913B0390913C0302960E9489
:10126000AC0380913F0390914003800F911FE09168
:101270003B03F0913C039383828320913F033091A1
:1012800040038217930728F48091650390916603C9
:1012900004C0809163039091640360913B0370915B
:1012A0003C036E5F7F4F0E9477031F910F9108955B
:1012B000CF92DF92FF920F931F93DF93CF930F9202
:1012C000CDB7DEB70FB6F8940F92809141038150ED
:1012D0008093410380914103882309F05BC0809192
:1012E0004403882309F456C0198299E0F92E27C0D7
:1012F000C6010C960E94AC0386010E5F1F4FC80109
:101300000E94AC03D60156969C91809142038917A6
:1013100010F4909342039F9DC0011124885B9C4F61
:10132000B8010E944E03E0913B03F0913C03D601CB
:1013300056969C918689981710F0B1E0B9838091F8
:101340006703882349F0E0916C03F0916D03C68038
:10135000D780C114D10461F680914303882341F4FE
:101360000CC00E94A90880914303815080934303DD
:10137000809143038823A9F707C0E981E13021F078
:1013800080913D03813031F410923D030E9425018C
:1013900081E001C080E00F900FBE0F90CF91DF91F0
:1013A0001F910F91FF90DF90CF900895F8941092C5
:1013B00045030E94C60008950E942C0DFDCF2F9278
:1013C0003F924F925F926F927F928F929F92AF92D5
:1013D000BF92CF92DF92EF92FF920F931F93DF9312
:1013E000CF9300D00F92CDB7DEB72C014B015A013D
:1013F0003901098317018BE190E00E94E4038A839D
:101400009B838A819B81892B89F0C114D10421F4AB
:10141000C5010E94E4036C01EA81FB81D08EC78A7A
:10142000C114D10429F4CF010E94D4038FEFB6C0B8
:10143000C60165EA70E0A5010E94950E0894A10816
:10144000B108EA81FB818789908DA80EB91ECF0172
:101450004996B40142E050E00E949C0EEA81FB8173
:10146000128E168A32E0C32ED12CCE0EDF1EC6019C
:101470000E944A038A819B810C960E944A038A81BA
:101480009B81FC019187808781E090E0958784872C
:10149000F38BE28BC501B201A3010E944900EA81EE
:1014A000FB81918380830FB6F8940F92809144035F
:1014B0008F5F8093440380914403813009F5F0935A
:1014C0003C03E0933B0388E493E00E943A0321E568
:1014D000E22E23E0F22EC7010E943A030AE513E050
:1014E000C8010E943A0387E693E00E943A03F09213
:1014F0006403E0926303109366030093650312C0D4
:1015000080914503882371F4E0913B03F0913C0303
:101510008689F981F81730F08A819B8190933C038A
:1015200080933B03EA81FB8196898091460389176A
:1015300010F490934603809147038F5F8093470395
:10154000EA81FB81968980914203891710F4909378
:101550004203EA81FB81868929E0829FC001112430
:10156000885B9C4FB6010E944E030F900FBE211462
:10157000310429F08A819B81F101918380838091DC
:101580004503882351F0E0913B03F0913C038689A9
:101590009981891710F40E94250181E00F900F9026
:1015A0000F90CF91DF911F910F91FF90EF90DF90FF
:1015B000CF90BF90AF909F908F907F906F905F90F3
:1015C0004F903F902F900895AF92BF92CF92DF92AD
:1015D000EF92FF920F938CED99E060E670E04EE59C
:1015E00051E020E030E000E0EE24FF24CC24DD24B4
:1015F000AA24BB240E94DF09813049F4F894809327
:1016000045031092400310923F030E9491000F91F6
:10161000FF90EF90DF90CF90BF90AF9008950F9321
:101620001F93CF93DF938C01DB01FC0140E08081AD
:10163000803221F44F5F31964034C9F71C925A2F03
:10164000CD01EC010FC0F801E40FF11DE081E032A3
:1016500029F0EE2319F0E9934F5F04C0A80FB11DE4
:101660001C9205C09E01251B822F403460F3842FFD
:10167000DF91CF911F910F910895FC0190E006C07A
:10168000892F8F5F3196803421F0982F80818823B5
:10169000B9F7892F0895DC0120E030E007C044232A
:1016A00089F02F5F3F4F2034310561F0FD01E20FDB
:1016B000F31F4081FB01E20FF31F8081481779F38C
:1016C00081E0089580E00895DC0150E08C918D3236
:1016D00009F451E0452FFD01E50FF11DE08120E007
:1016E00030E017C0C90173E0880F991F7A95E1F7C0
:1016F000220F331F280F391F8E2F992787FD9095B2
:10170000280F391F205330404F5FFD01E40FF11DBA
:10171000E0818E2F80538A3010F4403418F3552323
:1017200019F0309521953F4FC9010895BF92CF928E
:10173000DF92EF92FF920F931F93DF93CF93CDB77A
:10174000DEB7C054D0400FB6F894DEBF0FBECDBF99
:101750008C0161E773E00E940F0BE82E8093700309
:1017600081E793E065E670E00E944B0B8823A1F4CB
:10177000C8018E010F5F1F4FB8010E940F0BC801F7
:101780000E94640B182F105D01C00000812F0E9481
:101790007C0E8823D1F738C181E793E069E670E0D9
:1017A0000E944B0B882309F042C0C8018E0D911D89
:1017B0007C018E010F5F1F4FB8010E940F0BC82ED6
:1017C000C8010E94640BD82E182F105D01C00000C4
:1017D000812F0E947C0E8823D1F7C7018C0D911DAB
:1017E0008E010F5F1F4FB8010E940F0BC8010E94AE
:1017F000640B182F082F005D01C00000802F0E948D
:101800007C0E8823D1F71D1414F492E005C0DD206E
:1018100011F094E001C090E0111614F4986002C039
:10182000111190618BB3817E982B9BBBEDC081E73A
:1018300093E061E770E00E944B0B8823E9F4C80154
:101840008E0D911D8E010F5F1F4FB8010E940F0B6F
:10185000C8010E94640B8C01F0E3FF2EF80E01C05A
:1018600000008F2D0E947C0E8823D1F7012B11F0F0
:10187000D89ACAC0D898C8C081E793E06BE770E0F7
:101880000E944B0B8823F9F4C8018E0D911D8E0127
:101890000F5F1F4FB8010E940F0BC8010E94640B1D
:1018A000082F182F12951F70105D01C00000812FA6
:1018B0000E947C0E8823D1F7011100E88BB38F774B
:1018C000802B8BBBA1C081E793E066E870E00E94AB
:1018D0004B0B882309F077C06801CE0CD11CC601E0
:1018E0007E010894E11CF11CB7010E940F0BB82E79
:1018F0000091A9001091AA00C7010E94640BF80191
:101900009283818301C000008CE30E947C0E8823B7
:10191000D1F701C00000E091A900F091AA008281F6
:1019200082958F70805D0E947C0E882399F701C09C
:101930000000E091A900F091AA008181928180705D
:101940009F70892F805D0E947C0E882389F701C0DB
:101950000000E091A900F091AA0081819281807F2E
:101960009070E4E096958795EA95E1F7805D0E9496
:101970007C0E882369F701C00000E091A900F09176
:10198000AA0081818F70805D0E947C0E8823A1F760
:1019900001C000008EE30E947C0E8823D1F7C601AF
:1019A0008B0D911D8E010F5F1F4FB8010E940F0B11
:1019B000E090A900F090AA00C8010E94640BF70112
:1019C0009483838321C081E793E06FE870E00E94F5
:1019D0004B0B882379F4C8018E0D911D8E010F5F8A
:1019E0001F4FB8010E940F0BC8010E94640B0E9498
:1019F000360E0AC081E793E06BE970E00E944B0B62
:101A0000882311F40E943B0EC05CDF4F0FB6F894A0
:101A1000DEBF0FBECDBFCF91DF911F910F91FF9021
:101A2000EF90DF90CF90BF900895FC01108212825A
:101A300011821482138284E190E0968385838BB3B4
:101A40001BBA8AB38FEF8ABB89B78C7F89BF87E6C1
:101A500090E00E94750E08950E94A901FDCF80912B
:101A6000A9009091AA000E94150D8AE49DE060E013
:101A700040E00E94CE0281EB9DE060E040E00E94E9
:101A8000CE0284E49EE060E040E00E94CE020E942C
:101A9000E40A0895CF93DF93EC01888D998D8C3300
:101AA000910509F43EC08D33910530F40097C9F1DA
:101AB000C69709F053C032C08834910509F04EC072
:101AC00030C08BEA90E00E94830E882309F5909144
:101AD000AB009D3009F490E09093AB008091F1034E
:101AE000E82FF0E0EF54FC4F90838F5F8093F10379
:101AF00006C081E090E060E070E00E949102809179
:101B0000AB000E947C0E8823A1F786E390E024C0FE
:101B100081E090E060E070E00E9491028CE390E050
:101B20001BC08091AB00882331F08D3021F0809173
:101B3000F103803430F21092F10381E68093AB0020
:101B400081EB93E00E94960B81E090E060E070E012
:101B50000E94910288E490E0998F888FDF91CF9165
:101B60000895CF93DF93EC01888D998D823591058F
:101B700009F43FC08638910519F0892B09F073C02C
:101B8000E091A900F091AA00318122813093F40301
:101B90002093F303332311F4222301F1F89413BEAD
:101BA00012BEDD9A83E083BF1092F20390E00AC078
:101BB000000082B78F3FE1F701C0000082B78F3F7E
:101BC000E1F39F5F9217A8F39093F20301C0000026
:101BD00082B78317E0F3DD9813BE789485819681F0
:101BE000009721F060E070E00E94910282E590E0B1
:101BF00038C0E091A900F091AA003381248130938C
:101C0000F4032093F303332311F4222301F1F89416
:101C100013BE12BEDE9A83E083BF1092F20390E0FF
:101C20000AC0000082B78F3FE1F701C0000082B711
:101C30008F3FE1F39F5F9217A8F39093F20301C0E7
:101C4000000082B78317E0F3DE9813BE7894858195
:101C50009681009721F060E070E00E94910286E892
:101C600090E0998F888FDF91CF9108959093AD0088
:101C70008093AC0008958091AC009091AD0090935A
:101C8000AF008093AE000895CF93DF93EC01888D71
:101C9000998D009719F08C34910521F58091AE0053
:101CA0009091AF00009711F001970EC0E091A9004C
:101CB000F091AA0012821182148213828BB31BBA94
:101CC0008091AC009091AD009093AF008093AE00F6
:101CD00084E690E060E070E00E9491028CE490E085
:101CE000998F888FDF91CF91089590BD89B988E150
:101CF0008AB98EE880BD08955D9902C081E008959B
:101D00008CB980E00895FC015F9902C081E00895DC
:101D10008CB1808380E00895FB01DC0102C001905A
:101D20000D9241505040D8F70895DC0101C06D93E9
:101D300041505040E0F70895FB01DC014150504014
:101D400048F001900D920020C9F701C01D9241504A
:0A1D50005040E0F70895F894FFCF2B
:101D5A0049444C4500646267007365744D6F746F43
:101D6A00007365744D6F746F456E007365745365C7
:101D7A0072766F456E00736574536572766F007381
:101D8A0065745761746368646F670072657365741C
:101D9A005761746368646F6700F503613C003C0037
:00000001FF
