:020000040800F2
:100000000004002001080008B1080008B108000839
:10001000B1080008B1080008B1080008B1080008DC
:10002000B1080008B1080008B1080008E10800089C
:10003000B1080008B1080008B1080008D10900089B
:10004000B1080008B1080008B1080008B1080008AC
:10005000B1080008B1080008B1080008B10800089C
:10006000B1080008B1080008B10800089122000892
:10007000C122000801230008412300088123000851
:10008000C123000801240008B10800082127000846
:10009000812A0008B1080008B1080008B10800086A
:1000A000B1080008B1080008B1080008B10800084C
:1000B000B1080008B1080008B1080008B10800083C
:1000C000B1080008B1080008B1080008B10800082C
:1000D000B1080008B1080008B1080008B10800081C
:0C00E000B1080008B1080008B1080008D1
:1000F00000210A2200F016BA00220A2300F060B99B
:10010000032AC9B270B408D82AB10346121803F8FA
:10011000011B9342FBD170BC70478218044601E07A
:1001200004F8011B14F0030FFAD14FF0013303FB65
:1001300001F31FE044F8403C44F83C3C44F8383CB0
:1001400044F8343C44F8303C44F82C3C44F8283C17
:1001500044F8243C44F8203C44F81C3C44F8183C47
:1001600044F8143C44F8103C44F80C3C44F8083C77
:1001700044F8043C161B254640343F2EDADC2C465E
:1001800007E044F8103C44F80C3C44F8083C44F8C0
:10019000043C161B254610340F2EF2DC01E045F816
:1001A000043B541B032CFADC01E005F8011B9542CB
:1001B000FBD3B0E7000000000000000000000000DA
:1001C00040F60003C2F2000370B41D6810F8013B52
:1001D000EC181A46647804F00304012C11F8014B62
:1001E00008BF03F120022E192346767806F0030695
:1001F000012E08BF04F12003D21A01D1002BE5D152
:10020000104670BC704700BF0000000000000000F6
:10021000C9B2F0B4002950D010F0030F10D0037809
:10022000002B79D0994246D0431C05E013F8012BEE
:10023000002A3FD091423ED013F0030F1846F5D16B
:10024000036841EA01270646A3F1013247EA07475E
:1002500022EA030212F0803F1DD187EA0303A3F1D3
:10026000013222EA030313F0803F14D1043002E08C
:1002700012F0803F0FD1064650F8043BA3F1013540
:1002800087EA030225EA0303A2F1013413F0803F59
:1002900024EA0202ECD033783046002B3CD099425D
:1002A00009D0731C01E0914205D0184613F8012BC8
:1002B000002AF8D11046F0BC704710F0030F0CD0A4
:1002C0000378002BF7D0431C03E013F8012B002A1E
:1002D000F1D013F0030F1846F7D102680346A2F1DC
:1002E000013121EA020212F0803F0AD104300346B4
:1002F00050F8042BA2F1013121EA020212F0803FF2
:10030000F5D01A781846002AD5D00133184613F8CC
:10031000012B002AFAD1CEE71846CCE700000000F6
:1003200020F0030110F00300C0F1000051F8043B7D
:1003300000F1040C4FEACC0C6FF000021CBF22FA53
:100340000CF213434FF0010C4CEA0C2C4CEA0C4C11
:10035000A3EB0C0222EA030212EACC1204BF51F80A
:10036000043B0430F4D013F0FF0F1FBF013013F42F
:100370007F4F013013F47F0F18BF0130704700BF6B
:10038000F0B40646047874B10F780546064657B1B6
:10039000BC4218BF0A4602D108E09C4206D012F8BF
:1003A000013F002BF9D1301AF0BC70476C786E1CFD
:1003B000002CF8D03546EBE70000000000000000FC
:1003C0002DE9F04F40F60004C2F2000485B01F464C
:1003D0008C4626680B460390029213F8014B3219A3
:1003E0001D4692F801B01BF0080BF6D12D2C73D0EE
:1003F0002B2C08BF15F8014BD7F1010338BF0023A0
:10040000102F14BF1A4643F0010232B1302C73D0C2
:100410001BB1302C00F083800A27B946BBF1000FD6
:1004200049460CBF6FF0004A4FF0004ACDF804C0B7
:10043000504600F0B3F950468846494600F080F82F
:1004400033190022DDF804C05B78114613F0040F65
:100450001ED0303CA74225DD814294BF00230123FA
:1004600053EAD2722ED10A1A534243EB0203444597
:10047000D4BF002303F00103002B23D109FB01416A
:1004800015F8014B012233195B7813F0040FE0D10A
:1004900013F0030306D0012B14BF57233723E41AAC
:1004A000A742D9DCB2F1FF3F1BD00846BBF1000FD9
:1004B00010D1029B1BB152B90299C1F800C005B01E
:1004C000BDE8F08F4FF0FF3215F8014BDBE705F187
:1004D000FF3CF1E74842ECE715F8014B4FF0010B08
:1004E0008AE70399BBF1000F0CBF6FF000404FF09B
:1004F000004022230B60DCE72A78A2F17800414219
:1005000041EB0001582A14BF0A4641F00102002ABB
:100510003FF47EAF10276C78B94602357EE7082796
:10052000B9467BE730B440F60404C2F200040D463D
:10053000134601462A46206830BC41E7000000000F
:100540004A1E08BF7047C0F02481884240F21681DD
:10055000114200F01781B0FA80F3B1FA81F2A2EBF8
:100560000303C3F11F0304A202EB03134FF00002C5
:100570009F4600BFAFF30080B0EBC17F00BF42EBEE
:10058000020228BFA0EBC170B0EB817F00BF42EB3D
:10059000020228BFA0EB8170B0EB417F00BF42EBAD
:1005A000020228BFA0EB4170B0EB017F00BF42EB1D
:1005B000020228BFA0EB0170B0EBC16F00BF42EB9D
:1005C000020228BFA0EBC160B0EB816F00BF42EB1D
:1005D000020228BFA0EB8160B0EB416F00BF42EB8D
:1005E000020228BFA0EB4160B0EB016F00BF42EBFD
:1005F000020228BFA0EB0160B0EBC15F00BF42EB7D
:10060000020228BFA0EBC150B0EB815F00BF42EBFC
:10061000020228BFA0EB8150B0EB415F00BF42EB6C
:10062000020228BFA0EB4150B0EB015F00BF42EBDC
:10063000020228BFA0EB0150B0EBC14F00BF42EB5C
:10064000020228BFA0EBC140B0EB814F00BF42EBDC
:10065000020228BFA0EB8140B0EB414F00BF42EB4C
:10066000020228BFA0EB4140B0EB014F00BF42EBBC
:10067000020228BFA0EB0140B0EBC13F00BF42EB3C
:10068000020228BFA0EBC130B0EB813F00BF42EBBC
:10069000020228BFA0EB8130B0EB413F00BF42EB2C
:1006A000020228BFA0EB4130B0EB013F00BF42EB9C
:1006B000020228BFA0EB0130B0EBC12F00BF42EB1C
:1006C000020228BFA0EBC120B0EB812F00BF42EB9C
:1006D000020228BFA0EB8120B0EB412F00BF42EB0C
:1006E000020228BFA0EB4120B0EB012F00BF42EB7C
:1006F000020228BFA0EB0120B0EBC11F00BF42EBFC
:10070000020228BFA0EBC110B0EB811F00BF42EB7B
:10071000020228BFA0EB8110B0EB411F00BF42EBEB
:10072000020228BFA0EB4110B0EB011F00BF42EB5B
:10073000020228BFA0EB0110B0EBC10F00BF42EBDB
:10074000020228BFA0EBC100B0EB810F00BF42EB5B
:10075000020228BFA0EB8100B0EB410F00BF42EBCB
:10076000020228BFA0EB4100B0EB010F00BF42EB3B
:10077000020228BFA0EB0100104670470CBF012009
:1007800000207047B1FA81F2C2F11F0220FA02F094
:10079000704708B14FF0FF3000F012B80029F8D0D0
:1007A0002DE90340FFF7CCFEBDE8064002FB00F355
:1007B000A1EB0301704700BF000000000000000033
:1007C000704700BF000000000000000000000000B3
:1007D00001E040F8042B8842FBD370470000000082
:1007E0007047000000000000000000000000000052
:1007F000FEE7000000000000000000000000000014
:1008000072B61D4B83F30988022383F31488BFF368
:100810006F8F02F085FA194819494FF05532FFF7EA
:10082000D7FF4FF0553217481349FFF7D1FF164A4B
:10083000164B03E052F8041B43F8041B14498B4287
:10084000F8D3144814490022FFF7C2FF134CFFF7F6
:10085000C7FF02E054F8043B9847114B9C42F9D380
:1008600002F076FD0F4C02E054F8043B98470E4B23
:100870009C42F9D3FFF7BCBF000800200000002015
:100880000004002000040020C842000800080020E6
:10089000280900202809002038210020EC00000849
:1008A000EC000008EC000008EC000008000000006C
:1008B000FEE7000000000000000000000000000053
:1008C00072B6FEE70000000000000000000000001B
:1008D00000F056FA00F0DCFB00F03AFA00DF00000E
:1008E00000B5EFF30983203383F3098800F030F873
:1008F0005DF804FB000000000000000000000000A4
:100900000A4B002210B59A60094A0720DA601021CC
:1009100000F0B6F80A204FF4007100F0B1F80B2097
:100920008021BDE8104000F0ABB800BF00ED00E052
:100930000000FA05000000000000000000000000B8
:10094000202383F31188704700000000000000009E
:10095000002383F3118870470000000000000000AE
:1009600000B5FFF7EDFF164B5B6813F4006F22D064
:10097000EFF30982203A82F309884FF08073D36144
:10098000104B996941B11968DB6989689B68994284
:1009900094BF0023012307E01968DB6989689B681D
:1009A000994234BF002301230BB1074B00E0074BF2
:1009B00093615DF804FBFFF7CBFF5DF804FB00BF1C
:1009C00000ED00E05C0E0020D1080008DC08000803
:1009D00010B500F06DF9FFF7B3FF00F0A1F900F0DA
:1009E000AFF800F085F9FFF7B3FF00F041F9BDE87B
:1009F0001040FFF7B5BF000000000000000000003D
:100A00002DE9F04FC1F80CD0D0F80CD0BDE8F08F34
:100A100008B500F09DF9FFF79BFF2846A04700F0BE
:100A20001FFC08BD000000000000000000000000E6
:100A300070B500F00304E400FF25A54011FA04F4AA
:100A40000B4B8208C03253F82260012126EA0505CB
:100A5000254343F82250420900F01F0011FA00F02C
:100A600002F1600143F8210043F8220070BD00BF8D
:100A700000E100E0000000000000000000000000B5
:100A8000820800F0030030B5C000FF24844011FA52
:100A900000F0054B063253F8225025EA04040443C3
:100AA00043F8224030BD00BF00ED00E00000000030
:100AB000024B034ADB699A61FEE700BF5C0E00202F
:100AC00000390008000000000000000000000000E5
:100AD00037B5FFF715FF00F00BFA00F0A9F900F0A9
:100AE0001FFE00F05DFE00F05BF840210D4800F0B5
:100AF000F7FA0D4D0D4B0124E86180F82040C361E9
:100B000000F056F9002383F3118862B60849EA69B8
:100B1000084891610093C0212246074B00F038FB42
:100B20003EBD00BF280900205C0E0020000400200C
:100B30000539000878090020B10A0008000000000B
:100B400010B500F07DF8114B9A69002A01DD013AD9
:100B50009A61DB690E4C5A6A01325A62E3680133CA
:100B6000E3602368A3420FD09A68013A9A6006E0D6
:100B7000D368D160116848600160106998472268A5
:100B8000034891680029F3D010BD00BF5C0E00201F
:100B90004C0E0020000000000000000000000000DB
:100BA000034A4021134643F8081B5360704700BFB7
:100BB0003C0A0020000000000000000000000000CF
:100BC0000B4B0C495A68C96811600B49C9695160DF
:100BD000816A916090F820101173103203F58161E1
:100BE0008A425A6024BF03F108025A60704700BF6E
:100BF0003C0A00204C0E00205C0E0020000000008B
:100C0000014B1860FFF75CBE480E0020000000009A
:100C1000054B1B681BB9054B1B68002B02DC044805
:100C2000FFF7EEBF704700BF380A0020440E0020D7
:100C30001039000800000000000000000000000063
:100C4000054B1B68002B03DB044B1B68002B02DCED
:100C50000348FFF7D5BF7047380A0020440E002034
:100C6000163900080000000000000000000000002D
:100C700010B5FFF765FE084C2368002B02DD074B1B
:100C80001B6813B10648FFF7BBFF2368013B2360D5
:100C9000FFF75EFE10BD00BF380A0020440E0020A2
:100CA0001C390008000000000000000000000000E7
:100CB00010B5FFF745FE084C2368002B02DB074BFD
:100CC0001B6813B10648FFF79BFF236801332360BD
:100CD000FFF73EFE10BD00BF380A0020440E002082
:100CE00021390008000000000000000000000000A2
:100CF000074B10B51B68074C002B02DD2368002B47
:100D000002DC0548FFF77CFF0023236010BD00BF15
:100D1000380A0020440E0020263900080000000098
:100D2000064B10B51B68064C002B01DD236813B180
:100D30000448FFF765FF0123236010BD380A002037
:100D4000440E00202B3900080000000000000000C5
:100D5000064B10B51B68064C13B92368002B02DC48
:100D60000448FFF74DFF0023236010BD380A002020
:100D7000440E002030390008000000000000000090
:100D8000064B10B51B68064C0BB9236813B1054818
:100D9000FFF736FF0123236010BD00BF380A002093
:100DA000440E00203539000800000000000000005B
:100DB000044B1B6813B9044B1B6813B10348FFF7BE
:100DC0001FBF7047380A0020440E00203A3900083F
:100DD00010B50B461B688B4203D09C688268944216
:100DE000F8D25A68036042601060586010BD00007D
:100DF0004B68016043604860186070470000000065
:100E00000346006802681A605360704700000000E3
:100E100042680168116003685A6070470000000072
:100E200003681A680260184670470000000000005E
:100E3000044B4FF0FF329A6001325B601B60DA6056
:100E4000704700BF4C0E00200000000000000000B2
:100E5000F8B504460D4616461F46FFF7F1FE0CB1E5
:100E600006B115B90C48FFF7CBFE0C4A2761E660C6
:100E70001368104601E01B686D1A9968A942FAD3FD
:100E80005A6883422360626014605C60A56002D08F
:100E90009A68551B9D60F8BD503900084C0E002023
:100EA00010B50446FFF7CCFE14B90B48FFF7A8FEB7
:100EB000E36813B90948FFF7A3FE2368084A934281
:100EC00003D09968A2688A189A60626813602368E0
:100ED0005A600023E36010BD5D3900086C390008DA
:100EE0004C0E002000000000000000000000000088
:100EF000044B00229A6014325B601B609A615B6154
:100F00001B6170475C0E0020000000000000000024
:100F100010B590F8203004460BB10E2B02D10948D1
:100F2000FFF76EFE002384F82030A268064B1B6892
:100F300099689142FBD25A682360626014605C60D9
:100F4000204610BD803900085C0E00200000000023
:100F500010B590F820300446032B07D001D8A3B178
:100F60000BE0052B06D00D2B07D103E0836A9A68AE
:100F700001329A602046FFF74BFF4FF0FF332046C7
:100F8000A362BDE81040FFF7C3BF10BD0000000022
:100F900070B5104C0646FFF73BFEE569142385F853
:100FA00020602046A361FFF72BFF012380F820304B
:100FB000E0612846FFF704FEEA69ADF124039A4296
:100FC00002D90548FFF71CFEE0692946BDE87040DC
:100FD000FFF716BD5C0E00209239000800000000EB
:100FE00070B50E4686B00546FFF712FEB6F1FF3F1C
:100FF0000B4C0ED0E36901A831460A4AFFF728FFDF
:101000002846FFF7C5FF049B33B101A8FFF748FF4F
:1010100002E02846FFF7BCFFE369986A06B070BD9E
:101020005C0E0020510F00080000000000000000CE
:1010300070B504460D46FFF7EBFDA562114DA268A1
:10104000E86983689A4204D82046BDE87040FFF7FB
:101050005FBFFFF75DFF1423AB61133B064684F8C7
:101060002030EC61FFF7ACFDF269ADF124039A4248
:1010700002D90548FFF7C4FD20463146BDE870405F
:10108000FFF7BEBC5C0E0020923900080000000093
:1010900070B50F4C14232046E569A361FFF7B0FE3D
:1010A000012380F82030E0612846FFF731FF284611
:1010B000FFF786FDEA69ADF124039A4202D905489B
:1010C000FFF79EFDE0692946BDE87040FFF798BC38
:1010D0005C0E0020923900080000000000000000B3
:1010E000022280F82020023A816080F821204164A9
:1010F00002640121C26342628261094A80F82210BF
:10110000516902614161506100F12C02C26200F13B
:1011100030024263026300F14C020861C261704711
:101120005C0E002000000000000000000000000035
:1011300001E000F8012B8842FBD37047000000005B
:101140002DE9F04104460D4616461F46DDF818808D
:10115000FFF776FD24B1AF2D02D97F2E00D817B945
:101160000848FFF74DFD243D074A631920463146E4
:10117000E3606751C3F804801A62BDE8F041FFF7ED
:10118000AFBF00BFB0390008110A0008000000001E
:101190002DE9F34100F14C0804460D46174641463F
:1011A000FF221E46FFF7C4FF404661195522FFF794
:1011B000BFFFFFF7C5FBFFF7E3FD089B3A4600932F
:1011C000294633462046FFF7BBFF00210446FFF7C0
:1011D0002FFFFFF7BDFDFFF7BBFB2046BDE8FC81FD
:1011E00010B5044610B90848FFF70AFDFFF7A8FB41
:1011F000FFF7C6FD21460620FFF7F2FEFFF7A8FD28
:10120000FFF7A6FB10BD00BFE83900080000000092
:101210000F4B10B5DC69A06203E0FFF701FEFFF79A
:1012200077FEE36A04F12C008342F6D194F8213072
:1012300013F0030F04D1636922691A6122695361B3
:101240000E20FFF7A5FE0348BDE81040FFF7D8BC0D
:101250005C0E0020F73900080000000000000000CC
:1012600010B50446FFF76CFBFFF78AFD2046BDE88A
:101270001040FFF7CDBF000000000000000000009C
:101280002DE9F3410D4617461E4600F099FA044633
:1012900008B300F14C084146FF22FFF749FF4046E2
:1012A00061195522FFF744FFFFF74AFBFFF768FD7E
:1012B000089B3A460093294633462046FFF740FFF5
:1012C000012380F8213000210446FFF7B1FEFFF72B
:1012D0003FFDFFF73DFB2046BDE8FC81000000001C
:1012E00010B5044610B90448FFF78AFC0023646077
:1012F0002460A36010BD00BF403A00080000000059
:10130000264B70B50546DE69FFF782FC15B9244807
:10131000FFF776FCAC6814BB3BE0A36094F8203088
:10132000042B03D0052B0AD083B11CE02046FFF725
:101330006FFDA16AFFF74CFDA36A9C680FE0204691
:10134000FFF766FDA16AFFF743FD0CE0012384F877
:1013500020302046FFF75CFDFFF7DAFD03E0B368BD
:10136000A2689A42D9D330462946FFF731FD0420BE
:10137000B562FFF70DFEAB68B34202D00948FFF734
:101380003FFC336CAB4208D00748BDE87040FFF724
:1013900037BC336CAE60EB60356470BD5C0E002012
:1013A0004E3A00085D3A00086E3A0008000000005E
:1013B00010B50446FFF7C4FAFFF7E2FC2046FFF73A
:1013C0009FFFFFF7C5FCFFF7C3FA10BD0000000048
:1013D0001C4B70B5DD69FFF7B3FAFFF7D1FC2B6C3E
:1013E00013B91948FFF70CFC2B6C9B68AB4202D079
:1013F0001648FFF705FC2C6C2368E668A3422E64B0
:1014000017D06B6C07E03268B24203D09268934207
:1014100038BF1346F668002EF5D1AB602046FFF7C3
:10142000EFFC026CA060E26031460464FFF700FE4E
:1014300001E00023A360FFF78BFCFFF789FA204649
:1014400070BD00BF5C0E0020913A0008A33A00086E
:1014500038B504460D46FFF7F3FB14B90C48FFF707
:10146000CFFBE36B1D4394F82030E563082B03D1D9
:10147000A36A1D4206D138BD092B08D1A36A1D40BD
:101480009D4204D12046FFF743FD0023836238BD0F
:101490000A3B0008000000000000000000000000FF
:1014A00070B505460E46FFF7CBFB15B90748FFF7A9
:1014B000A7FB2C6806E0A168606846EA0101FFF717
:1014C000C7FF2468AC42F6D170BD00BF2B3B0008BB
:1014D00010B503460C4659B1074A1946D0698362D4
:1014E000FFF786FC0D202146BDE81040FFF778BDD0
:1014F0004FF0FF3010BD00BF5C0E00200000000068
:1015000010B58A18002440600060846041618161E8
:10151000C1600261C36110BD000000000000000056
:1015200070B504460D46FFF70BFAFFF729FCE36997
:101530006BB1204698470AE020462946FFF7C8FFCE
:10154000061E04DAFFF704FCFFF702FA11E0A368B5
:10155000002BF1D0013BA360A369226913F8016B52
:101560009342A36124BFE368A361FFF7F1FBFFF798
:10157000EFF9304670BD00000000000000000000E0
:101580002DE9F84304460E461F46C569914612B937
:101590001B48FFF735FBFFF7D3F9FFF7F1FB4FF0DF
:1015A000000865B12046A84709E020463946FFF704
:1015B0008FFF20B1FFF7CCFBFFF7CAF91CE0A3684F
:1015C000002BF2D0013BA360A36913F8012B06F8AE
:1015D00008202269A361934224BFE368A361FFF757
:1015E000B7FBFFF7B5F908F10108C84504D0FFF7CC
:1015F000A7F9FFF7C5FBD4E74046BDE8F88300BF75
:10160000703B000800000000000000000000000027
:1016100041618161C1608918406000608260016140
:10162000C3617047000000000000000000000000DF
:10163000F8B504460D461646FFF782F9FFF7A0FB02
:101640000AE020463146FFF743FF071E04DAFFF7A2
:101650007FFBFFF77DF916E0A368002BF1D0013B7B
:10166000A360636903F8015B22696361934224BF4D
:10167000E3686361E3690BB120469847FFF768FBB5
:10168000FFF766F900273846F8BD000000000000AB
:101690002DE9F84304460D461F46C669904612B927
:1016A0001B48FFF7ADFAFFF74BF9FFF769FB4FF067
:1016B000000909E020463946FFF70AFF20B1FFF78D
:1016C00047FBFFF745F920E0A368002BF2D0013B70
:1016D000A3602A78636903F8012B2269636193424E
:1016E00024BFE36863610EB12046B047FFF730FBCB
:1016F000FFF72EF9B8F1010809F1010905D001350C
:10170000FFF71EF9FFF73CFBDEE74846BDE8F8832C
:10171000843B000800000000000000000000000002
:10172000054A064B22F007021A60054A054B22F0D3
:1017300007021A60704700BF3F210020800E002082
:10174000002800207C0E00200000000000000000A7
:1017500010B50446FFF774FA064B07491868096884
:10176000E21D22F00702091A914226BF82181A6070
:10177000002010BD800E00207C0E00200000000024
:1017800010B50446FFF7DCF8FFF7FAFA2046FFF73A
:10179000DFFF0446FFF7DCFAFFF7DAF8204610BD5A
:1017A0000448054B036000238360C3601030FFF7DB
:1017B00097BD00BF880E00208117000800000000C0
:1017C000F8B51D4C0731002818BF044604F110007D
:1017D00021F0070604F10807FFF7EAFD18E06B683F
:1017E000B34214D306F108029342286801D238604C
:1017F00008E0A918A8506FF00702921BD3184B609D
:1018000039606E6045F8084BFFF7E2FD11E02F46A6
:101810003D68002DE3D1FFF7DBFD25684DB106F1F2
:101820000800A84720B10460466000F1080500E008
:1018300005462846F8BD00BF880E002000000000C5
:1018400038B50D4C0D46002818BF044604F11000B1
:10185000FFF7AEFD002304F108021C4602E05168C8
:1018600001345B181268002AF9D105B12B60FFF72B
:10187000AFFD204638BD00BF880E002000000000EC
:1018800010B500F0FDFD00F003FB064800F0C8FEB7
:1018900000F00EF800F03CF800F0EAFBBDE8104064
:1018A00001F046BA303E00080000000000000000D1
:1018B00000F07EBE000000000000000000000000FC
:1018C00001230370013B43608360C3600361436194
:1018D0001830FFF705BD0000000000000000000008
:1018E00010B590F84230044680F84A3000F058FFB6
:1018F00063681B6813B120460121984703232370B6
:1019000010BD00000000000000000000000000000A
:1019100000F016BF00000000000000000000000002
:1019200001230370013B436083608381C38170475F
:1019300038B50D46044600B111B91148FFF760F9FA
:10194000FEF7FEFFFFF71CFA2378013BDBB2012B09
:1019500002D90C48FFF754F9002323616361A361A6
:10196000E36123626362A362E3622046656000F084
:10197000EFFE02232370FFF7EBF9FEF7E9FF38BD16
:10198000B03B0008BD3B0008000000000000000064
:101990002DE9F04104460E461546FFF751F904B112
:1019A00015B91348FFF72CF92378042B02D01148FE
:1019B000FFF726F9331D54F8233013B10E48FFF713
:1019C0001FF92F6817F0100709D139460C226869F2
:1019D000FEF796FBA86939461022FEF791FB331DEE
:1019E0002046314644F82350BDE8F04100F0E8BEFF
:1019F000E63B0008FB3B0008143C00080000000028
:101A000070B504460E46FFF71BF914B90948FFF7F5
:101A1000F7F8E389012053FA06F515F0010508D11E
:101A2000B04040EA0303E3812046314601F008F864
:101A3000284670BD613C0008000000000000000066
:101A400070B504460E46FFF7FBF814B90948FFF7D6
:101A5000D7F8A389012053FA06F515F0010508D13E
:101A6000B04040EA0303A3812046314600F0F8FF6E
:101A7000284670BD763C0008000000000000000011
:101A8000022203460270023AA0F8482083F84A2056
:101A900080F84B208281C281026142618261C26111
:101AA000026242628262C26283F8302000F0F0BEBD
:101AB000002370B500F14002044680F8303000F099
:101AC00027FF63689B6823B120469847002840F0B1
:101AD000E28094F8403013F0600540F0CB8094F839
:101AE000416003F07F0343EA0626B6F5407F3BD012
:101AF0000FDC022E77D004DC2EB3012E40F0BA802A
:101B00006BE0B6F5807F25D0B6F5817F40F0B280DE
:101B100085E0B6F5C06F39D009DC40F202339E4251
:101B200000F09080B6F5A06F40F0A4802AE0B6F5F2
:101B3000106F41D040F602439E424ED0B6F5006F82
:101B400040F0988032E004F1480363630223A3630A
:101B5000E663A0E094F84230012B40F08B80B4F8AB
:101B6000483023F0020308E094F84230012B40F0A3
:101B70008180B4F8483043F00203A4F8483065632C
:101B8000A5634AE06563A563644B71E06368204622
:101B90005E6894F8431094F84220B4F84430B0479B
:101BA000002867D043686363036803E004F14B03D4
:101BB00063630123A36330E094F8423084F84B3030
:101BC0000BB9033300E00423237063681B68002B08
:101BD0004BD020460221984747E0514B63630223D4
:101BE000A363023B44E094F8441011F0800F01F02D
:101BF0000F0103D0204600F07BFE02E0204600F0FB
:101C000067FE012802D0022834D103E0454BA663C9
:101C1000636302E0444BA0636363E5633BE094F8D5
:101C200042303BBB94F8443013F00F011DD013F049
:101C3000800F03D0204601F05BF816E0204601F04B
:101C40003FF812E094F84230A3B994F8443013F00E
:101C50000F010AD013F0800FC9B203D0204601F063
:101C60001FF802E0204601F00BF800236363A36332
:101C7000E36310E02046002101F012F82046002125
:101C800000F0FEFF63681B6813B1204605219847EA
:101C9000052384F83030B4F84630A26B9A4288BFEE
:101CA000A36394F94030A56B002B18DA5DB10123D2
:101CB00084F8303020460021626B2B4600F0A8FEED
:101CC0002046002126E0022384F8303020462946B1
:101CD0002A462B4600F084FE204629460BE075B1CB
:101CE000032384F8303020460021626B2B4600F03D
:101CF00077FE20460021BDE8704000F0A1BE04231D
:101D000084F83030204629462A462B4600F080FED3
:101D100020462946BDE8704000F0A2BEE118000848
:101D2000A03B0008D03C0008C03C000800000000B8
:101D300090F8303070B5012B044602D0042B2BD123
:101D400025E0836BB0F84620934211D20269128AD3
:101D5000B3FBF2F502FB153555B929462A462B4649
:101D600000F056FE20462946BDE8704000F078BEDF
:101D70000021022384F8303020460A460B4600F04A
:101D80002FFE20460021BDE8704000F059BEC36B15
:101D900003B1984700230DE0002100F081FF2046A9
:101DA000002100F06DFF63681B6813B12046052118
:101DB0009847052384F8303070BD00000000000013
:101DC00090F8303010B5022B04460FD0032B16D1FB
:101DD0000021013380F830300A460B4600F018FE2F
:101DE00020460021BDE8104000F03ABE03699B691F
:101DF000DB6823B9C36B03B1984700230EE020468C
:101E0000002100F04DFF2046002100F039FF6368FB
:101E10001B6813B1204605219847052384F830300C
:101E200010BD0000000000000000000000000000E5
:101E3000014B5B6883607047001000E00000000009
:101E4000084B5A688368D31A074A12689B1AC268FB
:101E50008360934201D9C36070470269934238BFDF
:101E600003617047001000E0A80E00200000000091
:101E7000044B0360044B436000238360C360013B59
:101E800003617047311E0008411E00080000000079
:101E900010B5084C86B0002301A82360FFF7E8FFC7
:101EA00001A8019B9847029B01A89847039B2360C8
:101EB00006B010BDA80E00200000000000000000C9
:101EC000806BD0F1010038BF002070470000000097
:101ED0008069D0F1010038BF002070470000000089
:101EE00038B50446FEF72CFDFEF74AFF0023A5682F
:101EF000A360FEF72DFFFEF72BFD284638BD00003E
:101F00002DE9F0418469D4F8D030D4F840801B68C2
:101F1000E76B9D89A66B15F0020530D1FEF718FF1F
:101F2000FEF716FDD4F8D020C7EB08031068012196
:101F3000E26B9B1B00F034FDFEF702FDFEF720FF75
:101F4000D4F8D03001211868FFF77AFDA368201D6E
:101F500043F00803A3602946FFF7A2FAE36B226C63
:101F60006364D31AA36305E0FEF74AFFFEF7D0FFD0
:101F700000238362236B04F130008342F4D1BDE877
:101F8000F0810000000000000000000000000000E0
:101F900070B54469D4F8D0301B68DB8913F0080FA2
:101FA0002FD1A5696DBBFEF7D3FEFEF7D1FCD4F8A7
:101FB000D03003211868E269402300F0C9FC0646CE
:101FC000FEF7BEFCFEF7DCFED4F8D0300321186823
:101FD000FFF716FDA368201D43F00403A360294604
:101FE000FFF75EFAE369A661A36205E0FEF708FF6A
:101FF000FEF78EFF00238362236904F11000834201
:10200000F4D170BD000000000000000000000000DE
:102010001030FFF7B5BA000000000000000000001B
:1020200010304FF0FF33FFF7ABBA000000000000A4
:102030003030FFF72DBB0000000000000000000062
:1020400030304FF0FF33FFF723BB000000000000EB
:102050001030FFF765BA000000000000000000002B
:102060003030FFF7E5BA000000000000000000007B
:1020700070470000000000000000000000000000A9
:102080000E4A034610B543F8042B43600023044670
:1020900083600133037304F1500110304022084B78
:1020A000FFF72EFA04F1300004F190014022054BB5
:1020B000FFF7AEFA6462A46410BD00BF203D0008C3
:1020C000911F0008011F0008000000000000000030
:1020D00070B50E46044610B91048FEF791FDFEF7A4
:1020E0002FFCFEF74DFE237B013BDBB2012B02D917
:1020F0000B48FEF785FD354655F8043BC4F8D06023
:102100009C6002232373FEF723FEFEF721FC306858
:102110002946BDE87040FFF70BBC00BFE03C00085B
:10212000ED3C00080000000000000000000000007E
:1021300090F8403003F06003202B1AD190F8412032
:10214000212A06D0222AA3F120030DD0202A12D161
:1021500005E00A4B436307238363073B06E0074A16
:1021600042630722826301E043638363C363012008
:102170007047002070471846704700BFF8080020DD
:10218000F8B5846805460E46FEF7DAFBFEF7C8FD93
:10219000E36B276CFF1AA36BFF1A2AD0FEF7A8FD8A
:1021A000FEF7D6FB28463146E26B3B4600F0F8FBD3
:1021B000FEF7C6FBFEF7B4FD31462846FFF740FCAC
:1021C000A368201D43F00803A3600021FFF768F90E
:1021D000E36B226C6364D31AA36305E0FEF710FE81
:1021E000FEF796FE00238362236B04F130008342E6
:1021F000F4D1FEF77DFDFEF7ABFBF8BD000000005B
:102200002DE9F041846805460F46FEF799FBFEF77D
:1022100087FDA66956BBFEF76BFDFEF799FB4023D1
:1022200028463946E26900F093FB8046FEF788FBBA
:10223000FEF776FD39462846FFF7E2FBA368201D2E
:1022400043F00403A3603146FFF72AF9E369C4F8B9
:102250001880A36205E0FEF7D3FDFEF759FE0023C8
:102260008362236904F110008342F4D1FEF740FD3C
:10227000FEF76EFBBDE8F0810000000000000000EA
:102280007047000000000000000000000000000097
:1022900010B5FEF70DFD084B0F2219685A60074A6A
:1022A00013681BB1506801F00F019847FEF7E0FC7E
:1022B000BDE81040FEF754BB00000240AC0E002009
:1022C00010B5FEF7F5FC094BF02219685A60084A70
:1022D000936823B10909D06801F00F019847FEF710
:1022E000C7FCBDE81040FEF73BBB00BF000002404A
:1022F000AC0E002000000000000000000000000004
:1023000010B5FEF7D5FC094B4FF4706219685A609E
:10231000074A136923B1090A506901F00F01984770
:10232000FEF7A6FCBDE81040FEF71ABB0000024015
:10233000AC0E0020000000000000000000000000C3
:1023400010B5FEF7B5FC094B4FF4704219685A609E
:10235000074A936923B1090BD06901F00F0198472F
:10236000FEF786FCBDE81040FEF7FABA0000024016
:10237000AC0E002000000000000000000000000083
:1023800010B5FEF795FC094B4FF4702219685A609E
:10239000074A136A23B1090C506A01F00F019847EC
:1023A000FEF766FCBDE81040FEF7DABA0000024016
:1023B000AC0E002000000000000000000000000043
:1023C00010B5FEF775FC094B4FF4700219685A609E
:1023D000074A936A23B1090DD06A01F00F019847AB
:1023E000FEF746FCBDE81040FEF7BABA0000024016
:1023F000AC0E002000000000000000000000000003
:1024000010B5FEF755FC094B4FF0706219685A6021
:10241000074A136B23B1090E506B01F00F01984767
:10242000FEF726FCBDE81040FEF79ABA0000024015
:10243000AC0E0020000000000000000000000000C2
:10244000094B00221A6013460849C8580021016050
:1024500007480C3381500832542BF5D1054B4FF00F
:10246000FF325A60704700BFE40E0020503D000864
:10247000AC0E002000000240000000000000000040
:10248000204B4FF0FF311A69002219611A61D86898
:10249000D9601D494BF67F30DA60486007208A60BA
:1024A00008601A49C86840F08070C8601849086818
:1024B00040F001000860D96941F08051D961D969C3
:1024C00041F00061D9611349086840F480700860E8
:1024D000196A01F44071B1F5407F03D04FF48031A7
:1024E00019621A621B6A074A13F4004F07D1136A74
:1024F00043F440731362136A43F400431362FFF71B
:102500009FBF00BF0010024010E000E0F0ED00E0CF
:10251000001000E00070004000000000000000001B
:102520001D4B1A6842F001021A601B4B1A6812F028
:10253000020FFAD01A6802F0F9021A6000225A60FB
:10254000154B5A6812F00C0FFAD11A6842F4803217
:102550001A60114B1A6812F4003FFAD05A6842F41C
:1025600088125A601A6842F080721A600A4B1A6820
:1025700012F0007FFAD0094A11215A60084A11600E
:102580005A6842F002025A60034B5B6803F00C0386
:10259000082BF9D1704700BF0010024000645100C1
:1025A00000200240000000000000000000000000C9
:1025B00010B5144C2046FFF783F9134A134BE2621F
:1025C00042F28A522263124AA362916941F4007175
:1025D000916100225A6001329A6008329A600B4B76
:1025E0009A6812F0080FFAD105229A60074B9A6890
:1025F00012F00402FAD19A60054B9A6922F4007233
:102600009A6110BDE80E0020503D000800240140F2
:102610000010024000000000000000000000000068
:10262000144B9A6942F07D029A610268124BDA609B
:1026300082685A6042681A60C268104BDA60426968
:102640005A6002691A6082690D4BDA60026A5A6048
:10265000C2691A60426A0B4BDA60C26A5A60826AC7
:102660001A60026B084BDA60826B5A60426B1A6028
:10267000704700BF0010024000080140000C0140FC
:10268000001001400014014000180140000000004B
:10269000032AF0B501D1016102E0042A08BF4161BB
:1026A000124B08269F5C00231C461A461D46120149
:1026B0002D011B01240111F0800F0CBF42F00F020D
:1026C0003B4311F4004F0CBF45F00F053C43013E66
:1026D00001D04900EBE741680D4045EA040444603D
:1026E00001680A4042EA03030360F0BDB03D000800
:1026F000402303607047000000000000000000005D
:1027000010B504680919B1F5007F016002D90248CB
:10271000FEF776FA204610BDE03D000800000000FC
:1027200010B5FEF7C5FAFEF7A3FABDE81040FEF7B4
:1027300017B90000000000000000000000000000C9
:102740000148FFF7EDB800BF1C0F0020000000009B
:10275000037870B5012B044618D10D4A904210D170
:102760000C4A0D4DD169132041F40001D1612B6455
:102770006021FEF75DF91420E021FEF759F90023EE
:102780002B642046BDE87040FFF77AB970BD00BFEA
:102790001C0F002000100240005C00400000000000
:1027A00090F84A20024B42F08002DA64704700BF82
:1027B000005C00400000000000000000000000007D
:1027C0000B1D70B550F82340226802F00303013B53
:1027D000022B96BF2C4D4FF4007335F81330A568CB
:1027E0000DB143F02003E56865B112F0100F07D07A
:1027F00001228A40C58943F440532A43C28101E043
:1028000043F4005343EA0105204A25F4F04525F03E
:10281000700542F8215047F6700552F8216003EA2E
:102820000505638A75403E2B42F8215003F1FF33C2
:1028300008D943F01F0301335B116FEAC3636FEAEA
:10284000534307E043F00103013303EBD3735B020F
:1028500003F47C430D4A00F14C06156D002205F18E
:10286000005505F5405505EBC1056D00AA80218A8C
:10287000AB813046FFF744FF618A28603046FFF79E
:102880003FFFA86070BD00BFD03D0008005C004065
:102890000D4B70B5802200251D655D64DA644268C9
:1028A0000446D2684C30AA4214BF4FF41E424FF483
:1028B0001C421A64FFF71CFF044B20462946236183
:1028C000BDE87040FFF77CBF005C0040103E000890
:1028D000054B53F8210010F4405004D0B0F5805F50
:1028E0000CBF012002207047005C00400000000087
:1028F000054B53F8213003F03003102B9ABF034AE5
:10290000D05C0220704700BF005C0040F03D000832
:102910000B4B1B6D03F1005303F5405303EBC10355
:102920005B009B6803F1005303F5405359000023FB
:10293000585A0433102B22F8020BF9D1704700BF0C
:10294000005C0040000000000000000000000000EB
:10295000104810B5006D00F1005000F5405000EB3C
:10296000C10040008468808904F100548005800D16
:10297000834228BF034604F54054013364005B08DA
:1029800004E054F8041B013B22F8021B002BF8D191
:1029900010BD00BF005C004000000000000000000F
:1029A0000D4810B5006D00F1005000F5405000EBEF
:1029B000C10040000468838004F1005404F54054D1
:1029C000013364005B0804E032F8021B013B44F869
:1029D000041B002BF8D110BD005C0040000000007B
:1029E000043150F8210081694A6000228B60CA607E
:1029F00013B901230B807047428A501EC318B3FBE2
:102A0000F2F20A80704700000000000000000000A1
:102A100070B50C1D50F8245000266C69636022606C
:102A2000A6602C8AA34228BF2346BDE87040FFF76A
:102A3000B7BF000000000000000000000000000020
:102A4000054A52F8213023F4904323F0700383F4B5
:102A5000405342F821307047005C00400000000005
:102A6000054A52F8213023F4F04323F0400383F069
:102A7000300342F821307047005C00400000000045
:102A80002DE9F047FEF714F97B4B5C6C14F4806F72
:102A90000DD07A4D2846FEF7F3FF6B681B6813B123
:102AA000284600219847744B6FF480625A6414F4EE
:102AB000006F0DD0704D71482B6C43F008032B64F0
:102AC00043681B680BB1032198476FF400636B6484
:102AD00014F4805F12D0684B9A6C12F4004F09D145
:102AE0001A6C664822F008021A6443681B680BB12E
:102AF00004219847604B6FF480525A6414F4007FAD
:102B000000F0AF805D484368DB6803B198475A4BDB
:102B10006FF400725A64A4E0574B04F00F0453F8AA
:102B20002480564E221D18F0800F56F822503AD0BD
:102B300053F8242022F4F04222F0F00243F824203B
:102B40002A6812F0100F24D11B6D696903F100533C
:102B500003F5405303EBC4035B009B8888689BB27A
:102B6000C0180A6888604868D218C31A0A604B60A7
:102B70007BB1B5F810E05FFA84F9304649467345F9
:102B800028BF7346FFF70CFF30464946FFF768FF42
:102B900009E00123A340B289304622EA0303B3814E
:102BA0002146AB68984718F4004F58D0324F18F4BC
:102BB000006F57F8243023F4784323F0700347F86C
:102BC000243004D0231D56F823305B680DE02B68B9
:102BD00013F0100F0CD00123A340F28922EA030363
:102BE000F381231D56F82330DB682448214635E065
:102BF000AB69224E5FFA84F85A6841469B683046BA
:102C0000FFF7A6FE414681463046FFF719FFAB6944
:102C10005A684A445A60DA684A44DA609A68C9EBEA
:102C200002029A601A88013A92B21A8052B157F899
:102C3000243023F4904323F0700383F4405347F887
:102C400024300CE00123A340F289043422EA030378
:102C5000F38156F824303046DB6841469847064BEE
:102C60005C6C14F4004F7FF457AFFEF701F8BDE839
:102C7000F047FDF775BE00BF005C00401C0F002050
:102C8000054A52F8213023F4904323F0700383F473
:102C9000805342F821307047005C00400000000083
:102CA000054A52F8213023F4F04323F0400383F027
:102CB000100342F821307047005C00400000000023
:102CC000094B53F8212002F44052B2F5405F09D07D
:102CD00053F8212022F4F04222F0400282F4005204
:102CE00043F82120704700BF005C00400000000056
:102CF000084B53F8212002F03002302A09D053F853
:102D0000212022F4F04222F0400282F0200243F817
:102D100021207047005C004000000000000000001F
:102D2000FFF7FEBB000000000000000000000000F4
:102D300070470000000000000000000000000000DC
:102D40000A46014900F004BA703E00080000000085
:102D5000002902DD0349FFF7F3BF034B0349DA689B
:102D600000F0F6B97C3E00084C0E0020843E0008BE
:102D7000002913B5044605DD184902B0BDE810402E
:102D8000FFF7DEBF1649174A00F0E2F92046164960
:102D9000164A00F0DDF920461549164A00F0D8F928
:102DA00020461549154A00F0D3F920461449154A22
:102DB00000F0CEF920461449144A00F0C9F9204623
:102DC0001349144A00F0C4F9134B204600931349E9
:102DD000134A144B00F0BCF902B010BD8A3E000843
:102DE0008F3E0008A23E0008A83E0008BB3E000837
:102DF000C53E0008D83E0008E03E0008F33E00084B
:102E0000FD3E0008103F0008253F0008383F00083D
:102E1000603F0008733F0008AC3F0008853F000892
:102E20009C3F0008A83F00080000000000000000D0
:102E300038B505460C4604E02846044900F088F9F8
:102E400008342268002AF7D138BD00BFB53F00081A
:102E50002DE9F04104460D46174698460DE03946E7
:102E6000FDF7AEF9064638B9284664684146069A29
:102E7000A0473046BDE8F081083420680028EED134
:102E80000130BDE8F08100000000000000000000FB
:102E900038B50D4600B108602C6894B120460A4947
:102EA000FDF76EFA241820462021FDF7B1F92860BD
:102EB00018B1002300F8013B28602378002B08BFDD
:102EC0000024204638BD00BFE037000800000000A5
:102ED000014B1B60704700BF7C0F0020000000000A
:102EE00007B5034B00900020FEF7CAF90EBD00BFE6
:102EF000B12F0008000000000000000000000000EA
:102F00002DE9F84304460F4691460D4623682046B6
:102F10005B694FF0FF31984706B2002E80463FDBD9
:102F2000042E06D12046204900F012F90120BDE808
:102F3000F883082E18D1BD42E8D0236831461B69BA
:102F40004FF0FF3220469847236820211B694FF03D
:102F5000FF3220469847236820461B6931464FF0D0
:102F6000FF329847013DD1E70D2E07D120460F498A
:102F700000F0EEF800202870BDE8F8831F2EC5DDB4
:102F800009F1FF33FB189D42C0D2236820461B691C
:102F90005FFA88F14FF0FF32984705F8018BB5E7EB
:102FA0000120BDE8F88300BFB93F00081E400008BB
:102FB0002DE9F041474B0468DB69474A4749D0F89F
:102FC000048098B09A61204600F0C2F82046444937
:102FD00000F0BEF8204602A94022FFF791FF054607
:102FE00020B120463F4900F0B3F864E002A817A9D9
:102FF000FFF74EFF11AF06460AE0042D05D120462B
:10300000394900F0A5F8002608E047F8040F01351B
:10301000002017A9FFF73CFF0028EED118AA02EB09
:103020008503002243F8182C002ECFD030462F49BC
:10303000FDF7C6F820B9002D3DD020462B4907E00A
:1030400030462B49FDF7BCF8B8B925B128492046D0
:10305000FFF776FEBAE72046264900F079F82046C9
:103060002549FFF7E5FEB8F1000F03D020464146A1
:10307000FFF7DEFE20462149A6E712AF1E48214693
:1030800032462B460097FFF7E3FE00289ED0B8F1AA
:10309000000F08D04046214632462B460097FFF7E6
:1030A000D7FE002892D020461549324600F050F84D
:1030B0002046144988E7FDF743FCFDF761FE002137
:1030C0001148FEF7EDF90020FEF7A2F8002018B035
:1030D000BDE8F0815C0E0020BC3F0008C23F000844
:1030E000D73F0008DC3F0008E53F0008FA3F000832
:1030F000FF3F000804400008000900201E400008AF
:10310000194000081C4000087C0F0020000000004F
:10311000F0B500F10B0700F10A06B1FBF2F302FB78
:10312000131101F13005392DC8BF01F137053446BF
:1031300035701946013E002BEFD13A1BE15CC154BA
:1031400001339342FAD1C018F0BD00000000000026
:103150000EB42DE9F04785B00DAB53F8044B06468D
:1031600003932178002900F0E9800134252906D055
:10317000336830461B694FF0FF329847F1E72378F8
:103180002D2B03D101344FF0010A01E04FF0000A6A
:1031900023782E2B03D101344FF0300801E04FF09B
:1031A000200803992246002712F8013BA3F13000C2
:1031B000C0B20928144603D92A2B05D10878043156
:1031C0000A2303FB0707EFE72E2B039114D11546C3
:1031D00000222C4614F8013BA3F13000C0B20928AC
:1031E000254605D92A2B01D0039106E00878043141
:1031F0000A2303FB0202ECE700226C2B01D04C2BCC
:1032000003D1217809B101340B46632B18D009D8BA
:103210004F2B44D002D8442B4DD130E0552B40D019
:10322000582B0AE0732B15D004D8642B27D06F2BB2
:1032300041D134E0752B34D0782B3CD1102231E0D1
:10324000039B04AD1A1D1B68039205F8103D4FF057
:10325000200833E0039B191D1D683B4B0391002D93
:1032600008BF1D4647F6FF73002A08BF1A462B46C3
:1032700019781846013321B3013AF9D521E0039BAF
:103280001A1D03921968002906DA2D238DF80030E3
:1032900049420DF1010000E068460A2207E00822D9
:1032A00000E00A22039B6846191D03911968FFF785
:1032B0002FFF6D4607E004AD05F8103D0DF101004C
:1032C00001E04FF02008C5EB0009C9EB070727EA2A
:1032D000E777BAF1000F22D17F4207B329782D2971
:1032E0000BD1B8F1300F08D1336830461B694FF06D
:1032F000FF329847013509F1FF39336830461B69C1
:1033000041464FF0FF3298470137F6D107E0336866
:1033100030461B6915F8011B4FF0FF329847B9F191
:103320000109F4D507E0336830461B6941464FF088
:10333000FF329847013F002FF5D112E705B0BDE8F5
:10334000F04703B0704700BF3040000800000000A5
:1033500008B5FEF795FAFDF7BBFB00F061F900F048
:1033600067F84FF4FA70FDF73BFFFAE70000000042
:1033700002290CD0032904D00748012918BF0020D6
:103380007047032A05D8054800EBC200704704487F
:1033900070470020704700BFA0420008604200084C
:1033A0006040000800000000000000000000000075
:1033B000002913B5044603DD0649FFF7C9FE08E0FE
:1033C00001A90020FEF73CFA034902462046FFF718
:1033D000BFFE1CBD904000089C400008000000009B
:1033E000022938B504460D4616D1FDF7A9FAFDF7B6
:1033F00097FC20460121094AFEF7CAFA20462946D1
:10340000074AFEF7C5FA20460321064AFEF7C0FA2E
:10341000FDF76EFCFDF79CFA38BD00BF4040000888
:10342000704000085041000800000000000000004B
:1034300010B50B4C2046FEF723FE20460949FEF747
:1034400047FE094B4FF400625A61FFF741FD074800
:103450004FF40B614022FFF743FD054B186010BD90
:10346000800F0020804200080010014070410008D9
:1034700054100020000000000000000000000000C8
:10348000064B4FF4006208B11A6100E05A6103482C
:103490004FF400610622FFF7FBB800BF000C0140AB
:1034A000002908DD13681B78302B01D0012000E0D3
:1034B0000020FFF7E5BF704700000000000000009B
:1034C000064B4FF4806208B11A6100E05A6103486C
:1034D0004FF480610622FFF7DBB800BF000C01400B
:1034E0001C4B1D4ADB6970B59A611C4B1C4D1B6857
:1034F0002B600020FFF7E4FF1A4C2B68236003E0E9
:103500004FF47A70FDF76CFE23685A1E002B226080
:10351000F6DC154E012033682B60FFF7D1FF13480E
:10352000FDF746FF33680F4A114E136033600BE01E
:103530004FF47A70FDF754FE0C48FDF739FF23680D
:103540000B4A013B23601360FDF742FF3368002BF9
:10355000EEDCCEE75C0E0020B04200081809002027
:1035600020210020082100201C0900200C2100201F
:103570001C210020000000000000000000000000EE
:1035800010B50748FDF714FF064B1A68064B1A6082
:10359000064B1A68064B1A60BDE81040FDF718BFCD
:1035A0000C2100201C0900200821002018090020FF
:1035B00020210020000000000000000000000000AA
:1035C000FFF7DEBF00000000000000000000000068
:1035D00070B50D1E144619DD0D48FDF7E9FE206893
:1035E000FCF786FD0B4B012D18600BD06068FCF7D3
:1035F0007FFD094B022D186004D0A068FCF778FD10
:10360000064B1860BDE87040FDF7E2BE70BD00BF1C
:103610000C21002018090020200900201C0900208E
:1036200007B50848FDF75CFE0020FFF749FF0023BF
:10363000009341F2B0014022034B0448FDF7A8FD7E
:103640000EBD00BF0C210020E134000858100020FE
:1036500010B50548FDF7ACFE044B1A68044B1A6020
:10366000BDE81040FDF7B4BE24210020240900204D
:1036700034210020000000000000000000000000D5
:1036800070B514461E460D46164B022208B11A614B
:1036900000E05A61062213480221FEF7F9FF114BA0
:1036A00001220DB11A6100E05A6106220D48012184
:1036B000FEF7EEFF0C4B80220CB11A6100E05A615C
:1036C000062209488021FEF7E3FF074B40220EB196
:1036D0001A6100E05A61044840210622BDE87040AA
:1036E000FEF7D6BF000C01400008014000000000BA
:1036F00070B504460E480D46FDF75AFE0D4B1D6091
:10370000FDF766FE0C4B4FF400720CB11A6100E03D
:103710005A610020014602460346FFF7B1FF064802
:103720004FF400710622BDE87040FEF7B1BF00BF44
:103730002421002024090020000C0140000000008A
:10374000002970B518DD13681D78303D18BF0125BC
:10375000012904D05068FCF7CBFC044606E007487A
:10376000FDF726FE064B1C68FDF732FE2846214673
:10377000BDE87040FFF7BCBF70BD00BF2421002032
:1037800024090020000000000000000000000000EC
:10379000FFF75EBF00000000000000000000000016
:1037A000002910B519DD14682046FCF7B9FD03287F
:1037B00013D9207861783038A278E37818BF0120D7
:1037C000303918BF0121303A18BF0122303B18BFF1
:1037D0000123BDE81040FFF753BF10BD00000000FB
:1037E0002000390000000000000000000000000080
:1037F00000202020202020202020282828282820C1
:1038000020202020202020202020202020202020B8
:103810002088101010101010101010101010101020
:103820001004040404040404040404101010101010
:1038300010104141414141410101010101010101DA
:10384000010101010101010101010101101010102C
:1038500010104242424242420202020202020202AC
:103860000202020202020202020202021010101000
:103870002000000000000000000000000000000028
:103880000000000000000000000000000000000038
:103890000000000000000000000000000000000028
:1038A0000000000000000000000000000000000018
:1038B0000000000000000000000000000000000008
:1038C00000000000000000000000000000000000F8
:1038D00000000000000000000000000000000000E8
:1038E00000000000000000000000000000000000D8
:1038F00000000000000000000000000000000000C8
:1039000069646C65006D61696E0000000000000074
:103910005356233131005356233130005356233947
:10392000005356233800535623370053562336008E
:103930005356233500535623340053562333005334
:1039400056233200535623310000000000000000CF
:1039500022636856545365744922282900226368FB
:103960005654526573657449222829006368565479
:1039700052657365744928292C202331000000000A
:10398000636853636852656164794928292C202350
:103990003100737461636B206F766572666C6F774C
:1039A0000000000000000000000000000000000017
:1039B00022636854686443726561746549222829EA
:1039C000002263685468645365745072696F726949
:1039D0007479222829006368546864526573756D90
:1039E0006528292C20233100226368546864536CB5
:1039F0006565702228290063685468644578697495
:103A00005328292C202331002263685468645761AD
:103A100069742228290063685468645761697428AE
:103A2000292C202331006368546864576169742825
:103A3000292C2023320000000000000000000000BC
:103A40002263684D7478496E6974222829002263C4
:103A5000684D74784C6F636B532228290063684D5E
:103A600074784C6F636B5328292C202331006368D2
:103A70004D74784C6F636B5328292C20233200221D
:103A800063684D74785472794C6F636B53222829A4
:103A90000063684D7478556E6C6F636B28292C2019
:103AA00023310063684D7478556E6C6F636B282901
:103AB0002C2023320063684D7478556E6C6F636BF5
:103AC0005328292C2023310063684D7478556E6C7F
:103AD0006F636B5328292C20233200000000000064
:103AE00022636845767452656769737465724D61C7
:103AF000736B22282900226368457674556E7265BF
:103B00006769737465722228290022636845767498
:103B10005369676E616C49222829002263684576E3
:103B2000745369676E616C222829002263684576A8
:103B30007442726F6164636173744D61736B492287
:103B40002829002263684576744469737061746340
:103B5000682228290063684576744469737061742B
:103B6000636828292C202331000000000000000099
:103B700022636849515265616454696D656F75745B
:103B8000222829002263684F51577269746554696D
:103B90006D656F7574222829000000000000000088
:103BA0000000000000000000000000000000000015
:103BB00022757362537461727422282900757362CE
:103BC000537461727428292C20233100227573628A
:103BD00053746F702228290075736253746F7028B4
:103BE000292C2023310022757362496E6974456E59
:103BF00064706F696E744922282900757362456E7E
:103C000061626C65456E64706F696E744928292C19
:103C100020233100757362456E61626C65456E6488
:103C2000706F696E744928292C2023320022757325
:103C30006244697361626C65456E64706F696E742D
:103C400073492228290075736244697361626C6547
:103C5000456E64706F696E74734928292C20233176
:103C6000002275736253746172745265636569767C
:103C70006549222829002275736253746172745455
:103C800072616E736D69744922282900227573620E
:103C90005374616C6C5265636569766549222829A5
:103CA00000227573625374616C6C5472616E736D33
:103CB000697449222829000000000000000000006B
:103CC00000000000000000000000000000000000F4
:103CD00001000000000000000000000000000000E3
:103CE0002273647553746172742228290073647599
:103CF000537461727428292C202331002273645379
:103D0000746F702228290073647553746F702829AA
:103D10002C20233100000000000000000000000003
:103D20004120000821200008C11E0008D11E000803
:103D300061200008512000083120000811200008EF
:103D4000E11E00080000000000000000000000006C
:103D5000080002400400024000000B001C0002406A
:103D60000400024004010C00300002400400024044
:103D700008020D0044000240040002400C030E0043
:103D8000580002400400024010040F006C00024082
:103D900004000240140510008000024004000240AC
:103DA00018061100000000000000000000000000E4
:103DB000040204080800030708080808080808089F
:103DC0000B0F0000000000000000000000000000D9
:103DD00000040000000600000000000000000000D9
:103DE000706D5F616C6C6F6328292C20233100009B
:103DF00000020202020202020202020202020202A5
:103E000001000000000000000000000000000000B1
:103E100000000000B11A0008311D0008C11D000893
:103E2000400040006C0F00206C0F002000000000DC
:103E3000FFFFFFFF844B888888888888FFFFFFFF8B
:103E4000888888888888B8B4FFFFFFFF8888844402
:103E500088338388FFFFFFFF4488888888888888A4
:103E6000FFFFFFFF88888888888888880000000016
:103E700055736167653A2025730D0A007379737471
:103E8000696D6500256C750D0A00696E666F004BE3
:103E900065726E656C3A2020202020202025730D4D
:103EA0000A00322E342E3200436F6D70696C6572D9
:103EB0003A202020202025730D0A00474343203458
:103EC0002E352E32004172636869746563747572B1
:103ED000653A2025730D0A0041524D76372D4D006D
:103EE000436F72652056617269616E743A20257362
:103EF0000D0A00436F727465782D4D3300506F7258
:103F00007420496E666F3A2020202025730D0A0028
:103F1000416476616E636564206B65726E656C20CA
:103F20006D6F646500506C6174666F726D3A20202D
:103F300020202025730D0A0053544D333246312082
:103F4000506572666F726D616E6365204C696E6557
:103F5000204D656469756D2044656E7369747900E0
:103F6000426F6172643A2020202020202020257397
:103F70000D0A004F6C696D65782053544D33322D16
:103F800050313033004275696C642074696D653A54
:103F90002020202573257325730D0A004F6374209C
:103FA0002033203230313200202D200032333A329B
:103FB000303A353000257320005E44007368656C2C
:103FC0006C000D0A43686962694F532F52542053A5
:103FD00068656C6C0D0A0063683E20000D0A6C6F0A
:103FE000676F757400746F6F206D616E79206172F8
:103FF00067756D656E74730D0A0065786974006885
:10400000656C7000436F6D6D616E64733A20686516
:104010006C7020657869742000257300203F0D0ABC
:104020000000000000000000000000000000000090
:10403000286E756C6C290000000000000000000074
:1040400012000000000000008121000800000000B4
:104050004000000000000000000000000000000020
:104060004300000080410008000000000000000044
:104070001300000000000000812200080000000082
:104080001000000000000000000000000000000020
:1040900055736167653A206D656D0A0068656170EA
:1040A00020667261676D656E74732020203A20254A
:1040B000750A006D656D00707772727374007077A9
:1040C00072636667006C6564006D6F746F6366672A
:1040D000006D6F746F727374006D6F746F736574BD
:1040E00000000000000000000000000000000000D0
:1040F000B3400008B1330008B7400008C1350008DC
:10410000BE400008D1350008C5400008A1340008B1
:10411000C940000841370008D14000089137000825
:10412000D9400008A137000800000000000000008E
:1041300012011001020000408304405700020102F6
:10414000030100000000000000000000000000006B
:104150001200000000000000000000000122000822
:10416000000040000000000000000000000000000F
:10417000800F0020F0400008000000000000000058
:1041800009024300020100C03209040000010202DA
:10419000010005240010010524010001042402028D
:1041A0000524060001070582030800FF0904010039
:1041B000020A000000070503024000000705810213
:1041C00040000000000000000000000000000000AF
:1041D00004030904000000000000000000000000CB
:1041E0002603530054004D006900630072006F0005
:1041F00065006C0065006300740072006F006E0063
:10420000690063007300000000000000000000006F
:104210003803430068006900620069004F005300E2
:104220002F005200540020005600690072007400F4
:10423000750061006C00200043004F004D0020001D
:1042400050006F00720074000000000000000000C9
:1042500008033200340032000000000000000000BB
:1042600004000000D041000826000000E0410008E2
:10427000380000001042000808000000504200080A
:104280001C0F0020E13300087133000831210008C1
:10429000000000000000000000000000000000001E
:1042A0001200000030410008000000000000000083
:1042B00070777200000000000000000000000000A5
:0442C00043000000B7
:1042C800F037000808080020000000000000000087
:1042D80000000000000000000000000000000000D6
:1042E8000000000000000000C042000800000000BC
:1042F80000000000000000000000000000000000B6
:1043080000000000000000000000000000000000A5
:104318000000000000000000000000000000000095
:104328000000000000000000000000000000000085
:104338000000000000000000000000000000000075
:104348000000000000000000000000000000000065
:104358000000000000000000000000000000000055
:104368000000000000000000000000000000000045
:104378000000000000000000000000000000000035
:104388000000000000000000000000000000000025
:104398000000000000000000000000000000000015
:1043A8000000000000000000000000000000000005
:1043B8000000000000000000009600000000080057
:1043C8008A3E0008712D00087C3E0008512D000827
:1043D8000000000000000000201C00001E0000007B
:0843E800201C0000030000008E
:04000005080000F0FF
:00000001FF
