:020000040800F2
:1000000000040020B10200088104000881040008F7
:1000100081040008810400088104000881040008AC
:10002000810400088104000881040008B10400086C
:10003000810400088104000881040008B10500085B
:10004000810400088104000881040008810400087C
:10005000810400088104000881040008810400086C
:1000600081040008810400088104000801240008BC
:100070003124000861240008A1240008E1240008BC
:10008000212500086125000881040008112E0008C0
:10009000713100088104000881040008810400080F
:1000A000810400088104000881040008810400081C
:1000B000412A000881040008810400088104000826
:1000C00081040008810400088104000881040008FC
:1000D00081040008810400088104000881040008EC
:0C00E0008104000881040008810400086D
:1000F00040F60003C2F2000370B41D6810F8013B23
:10010000EC181A46647804F00304012C11F8014B32
:1001100008BF03F120022E192346767806F0030665
:10012000012E08BF04F12003D21A01D1002BE5D122
:10013000104670BC704700BF0000000000000000C7
:10014000C9B2F0B4002950D010F0030F10D00378DA
:10015000002B79D0994246D0431C05E013F8012BBF
:10016000002A3FD091423ED013F0030F1846F5D13C
:10017000036841EA01270646A3F1013247EA07472F
:1001800022EA030212F0803F1DD187EA0303A3F1A4
:10019000013222EA030313F0803F14D1043002E05D
:1001A00012F0803F0FD1064650F8043BA3F1013511
:1001B00087EA030225EA0303A2F1013413F0803F2A
:1001C00024EA0202ECD033783046002B3CD099422E
:1001D00009D0731C01E0914205D0184613F8012B99
:1001E000002AF8D11046F0BC704710F0030F0CD075
:1001F0000378002BF7D0431C03E013F8012B002AEF
:10020000F1D013F0030F1846F7D102680346A2F1AC
:10021000013121EA020212F0803F0AD10430034684
:1002200050F8042BA2F1013121EA020212F0803FC2
:10023000F5D01A781846002AD5D00133184613F89D
:10024000012B002AFAD1CEE71846CCE700000000C7
:10025000F0B40646047874B10F780546064657B1E7
:10026000BC4218BF0A4602D108E09C4206D012F8F0
:10027000013F002BF9D1301AF0BC70476C786E1C2E
:10028000002CF8D03546EBE700000000000000002D
:10029000704700BFAFF30080AFF30080AFF3008082
:1002A000FEE700BFAFF30080AFF30080AFF3008044
:1002B00072B6634C84F30988022383F31488BFF376
:1002C0006F8F03F01DF95F4A5F48824217D21346D1
:1002D0004FF05531D64343F8041B85198342C5F3CB
:1002E00080050CD225B1196002F10803834206D2C1
:1002F0001A4642F8041B5960131D8342F8D3534A2F
:10030000A24217D213464FF05531D54343F8041B90
:100310006019A342C0F380000CD220B1196002F131
:100320000803A34206D21E4646F8041B5960331D3B
:10033000A342F8D34649474CA14222D246480B4635
:10034000024652F8046BCD4343F8046B04EB050CF2
:10035000A342CCF3800514D23DB1166800F1080227
:100360001E6001F10803A3420BD2104650F8045B53
:10037000194641F8045B5668021D5E600B1DA342DE
:10038000F3D3364A3648824216D200211346D6436A
:1003900043F8041B84198342C4F380040CD224B1B3
:1003A000196002F10803834206D21A4642F8041B80
:1003B0005960131D8342F8D32A4D2B4EFFF768FF77
:1003C000B54219D22C4654F8043BE94377189847B4
:1003D000B442C7F380070FD22FB1236805F1080498
:1003E0009847B44208D2254655F8042B90476068D8
:1003F0002C1D8047B442F6D31C4D1D4E03F0D8FC93
:10040000B5421AD22C46EF4354F8043B06EB070ED4
:10041000CEF380079847B4420FD22FB1226805F17E
:1004200008049047B44208D2254655F8040B80478B
:1004300061682C1D8847B442F6D3FFF731BF00BF77
:10044000000800200000002000040020000400201C
:100450000008002068080020A0500008680800205C
:10046000D40F0020EC000008EC000008EC000008AD
:10047000EC000008AFF30080AFF30080AFF3008022
:10048000FEE700BFAFF30080AFF30080AFF3008062
:1004900072B6FEE7AFF30080AFF30080AFF30080E9
:1004A00000F086F900F024FC00F0A2F900DF00BFA4
:1004B00000B5EFF30983203383F3098800F030F8A7
:1004C0005DF804FBAFF30080AFF30080AFF3008072
:1004D0000A4B002210B59A60094A07201021DA6001
:1004E00000F0BEF80A204FF4007100F0B9F80B20BC
:1004F0008021BDE8104000F0B3B800BF00ED00E07F
:100500000000FA05AFF30080AFF30080AFF3008086
:10051000202383F311887047AFF30080AFF300808E
:10052000002383F311887047AFF30080AFF300809E
:1005300000B5FFF7EDFF1748436813F4006F17D0BD
:10054000EFF30983203B83F30988134A4FF080704F
:100550009169D86181B11068D269816892689142CD
:1005600094BF002201228AB10C4999615DF804FB15
:10057000FFF7D6FF5DF804FB1068D26981689268C6
:10058000914234BF00220122002AEDD1044A9A612F
:100590005DF804FB00ED00E09C0D0020A1040008C4
:1005A000AC040008AFF30080AFF30080AFF300802D
:1005B00010B500F07DF9FFF7ABFF00F039F900F05E
:1005C000AFF800F055F9FFF7ABFF00F091F9BDE887
:1005D0001040FFF7ADBF00BFAFF30080AFF3008066
:1005E0002DE9F04FC1F80CD0D0F80CD0BDE8F08F59
:1005F00008B500F0FDF8FFF793FF2846A04700F08C
:10060000AFFC08BDAFF30080AFF30080AFF3008014
:10061000F0B400F00307FE00FF2313FA06F200F027
:100620001F04B1400125A5408608094CC03654F886
:100630002670400927EA020242EA010300F160073E
:1006400044F8263044F8275044F82050F0BC704756
:1006500000E100E0AFF30080AFF30080AFF3008073
:1006600000F0030210B4FF23D40013FA04F2A140F7
:100670008008064C063054F8203023EA020242EA91
:10068000010344F8203010BC704700BF00ED00E0CB
:100690000248034AC3699A61FEE700BF9C0D00202F
:1006A000F0420008AFF30080AFF30080AFF30080AA
:1006B00030B583B0FFF70CFF00F04AFA00F0E0F924
:1006C00000F006FF00F044FF00F062F940210E4800
:1006D00000F036FB0D4D0E490124E86180F8204002
:1006E000C16100F04DF8002383F3118862B6EA6916
:1006F0001D46084BC021936107482246074B0095D1
:1007000000F0AEFB03B030BD680800209C0D002057
:1007100000040020F8420008B808002091060008F4
:1007200070B500F005F9114B9A69002A01DD013A14
:100730009A61DA690E4C516A2368481C5062E1687C
:10074000481CA342E0600FD09D68013D9D605DB9EB
:1007500026461968DA681869DD604E6021609047A6
:10076000236898680028F4D070BD00BF9C0D00205D
:100770008C0D0020AFF30080AFF30080AFF300805A
:100780000548036813B9054A116821B10448054BAF
:100790001860FFF77DBE704778090020840D0020A7
:1007A00010430008880D0020AFF30080AFF30080F5
:1007B000084810B5036853B9074C216821B1074AAE
:1007C000074B1A60FFF764FE0120206010BD024C49
:1007D000F5E700BF78090020840D002018430008C9
:1007E000880D0020AFF30080AFF30080AFF30080EE
:1007F000094810B5036833B9084C2168002903DDA6
:100800000020206010BD054C054A064B1A60FFF71A
:100810003FFE0020206010BD78090020840D0020DC
:1008200020430008880D0020AFF30080AFF3008064
:10083000084810B50368002B0ADD074C216821B178
:10084000064A074B1A60FFF723FE0120206010BD07
:10085000014CF5E778090020840D002028430008AA
:10086000880D0020AFF30080AFF30080AFF300806D
:100870000A4810B50368002B06DD094C21680029E1
:1008800003DD0020206010BD054C064A064B1A60AF
:10089000FFF7FEFD0020206010BD00BF780900209A
:1008A000840D002030430008880D0020AFF3008045
:1008B00010B5FFF72DFE094C2368002B02DB08481A
:1008C00002682AB1074B08491960FFF7E1FD236868
:1008D0005A1C2260FFF724FE10BD00BF78090020DB
:1008E000840D0020880D002038430008AFF30080FD
:1008F00010B5FFF70DFE094C2368002B02DD0848F8
:1009000002682AB1074B08491960FFF7C1FD236847
:100910005A1E2260FFF704FE10BD00BF78090020B8
:10092000840D0020880D002040430008AFF30080B4
:1009300006480368002B04DB054A1168002900DD26
:1009400070470448044B1860FFF7A2BD78090020E7
:10095000840D002048430008880D0020AFF300807C
:100960000648036823B9064A1168002900DD70476C
:100970000448054B1860FFF78BBD00BF78090020C5
:10098000840D002050430008880D0020AFF3008044
:10099000034A4021134643F8081B5360704700BFC9
:1009A0007C090020AFF30080AFF30080AFF300803C
:1009B00010B40D4A0D4C0E495368E468C9691C60B7
:1009C0005960846A03F110019C6090F8204002F5A0
:1009D000816081421C7328BF02F10803516028BF67
:1009E000536010BC704700BF7C0900208C0D0020B4
:1009F0009C0D0020AFF30080AFF30080AFF30080C8
:100A0000014B1860FFF744BD880D0020AFF3008054
:100A100010B40B4603E09C688268944209D31B68BB
:100A20009942F8D14B68016043601860486010BC7F
:100A300070471946F6E700BFAFF30080AFF30080C0
:100A40004B6801604360486018607047AFF30080F6
:100A50000346006802681A6053607047AFF3008075
:100A600042680168116003685A607047AFF3008004
:100A70000346006802681A60704700BFAFF3008049
:100A8000044B4FF0FF3000225B601B609860DA601F
:100A9000704700BF8C0D0020AFF30080AFF30080E3
:100AA000F8B504460D4616461F46FFF741FFCCB188
:100AB000C6B1BDB10D4927610B68E6609A689542E1
:100AC00004D91B68AD1A9A68AA42FAD35A688B42B5
:100AD0002360626014605C60A56002D09868451B6A
:100AE0009D60F8BD0248FFF78BFFE3E78C0D002007
:100AF00060430008AFF30080AFF30080AFF30080E5
:100B000010B50446FFF714FF84B1E36893B123687E
:100B10000A4A934203D09968A2688818986060686E
:100B2000002203602368E260586010BD0448FFF7AC
:100B300067FFEAE70348FFF763FFE8E78C0D002053
:100B40007043000880430008AFF30080AFF30080DB
:100B5000044B002014225B601B6098609A615B610B
:100B60001B6170479C0D0020AFF30080AFF3008045
:100B700010B590F8203004468BB10E2B0FD0002218
:100B8000094BA16884F820201B6898688842FBD232
:100B90005968236061600C605C60204610BD0348AA
:100BA000FFF72EFFEBE700BF9C0D0020A0430008DD
:100BB00010B590F8203004460D2B0FD8DFE803F075
:100BC000160E0E070E0B0E0E0E0E0E0E0E0B806A7C
:100BD00081684A1C82602046FFF742FF4FF0FF33D6
:100BE0002046A362BDE81040FFF7C2BF10BD00BFA2
:100BF00070B5114C0646FFF7B3FEE569142385F87E
:100C000020602046A361FFF723FF0122014680F800
:100C100020202846E161FFF7CBFEEA69ADF124030D
:100C20009A4202D90548FFF7EBFEE0692946BDE884
:100C30007040FFF7D5BC00BF9C0D0020B4430008F6
:100C400070B50E4686B00546FFF78AFEB6F1FF3F47
:100C500012D00C4C3146E3690B4A01A8FFF720FF84
:100C60002846FFF7C5FF049B13B101A8FFF748FF13
:100C7000E069806A06B070BD2846FFF7B9FF014CF5
:100C8000F6E700BF9C0D0020B10B0008AFF3008019
:100C900070B5154D04460E46FFF762FEE869A2687E
:100CA0008368A6629A4215D9FFF762FF01231422D6
:100CB000064684F82030AA61EC61FFF779FEF069FE
:100CC000ADF1240188420AD820463146BDE8704083
:100CD000FFF786BC2046BDE87040FFF749BF0348D8
:100CE000FFF78EFEF0E700BF9C0D0020B443000824
:100CF00070B5104C14232046E569A361FFF7A8FEE8
:100D00000122014680F820202846E161FFF730FFEC
:100D10002846FFF74DFEEA69ADF124039A4202D955
:100D20000548FFF76DFEE0692946BDE87040FFF712
:100D300057BC00BF9C0D0020B4430008AFF30080F7
:100D4000F0B40022104C0125022380F8203080F8F6
:100D5000212080F82250656900F1300600F12C0C4A
:100D600000F14C0704618160456141646061026487
:100D7000C263426282612861C0F82CC04663066388
:100D8000C761F0BC704700BF9C0D0020AFF300802E
:100D9000884213D2C34300F8012BCB18884203F0DA
:100DA00001030CD01BB100F8012B884208D0034688
:100DB00003F8012B4270581C8842F8D170477047E5
:100DC000704700BFAFF30080AFF30080AFF3008047
:100DD000F8B504460D4616461F46FFF7A9FD0CB1AF
:100DE000AF2D2BD81848FFF70BFE243D6119E160A9
:100DF0006751069D15484D600023154A02270125BD
:100E0000086284F8207084F8225084F821305069F8
:100E100004F1300104F12C0704F14C0522616061FA
:100E2000A6606664546123640461E3636362A36142
:100E3000E76261632163E5612046F8BD7F2ED1D86A
:100E4000002FD2D1CEE700BFD0430008F105000843
:100E50009C0D0020AFF30080AFF30080AFF3008063
:100E6000F0B504460D461E4683B017464C30234667
:100E7000FF211A4602F8011B5970531C8342F8D116
:100E80006019834215D25521DA4303F8011B00EBA8
:100E9000020C83420CF001020BD01AB103F8011BC3
:100EA000834206D01A4602F8011B5970531C834234
:100EB000F8D1FFF72DFBFFF77BFC2046089C3A4654
:100EC000334629460094FFF783FF00210446FFF7CD
:100ED000DFFEFFF78DFCFFF723FB204603B0F0BDDC
:100EE00010B5044610B90848FFF78AFDFFF710FB5C
:100EF000FFF75EFC21460620FFF7A2FEFFF778FC15
:100F0000FFF70EFB10BD00BF10440008AFF30080D8
:100F1000114970B5CD69EB6A05F12C04A342A862B2
:100F200007D02046FFF7A4FDFFF722FEE86AA042A3
:100F3000F7D195F8212012F0030F04D16B692869CD
:100F4000186129694B610E20FFF752FE0348BDE886
:100F50007040FFF755BD00BF9C0D002020440008E5
:100F600010B50446FFF7D4FAFFF722FC2046BDE88F
:100F70001040FFF7CDBF00BFAFF30080AFF300809C
:100F800070B50446FFF7C4FAFFF712FC94F822503C
:100F9000002D20D0013DEDB284F82250FFF728FC4F
:100FA000FFF7BEFA1DB994F820300E2B00D070BDAB
:100FB00094F8210000F00303012B12D0022BF6D18C
:100FC00063692169A06C1961226921465361BDE8FA
:100FD000704000F0ADBB0848FFF712FD94F82250B6
:100FE000D8E76169236920460B6122695161BDE838
:100FF000704000F005BB00BF84440008AFF30080E0
:101000002DE9F04182B00D4617461E4600F0B0FAB9
:10101000044608B300F14C084146FF22FFF7B8FE32
:10102000404661195522FFF7B3FEFFF771FAFFF74B
:10103000BFFB2046089C3A46334629460094FFF7FA
:10104000C7FE0123002180F821300446FFF720FE6F
:10105000FFF7CEFBFFF764FA204602B0BDE8F0814F
:1010600010B5044620B1002364602460A36010BD65
:101070000348FFF7C5FC002364602460A36010BD33
:10108000C0440008AFF30080AFF30080AFF30080EE
:10109000294B70B50546DE69FFF762FC002D46D08E
:1010A000AC68002C2AD0B268A068824207D994F8B4
:1010B0002030A260042B2DD0052B24D0ABB13046BC
:1010C0002946FFF7A5FC0420B562FFF791FDAB6848
:1010D000B34202D01948FFF793FC306CA84211D0FC
:1010E0001748BDE87040FFF78BBC012284F8202030
:1010F0002046FFF7B5FCFFF73BFDE0E7316CAE6043
:10110000E960356470BD2046FFF7AAFCA16AFFF7CD
:101110007FFCD4E72046FFF7A3FCA16AFFF778FC29
:10112000A46AB268A468A1689142C0D3C7E7054821
:10113000FFF766FCB4E700BF9C0D0020E044000808
:10114000F4440008D0440008AFF30080AFF30080FF
:1011500010B50446FFF7DCF9FFF72AFB2046FFF73E
:1011600097FFFFF745FBFFF7DBF910BDAFF30080FA
:1011700038B51F4BDD69FFF7CBF9FFF719FB2C6C76
:10118000002C30D0A068A84203D01A48FFF738FCE2
:101190002C6C2268E368A2422B641CD0696C4BB1B2
:1011A0001A689A4203D09068814238BF0146DB68D2
:1011B000002BF5D1A9602046FFF74AFC016CA06026
:1011C000E16000210464FFF763FDFFF711FBFFF707
:1011D000A7F9204638BD0023A360FFF709FBFFF7FE
:1011E0009FF9204638BD0448FFF70AFC2C6CC9E77C
:1011F0009C0D0020304500081C450008AFF300801E
:1012000038B504460D46FFF793FBBCB1E26B94F88A
:1012100020301543082BE5630CD0092B00D038BDD6
:10122000A06A0540A842FAD12046FFF7A1FC0021A0
:10123000816238BDA36A1D42F6D138BD0148FFF76F
:10124000DFFBE3E79C450008AFF30080AFF30080CD
:1012500070B505460E46FFF76BFB65B12C68AC42D6
:1012600008D0A168606846EA0101FFF7C9FF246859
:10127000AC42F6D170BD0248FFF7C2FBEEE700BFFB
:10128000C0450008AFF30080AFF30080AFF30080EB
:1012900010B503460C4611B94FF0FF3010BD0146A2
:1012A0000548C26910469362FFF7CAFB0D2021462C
:1012B000BDE81040FFF7C4BC9C0D0020AFF30080D8
:1012C00010B48A180024406000608460416181612C
:1012D000C1600261C36110BC704700BFAFF3008002
:1012E00070B504460D46FFF713F9FFF761FAE3699D
:1012F0000BB120469847A368204629464BB9FFF713
:10130000C7FF061EF7DAFFF773FAFFF709F9304651
:1013100070BDA269581EA06012F8016B2369A2611A
:101320009A4224BFE368A361FFF762FAFFF7F8F877
:10133000304670BDAFF30080AFF30080AFF30080A4
:101340002DE9F8430446904689461D46C769002AA0
:101350002FD0FFF7DDF8FFF72BFA00260FB120465C
:10136000B847A3682046294653B9FFF791FF0028E4
:10137000F7D0FFF73DFAFFF7D3F83046BDE8F88322
:10138000A269591EA16012F8010B09F80600236931
:10139000A2619A4224BFE368A361FFF729FAFFF72D
:1013A000BFF801364645E8D0FFF7B2F8FFF700FA7C
:1013B000D4E70248FFF724FBCBE700BF0046000854
:1013C00010B48C1840600060826041618161C1602E
:1013D0000461C36110BC7047AFF30080AFF30080BD
:1013E000F8B504460D461646FFF792F8FFF7E0F908
:1013F000A368204631464BB9FFF74AFF071EF7DACC
:10140000FFF7F6F9FFF78CF83846F8BD6269581E09
:10141000A06002F8015B236962619A4224BFE3681D
:101420006361E3690BB120469847FFF7E1F9FFF7E5
:1014300077F800273846F8BDAFF30080AFF300809F
:101440002DE9F843044615460E469946D0F81C800F
:10145000002A36D0FFF75CF8FFF7AAF90027A36847
:1014600020465A1E03B3A260616996F800C001F8D5
:1014700001CB22696161914224BFE1686161B8F1E9
:10148000000F00D0C047FFF7B3F9FFF749F8013765
:10149000013D13D00136FFF73BF8FFF789F9A36848
:1014A00020465A1E002BDED120464946FFF7F0FEAB
:1014B0000028D4D0FFF79CF9FFF732F83846BDE892
:1014C000F8830248FFF79CFAC4E700BF14460008FF
:1014D000054B064A064823F00701064B116020F031
:1014E00007021A60704700BFDB0F0020C00D00200C
:1014F00000280020BC0D0020AFF30080AFF3008077
:1015000010B50446FFF714FA074A0849136809683A
:10151000E01D20F00700C91A884203D8181810608F
:10152000184610BD002010BDC00D0020BC0D0020CD
:1015300010B50446FEF7ECFFFFF73AF92046FFF737
:10154000DFFF0446FFF754F9FEF7EAFF204610BD1F
:10155000044B0549002203F1100019609A60DA601B
:10156000FFF77EBDC80D002031150008AFF30080E5
:10157000F8B5204E0731002818BF064606F11000C6
:1015800021F0070506F10804FFF7E2FD00E01C4624
:101590002368F3B15A689542F9D805F108018A42E7
:1015A00014D36FF00707D3F800E0C5EB070C0CEB82
:1015B00002005F1843F801E0786027605D601C4618
:1015C00044F8086BFFF7D4FD2046F8BD1A68226086
:1015D000F5E7FFF7CDFD3468002CF5D005F10800E4
:1015E000A04720B10660456000F10804ECE704461E
:1015F000EAE700BFC80D0020AFF30080AFF3008022
:101600002DE9F041074600284BD057F8086CA7F1A8
:10161000080506F11000FFF79BFD08363446AC4282
:1016200004D86068083023189D4220D3B44204D007
:10163000AC4202D323681C46F1E723680BB19D42FC
:10164000F9D26A6847F8083C256002F1080357F8A8
:10165000080CE91881420ED0636803F1080E04EB10
:101660000E0CAC4515D0BDE8F041FFF781BD0F4829
:10167000FFF7C6F9DAE74968EB58521808326A6092
:1016800047F8083C636803F1080E04EB0E0CAC4508
:10169000E9D16A6857F8080C9B180833636020602A
:1016A000E1E70348FFF7ACF9AFE700BF5046000899
:1016B00040460008AFF30080AFF30080AFF3008036
:1016C00038B50E4C0D46002818BF044604F1100032
:1016D000FFF73EFDA3686BB10022144659681B68F2
:1016E00052180134002BF9D105B12A60FFF740FDF3
:1016F000204638BD1A461C46F6E700BFC80D00203C
:1017000038B504460D46FFF713F91CB115B115F0B5
:10171000070F02D00348FFF773F923682B60256099
:1017200038BD00BF94460008AFF30080AFF30080DF
:1017300038B505460C46FEF7EBFEFFF739F82846AC
:101740002146FFF7DDFFFFF753F8FEF7E9FE38BD4E
:1017500010B500F0A5FF00F03BFC074801F078FA57
:1017600000F00EF800F0BCF800F032F900F028FDAF
:10177000BDE8104001F0CCBEA04B0008AFF30080E4
:1017800001F0BEB8AFF30080AFF30080AFF300808C
:1017900000230122027043608360C36003614361E0
:1017A0001830FFF75DBC00BFAFF30080AFF30080DF
:1017B00038B504460D46B0B1FEF7AAFEFEF7F8FFB5
:1017C0002178481EC3B2012B02D90948FFF718F946
:1017D0002046656001F0CCF802222270FFF708F87D
:1017E000FEF79EFE38BD0348FFF70AF9E4E700BFA5
:1017F000C0460008B0460008AFF30080AFF3008099
:101800002DE9F04104460D4616461F46FFF790F8B5
:10181000D4B1CDB1C6B1012F02D017F0010F13D151
:101820002378022B06D0042B04D0052B02D00848C5
:10183000FFF7E6F803232046A660E76025612370E2
:10184000BDE8F04101F0C4B80248FFF7D9F8E7E776
:1018500004470008EC460008AFF30080AFF30080B7
:10186000F8B507460E4615461C46FEF751FEFEF734
:101870009FFF384631462A462346FFF7C1FFFEF751
:10188000B7FFFEF74DFEF8BDAFF30080AFF3008069
:101890002DE9F0410446884617461E46FEF738FEFD
:1018A000FEF786FF636913B10B48FFF7A9F80B4DEC
:1018B0003A46334641462046FFF7A2FFE969022037
:1018C0006161FFF795F9E869846AFEF791FFFEF719
:1018D00027FE2046BDE8F081844700089C0D0020CB
:1018E00001F0EEB8AFF30080AFF30080AFF30080FB
:1018F0000121002301704360704700BFAFF30080F7
:1019000038B504460D46C8B1C1B1FEF701FEFEF779
:101910004FFF2178481EC3B2012B02D90948FFF7B7
:101920006FF86560AD882046258101F0D9F8022264
:101930002270FEF75DFFFEF7F3FD38BD0248FFF7AA
:101940005FF8E2E7D0470008C0470008AFF3008027
:1019500070B504460D461646A8B1032913D8FEF704
:10196000D7FDFEF725FF2378022B02D00848FFF7AA
:1019700047F820462946324601F04AF9FEF738FF7B
:10198000FEF7CEFD70BD0348FFF73AF8E7E700BF6A
:101990004048000828480008AFF30080AFF30080FB
:1019A00010B590F84210044680F84A1001F070FA21
:1019B00063681B6813B120460121984703202070FB
:1019C00010BD00BFAFF30080AFF30080AFF3008025
:1019D00001F02EBAAFF30080AFF30080AFF30080C8
:1019E000002301220270436083608381C3817047BA
:1019F00038B504460D4600B3F9B1FEF789FDFEF790
:101A0000D7FE2178481EC3B2012B02D90D48FEF73C
:101A1000F7FF0023204623616361A361E361236232
:101A20006362A362E362656001F00AFA0222227037
:101A3000FEF7DEFEFEF774FD38BD0348FEF7E0FF5B
:101A4000DBE700BFA048000890480008AFF3008023
:101A50002DE9F04104460D461646FEF769FF002CBD
:101A60002AD0002E28D02378042B02D01448FEF769
:101A7000C7FF2F1D54F8270010B11248FEF7C0FF12
:101A8000316811F010030FD1726994464CF8043B91
:101A90005360CCF80430B069014641F8043B0A1D9C
:101AA000436042F8043B13602046294644F827600F
:101AB000BDE8F04101F0FCB90348FEF7A1FFD2E711
:101AC000E448000800490008CC480008AFF3008053
:101AD00070B504460E46FEF72BFF9CB1E38953FA1E
:101AE00006F515F0010501D0012070BD012010FAA6
:101AF00006F242EA03032046E381314601F090FCFE
:101B0000284670BD0148FEF77BFFE7E7544900080F
:101B100070B504460E46FEF70BFF9CB1A38953FA3D
:101B200006F515F0010501D0012070BD012010FA65
:101B300006F242EA03032046A381314601F080FC0D
:101B4000284670BD0148FEF75BFFE7E76C490008D7
:101B500010B4002202240470A0F8482080F84A2023
:101B600080F84B208281C281026142618261C26140
:101B7000026242628262C26280F8302010BC01F0D0
:101B800017BA00BFAFF30080AFF30080AFF300805F
:101B900000222DE9F041044680F8302000F1400297
:101BA00001F046FA63689B68002B1FD020469847D7
:101BB000E0B1A56B94F84030B4F84610A9423CBFA0
:101BC000A1630D4613F0800F33D1002D64D10421A1
:101BD00084F83010204629462A462B4601F010FC96
:101BE00020462946BDE8F04101F02ABC94F8403077
:101BF00013F060061A462DD00021204601F040FC6B
:101C00002046002101F02CFC6268136813B12046C5
:101C100005219847A56BB4F8461094F8403005208C
:101C2000A9423CBFA1630D4613F0800F84F8300039
:101C3000CBD0002D3FD00123002184F83030204646
:101C4000626B2B4601F0DCFB20460021BDE8F04131
:101C500001F0F6BB94F8417003F07F0141EA0727D9
:101C6000B7F5407F00F0998034DDB7F5C06F00F024
:101C7000BD8050DDB7F5106F00F0A68040F602453C
:101C8000AF425BD0B7F5006FB6D1012504F14B0030
:101C90006063A563E6638FE70320002184F83000CA
:101CA000626B20462B4601F093FB20460021BDE8E5
:101CB000F04101F0B5BB022284F8302020462946CD
:101CC0002A462B4601F084FB20462946BDE8F04118
:101CD00001F0A6BB022F49D02BDDB7F5807F34D0B1
:101CE000B7F5817F88D194F84200002884D194F818
:101CF000443013F00F0108D013F0800F40F0B18092
:101D0000204601F0CDFB94F8402000256563A563D3
:101D1000E563134650E740F2023087427BD0B7F5C7
:101D2000A06F7FF469AF55496663A663E1633546EA
:101D300042E7002F41D0012F7FF45EAF50490225CA
:101D400000226163A563E26336E794F842C0BCF108
:101D5000010F7FF451AFB4F84810666321F0020E12
:101D6000A4F848E0A663E663354625E794F84410F6
:101D700011F0800F66D1204601F00F0101F038F913
:101D8000012866D002287FF437AF3E4BA06363631F
:101D9000E66394F8403005460EE794F842000128C7
:101DA0007FF42AAFB4F84820666342F00205A4F835
:101DB0004850A663E6633546FEE6022504F1480274
:101DC0006263A563E763F7E694F8421084F84B106A
:101DD000002934D10325257060680368002B94D056
:101DE00020460221984794F840208EE763682046F9
:101DF0005D6894F8431094F84220B4F84430A84742
:101E000000283FF4F9AE4268056894F840306263F8
:101E1000A563E663D0E694F8421000297FF4ECAEA7
:101E200094F8443013F00F013FF46FAF13F0800FBC
:101E30001DD1204601F014FB94F8402065E70423EF
:101E40002370C9E7204601F00F0101F0E1F80128F5
:101E500098D10D4DA7636563E66394F840303D4625
:101E6000AAE6204601F034FB94F840204DE72046D6
:101E700001F006FB94F8402047E700BFA1190008D5
:101E80007048000880480008C0490008AFF300808F
:101E900090F8303070B5012B044619D0042B10D0C7
:101EA000002101F0EDFA0021204601F0D9FA616825
:101EB0000B6813B1204605219847052284F830208D
:101EC00070BDC36B03B19847002384F8303070BDF8
:101ED000836BB0F846209A4206D90269118AB3FB97
:101EE000F1F501FB153575B1002102200A460B46BC
:101EF00084F83000204601F06BFA20460021BDE84E
:101F0000704001F08DBA29462A462B4601F078FA36
:101F100020462946BDE8704001F092BAAFF3008038
:101F200090F8303070B5022B044621D0032B11D02D
:101F30000021204601F0A4FA2046002101F090FA89
:101F400063681B6813B1204605219847052184F872
:101F5000301070BD002104250A460B4680F8305031
:101F600001F04EFA20460021BDE8704001F068BA49
:101F700002699169CB68002BDAD1C36B03B1984732
:101F8000002084F8300070BDAFF30080AFF3008014
:101F900001494B6883607047001000E0AFF3008098
:101FA000084B09495A6883680968D31AC2685B1AE2
:101FB0009342836004D80269934238BF036170473B
:101FC000C3607047001000E0E80D0020AFF3008010
:101FD00010B50B4A86B00B490B4C002301A80192A7
:101FE0004FF0FF3223600393049302910592FFF7B1
:101FF000CFFF01A802998847039B236006B010BD5C
:10200000911F0008A11F0008E80D0020AFF3008019
:10201000806BD0F1010038BF00207047AFF3008023
:102020008069D0F1010038BF00207047AFF3008015
:1020300038B50446FEF76CFAFEF7BAFB0023A56834
:10204000A360FEF7D5FBFEF76BFA284638BD00BF4C
:102050002DE9F0418469D4F8D000D4F840800368B9
:10206000E76B9D89A66B15F0020501D0BDE8F081F4
:10207000FEF7BEFBFEF754FAD4F8D030C7EB080CDD
:1020800018680121E26BC6EB0C0301F039F8FEF78A
:102090003FFAFEF78DFBD4F8D00001210068FFF76E
:1020A00037FDA168201D41F00802A2602946FFF714
:1020B000CFF8E36B266C226BF11A04F13006B242C2
:1020C0006364A163D2D03046FEF7C2FCFEF750FD38
:1020D0008562226BB242F6D1BDE8F081AFF3008099
:1020E000F8B54469D4F8D0100868C38913F0080F14
:1020F00001D1A56905B1F8BDFEF77AFBFEF710FA2C
:10210000D4F8D06003213068E269402300F0B8FFC2
:102110000646FEF7FDF9FEF74BFBD4F8D00003218D
:102120000068FFF7D5FCA168201D41F00407A760F7
:102130002946FFF78DF82369E26904F11007BB42D5
:10214000A262A661D7D03846FEF782FCFEF710FDEA
:1021500085622369BB42F6D1F8BD00BFAFF30080B2
:102160001030FFF7EDB800BFAFF30080AFF3008091
:1021700010304FF0FF33FFF7E3B800BFAFF300803C
:102180003030FFF75DB900BFAFF30080AFF30080E0
:1021900030304FF0FF33FFF753B900BFAFF300808B
:1021A0001030FFF79DB800BFAFF30080AFF30080A1
:1021B0003030FFF715B900BFAFF30080AFF30080F8
:1021C000704700BFAFF30080AFF30080AFF3008033
:1021D00038B50E4B0546044645F8043B65600025BE
:1021E000A5600125103004F150014022084B2573F1
:1021F000FFF766F804F1300004F190014022054B2E
:10220000FFF7DEF86462A46438BD00BF104A00081E
:10221000E120000851200008AFF30080AFF30080F8
:1022200070B504460D46E0B1FEF772F9FEF7C0FA4C
:10223000217B481EC3B2012B02D90C48FEF7E0FBFC
:102240002B680222C4F8D0509C602273FEF7D0FAAB
:10225000FEF766F9294651F8040BBDE87040FFF718
:10226000C7BB0348FEF7CCFBDEE700BFE049000830
:10227000D0490008AFF30080AFF30080AFF30080D7
:1022800090F8401001F06003202B01D0002070472F
:1022900090F84130212B0BD0222B03D0202B07D0DC
:1022A00000207047002242638263C26301207047AE
:1022B00003490723002241638363C26301207047FF
:1022C00004080020AFF30080AFF30080AFF300807C
:1022D000F8B5846805460E46FEF71AF9FEF7A8FA27
:1022E000206CE26BA36B871AFF1A04D1FEF7C0FAC9
:1022F000FEF716F9F8BDFEF7BBFAFEF711F928460E
:102300003146E26B3B4600F0FBFEFEF701F9FEF7BB
:102310008FFA28463146FFF7FBFBA168201D41F0EC
:102320000802A2600021FEF793FFE36B256C206B8F
:10233000E91A04F13005A8426364A163D6D00026EF
:102340002846FEF785FBFEF713FC8662206BA84249
:10235000F6D1FEF78DFAFEF7E3F8F8BDAFF3008093
:102360002DE9F041846805460F46FEF7D1F8FEF7E7
:102370005FFAA6692EB1FEF77BFAFEF7D1F8BDE849
:10238000F081FEF775FAFEF7CBF840232846394670
:10239000E26900F075FE8046FEF7BAF8FEF748FAEB
:1023A00028463946FFF794FBA568201D45F0040137
:1023B000A1603146FEF74CFF2369E26904F1100584
:1023C000AB42A262C4F81880D5D02846FEF740FB85
:1023D000FEF7CEFB86622069A842F6D1FEF748FAE6
:1023E000FEF79EF8BDE8F081AFF30080AFF3008008
:1023F000704700BFAFF30080AFF30080AFF3008001
:1024000010B5FEF755FA0848084A03680F2411680A
:10241000546013B1406821409847FEF769FABDE85F
:102420001040FEF785B800BFEC0D00200000024010
:1024300010B5FEF73DFA0848084A8368F024116891
:1024400054601BB1C068C1F303119847FEF750FAFE
:10245000BDE81040FEF76CB8EC0D00200000024013
:1024600010B5FEF725FA0948094A03694FF470646C
:10247000116854601BB14069C1F303219847FEF70E
:1024800037FABDE81040FEF753B800BFEC0D00204E
:1024900000000240AFF30080AFF30080AFF3008094
:1024A00010B5FEF705FA0948094A83694FF47044EC
:1024B000116854601BB1C069C1F303319847FEF73E
:1024C00017FABDE81040FEF733B800BFEC0D00204E
:1024D00000000240AFF30080AFF30080AFF3008054
:1024E00010B5FEF7E5F90948094A036A4FF470246C
:1024F000116854601BB1406AC1F303419847FEF76D
:10250000F7F9BDE81040FEF713B800BFEC0D00204E
:1025100000000240AFF30080AFF30080AFF3008013
:1025200010B5FEF7C5F90948094A836A4FF47004EB
:10253000116854601BB1C06AC1F303519847FEF79C
:10254000D7F9BDE81040FDF7F3BF00BFEC0D002048
:1025500000000240AFF30080AFF30080AFF30080D3
:1025600010B5FEF7A5F90948094A036B4FF07064EE
:10257000116854601BB1406BC1F303619847FEF7CB
:10258000B7F9BDE81040FDF7D3BF00BFEC0D002048
:1025900000000240AFF30080AFF30080AFF3008093
:1025A000124BF0B4D3F800C0DF689E695D6A1C6B03
:1025B000D86B996C0023CCF800300D4ADFF838C096
:1025C0003B601360336093602B6013612360936101
:1025D0000360136293621363CCF800300B60054B09
:1025E0004FF0FF325A60F0BC704700BF804A0008CD
:1025F000EC0D002000000240240E0020AFF300800C
:10260000F0B5044685B0002833D0667A012505FA76
:1026100006FC1D4F38681CEA000F26D11B4D4CEA02
:10262000000010F07F0F05EBC60C45F83620CCF803
:102630000430386004D0164B5F6947F001065E61D4
:10264000236860681F6827F001051D60267A0F2740
:1026500017FA06F6002506601D6042B1A07A09014E
:10266000FDF7D6FF284605B0F0BD2846FBE710462B
:10267000F9E70848039102920193FEF7C1F9019B23
:10268000029A0399C1E700BF240E0020EC0D002040
:1026900000100240404A0008AFF30080AFF3008012
:1026A000214B00224FF0FF3030B420491C691861E3
:1026B0001A61DD68D8604BF67F30DA601C4C4860E8
:1026C00007208A600860E1681A4841F08071E16083
:1026D0000468194944F001040460D86940F080504E
:1026E000D861D86940F00060D861086840F4807013
:1026F0000860186A00F44071B1F5407F03D04FF4D0
:10270000803119621A62084B1A6A12F4004F07D11D
:10271000186A40F440721A62196A41F40040186263
:1027200030BCFFF73DBF00BF0010024010E000E0EA
:10273000F0ED00E0001000E000700040AFF300801A
:102740001F4B1868194640F001021A600B681C4ABA
:1027500013F0020FFAD01368002003F0F9011160A2
:10276000114650604868164A10F00C0FFAD11068F4
:10277000114640F4803313600B68114A13F4003F94
:10278000FAD05368114643F488105060136843F040
:102790008070106008680A4A10F0007FFAD009487B
:1027A000094B1121506019605068114640F0020336
:1027B00053604A6802F00C0CBCF1080FF9D1704765
:1027C000001002400064510000200240AFF300807E
:1027D00011F0080FF8B50D4604462AD0C36A016906
:1027E0001A685D68166826F0010616601B7A0F26C7
:1027F0009E40826ACB6800212E6091602BB1052536
:1028000005709847207805286AD000252561FDF7D6
:102810007FFEFEF70DF8636933B14FF0FF3265615B
:1028200018469A62FEF7A4F9FEF722F8FDF778FE43
:10283000F8BD11F0040F06D003699B681BB1C26894
:1028400081685208984715F0020F37D021690A684D
:10285000002A34D1E36AA56A18685E68076827F021
:1028600001070760187A0F2717FA00F08B683060AD
:10287000AA60002B37D0E2680425012A257039D9D7
:10288000B1F804C052080CFB02FEA168204601EB1F
:102890004E0198472278042A25D000252561FDF7AE
:1028A00037FEFDF7C5FF636923B1656118469D6278
:1028B000FEF75EF9FDF7DCFFFDF732FEF8BD8B6831
:1028C000002BFBD0E268012A10D9B1F804C05208ED
:1028D0000CFB02F5A168204601EB45019847F8BDC5
:1028E0000221217091E702232370D6E72046A168D8
:1028F0009847F8BD2046A1689847CBE7AFF3008022
:1029000010B5144C2046FEF743FF134B134998694A
:1029100040F400729A61124B0020A16201224860CB
:10292000E36242F28A5009238A6020638B608B68DD
:102930000A4A13F0080FFAD105219160906810F04F
:102940000403FBD10548044A8360916921F40073B4
:10295000936110BD280E00200010024000240140A9
:10296000804A0008AFF30080AFF30080AFF300802F
:1029700038B503780446012B00D038BD0E4DA8426F
:1029800004D0A36A00215960996038BDC06A05214E
:102990000A4A2346FFF734FE48B9E86A084B026842
:1029A00008489360816941F400728261E9E7064852
:1029B000FEF726F8F1E700BF280E0020D127000817
:1029C0004C24014000100240E04A0008AFF30080B0
:1029D00003692DE9F0031968026B09B142F0200286
:1029E000C1689E880129C56A88BF4E4384682968EA
:1029F00088BF42F00402D3F81480CC604E600A60B5
:102A00001F69D1F800C0826AD3F81890DE691D6A88
:102A10005C6A986A48F4807343F003034CF0010C3D
:102A200047F48077C1F800C057609360C2F80C90FB
:102A30001661D562146350639360BDE8F00370477C
:102A400070B51B4DFDF734FF2B694FF6E0711A8A04
:102A50009C891982144014F0020F24D114F0040F41
:102A60001CD114F0080F14D114F0100F0CD114F075
:102A7000010F03D06A680E4893689847FDF738FF46
:102A8000BDE87040FDF754BD696809488A6A9047FF
:102A9000EDE76B680648196A8847E5E76A68044805
:102AA00093699847DDE7696828460A699047D5E742
:102AB0005C0E0020AFF30080AFF30080AFF3008026
:102AC00010B5044C2046FEF713FF4FF080432361FE
:102AD00010BD00BF5C0E0020AFF30080AFF300809C
:102AE000037870B5012B04466DD00369002018806F
:102AF0009881188258639863D86318645862626832
:102B0000E1681668B1FBF6F0451EB5F5803F03D2CB
:102B100006FB00FC614504D03948FDF771FF62688F
:102B200023692089D168441E01F00F01908DA4B261
:102B300001291D85DC62988003D002290CBF032186
:102B40000021506900F00F00012821D002281DD07B
:102B5000D06900F00F00012821D002282ED0506A41
:102B600000F00F00012821D0022822D09268198499
:102B7000B2F1000C18BF4FF0010C0120002185229A
:102B80009882A3F80CC019821A8070BD41F0200110
:102B9000D06941F0100100F00F000128DDD141F4AF
:102BA0008071506A00F00F000128DDD141F480519E
:102BB000DCE741F4005141F48051D7E741F4007162
:102BC00041F48071EDE70F49884207D0236946F64A
:102BD000680CA3F818C0A3F81CC090E70A4D1C208D
:102BE000EA6942F00101E9612B69002243F0010624
:102BF0002E6170212A61FDF70BFD0448E060E5E7D6
:102C0000004B00085C0E002000100240006CDC024B
:102C10004368006903EBC10C10B4DCF8103001F11B
:102C20000C0400EB840462605BB1022313FA01F12F
:102C3000828993B2194204D189B2CA43194381816E
:102C4000028210BC704700BFAFF30080AFF300807A
:102C5000154B30B49A69154D42F07D049C610168B2
:102C6000134CE960826813496A604368124A2B601A
:102C7000C568124BE5604569656005692560846932
:102C8000CC60046A4C60C4690C60416AD160C16A5E
:102C90005160816A1160026BDA60816B5960426B2E
:102CA0001A6030BC704700BF0010024000080140AD
:102CB000000C0140001001400014014000180140C8
:102CC000032AF0B400F09A80042A08BF41614C4BFB
:102CD00011F080079B5C40F088800F2411F40045C0
:102CE00040F089800F264A002401360139012D0168
:102CF00012F0800F14BF194344F00F0412F4004F78
:102D000014BF1D4346F00F0652002401360109018D
:102D10002D0112F0800F14BF194344F00F0412F478
:102D2000004F14BF1D4346F00F0652002401360128
:102D300009012D0112F0800F14BF194344F00F0454
:102D400012F4004F14BF1D4346F00F065200240139
:102D5000360109012D0112F0800F14BF194344F010
:102D60000F0412F4004F14BF1D4346F00F0652002B
:102D70002401360109012D0112F0800F14BF1943FF
:102D800044F00F0412F4004F14BF1D4346F00F0629
:102D900052002401360109012D0112F0800F14BFE9
:102DA000194344F00F0412F4004F14BF1D4346F0C2
:102DB0000F0652002401360109012D0112F0800F87
:102DC00014BF194344F00F0412F4004F18BF1D4301
:102DD000436808BF46F00F061E4035434560026851
:102DE000144021430160F0BC7047002411F40045F9
:102DF0001F463FF477AF1D46002674E7016166E782
:102E0000204B0008AFF30080AFF30080AFF30080E9
:102E100010B5FDF74DFDFDF76BFDBDE81040FDF76A
:102E200087BB00BFAFF30080AFF30080AFF300803B
:102E30000148FEF7D5BD00BF700E0020AFF3008043
:102E4000037870B5012B044600D070BD0C4A904247
:102E500004D02046BDE87040FEF77ABE094A0A4D0C
:102E6000D669132046F40006D66160212B64FDF775
:102E7000CFFB1420E021FDF7CBFB00232B64E8E718
:102E8000700E002000100240005C0040AFF3008094
:102E900090F84A00024B40F08002DA64704700BFAD
:102EA000005C0040AFF30080AFF30080AFF3008020
:102EB0000A1D2DE9F04150F822400546226802F033
:102EC0000303013B022B96BF36484FF4007330F8E2
:102ED0001330A06808B143F02003E66866B112F031
:102EE000100F55D0012010FA01F2B5F80E8043F40E
:102EF000405342EA0807EF8143EA010C2A4F2CF4C1
:102F0000F04626F0700047F8210047F6700857F8A1
:102F1000212003EA080C638A8CEA02063E2B47F85C
:102F200021602BD95F1E47F01F06701C42116FEA0B
:102F3000C2676FEA57421C4ED5F84C80306DB4F82A
:102F400010C000F1005707F5405606EBC1000CEB2E
:102F5000080647000021B6F5007FB980BA81EE640B
:102F600019D89B19B3F5007FC7F80080EB6402D92C
:102F70000E48FDF745FDBE60BDE8F0815A1E42F0E7
:102F800001077E1C06EBD670420202F47C42D2E7B7
:102F900043F40053B0E70548FDF732FD638AEE6C59
:102FA000DFE700BF404B0008005C0040704B0008AA
:102FB000416830B40A4BCD6800241C65A54214BF9B
:102FC0004FF41E454FF41C455C6421468024DC64AC
:102FD0001D64044B4022C264036130BCFFF768BF2C
:102FE000005C0040804B0008AFF30080AFF300802E
:102FF000054B53F8210010F4405004D0B0F5805F29
:103000000CBF012002207047005C0040AFF300803D
:10301000054B53F8211001F03003102B9ABF034ADF
:10302000D05C0220704700BF005C0040504B00089D
:103030000F4B10B41C6D134604F1005000F5405CBA
:103040000CEBC1046100886800F1005C0CF5405491
:1030500061008C465CF8044B888823F8024BBCF86E
:1030600008105080BCF8042099805A8010BC70472A
:10307000005C0040AFF30080AFF30080AFF300804E
:103080001B48F0B4006D00F1005000F5405C0CEB03
:10309000C1014800816880898005800D834228BF76
:1030A000034601335B0820D001F1005101F5405582
:1030B00069005C1E51F8045B234622F8025B04F0B1
:1030C000010493B12CB151F8044B013B22F8024B9F
:1030D0000BD00D4655F8047B4E68144624F8027B4D
:1030E000291D5680A21C023BF3D1F0BC704700BFE3
:1030F000005C0040AFF30080AFF30080AFF30080CE
:10310000184870B4046D04F1005000F5405C0CEBFD
:10311000C104591C600049080468838020D004F170
:10312000005C01390CF5405332F8020B5C000B4691
:1031300044F8040B01F0010193B129B132F8021BEC
:10314000013B44F8041B0BD0104630F8026B558845
:10315000214641F8046B821C65600C1D023BF3D1D3
:1031600070BC7047005C0040AFF30080AFF300809C
:103170002DE9F04F81B0FDF79BFB904B5C6C14F494
:10318000806F40F00C8114F4006F0ED08C488B4A95
:103190004368116C1B6841F0080111640BB10321F5
:1031A0009847864A6FF40060506414F4805F09D039
:1031B000824A916C11F4004F00F0E4807F4A6FF472
:1031C0008050506414F4007F08D07D484368DB6869
:1031D00003B1984779486FF40071416414F4004FCB
:1031E00000F0A480DFF8D891744DCA4613E00120A6
:1031F00010FA04F1B9F80EE059F828302EEA010C63
:10320000A9F80EC0DA686E48214690476C6C14F439
:10321000004F00F08B8004F00F0455F8246004F197
:10322000040816F0800F59F828703AD055F8241089
:1032300021F4F04C2CF0F00345F824303A6812F0F9
:10324000100F7AD12B6D796903F1005202F5405EBF
:103250000EEBC4004300B3F804C00A688868D1F8D4
:1032600004E01FFA8CF3D218C018C3EB0E030A60F7
:1032700088604B60002B60D0B7F810E05FFA84FBE9
:103280004F485946734528BF7346FFF739FF55F835
:103290002B2022F4F04020F0400C8CF0300145F857
:1032A0002B1016F4004FB1D055F8241016F4006F0F
:1032B00021F4784E2EF0700345F824304BD1386855
:1032C00010F0100F93D1BB69E6B25A6831469B6883
:1032D0003B48FFF7D5FEBB6955F826E01A885F68C2
:1032E000D968D3F808C02EF4904E2EF0700E013A33
:1032F0003F1809188EF4405EC0EB0C0092B245F8FE
:1033000026E05F60D96098601A80002A2AD055F8BC
:10331000242022F4904121F0700C8CF4405045F8A8
:1033200024006C6C14F4004F7FF475AFFDF7E0FAE5
:1033300001B0BDE8F04FFDF7FBB8012212FA04F02E
:10334000BAF80CC0BB682CEA0001AAF80C101C48A3
:1033500021469847A5E759F8283019485A68214668
:10336000904753E7012111FA04F0BAF80EC05AF859
:1033700028302CEA000EAAF80EE0DC68104831462E
:10338000A04743E70E48116C436821F008011B6811
:103390001164002B3FF412AF042198470EE7084D4B
:1033A0002846FEF7D5FB6868036813B1284600215C
:1033B000984702496FF480624A64E4E6005C00408A
:1033C000700E0020AFF30080AFF30080AFF30080F9
:1033D000043150F821108869426000228360C26085
:1033E0003BB14A8A511EC918B1FBF2FCA0F800C0DB
:1033F0007047012303807047AFF30080AFF3008074
:1034000070B40D1D50F8254000266569248A6B6054
:10341000A34228BF23462A60AE6070BCFFF770BE8F
:10342000054B53F8212022F4904C2CF0700080F4CE
:10343000405243F821207047005C0040AFF3008009
:10344000054B53F8212022F4F04C2CF0400080F082
:10345000300243F821207047005C0040AFF3008049
:10346000054B53F8212022F4904C2CF0700080F48E
:10347000805243F821207047005C0040AFF3008089
:10348000054B53F8212022F4F04C2CF0400080F042
:10349000100243F821207047005C0040AFF3008029
:1034A000094B53F8210000F44052B2F5405F09D0B7
:1034B00053F8212022F4F04020F0400C8CF400520C
:1034C00043F82120704700BF005C0040AFF300804C
:1034D000084B53F8210000F03002302A09D053F88D
:1034E000212022F4F04020F0400C8CF0200243F820
:1034F00021207047005C0040AFF30080AFF30080F4
:10350000FFF71EB9AFF30080AFF30080AFF3008088
:10351000704700BFAFF30080AFF30080AFF30080CF
:10352000002903DD0449054A00F06ABA044B054945
:10353000DA6800F065BA00BFE04B0008EC4B000809
:103540008C0D0020F44B0008AFF30080AFF3008037
:1035500010B5002982B0044606DD1949194A02B0A7
:10356000BDE8104000F04CBA1749184A00F048FA7C
:1035700020461749174A00F043FA20461649174AD1
:1035800000F03EFA20461649164A00F039FA204665
:103590001549164A00F034FA20461549154A00F03C
:1035A0002FFA20461449154A00F02AFA2046144CF6
:1035B0001449154A154B009400F022FA02B010BDD0
:1035C000E04B0008FC4B0008044C0008184C0008B5
:1035D000204C0008344C0008404C0008544C0008B3
:1035E0005C4C0008704C00087C4C0008904C0008B3
:1035F000A84C0008BC4C0008E44C0008F84C00083B
:10360000344D00080C4D0008244D0008304D0008D2
:103610000A6838B5054642B10C462846034900F011
:10362000EFF954F8082F002AF7D138BD404D0008B3
:103630002DE9F041054600680C4616469846A8B1AB
:103640002F4602E057F8080F68B13146FCF750FDED
:1036500005460028F6D120467E684146069AB047C6
:103660002846BDE8F0810120BDE8F0810120BDE8D9
:10367000F08100BFAFF30080AFF30080AFF30080B4
:1036800038B504460D46A8B108600D492046FCF740
:10369000DFFD241820462021FCF752FD286018B1D8
:1036A000002300F8013B28602078002814BF204642
:1036B000002038BD0C68002CE7D1204638BD00BF83
:1036C000D0410008AFF30080AFF30080AFF300807B
:1036D000014B1B60704700BFD00E0020AFF300808D
:1036E00000B583B00090034B0020FDF789FC03B0C8
:1036F00000BD00BFB1370008AFF30080AFF300801A
:10370000013A2DE9F843884605460F4601EB0209C8
:10371000296828464B694FF0FF31984704B2002CC6
:1037200006462CDB042C2DD0082C0FD00D2C30D0CD
:103730001F2CEDDD4F45EBD2296828460C694FF070
:10374000FF32F1B2A04707F8016BE1E74745DFD050
:103750002B6821461E694FF0FF322846B047286883
:10376000202103694FF0FF32284698472A682846EF
:10377000166921464FF0FF32B047013FC8E70120EC
:10378000BDE8F8832846074900F03AF90120BDE872
:10379000F8832846044900F033F900203870BDE86A
:1037A000F88300BF444D0008F44C0008AFF30080DC
:1037B0002DE9F04365490468CB69654AD0F8048077
:1037C00099B020469A61634900F01AF94FF0000958
:1037D0002046614900F014F9204602A94022FFF773
:1037E0008FFF064600283BD117A902A8FFF748FF24
:1037F00017A905463046FFF743FF0346002842D08D
:10380000304617A91293FFF73BFF034600285DD00F
:10381000304617A91393FFF733FF0346002857D00C
:10382000304617A91493FFF72BFF0346002851D009
:10383000304617A91593FFF723FF00284CD02046E8
:10384000464900F0DDF820464349169600F0D8F8C6
:10385000204602A94022FFF753FF06460028C3D0A6
:1038600020463F4900F0CCF8FCF752FEFCF7A0FFE1
:1038700000213C48FDF7ECFC0020FDF749FB00204F
:1038800019B0BDE8F08306460DF1600C0CEB860024
:1038900040F8189C002D9BD028463349FCF728FCA3
:1038A00038B9002EE0D0204630492F4A00F0A8F861
:1038B0008EE728462E49FCF71BFC78B9002E30D045
:1038C00020462A492A4A00F09BF881E70126DBE7D7
:1038D0000226D9E70326D7E70426D5E712AF254805
:1038E00021462A4633460097FFF7A2FE00283FF400
:1038F0006FAFB8F1000F0AD03346404612AE2146F2
:103900002A460096FFF794FE00283FF461AF204658
:1039100019492A4600F074F82046184900F070F85A
:1039200056E71749204600F06BF820461149FFF78B
:103930006FFEB8F1000F03D020464146FFF768FE46
:103940002046104900F05CF842E700BF9C0D0020C3
:10395000484D0008504D0008684D00087C4D000897
:10396000704D0008D00E0020944D0008E04B000878
:103970009C4D00080C080020BC4D0008C04D0008FC
:10398000A44D0008F44C0008AFF30080AFF30080B2
:1039900070B400F10B0600F10A04B1FBF2F502FB72
:1039A000151101F13003392BC8BF01F13703294646
:1039B000254604F801390029EFD10446C5EB060C71
:1039C000E2436044121812F0010F29460AD004F8AD
:1039D000013B11F8013F05E011F8013F637011F858
:1039E000013F541C224602F8013B8242F4D170BCD4
:1039F000704700BFAFF30080AFF30080AFF30080EB
:103A00000EB42DE9F04F84B00DAB53F8044BDFF842
:103A100090B305460393217859B1013425290DD07F
:103A20002A68284613694FF0FF3298472178002909
:103A3000F3D104B0BDE8F04F03B0704723782D2BCD
:103A400000F0868100262E2B06BF14F8013F4FF0B0
:103A500030084FF020080398611C4FF0000A07E07F
:103A6000027804300AEB8A0A11F8013B02EB4A0A99
:103A7000A3F13004E2B2092A0C46F3D92A2BEFD085
:103A80002E2B039000F050814FF0000C6C2B00F0B7
:103A900045814C2B00F04281A3F14100C1B21929AC
:103AA0008CBF00210121A3F14407342F00F21981BA
:103AB000DFE817F02401170117011701170117019B
:103AC000170117011701170117011C011701170131
:103AD0001701170117013201170117010C01170116
:103AE0001701170117011701170117011701170116
:103AF0001701C3002401170117011701170117014E
:103B0000170117011701170117011C0117011701F0
:103B10001701350017013201170117010C01039B32
:103B200047F6FF781F681A1D0392002F08BF5F46F3
:103B30003878BCF1000F08BFC446002800F02B8184
:103B4000781CC14384447A7801EB0C0909F0010127
:103B5000431C92B1634510D021B1184613F8012BD4
:103B60004AB90AE01A4612F8011B184629B15978D9
:103B70001046531C09B16345F4D1C7EB0009C9EBEA
:103B80000A0C4FF020082CEAEC7A002E67D0B9F12D
:103B9000000F28DD3E462A68F843B94416F8011B99
:103BA00009EB0007136928464FF0FF3298474E454E
:103BB00007F0010717D01FB12B6816F8011B0BE0A7
:103BC0002868374617F8011B03694FF0FF32284673
:103BD00098472B6871787E1C1B6928464FF0FF328E
:103BE00098474E45ECD1BAF1000F3FF414AF2E6860
:103BF0000AF1FF3C33692846664641464FF0FF32E2
:103C00000CF001079847002E3FF405AF1FB12A685A
:103C1000284613690AE02868414603694FF0FF32DD
:103C2000284698472968013E0B69284641464FF0CF
:103C3000FF329847013EEED1EDE6039900AF0A68E6
:103C40000B1D4FF0200803938DF80020781CC7EB64
:103C50000009C9EB0A0C2CEAEC7A002E97D1CAF1C4
:103C6000000ABAF1000F92D039782D2900F0858032
:103C700029686FEA0A0E0B69284641464FF0FF3269
:103C80000EF0010698471AF1010A80D056B1296852
:103C900028460B694FF0FF32414698471AF1010A56
:103CA0003FF475AF2868414603694FF0FF3228465C
:103CB000984728680AF1010A0369414628464FF0EF
:103CC000FF3298471AF1010AECD160E7102281B166
:103CD000039B191D039119686846FFF759FE6F464B
:103CE000B5E700AF8DF80030781CB0E70822002956
:103CF000EED10398071D01680397EDE700292FD146
:103D0000039B19681A1D002903922FDB68460A22BB
:103D1000FFF73EFE6F469AE70A22D8E72278EAB11B
:103D2000013413460121BEE64FF0000C0C4614F896
:103D3000013B0CEB8C07A3F13001CAB2092A2146E2
:103D400003D92A2B08D10278043002EB470CEDE7A7
:103D500014F8013F012676E6039097E60121A2E6DA
:103D6000039F3968381D00290390CFDA2D2000AF5A
:103D70008DF800004942781CC9E7B8F1300F7FF494
:103D800077AF2A68284616694FF0FF32B0470137EF
:103D900009F1FF396CE738464FF0200857E700BFBC
:103DA000D04D0008AFF30080AFF30080AFF3008088
:103DB00008B5FDF7CDFCFCF77BFC00F071F800F0D6
:103DC000B7F94FF47A70FDF78BF800F091F800F036
:103DD000BFF8F6E7AFF30080AFF30080AFF30080E9
:103DE000022906D0032906D00748012918BF002060
:103DF000704706487047032A03D8054800EBC20005
:103E000070470020704700BFF04F0008004E0008C8
:103E1000B04F0008AFF30080AFF30080AFF3008035
:103E200010B5002982B0044604DD0749FFF7E8FD1C
:103E300002B010BD01A90020FDF742FC0349024673
:103E40002046FFF7DDFDF3E7504E00085C4E00080A
:103E5000022938B50C46054616D1FCF759FBFCF78C
:103E6000E7FC28460121094AFDF7F2FD28462146D4
:103E7000074AFDF7EDFD28460321064AFDF7E8FD58
:103E8000FCF7F6FCFCF74CFB38BD00BFE04D00082A
:103E9000104E0008A04E0008AFF30080AFF3008082
:103EA00010B50B4C2046FEF793F90A492046FEF761
:103EB000B7F909484FF400624261FFF709FC07486F
:103EC0004FF44B614022FFF70BFC054B186010BD0F
:103ED000D40E0020D04F000800100140C04E000852
:103EE000A80F0020AFF30080AFF30080AFF3008095
:103EF00010B5114C206878B190F820C0BCF10E0FBD
:103F000005D04FF47A70BDE81040FCF7E9BFFDF72B
:103F100037F800202060F4E7084BD3F8D020116870
:103F20000B78042BE8D106484FF44B614022FFF791
:103F3000D7FB2060E5E700BFA80F0020D40E0020CB
:103F4000C04E0008AFF30080AFF30080AFF30080F5
:103F500070B5254C2548FDF7FBF82178244D01F07C
:103F600001002870FDF704F92B7803B970BD1F48D4
:103F7000FDF7EEF822781F4D42F002012170FDF7A7
:103F8000F7F82A4601231C491C48FDF781FC6420F0
:103F9000FCF7A6FF2A46012317491848FDF778FCCD
:103FA0006420FCF79DFFAA1C012315491348FDF767
:103FB0006FFC6420FCF794FFAA1C012310490F48F2
:103FC000FDF766FC0948FDF7C3F820780D4BB5F8FE
:103FD00000C06D8820F00202A3F800C05D8022704E
:103FE000BDE87040FDF7C4B8C00F0020B00F00203E
:103FF000AC0F00202808002000500008280E0020E8
:104000002C50000824080020AFF30080AFF300809C
:104010003B488A88038870B59A420C4614D32ED840
:10402000384920880B88984207D33748B4F802C033
:10403000028894454ED332D870BD002133480A46D9
:10404000BDE87040FEF7E4BD314A324B1688B3F844
:1040500000C02E4806EB0C05ADB242F21071028989
:104060008D4228BF0D4602FB05F62B4A0121A2FB1B
:10407000066C1D80CCF34F32FEF7CAFDD0E7244D0D
:10408000244BB5F800E0198820488E452CBFCEEBB4
:104090000E0ECEEB010E02891FFA8EF5E3E71F4EDE
:1040A0001F4B3488B3F800C0184864452CBFC4EBDC
:1040B0000404C4EB0C040289A4B202FB04F6164902
:1040C000A1FB06620021C2F34F321C80BDE87040A4
:1040D000FEF79EBD1148124B0588B3F800C00B488F
:1040E00005EB0C0442F22832A4B2B0F808C09442A6
:1040F00028BF14460CFB04F50749A1FB0552E1E774
:1041000060080020640800202C0800205C0E0020BD
:104110002E080020D20F00205917B7D162080020C6
:10412000D00F0020AFF30080AFF30080AFF300802A
:1041300070B5164D164C28461649FDF7E1FB0221D5
:1041400010222046FEF7BCFD204601211022FEF77A
:10415000B7FD002128460A46FDF7FAFB2846012153
:1041600000220D4DFDF7F4FB052220461C21FEF731
:10417000A7FD00212846FDF71BFB0849084A2846F1
:104180000223BDE87040FDF76BBB00BF5C0E002052
:104190000008014030080020280E00207050000860
:1041A000C40F0020AFF30080AFF30080AFF30080B6
:1041B00010B5054C82B022886388A4880349009416
:1041C000FFF71EFC02B010BDC40F002060500008B5
:1041D0002000390000000000000000000000000086
:1041E00000202020202020202020282828282820C7
:1041F00020202020202020202020202020202020BF
:104200002088101010101010101010101010101026
:104210001004040404040404040404101010101016
:1042200010104141414141410101010101010101E0
:104230000101010101010101010101011010101032
:1042400010104242424242420202020202020202B2
:104250000202020202020202020202021010101006
:10426000200000000000000000000000000000002E
:10427000000000000000000000000000000000003E
:10428000000000000000000000000000000000002E
:10429000000000000000000000000000000000001E
:1042A000000000000000000000000000000000000E
:1042B00000000000000000000000000000000000FE
:1042C00000000000000000000000000000000000EE
:1042D00000000000000000000000000000000000DE
:1042E00000000000000000000000000000000000CE
:1042F00069646C65000000006D61696E000000007B
:1043000053562331000000005356233200000000B2
:10431000535623330000000053562334000000009E
:10432000535623350000000053562336000000008A
:104330005356233700000000535623380000000076
:10434000535623390000000053562331300000003B
:10435000535623313100000000000000000000002F
:1043600022636856545365744922282900000000CE
:1043700022636856545265736574492228290000E7
:104380006368565452657365744928292C2023317B
:10439000000000000000000000000000000000001D
:1043A000636853636852656164794928292C202326
:1043B00031000000737461636B206F766572666C08
:1043C0006F77000000000000000000000000000007
:1043D00022636854686443726561746549222829C0
:1043E0000000000022636854686453657450726969
:1043F0006F7269747922282900000000636854688C
:1044000064526573756D6528292C202331000000E6
:10441000226368546864536C656570222829000023
:104420006368546864457869745328292C202331C3
:104430000000000022636854686457616974222890
:104440002900000063685468645761697428292C46
:104450002023310063685468645761697428292CEB
:1044600020233200000000000000000000000000D7
:10447000636854686441646452656628292C20236B
:1044800031000000636854686452656C656173654F
:1044900028292C2023310000226368546864437269
:1044A0006561746546726F6D4D656D6F7279506FA1
:1044B0006F6C2228290000000000000000000000AE
:1044C0002263684D7478496E6974222829000000BF
:1044D0002263684D74784C6F636B53222829000067
:1044E00063684D74784C6F636B5328292C202331FB
:1044F0000000000063684D74784C6F636B5328298B
:104500002C202332000000002263684D747854721E
:10451000794C6F636B5322282900000063684D7447
:1045200078556E6C6F636B28292C202331000000B6
:1045300063684D7478556E6C6F636B28292C20234B
:104540003200000063684D7478556E6C6F636B5376
:1045500028292C202331000063684D7478556E6C37
:104560006F636B5328292C202332000000000000C9
:1045700022636845767452656769737465724D612C
:10458000736B222829000000226368457674556EFB
:104590007265676973746572222829002263684511
:1045A00076745369676E616C492228290000000007
:1045B0002263684576745369676E616C222829000E
:1045C00022636845767442726F6164636173744DEF
:1045D00061736B4922282900226368457674446917
:1045E000737061746368222829000000636845764F
:1045F00074446973706174636828292C2023310026
:1046000022636849515265616454696D656F7574C0
:10461000222829002263684F5157726974655469D2
:104620006D656F75742228290000000000000000ED
:1046300022636848656170496E6974222829000008
:10464000226368486561704672656522282900000A
:104650006368486561704672656528292C2023319E
:10466000000000000000000000000000000000004A
:10467000226368506F6F6C496E69742228290000AC
:10468000226368506F6F6C416C6C6F6349222829FC
:1046900000000000226368506F6F6C4672656549C8
:1046A0002228290000000000000000000000000097
:1046B000226164635374617274222829000000002F
:1046C000616463537461727428292C2023310000C3
:1046D0002261646353746F702228290061646353FC
:1046E000746F7028292C202331000000226164633C
:1046F0005374617274436F6E76657273696F6E493D
:10470000222829006164635374617274436F6E766A
:10471000657273696F6E4928292C202331000000CF
:104720002261646353746F70436F6E766572736950
:104730006F6E22282900000061646353746F704318
:104740006F6E76657273696F6E28292C2023310095
:104750002261646353746F70436F6E766572736920
:104760006F6E49222829000061646353746F70439F
:104770006F6E76657273696F6E4928292C2023311C
:1047800000000000616463436F6E766572742829CF
:104790002C202331000000002261646341637175A5
:1047A00069726542757322282900000022616463E2
:1047B00052656C656173654275732228290000009B
:1047C0002270776D537461727422282900000000F2
:1047D00070776D537461727428292C202331000086
:1047E0002270776D53746F702228290070776D5393
:1047F000746F7028292C2023310000002270776DFF
:104800004368616E6765506572696F64222829008C
:1048100070776D4368616E6765506572696F642873
:10482000292C2023310000002270776D456E6162D3
:104830006C654368616E6E656C222829000000007B
:1048400070776D456E61626C654368616E6E656C14
:1048500028292C202331000070776D446973616230
:104860006C654368616E6E656C28292C20233100CD
:104870000000000000000000000000000000000038
:104880000000000000000000000000000000000028
:10489000227573625374617274222829000000002B
:1048A000757362537461727428292C2023310000BF
:1048B0002275736253746F702228290075736253D6
:1048C000746F7028292C2023310000002275736238
:1048D000496E6974456E64706F696E744922282947
:1048E00000000000757362456E61626C65456E6420
:1048F000706F696E744928292C2023310000000054
:10490000757362456E61626C65456E64706F696E49
:10491000744928292C20233200000000227573627C
:1049200044697361626C65456E64706F696E74731F
:10493000492228290000000075736244697361628E
:104940006C65456E64706F696E74734928292C20FC
:10495000233100002275736253746172745265636F
:104960006569766549222829000000002275736276
:1049700053746172745472616E736D697449222844
:1049800029000000227573625374616C6C52656378
:104990006569766549222829000000002275736246
:1049A0005374616C6C5472616E736D697449222822
:1049B00029000000000000000000000000000000CE
:1049C00001000000000000000000000000000000E6
:1049D00022736475537461727422282900000000E8
:1049E000736475537461727428292C20233100007C
:1049F00022736453746F7022282900007364755306
:104A0000746F7028292C2023310000000000000062
:104A100091210008712100081120000821200008C0
:104A2000B1210008A12100088121000861210008AE
:104A3000312000080000000000000000000000001D
:104A400022646D61416C6C6F63617465222829007A
:104A500022646D6152656C656173652228290000CE
:104A6000646D6152656C6561736528292C20233162
:104A70000000000000000000000000000000000036
:104A8000080002400400024000000B001C0002402D
:104A90000400024004010C00300002400400024007
:104AA00008020D0044000240040002400C030E0006
:104AB000580002400400024010040F006C00024045
:104AC000040002401405100080000240040002406F
:104AD00018061100000000000000000000000000A7
:104AE0006164635F6C6C645F737461727428292CF9
:104AF0002023310000000000000000000000000042
:104B000070776D5F6C6C645F737461727428292CAC
:104B10002023310000000000000000000000000021
:104B20000402040808000307080808080808080821
:104B30000B0F00000000000000000000000000005B
:104B4000000400000006000000000000000000005B
:104B50000002020202020202020202020202020237
:104B60000100000000000000000000000000000044
:104B7000706D5F616C6C6F6328292C2023310000FD
:104B800000000000911B0008911E0008211F000872
:104B900040004000C00E0020C00E002000000000B9
:104BA000FFFFFFFF844B888888888888FFFFFFFF0E
:104BB000888888888888B8B4FFFFFFFF8888844485
:104BC00088338388FFFFFFFF448888888888888827
:104BD000FFFFFFFF88888888888888880000000099
:104BE00055736167653A2025730D0A0073797374F4
:104BF000696D6500256C750D0A000000696E666FB1
:104C0000000000004B65726E656C3A202020202069
:104C1000202025730D0A0000322E342E32000000B1
:104C2000436F6D70696C65723A20202020202573D7
:104C30000D0A000047434320342E352E3200000079
:104C40004172636869746563747572653A2025738F
:104C50000D0A000041524D76372D4D00436F7265AD
:104C60002056617269616E743A2025730D0A000046
:104C7000436F727465782D4D33000000506F72746D
:104C800020496E666F3A2020202025730D0A00000F
:104C9000416476616E636564206B65726E656C203D
:104CA0006D6F646500000000506C6174666F726D1A
:104CB0003A202020202025730D0A000053544D3344
:104CC00032463120506572666F726D616E63652089
:104CD0004C696E65204D656469756D2044656E7321
:104CE00069747900426F6172643A2020202020208C
:104CF000202025730D0A00004F6C696D65782053E4
:104D0000544D33322D503130330000004275696C00
:104D1000642074696D653A202020257325732573FE
:104D20000D0A0000466562203132203230313300F6
:104D3000202D200030303A30333A33360000000066
:104D4000257320005E4400007368656C6C000000F1
:104D50000D0A43686962694F532F525420536865A6
:104D60006C6C0D0A0000000063683E20000000002B
:104D70000D0A6C6F676F757400000000746F6F2010
:104D80006D616E7920617267756D656E74730D0A61
:104D900000000000657869740000000068656C70B0
:104DA00000000000436F6D6D616E64733A206865AA
:104DB0006C70206578697420000000002573000085
:104DC000203F0D0A0000000000000000000000006D
:104DD000286E756C6C2900000000000000000000C7
:104DE0001200000000000000D122000800000000B6
:104DF0004000000000000000000000000000000073
:104E000043000000D04E0008000000000000000039
:104E10001300000000000000F12300080000000063
:104E20001000000000000000000000000000000072
:104E3000744E0008213E0008784E0008B141000879
:104E40000000000000000000000000000000000062
:104E500055736167653A206D656D0A00686561701C
:104E600020667261676D656E74732020203A20257C
:104E7000750A00006D656D00636F6E7600000000BE
:104E80001201100102000040830440570002010299
:104E9000030100000000000000000000000000000E
:104EA0001200000000000000000000006123000864
:104EB00000004000000000000000000000000000B2
:104EC000D40E0020304E000800000000000000005A
:104ED00009024300020100C032090400000102027D
:104EE0000100052400100105240100010424020230
:104EF0000524060001070582030800FF09040100DC
:104F0000020A0000000705030240000007058102B5
:104F10004000000000000000000000000000000051
:104F2000040309040000000000000000000000006D
:104F30002603530054004D006900630072006F00A7
:104F400065006C0065006300740072006F006E0005
:104F50006900630073000000000000000000000012
:104F60003803430068006900620069004F00530085
:104F70002F00520054002000560069007200740097
:104F8000750061006C00200043004F004D002000C0
:104F900050006F007200740000000000000000006C
:104FA000080332003400320000000000000000005E
:104FB00004000000204F000826000000304F0008C9
:104FC00038000000604F000808000000A04F0008F3
:104FD000700E0020513E0008E13D000881220008CB
:104FE00000000000000000000000000000000000C1
:104FF00012000000804E00080000000000000000C9
:10500000000000000100000000000000000000009F
:10501000000000000000000000000000C0010000CF
:10502000000000000000000002000000000000007E
:10503000010000000000000000000000000000006F
:105040000000000000000000000E00000000000052
:10505000000000000300000000000000000000004D
:105060007B25642C2025642C2025647D0D0A0000FE
:1050700001000000030000001140000800000000D3
:1050800000000000000000000000000040120000CE
:0C50900000002000000000006210000082
:1050A000E04100080096000000000800FC4B0008EA
:1050B00051350008EC4B00082135000800000000C5
:1050C00000000000FF7FFF7FFF7FFF7FF50BE803FD
:1050D000006CDC02E00100000000000001000000A4
:1050E00000000000010000000000000000000000BF
:1050F00000000000000000000000000000000000B0
:085100001408E803E3080000B5
:04000005080000F0FF
:00000001FF
