:020000040800F2
:100000000004002031070008010900080109000868
:100010000109000801090008010900080109000898
:100020000109000801090008010900083109000858
:10003000010900080109000801090008010A000877
:100040000109000801090008010900080109000868
:100050000109000801090008010900080109000858
:10006000010900080109000801090008D12300085E
:10007000012400083124000871240008B12400087C
:10008000F124000831250008010900083129000881
:10009000912C000801090008010900080109000865
:1000A0000109000801090008010900080109000808
:1000B00001090008010900080109000801090008F8
:1000C00001090008010900080109000801090008E8
:1000D00001090008010900080109000801090008D8
:0C00E000010900080109000801090008DE
:1000F00000210A2200F0B6B900220A2300F000B95C
:1001000040F60003C2F2000370B41D6810F8013B12
:10011000EC181A46647804F00304012C11F8014B22
:1001200008BF03F120022E192346767806F0030655
:10013000012E08BF04F12003D21A01D1002BE5D112
:10014000104670BC704700BF0000000000000000B7
:10015000C9B2F0B4002950D010F0030F10D00378CA
:10016000002B79D0994246D0431C05E013F8012BAF
:10017000002A3FD091423ED013F0030F1846F5D12C
:10018000036841EA01270646A3F1013247EA07471F
:1001900022EA030212F0803F1DD187EA0303A3F194
:1001A000013222EA030313F0803F14D1043002E04D
:1001B00012F0803F0FD1064650F8043BA3F1013501
:1001C00087EA030225EA0303A2F1013413F0803F1A
:1001D00024EA0202ECD033783046002B3CD099421E
:1001E00009D0731C01E0914205D0184613F8012B89
:1001F000002AF8D11046F0BC704710F0030F0CD065
:100200000378002BF7D0431C03E013F8012B002ADE
:10021000F1D013F0030F1846F7D102680346A2F19C
:10022000013121EA020212F0803F0AD10430034674
:1002300050F8042BA2F1013121EA020212F0803FB2
:10024000F5D01A781846002AD5D00133184613F88D
:10025000012B002AFAD1CEE71846CCE700000000B7
:1002600020F0030110F00300C0F1000051F8043B3E
:1002700000F1040C4FEACC0C6FF000021CBF22FA14
:100280000CF213434FF0010C4CEA0C2C4CEA0C4CD2
:10029000A3EB0C0222EA030212EACC1204BF51F8CB
:1002A000043B0430F4D013F0FF0F1FBF013013F4F0
:1002B0007F4F013013F47F0F18BF0130704700BF2C
:1002C000F0B40646047874B10F780546064657B177
:1002D000BC4218BF0A4602D108E09C4206D012F880
:1002E000013F002BF9D1301AF0BC70476C786E1CBE
:1002F000002CF8D03546EBE70000000000000000BD
:100300002DE9F04F40F60004C2F2000485B01F460C
:100310008C4626680B460390029213F8014B321963
:100320001D4692F801B01BF0080BF6D12D2C73D0AE
:100330002B2C08BF15F8014BD7F1010338BF002360
:10034000102F14BF1A4643F0010232B1302C73D083
:100350001BB1302C00F083800A27B946BBF1000F97
:1003600049460CBF6FF0004A4FF0004ACDF804C078
:10037000504600F0B3F950468846494600F080F8F0
:1003800033190022DDF804C05B78114613F0040F26
:100390001ED0303CA74225DD814294BF00230123BB
:1003A00053EAD2722ED10A1A534243EB0203444558
:1003B000D4BF002303F00103002B23D109FB01412B
:1003C00015F8014B012233195B7813F0040FE0D1CB
:1003D00013F0030306D0012B14BF57233723E41A6D
:1003E000A742D9DCB2F1FF3F1BD00846BBF1000F9A
:1003F00010D1029B1BB152B90299C1F800C005B0DF
:10040000BDE8F08F4FF0FF3215F8014BDBE705F147
:10041000FF3CF1E74842ECE715F8014B4FF0010BC8
:100420008AE70399BBF1000F0CBF6FF000404FF05B
:10043000004022230B60DCE72A78A2F178004142D9
:1004400041EB0001582A14BF0A4641F00102002A7C
:100450003FF47EAF10276C78B94602357EE7082757
:10046000B9467BE730B440F60404C2F200040D46FE
:10047000134601462A46206830BC41E700000000D0
:100480004A1E08BF7047C0F02481884240F216819E
:10049000114200F01781B0FA80F3B1FA81F2A2EBB9
:1004A0000303C3F11F0304A202EB03134FF0000286
:1004B0009F4600BFAFF30080B0EBC17F00BF42EBAF
:1004C000020228BFA0EBC170B0EB817F00BF42EBFE
:1004D000020228BFA0EB8170B0EB417F00BF42EB6E
:1004E000020228BFA0EB4170B0EB017F00BF42EBDE
:1004F000020228BFA0EB0170B0EBC16F00BF42EB5E
:10050000020228BFA0EBC160B0EB816F00BF42EBDD
:10051000020228BFA0EB8160B0EB416F00BF42EB4D
:10052000020228BFA0EB4160B0EB016F00BF42EBBD
:10053000020228BFA0EB0160B0EBC15F00BF42EB3D
:10054000020228BFA0EBC150B0EB815F00BF42EBBD
:10055000020228BFA0EB8150B0EB415F00BF42EB2D
:10056000020228BFA0EB4150B0EB015F00BF42EB9D
:10057000020228BFA0EB0150B0EBC14F00BF42EB1D
:10058000020228BFA0EBC140B0EB814F00BF42EB9D
:10059000020228BFA0EB8140B0EB414F00BF42EB0D
:1005A000020228BFA0EB4140B0EB014F00BF42EB7D
:1005B000020228BFA0EB0140B0EBC13F00BF42EBFD
:1005C000020228BFA0EBC130B0EB813F00BF42EB7D
:1005D000020228BFA0EB8130B0EB413F00BF42EBED
:1005E000020228BFA0EB4130B0EB013F00BF42EB5D
:1005F000020228BFA0EB0130B0EBC12F00BF42EBDD
:10060000020228BFA0EBC120B0EB812F00BF42EB5C
:10061000020228BFA0EB8120B0EB412F00BF42EBCC
:10062000020228BFA0EB4120B0EB012F00BF42EB3C
:10063000020228BFA0EB0120B0EBC11F00BF42EBBC
:10064000020228BFA0EBC110B0EB811F00BF42EB3C
:10065000020228BFA0EB8110B0EB411F00BF42EBAC
:10066000020228BFA0EB4110B0EB011F00BF42EB1C
:10067000020228BFA0EB0110B0EBC10F00BF42EB9C
:10068000020228BFA0EBC100B0EB810F00BF42EB1C
:10069000020228BFA0EB8100B0EB410F00BF42EB8C
:1006A000020228BFA0EB4100B0EB010F00BF42EBFC
:1006B000020228BFA0EB0100104670470CBF0120CA
:1006C00000207047B1FA81F2C2F11F0220FA02F055
:1006D000704708B14FF0FF3000F012B80029F8D091
:1006E0002DE90340FFF7CCFEBDE8064002FB00F316
:1006F000A1EB0301704700BF0000000000000000F4
:10070000704700BF00000000000000000000000073
:10071000704700BFAFF30080AFF30080AFF30080FD
:10072000FEE700BFAFF30080AFF30080AFF30080BF
:1007300072B6634C84F30988022383F31488BFF3F1
:100740006F8F02F06DFC5F4A5F48824217D21346FA
:100750004FF05531D64343F8041B85198342C5F346
:1007600080050CD225B1196002F10803834206D23C
:100770001A4642F8041B5960131D8342F8D3534AAA
:10078000A24217D213464FF05531D54343F8041B0C
:100790006019A342C0F380000CD220B1196002F1AD
:1007A0000803A34206D21E4646F8041B5960331DB7
:1007B000A342F8D34649474CA14222D246480B46B1
:1007C000024652F8046BCD4343F8046B04EB050C6E
:1007D000A342CCF3800514D23DB1166800F10802A3
:1007E0001E6001F10803A3420BD2104650F8045BCF
:1007F000194641F8045B5668021D5E600B1DA3425A
:10080000F3D3364A3648824216D200211346D643E5
:1008100043F8041B84198342C4F380040CD224B12E
:10082000196002F10803834206D21A4642F8041BFB
:100830005960131D8342F8D32A4D2B4EFFF768FFF2
:10084000B54219D22C4654F8043BE943771898472F
:10085000B442C7F380070FD22FB1236805F1080413
:100860009847B44208D2254655F8042B9047606853
:100870002C1D8047B442F6D31C4D1D4E03F028F8C2
:10088000B5421AD22C46EF4354F8043B06EB070E50
:10089000CEF380079847B4420FD22FB1226805F1FA
:1008A00008049047B44208D2254655F8040B804707
:1008B00061682C1D8847B442F6D3FFF731BF00BFF3
:1008C0000008002000000020000400200004002098
:1008D0000008002028090020D84900082809002025
:1008E000941C0020EC000008EC000008EC0000085C
:1008F000EC000008AFF30080AFF30080AFF300809E
:10090000FEE700BFAFF30080AFF30080AFF30080DD
:1009100072B6FEE7AFF30080AFF30080AFF3008064
:1009200000F06EF900F0D4FB00F08AF900DF00BFA0
:10093000EFF30983203383F30988002383F31188BD
:10094000704700BFAFF30080AFF30080AFF30080CB
:100950000A4B002210B59A60094A07201021DA607C
:1009600000F0A6F80A204FF4007100F0A1F80B2067
:100970008021BDE8104000F09BB800BF00ED00E012
:100980000000FA05AFF30080AFF30080AFF3008002
:10099000202383F311881648436813F4006316D0AC
:1009A000EFF30983203B83F30988124A4FF08070EC
:1009B0009169D86171B11068D26981689268914279
:1009C00094BF002201227AB10B499961704783F3E9
:1009D000118870471068D26981689268914234BF6B
:1009E00000220122002AEFD1044A9A61704700BF19
:1009F00000ED00E05C0E0020210900082C09000831
:100A000010B500F07DF9202383F3118800F038F948
:100A100000F0AEF800F054F9002383F3118800F0E1
:100A20008FF9BDE81040FFF7B3BF00BFAFF3008000
:100A30002DE9F04FC1F80CD0D0F80CD0BDE8F08F04
:100A400008B500F0FDF8002383F311882846A0477D
:100A500000F05EFC08BD00BFAFF30080AFF3008084
:100A6000F0B400F00307FE00FF2313FA06F200F0D3
:100A70001F04B1400125A5408608094CC03654F832
:100A80002670400927EA020242EA010300F16007EA
:100A900044F8263044F8275044F82050F0BC704702
:100AA00000E100E0AFF30080AFF30080AFF300801F
:100AB00000F0030210B4FF23D40013FA04F2A140A3
:100AC0008008064C063054F8203023EA020242EA3D
:100AD000010344F8203010BC704700BF00ED00E077
:100AE0000248034AC3699A61FEE700BF5C0E00201A
:100AF000903F0008AFF30080AFF30080AFF30080B9
:100B000030B583B0FFF724FF00F012FA00F0A8F927
:100B100000F08EFE00F0D4FE00F062F940210E4895
:100B200000F0FEFA0D4D0E490124E86180F82040E6
:100B3000C16100F04DF8002383F3118862B6EA69C1
:100B40001D46084BC021936107482246074B00957C
:100B500000F056FB03B030BD280900205C0E0020D9
:100B600000040020983F000878090020E10A0008EE
:100B700070B500F005F9114B9A69002A01DD013AC0
:100B80009A61DA690E4C516A2368481C5062E16828
:100B9000481CA342E0600FD09D68013D9D605DB997
:100BA00026461968DA681869DD604E602160904752
:100BB000236898680028F4D070BD00BF5C0E002048
:100BC0004C0E0020AFF30080AFF30080AFF3008045
:100BD0000548036813B9054A116821B10448054B5B
:100BE0001860FFF795BE7047380A0020440E0020B9
:100BF000B03F0008480E0020AFF30080AFF3008044
:100C0000084810B5036853B9074C216821B1074A59
:100C1000074B1A60FFF77CFE0120206010BD024CDC
:100C2000F5E700BF380A0020440E0020B83F000856
:100C3000480E0020AFF30080AFF30080AFF30080D8
:100C4000094810B5036833B9084C2168002903DD51
:100C50000020206010BD054C054A064B1A60FFF7C6
:100C600057FE0020206010BD380A0020440E0020EE
:100C7000C03F0008480E0020AFF30080AFF30080B3
:100C8000084810B50368002B0ADD074C216821B124
:100C9000064A074B1A60FFF73BFE0120206010BD9B
:100CA000014CF5E7380A0020440E0020C83F000838
:100CB000480E0020AFF30080AFF30080AFF3008058
:100CC0000A4810B50368002B06DD094C216800298D
:100CD00003DD0020206010BD054C064A064B1A605B
:100CE000FFF716FE0020206010BD00BF380A00206C
:100CF000440E0020D03F0008480E0020AFF30080D3
:100D000010B5202383F31188094C2368002B02DBE4
:100D1000084802682AB1084B08491960FFF7F8FD36
:100D200023685A1C2260002383F3118810BD00BF82
:100D3000380A0020440E0020480E0020D83F00084A
:100D400010B5202383F31188094C2368002B02DDA2
:100D5000084802682AB1084B08491960FFF7D8FD16
:100D600023685A1E2260002383F3118810BD00BF40
:100D7000380A0020440E0020480E0020E03F000802
:100D800006480368002B04DB054A1168002900DDD2
:100D900070470448044B1860FFF7BABD380A0020BA
:100DA000440E0020E83F0008480E0020AFF300800A
:100DB0000648036823B9064A1168002900DD704718
:100DC0000448054B1860FFF7A3BD00BF380A002098
:100DD000440E0020F03F0008480E0020AFF30080D2
:100DE000034A4021134643F8081B5360704700BF75
:100DF0003C0A0020AFF30080AFF30080AFF3008027
:100E000010B40D4A0D4C0E495368E468C9691C6062
:100E10005960846A03F110019C6090F8204002F54B
:100E2000816081421C7328BF02F10803516028BF12
:100E3000536010BC704700BF3C0A00204C0E0020DD
:100E40005C0E0020AFF30080AFF30080AFF30080B2
:100E5000014B1860FFF75CBD480E0020AFF3008027
:100E6000044B4FF0FF3000225B601B609860DA603B
:100E7000704700BF4C0E0020AFF30080AFF300803E
:100E8000F8B504460D4616461F46FFF779FFCCB16C
:100E9000C6B1BDB10D4927610B68E6609A689542FD
:100EA00004D91B68AD1A9A68AA42FAD35A688B42D1
:100EB0002360626014605C60A56002D09868451B86
:100EC0009D60F8BD0248FFF7C3FFE3E74C0E00202A
:100ED00000400008AFF30080AFF30080AFF3008064
:100EE00010B50446FFF74CFF84B1E36893B1236863
:100EF0000A4A934203D09968A2688818986060688B
:100F0000002203602368E260586010BD0448FFF7C8
:100F10009FFFEAE70348FFF79BFFE8E74C0E00203E
:100F20001040000820400008AFF30080AFF30080BD
:100F3000044B002014225B601B6098609A615B6127
:100F40001B6170475C0E0020AFF30080AFF30080A0
:100F500010B590F8203004468BB10E2B0FD0002234
:100F6000094BA16884F820201B6898688842FBD24E
:100F70005968236061600C605C60204610BD0348C6
:100F8000FFF766FFEBE700BF5C0E00204040000863
:100F900090F820300D2B11D8DFE803F01510100762
:100FA000100B101010101010100B816A8B685A1C57
:100FB0008A60416803680B60026851604FF0FF323D
:100FC0008262FFF7C5BF7047AFF30080AFF30080C8
:100FD00070B5114C0646FFF7EBFEE569142085F865
:100FE0002060236801211A6883F82010A0615460F2
:100FF00028462260E361FFF703FFEA69ADF12403AD
:101000009A4202D90548FFF723FFE0692946BDE867
:101010007040FFF70DBD00BF5C0E0020544000087B
:1010200070B50E4686B00546FFF7C2FEB6F1FF3F2B
:1010300012D00C4C3146E3690B4A01A8FFF720FFA0
:101040002846FFF7C5FF049B13B101A8FFF748FF2F
:10105000E069806A06B070BD2846FFF7B9FF014C11
:10106000F6E700BF5C0E0020910F0008AFF3008090
:1010700070B5154D04460E46FFF79AFEE869A26862
:101080008368A6629A4215D9FFF762FF01231422F2
:10109000064684F82030AA61EC61FFF7B1FEF069E2
:1010A000ADF1240188420AD820463146BDE870409F
:1010B000FFF7BEBC2046BDE87040FFF749BF0348BC
:1010C000FFF7C6FEF0E700BF5C0E002054400008AA
:1010D00070B5104C01212368E5691A681420A061DD
:1010E00083F82010546028462260E361FFF730FF48
:1010F0002846FFF785FEEA69ADF124039A4202D93A
:101100000548FFF7A5FEE0692946BDE87040FFF7F6
:101110008FBC00BF5C0E002054400008AFF300807D
:10112000F0B40022104C0125022380F8203080F812
:10113000212080F82250656900F1300600F12C0C66
:1011400000F14C07046181604561416460610264A3
:10115000C263426282612861C0F82CC046630663A4
:10116000C761F0BC704700BF5C0E0020AFF3008089
:10117000F8B504460D4616461F46FFF701FE0CB1B2
:10118000AF2D2BD81848FFF763FE243D6119E160AD
:101190006751069D15484D600023154A0227012519
:1011A000086284F8207084F8225084F82130506955
:1011B00004F1300104F12C0704F14C052261606157
:1011C000A6606664546123640461E3636362A3619F
:1011D000E76261632163E5612046F8BD7F2ED1D8C7
:1011E000002FD2D1CEE700BF70400008410A0008AE
:1011F0005C0E0020AFF30080AFF30080AFF30080FF
:10120000F0B504460D461F4683B016464C302346C3
:10121000FF211A4602F8011B5970531C8342F8D172
:101220006019834215D25521DA4303F8011B00EB04
:10123000020C83420CF001020BD01AB103F8011B1F
:10124000834206D01A4602F8011B5970531C834290
:10125000F8D1202383F31188FFF7D2FC2046089CA5
:101260003B46324629460094FFF782FF00210446A0
:10127000FFF7FEFEFFF7E4FC002383F3118820460E
:1012800003B0F0BDAFF30080AFF30080AFF3008098
:1012900010B5044610B90948FFF7DAFD202383F39F
:1012A0001188FFF7ADFC21460620FFF7B9FEFFF7D6
:1012B000C7FC002383F3118810BD00BFB0400008B5
:1012C000114B70B5DC69254655F82C3FA062AB4246
:1012D00007D01A681846E262FFF73AFEE36AAB42AB
:1012E000F7D194F8210010F0030F04D1636922694B
:1012F0001A6121694B610E20FFF76AFE0348BDE8C1
:101300007040FFF7A5BD00BF5C0E0020C040000884
:1013100010B52023044683F31188FFF771FC2046A3
:10132000BDE81040FFF7CCBFAFF30080AFF3008003
:1013300010B5044620B1002364602460A36010BD92
:101340000348FFF785FD002364602460A36010BD9F
:1013500010410008AFF30080AFF30080AFF30080CE
:101360003B4B2DE9F0410546DC69FFF721FD002DDF
:101370006AD0A868002836D0A2688168914208D255
:1013800090F820308260042B46D0052B31D0002B02
:101390001ED02B461B689D4203D09868A1688842E6
:1013A000F8D25A682360626004205C601460A56211
:1013B000FFF70EFEAB68A34202D02648FFF748FDB8
:1013C000206CA84213D02448BDE8F041FFF740BD8F
:1013D0004368026801211A60026880F82010536097
:1013E000FFF7B6FDD5E7216CAC60E9602564BDE888
:1013F000F08141680768866A0F6007683346796044
:101400001B689E4202D099689142F9D25A680360E3
:10141000426010605860BCE741680768866A0F60E8
:101420000768334679601B689E4202D099689142F2
:10143000F9D25A680360426010605860B068A268D0
:10144000836893429CD3A4E70448FFF701FD90E72B
:101450005C0E002030410008444100082041000893
:1014600010B52023044683F31188FFF7C9FB2046FB
:10147000FFF776FFFFF7E4FB002383F3118810BD2D
:10148000214A70B52023D56983F31188FFF7B8FB93
:101490002C6C002C33D0A368AB4203D01B48FFF761
:1014A000D7FC2C6C2368E268A3422A641ED0686CC7
:1014B0004AB11168914203D08968884238BF084612
:1014C000D268002AF5D11A681E6CA860002122603B
:1014D00018465460A360E6601C64FFF7C9FDFFF77F
:1014E000AFFB002383F31188204670BD0020A0606D
:1014F000FFF7A6FB002383F31188204670BD044844
:10150000FFF7A6FC2C6CC6E75C0E002080410008AB
:101510006C410008AFF30080AFF30080AFF30080B0
:1015200038B504460D46FFF72BFCBCB1E26B94F8CE
:1015300020301543082BE5630CD0092B00D038BDB3
:10154000A06A0540A842FAD12046FFF701FD00211C
:10155000816238BDA36A1D42F6D138BD0148FFF74C
:1015600077FCE3E7EC410008AFF30080AFF30080C5
:1015700070B505460E46FFF703FC65B12C68AC421A
:1015800008D0A168606846EA0101FFF7C9FF246836
:10159000AC42F6D170BD0248FFF75AFCEEE700BF3F
:1015A00010420008AFF30080AFF30080AFF300807B
:1015B00010B4034619B94FF0FF3010BC7047064C09
:1015C0000D20E26993625C68136054605A60226087
:1015D00010BCFFF725BD00BF5C0E0020AFF30080FC
:1015E00010B48A1800244060006084604161816109
:1015F000C1600261C36110BC704700BFAFF30080DF
:10160000F8B504460D46202383F31188FFF7F8FA56
:10161000E3690BB120469847A6682046294656B98B
:10162000FFF7C6FF071EF7DAFFF70AFB334683F31F
:1016300011883846F8BDA369013EA66013F8017B06
:101640002269A361934224BFE368A361FFF7F8FA1C
:10165000002383F311883846F8BD00BFAFF3008044
:101660002DE9F0470446904689461D46C769002A81
:1016700037D0202383F31188FFF7C2FA00260FB179
:101680002046B847D4F808A020462946BAF1000FF2
:101690000BD1FFF78DFF0028F4D0FFF7D1FA5346A6
:1016A00083F311883046BDE8F087A3690AF1FF3162
:1016B000A16013F8010B09F806002269A3619342A7
:1016C00024BFE368A361FFF7BBFA002383F311880B
:1016D00001364645E6D0202383F31188FFF790FAC0
:1016E000CDE70248FFF7B4FBC3E700BF5042000854
:1016F00010B48C1840600060826041618161C160FB
:101700000461C36110BC7047AFF30080AFF3008089
:101710002DE9F041202304460D46164683F3118837
:10172000FFF76EFAA7682046314667B9FFF740FF1A
:10173000B0F10008F6DAFFF783FA3B4683F311882D
:101740004046BDE8F0816369013FA76003F8015B93
:1017500022696361934224BFE3686361E3690BB16B
:1017600020469847FFF76CFA002383F311889846C8
:101770004046BDE8F08100BFAFF30080AFF30080CA
:101780002DE9F047044615460E469946D0F81C80D0
:10179000002A40D0202383F31188FFF731FA002775
:1017A000D4F808A020460AF1FF33BAF1000F24D084
:1017B000A3603178636903F8011B22696361934276
:1017C00024BFE3686361B8F1000F00D0C047FFF7A2
:1017D00037FA002383F311880137013D18D0013611
:1017E000202383F31188FFF70BFAD4F808A02046D2
:1017F0000AF1FF33BAF1000FDAD120464946FFF76C
:10180000D7FE0028CCD0FFF71BFA534683F311888C
:101810003846BDE8F0870248FFF71AFBBAE700BF79
:1018200064420008AFF30080AFF30080AFF30080A4
:10183000054B064A064823F00701064B116020F0CD
:1018400007021A60704700BF9B1C0020800E00201A
:10185000002800207C0E0020AFF30080AFF3008052
:1018600010B50446FFF78CFA074A0849136809685F
:10187000E01D20F00700C91A884203D8181810602C
:10188000184610BD002010BD800E00207C0E0020E8
:1018900010B52023044683F31188FFF7B1F92046E1
:1018A000FFF7DEFF0446FFF7CBF9002383F311882F
:1018B000204610BDAFF30080AFF30080AFF300808F
:1018C000044B0549002203F1100019609A60DA60A8
:1018D000FFF72EBD880E002091180008AFF300809E
:1018E00010B500F075FE00F043FB064800F040FF25
:1018F00000F00EF800F03CF800F03AFCBDE81040B3
:1019000001F096BB30450008AFF30080AFF30080D4
:1019100000F0F6BEAFF30080AFF30080AFF30080BD
:1019200000230122027043608360C360036143614E
:101930001830FFF7FDBC00BFAFF30080AFF30080AD
:1019400010B590F84210044680F84A1001F030F8C3
:1019500063681B6813B1204601219847032020705B
:1019600010BD00BFAFF30080AFF30080AFF3008085
:1019700000F0EEBFAFF30080AFF30080AFF3008064
:10198000002301220270436083608381C38170471A
:1019900070B504460D4610B309B3202383F31188B4
:1019A000FFF72EF92178481EC3B2012B02D90E4849
:1019B000FFF74EFA00262046656026616661A66143
:1019C000E66126626662A662E66200F0C9FF022254
:1019D0002270FFF735F9334683F3118870BD034851
:1019E000FFF736FAD9E700BFB0420008A04200086E
:1019F0002DE9F04104460D461646FFF7C1F9002CCB
:101A00002AD0002E28D02378042B02D01448FFF7C8
:101A10001FFA2F1D54F8270010B11248FFF718FACB
:101A2000316811F010030FD1726994464CF8043BF1
:101A30005360CCF80430B069014641F8043B0A1DFC
:101A4000436042F8043B13602046294644F827606F
:101A5000BDE8F04100F0BCBF0348FFF7F9F9D2E759
:101A6000F442000810430008DC420008AFF3008095
:101A700070B504460E46FFF783F99CB1E38953FA2B
:101A800006F515F0010501D0012070BD012010FA06
:101A900006F242EA03032046E381314601F050FAA0
:101AA000284670BD0148FFF7D3F9E7E76443000813
:101AB00070B504460E46FFF763F99CB1A38953FA4B
:101AC00006F515F0010501D0012070BD012010FAC6
:101AD00006F242EA03032046A381314601F040FAB0
:101AE000284670BD0148FFF7B3F9E7E77C430008DB
:101AF00010B4002202240470A0F8482080F84A2084
:101B000080F84B208281C281026142618261C261A0
:101B1000026242628262C26280F8302010BC00F031
:101B2000D7BF00BFAFF30080AFF30080AFF30080FA
:101B300000222DE9F041044680F8302000F14002F7
:101B400001F006F863689B68002B1FD02046984779
:101B5000E0B1A56B94F84030B4F84610A9423CBF00
:101B6000A1630D4613F0800F33D1002D64D1042101
:101B700084F83010204629462A462B4601F0D0F939
:101B800020462946BDE8F04101F0EAB994F840301A
:101B900013F060061A462DD00021204601F000FA0D
:101BA0002046002101F0ECF96268136813B1204669
:101BB00005219847A56BB4F8461094F840300520ED
:101BC000A9423CBFA1630D4613F0800F84F830009A
:101BD000CBD0002D3FD00123002184F830302046A7
:101BE000626B2B4601F09CF920460021BDE8F041D4
:101BF00001F0B6B994F8417003F07F0141EA07277C
:101C0000B7F5407F00F0998034DDB7F5C06F00F084
:101C1000BD8050DDB7F5106F00F0A68040F602459C
:101C2000AF425BD0B7F5006FB6D1012504F14B0090
:101C30006063A563E6638FE70320002184F830002A
:101C4000626B20462B4601F053F920460021BDE887
:101C5000F04101F075B9022284F83020204629466F
:101C60002A462B4601F044F920462946BDE8F041BA
:101C700001F066B9022F49D02BDDB7F5807F34D053
:101C8000B7F5817F88D194F84200002884D194F878
:101C9000443013F00F0108D013F0800F40F0B180F2
:101CA000204601F08DF994F8402000256563A56376
:101CB000E563134650E740F2023087427BD0B7F528
:101CC000A06F7FF469AF55496663A663E16335464B
:101CD00042E7002F41D0012F7FF45EAF504902252B
:101CE00000226163A563E26336E794F842C0BCF169
:101CF000010F7FF451AFB4F84810666321F0020E73
:101D0000A4F848E0A663E663354625E794F8441056
:101D100011F0800F66D1204601F00F0100F0F8FEAF
:101D2000012866D002287FF437AF3E4BA06363637F
:101D3000E66394F8403005460EE794F84200012827
:101D40007FF42AAFB4F84820666342F00205A4F895
:101D50004850A663E6633546FEE6022504F14802D4
:101D60006263A563E763F7E694F8421084F84B10CA
:101D7000002934D10325257060680368002B94D0B6
:101D800020460221984794F840208EE76368204659
:101D90005D6894F8431094F84220B4F84430A847A2
:101DA00000283FF4F9AE4268056894F84030626359
:101DB000A563E663D0E694F8421000297FF4ECAE08
:101DC00094F8443013F00F013FF46FAF13F0800F1D
:101DD0001DD1204601F0D4F894F8402065E7042393
:101DE0002370C9E7204601F00F0100F0A1FE012891
:101DF00098D10D4DA7636563E66394F840303D4686
:101E0000AAE6204601F0F4F894F840204DE7204679
:101E100001F0C6F894F8402047E700BF41190008D8
:101E20008042000890420008D0430008AFF30080D1
:101E300090F8303070B5012B044619D0042B10D027
:101E4000002101F0ADF80021204601F099F8616809
:101E50000B6813B1204605219847052284F83020ED
:101E600070BDC36B03B19847002384F8303070BD58
:101E7000836BB0F846209A4206D90269118AB3FBF7
:101E8000F1F501FB153575B1002102200A460B461C
:101E900084F83000204601F02BF820460021BDE8F0
:101EA000704001F04DB829462A462B4601F038F81B
:101EB00020462946BDE8704001F052B8AFF30080DB
:101EC00090F8303070B5022B044621D0032B11D08E
:101ED0000021204601F064F82046002101F050F86E
:101EE00063681B6813B1204605219847052184F8D3
:101EF000301070BD002104250A460B4680F8305092
:101F000001F00EF820460021BDE8704001F028B82D
:101F100002699169CB68002BDAD1C36B03B1984792
:101F2000002084F8300070BDAFF30080AFF3008074
:101F300001494B6883607047001000E0AFF30080F8
:101F4000084B09495A6883680968D31AC2685B1A42
:101F50009342836004D80269934238BF036170479B
:101F6000C3607047001000E0A80E0020AFF30080AF
:101F700010B50B4A86B00B490B4C002301A8019207
:101F80004FF0FF3223600393049302910592FFF711
:101F9000CFFF01A802998847039B236006B010BDBC
:101FA000311F0008411F0008A80E0020AFF3008079
:101FB000806BD0F1010038BF00207047AFF3008084
:101FC0008069D0F1010038BF00207047AFF3008076
:101FD00070B52023044683F311880026FEF710FE17
:101FE000A568A660FEF72CFE334683F311882846C9
:101FF00070BD00BFAFF30080AFF30080AFF300808F
:102000002DE9F0418469D4F8D000D4F84080036809
:10201000E76B9D89A66B15F0020501D0BDE8F08144
:10202000FEF70EFE2B4683F31188D4F8D010C7EBD1
:102030000807BB1B0868E26B012100F0F1FD2023BB
:1020400083F31188FEF7DCFDD4F8D000012100688D
:10205000FFF72EFDA268201D42F00806A660294663
:102060002646FFF785FAE16B236C56F8300F5A1AB3
:10207000B0426164A263D1D0036823635E60FEF75F
:1020800067FF8562206BB042F6D1BDE8F08100BFEA
:10209000F8B54469D4F8D0100868C38913F0080F64
:1020A00001D1A56905B1F8BDFEF7CAFD2B4683F342
:1020B0001188D4F8D060402303213068E26900F031
:1020C0006FFD2023064683F31188FEF799FDD4F8AF
:1020D000D00003210068FFF7CBFCA368201D43F06C
:1020E0000407A76029462746FFF742FA57F8100F62
:1020F000E269B842A262A661D5D0016821614F6051
:10210000FEF726FF85622069B842F6D1F8BD00BF10
:102110001030FFF7A5BA00BFAFF30080AFF3008027
:1021200010304FF0FF33FFF79BBA00BFAFF30080D2
:102130003030FFF725BB00BFAFF30080AFF3008066
:1021400030304FF0FF33FFF71BBB00BFAFF3008011
:102150001030FFF755BA00BFAFF30080AFF3008037
:102160003030FFF7D5BA00BFAFF30080AFF3008087
:10217000704700BFAFF30080AFF30080AFF3008083
:1021800038B50E4B0546044645F8043B656000250E
:10219000A5600125103004F150014022084B257341
:1021A000FFF71EFA04F1300004F190014022054BC4
:1021B000FFF79EFA6462A46438BD00BF20440008A3
:1021C0009120000801200008AFF30080AFF30080E9
:1021D00070B504460D46F0B1202383F31188FEF755
:1021E0000FFD217B481EC3B2012B02D90C48FEF71C
:1021F0002FFE2B680222C4F8D0509C602273FEF799
:102200001FFD002383F31188294651F8040BBDE814
:102210007040FFF7BDBB0348FEF71AFEDCE700BFC6
:10222000F0430008E0430008AFF30080AFF3008004
:1022300090F8401001F06003202B01D0002070477F
:1022400090F84130212B0BD0222B03D0202B07D02C
:1022500000207047002242638263C26301207047FE
:1022600003490723002241638363C263012070474F
:10227000F8080020AFF30080AFF30080AFF30080D8
:10228000F8B5846805460E46202383F31188FEF7CF
:10229000F7FC206CE26BA36B871AFF1A05D1FEF7DF
:1022A0000FFD002383F31188F8BDFEF709FD00231D
:1022B00083F311883B4628463146E26B00F0B0FCC0
:1022C000202383F31188FEF7DBFC28463146FFF715
:1022D000EFFBA168201D41F00805A56000212546FF
:1022E000FFF746F9E36B226C55F8300FD11AA8427C
:1022F0006364A163D3D00026036823635D60FEF7A7
:1023000027FE8662206B8542F6D1FEF7D9FC0023BA
:1023100083F31188F8BD00BFAFF30080AFF30080F6
:102320002DE9F0412023846806460F4683F3118887
:10233000FEF7A6FCA56935B1FEF7C2FC002383F3C6
:102340001188BDE8F081FEF7BBFC2B4683F31188B2
:10235000402330463946E26900F022FC20238046C3
:1023600083F31188FEF78CFC30463946FFF780FB7B
:10237000A268201D42F00401A16026462946FFF70D
:10238000F7F856F8100FE369B042A362C4F818805A
:10239000D2D0036823615E60FEF7DAFD85622069B2
:1023A000B042F6D1FEF78CFC002383F31188BDE820
:1023B000F08100BFAFF30080AFF30080AFF3008087
:1023C000704700BFAFF30080AFF30080AFF3008031
:1023D00010B5FEF795FC0848084A03680F241168F9
:1023E000546013B1406821409847FEF7A9FCBDE84E
:1023F0001040FEF7CDBA00BFAC0E00200000024036
:1024000010B5FEF77DFC0848084A8368F02411687F
:1024100054601BB1C068C1F303119847FEF790FCEC
:10242000BDE81040FEF7B4BAAC0E00200000024038
:1024300010B5FEF765FC0948094A03694FF470645A
:10244000116854601BB14069C1F303219847FEF73E
:1024500077FCBDE81040FEF79BBA00BFAC0E002031
:1024600000000240AFF30080AFF30080AFF30080C4
:1024700010B5FEF745FC0948094A83694FF47044DA
:10248000116854601BB1C069C1F303319847FEF76E
:1024900057FCBDE81040FEF77BBA00BFAC0E002031
:1024A00000000240AFF30080AFF30080AFF3008084
:1024B00010B5FEF725FC0948094A036A4FF4702459
:1024C000116854601BB1406AC1F303419847FEF79D
:1024D00037FCBDE81040FEF75BBA00BFAC0E002031
:1024E00000000240AFF30080AFF30080AFF3008044
:1024F00010B5FEF705FC0948094A836A4FF47004D9
:10250000116854601BB1C06AC1F303519847FEF7CC
:1025100017FCBDE81040FEF73BBA00BFAC0E002030
:1025200000000240AFF30080AFF30080AFF3008003
:1025300010B5FEF7E5FB0948094A036B4FF07064DC
:10254000116854601BB1406BC1F303619847FEF7FB
:10255000F7FBBDE81040FEF71BBA00BFAC0E002031
:1025600000000240AFF30080AFF30080AFF30080C3
:10257000124BF0B4D3F800C0DF689E695D6A1C6B33
:10258000D86B996C0023CCF800300D4ADFF838C0C6
:102590003B601360336093602B6013612360936131
:1025A0000360136293621363CCF800300B60054B39
:1025B0004FF0FF325A60F0BC704700BF5044000833
:1025C000AC0E002000000240E40E0020AFF30080BB
:1025D000214B00224FF0FF3030B420491C691861B4
:1025E0001A61DD68D8604BF67F30DA601C4C4860B9
:1025F00007208A600860E1681A4841F08071E16054
:102600000468194944F001040460D86940F080501E
:10261000D861D86940F00060D861086840F48070E3
:102620000860186A00F44071B1F5407F03D04FF4A0
:10263000803119621A62084B1A6A12F4004F07D1EE
:10264000186A40F440721A62196A41F40040186234
:1026500030BCFFF78DBF00BF0010024010E000E06B
:10266000F0ED00E0001000E000700040AFF30080EB
:102670001F4B1868194640F001021A600B681C4A8B
:1026800013F0020FFAD01368002003F0F901116073
:10269000114650604868164A10F00C0FFAD11068C5
:1026A000114640F4803313600B68114A13F4003F65
:1026B000FAD05368114643F488105060136843F011
:1026C0008070106008680A4A10F0007FFAD009484C
:1026D000094B1121506019605068114640F0020307
:1026E00053604A6802F00C0CBCF1080FF9D1704736
:1026F000001002400064510000200240AFF300804F
:1027000010B5144C2046FFF70BF9134B1349986989
:1027100040F400729A61124B0020A16201224860CD
:10272000E36242F28A5009238A6020638B608B68DF
:102730000A4A13F0080FFAD105219160906810F051
:102740000403FBD10548044A8360916921F40073B6
:10275000936110BDE80E00200010024000240140EB
:1027600050440008AFF30080AFF30080AFF3008067
:10277000154B30B49A69154D42F07D049C61016897
:10278000134CE960826813496A604368124A2B60FF
:10279000C568124BE5604569656005692560846917
:1027A000CC60046A4C60C4690C60416AD160C16A43
:1027B0005160816A1160026BDA60816B5960426B13
:1027C0001A6030BC704700BF001002400008014092
:1027D000000C0140001001400014014000180140AD
:1027E000032AF0B400F09A80042A08BF41614C4BE0
:1027F00011F080079B5C40F088800F2411F40045A5
:1028000040F089800F264A002401360139012D014C
:1028100012F0800F14BF194344F00F0412F4004F5C
:1028200014BF1D4346F00F06520024013601090172
:102830002D0112F0800F14BF194344F00F0412F45D
:10284000004F14BF1D4346F00F065200240136010D
:1028500009012D0112F0800F14BF194344F00F0439
:1028600012F4004F14BF1D4346F00F06520024011E
:10287000360109012D0112F0800F14BF194344F0F5
:102880000F0412F4004F14BF1D4346F00F06520010
:102890002401360109012D0112F0800F14BF1943E4
:1028A00044F00F0412F4004F14BF1D4346F00F060E
:1028B00052002401360109012D0112F0800F14BFCE
:1028C000194344F00F0412F4004F14BF1D4346F0A7
:1028D0000F0652002401360109012D0112F0800F6C
:1028E00014BF194344F00F0412F4004F18BF1D43E6
:1028F000436808BF46F00F061E4035434560026836
:10290000144021430160F0BC7047002411F40045DD
:102910001F463FF477AF1D46002674E7016166E766
:10292000B0440008AFF30080AFF30080AFF3008045
:1029300010B5FEF7E5F9FEF703FABDE81040FEF723
:1029400027B800BFAFF30080AFF30080AFF3008083
:102950000148FFF715B800BF1C0F0020AFF300803F
:10296000037870B5012B044600D070BD0C4A90422C
:1029700004D02046BDE87040FFF7BAB8094A0A4DB6
:10298000D669132046F40006D66160212B64FEF759
:1029900067F81420E021FEF763F800232B64E8E7D2
:1029A0001C0F002000100240005C0040AFF30080CC
:1029B00090F84A00024B40F08002DA64704700BF92
:1029C000005C0040AFF30080AFF30080AFF3008005
:1029D0000A1D2DE9F04150F822400546226802F018
:1029E0000303013B022B96BF36484FF4007330F8C7
:1029F0001330A06808B143F02003E66866B112F016
:102A0000100F55D0012010FA01F2B5F80E8043F4F2
:102A1000405342EA0807EF8143EA010C2A4F2CF4A5
:102A2000F04626F0700047F8210047F6700857F886
:102A3000212003EA080C638A8CEA02063E2B47F841
:102A400021602BD95F1E47F01F06701C42116FEAF0
:102A5000C2676FEA57421C4ED5F84C80306DB4F80F
:102A600010C000F1005707F5405606EBC1000CEB13
:102A7000080647000021B6F5007FB980BA81EE64F0
:102A800019D89B19B3F5007FC7F80080EB6402D911
:102A90000E48FEF7DDF9BE60BDE8F0815A1E42F037
:102AA00001077E1C06EBD670420202F47C42D2E79C
:102AB00043F40053B0E70548FEF7CAF9638AEE6CA9
:102AC000DFE700BFD0440008005C0040004500087C
:102AD000416830B40A4BCD6800241C65A54214BF80
:102AE0004FF41E454FF41C455C6421468024DC6491
:102AF0001D64044B4022C264036130BCFFF768BF11
:102B0000005C004010450008AFF30080AFF3008088
:102B1000054B53F8210010F4405004D0B0F5805F0D
:102B20000CBF012002207047005C0040AFF3008022
:102B3000054B53F8211001F03003102B9ABF034AC4
:102B4000D05C0220704700BF005C0040E0440008F9
:102B50000F4B10B41C6D134604F1005000F5405C9F
:102B60000CEBC1046100886800F1005C0CF5405476
:102B700061008C465CF8044B888823F8024BBCF853
:102B800008105080BCF8042099805A8010BC70470F
:102B9000005C0040AFF30080AFF30080AFF3008033
:102BA0001B48F0B4006D00F1005000F5405C0CEBE8
:102BB000C1014800816880898005800D834228BF5B
:102BC000034601335B0820D001F1005101F5405567
:102BD00069005C1E51F8045B234622F8025B04F096
:102BE000010493B12CB151F8044B013B22F8024B84
:102BF0000BD00D4655F8047B4E68144624F8027B32
:102C0000291D5680A21C023BF3D1F0BC704700BFC7
:102C1000005C0040AFF30080AFF30080AFF30080B2
:102C2000184870B4046D04F1005000F5405C0CEBE2
:102C3000C104591C600049080468838020D004F155
:102C4000005C01390CF5405332F8020B5C000B4676
:102C500044F8040B01F0010193B129B132F8021BD1
:102C6000013B44F8041B0BD0104630F8026B55882A
:102C7000214641F8046B821C65600C1D023BF3D1B8
:102C800070BC7047005C0040AFF30080AFF3008081
:102C90002DE9F04F81B0FEF733F8904B5C6C14F4E3
:102CA000806F40F00C8114F4006F0ED08C488B4A7A
:102CB0004368116C1B6841F0080111640BB10321DA
:102CC0009847864A6FF40060506414F4805F09D01E
:102CD000824A916C11F4004F00F0E4807F4A6FF457
:102CE0008050506414F4007F08D07D484368DB684E
:102CF00003B1984779486FF40071416414F4004FB0
:102D000000F0A480DFF8D891744DCA4613E001208A
:102D100010FA04F1B9F80EE059F828302EEA010C47
:102D2000A9F80EC0DA686E48214690476C6C14F41E
:102D3000004F00F08B8004F00F0455F8246004F17C
:102D4000040816F0800F59F828703AD055F824106E
:102D500021F4F04C2CF0F00345F824303A6812F0DE
:102D6000100F7AD12B6D796903F1005202F5405EA4
:102D70000EEBC4004300B3F804C00A688868D1F8B9
:102D800004E01FFA8CF3D218C018C3EB0E030A60DC
:102D900088604B60002B60D0B7F810E05FFA84FBCE
:102DA0004F485946734528BF7346FFF739FF55F81A
:102DB0002B2022F4F04020F0400C8CF0300145F83C
:102DC0002B1016F4004FB1D055F8241016F4006FF4
:102DD00021F4784E2EF0700345F824304BD138683A
:102DE00010F0100F93D1BB69E6B25A6831469B6868
:102DF0003B48FFF7D5FEBB6955F826E01A885F68A7
:102E0000D968D3F808C02EF4904E2EF0700E013A17
:102E10003F1809188EF4405EC0EB0C0092B245F8E2
:102E200026E05F60D96098601A80002A2AD055F8A1
:102E3000242022F4904121F0700C8CF4405045F88D
:102E400024006C6C14F4004F7FF475AFFDF778FF2D
:102E500001B0BDE8F04FFDF79BBD012212FA04F06E
:102E6000BAF80CC0BB682CEA0001AAF80C101C4888
:102E700021469847A5E759F8283019485A6821464D
:102E8000904753E7012111FA04F0BAF80EC05AF83E
:102E900028302CEA000EAAF80EE0DC681048314613
:102EA000A04743E70E48116C436821F008011B68F6
:102EB0001164002B3FF412AF042198470EE7084D30
:102EC0002846FEF715FE6868036813B128460021FE
:102ED000984702496FF480624A64E4E6005C00406F
:102EE0001C0F0020AFF30080AFF30080AFF3008031
:102EF000043150F821108869426000228360C2606A
:102F00003BB14A8A511EC918B1FBF2FCA0F800C0BF
:102F10007047012303807047AFF30080AFF3008058
:102F200070B40D1D50F8254000266569248A6B6039
:102F3000A34228BF23462A60AE6070BCFFF770BE74
:102F4000054B53F8212022F4904C2CF0700080F4B3
:102F5000405243F821207047005C0040AFF30080EE
:102F6000054B53F8212022F4F04C2CF0400080F067
:102F7000300243F821207047005C0040AFF300802E
:102F8000054B53F8212022F4904C2CF0700080F473
:102F9000805243F821207047005C0040AFF300806E
:102FA000054B53F8212022F4F04C2CF0400080F027
:102FB000100243F821207047005C0040AFF300800E
:102FC000094B53F8210000F44052B2F5405F09D09C
:102FD00053F8212022F4F04020F0400C8CF40052F1
:102FE00043F82120704700BF005C0040AFF3008031
:102FF000084B53F8210000F03002302A09D053F872
:10300000212022F4F04020F0400C8CF0200243F804
:1030100021207047005C0040AFF30080AFF30080D8
:10302000FFF726BBAFF30080AFF30080AFF3008063
:10303000704700BFAFF30080AFF30080AFF30080B4
:10304000002903DD0449054A00F06ABA044B05492A
:10305000DA6800F065BA00BF704500087C450008DA
:103060004C0E002084450008AFF30080AFF30080D1
:1030700010B5002982B0044606DD1949194A02B08C
:10308000BDE8104000F04CBA1749184A00F048FA61
:1030900020461749174A00F043FA20461649174AB6
:1030A00000F03EFA20461649164A00F039FA20464A
:1030B0001549164A00F034FA20461549154A00F021
:1030C0002FFA20461449154A00F02AFA2046144CDB
:1030D0001449154A154B009400F022FA02B010BDB5
:1030E000704500088C45000894450008A845000874
:1030F000B0450008C4450008D0450008E445000874
:10310000EC450008004600080C4600082046000870
:10311000384600084C4600087446000888460008F7
:10312000C44600089C460008B4460008C046000893
:103130000A6838B5054642B10C462846034900F0F6
:10314000EFF954F8082F002AF7D138BDD04600080F
:103150002DE9F041054600680C4616469846A8B190
:103160002F4602E057F8080F68B13146FCF7C8FF58
:1031700005460028F6D120467E684146069AB047AB
:103180002846BDE8F0810120BDE8F0810120BDE8BE
:10319000F08100BFAFF30080AFF30080AFF3008099
:1031A00038B504460D46A8B108600D492046FDF724
:1031B00087F8241820462021FCF7CAFF286018B1A0
:1031C000002300F8013B28602078002814BF204627
:1031D000002038BD0C68002CE7D1204638BD00BF68
:1031E000703E0008AFF30080AFF30080AFF30080C3
:1031F000014B1B60704700BF7C0F0020AFF30080C5
:1032000000B583B00090084611461A46024BFDF700
:10321000F7FF03B000BD00BFD1320008AFF300805C
:10322000013A2DE9F843884605460F4601EB0209AD
:10323000296828464B694FF0FF31984704B2002CAB
:1032400006462CDB042C2DD0082C0FD00D2C30D0B2
:103250001F2CEDDD4F45EBD2296828460C694FF055
:10326000FF32F1B2A04707F8016BE1E74745DFD035
:103270002B6821461E694FF0FF322846B047286868
:10328000202103694FF0FF32284698472A682846D4
:10329000166921464FF0FF32B047013FC8E70120D1
:1032A000BDE8F8832846074900F03AF90120BDE857
:1032B000F8832846044900F033F900203870BDE84F
:1032C000F88300BFD446000884460008AFF30080AE
:1032D0002DE9F04365490468CB69654AD0F804805C
:1032E00099B020469A61634900F01AF94FF000093D
:1032F0002046614900F014F9204602A94022FFF758
:103300008FFF064600283BD117A902A8FFF748FF08
:1033100017A905463046FFF743FF0346002843D070
:10332000304617A91293FFF73BFF034600285ED0F3
:10333000304617A91393FFF733FF0346002858D0F0
:10334000304617A91493FFF72BFF0346002852D0ED
:10335000304617A91593FFF723FF00284DD02046CC
:10336000464900F0DDF820464349169600F0D8F8AB
:10337000204602A94022FFF753FF06460028C3D08B
:1033800020463F4900F0CCF8202383F31188FDF755
:1033900037FC00213B48FEF7EBF80020FDF790FFDB
:1033A000002019B0BDE8F08306460DF1600C0CEB6F
:1033B000860040F8189C002D9AD028463249FCF728
:1033C0009FFE38B9002EDFD0204630492E4A00F04B
:1033D000A7F88DE728462E49FCF792FE78B9002E13
:1033E00030D0204629492A4A00F09AF880E7012681
:1033F000DBE70226D9E70326D7E70426D5E712AF95
:10340000244821462A4633460097FFF7A1FE0028AC
:103410003FF46EAFB8F1000F0AD03346404612AE0B
:1034200021462A460096FFF793FE00283FF460AF3E
:10343000204619492A4600F073F82046174900F043
:103440006FF855E71649204600F06AF82046114902
:10345000FFF76EFEB8F1000F03D020464146FFF79C
:1034600067FE20460F4900F05BF841E75C0E002044
:10347000D8460008E0460008F84600080C47000857
:10348000004700087C0F0020244700087045000812
:103490002C470008000900204C470008504700084E
:1034A0003447000884460008AFF30080AFF3008083
:1034B00070B400F10B0600F10A04B1FBF2F502FB57
:1034C000151101F13003392BC8BF01F1370329462B
:1034D000254604F801390029EFD10446C5EB060C56
:1034E000E2436044121812F0010F29460AD004F892
:1034F000013B11F8013F05E011F8013F637011F83D
:10350000013F541C224602F8013B8242F4D170BCB8
:10351000704700BFAFF30080AFF30080AFF30080CF
:103520000EB42DE9F04F84B00DAB53F8044BDFF827
:1035300090B305460393217859B1013425290DD064
:103540002A68284613694FF0FF32984721780029EE
:10355000F3D104B0BDE8F04F03B0704723782D2BB2
:1035600000F0868100262E2B06BF14F8013F4FF095
:1035700030084FF020080398611C4FF0000A07E064
:10358000027804300AEB8A0A11F8013B02EB4A0A7E
:10359000A3F13004E2B2092A0C46F3D92A2BEFD06A
:1035A0002E2B039000F050814FF0000C6C2B00F09C
:1035B00045814C2B00F04281A3F14100C1B2192991
:1035C0008CBF00210121A3F14407342F00F219819F
:1035D000DFE817F024011701170117011701170180
:1035E000170117011701170117011C011701170116
:1035F0001701170117013201170117010C011701FB
:1036000017011701170117011701170117011701FA
:103610001701C30024011701170117011701170132
:10362000170117011701170117011C0117011701D5
:103630001701350017013201170117010C01039B17
:1036400047F6FF781F681A1D0392002F08BF5F46D8
:103650003878BCF1000F08BFC446002800F02B8169
:10366000781CC14384447A7801EB0C0909F001010C
:10367000431C92B1634510D021B1184613F8012BB9
:103680004AB90AE01A4612F8011B184629B15978BE
:103690001046531C09B16345F4D1C7EB0009C9EBCF
:1036A0000A0C4FF020082CEAEC7A002E67D0B9F112
:1036B000000F28DD3E462A68F843B94416F8011B7E
:1036C00009EB0007136928464FF0FF3298474E4533
:1036D00007F0010717D01FB12B6816F8011B0BE08C
:1036E0002868374617F8011B03694FF0FF32284658
:1036F00098472B6871787E1C1B6928464FF0FF3273
:1037000098474E45ECD1BAF1000F3FF414AF2E6844
:103710000AF1FF3C33692846664641464FF0FF32C6
:103720000CF001079847002E3FF405AF1FB12A683F
:10373000284613690AE02868414603694FF0FF32C2
:10374000284698472968013E0B69284641464FF0B4
:10375000FF329847013EEED1EDE6039900AF0A68CB
:103760000B1D4FF0200803938DF80020781CC7EB49
:103770000009C9EB0A0C2CEAEC7A002E97D1CAF1A9
:10378000000ABAF1000F92D039782D2900F0858017
:1037900029686FEA0A0E0B69284641464FF0FF324E
:1037A0000EF0010698471AF1010A80D056B1296837
:1037B00028460B694FF0FF32414698471AF1010A3B
:1037C0003FF475AF2868414603694FF0FF32284641
:1037D000984728680AF1010A0369414628464FF0D4
:1037E000FF3298471AF1010AECD160E7102281B14B
:1037F000039B191D039119686846FFF759FE6F4630
:10380000B5E700AF8DF80030781CB0E7082200293A
:10381000EED10398071D01680397EDE700292FD12A
:10382000039B19681A1D002903922FDB68460A22A0
:10383000FFF73EFE6F469AE70A22D8E72278EAB100
:10384000013413460121BEE64FF0000C0C4614F87B
:10385000013B0CEB8C07A3F13001CAB2092A2146C7
:1038600003D92A2B08D10278043002EB470CEDE78C
:1038700014F8013F012676E6039097E60121A2E6BF
:10388000039F3968381D00290390CFDA2D2000AF3F
:103890008DF800004942781CC9E7B8F1300F7FF479
:1038A00077AF2A68284616694FF0FF32B0470137D4
:1038B00009F1FF396CE738464FF0200857E700BFA1
:1038C00060470008AFF30080AFF30080AFF30080E3
:1038D00008B5FEF705F8FDF713F900F051F800F010
:1038E00067F900F0A5FA4FF4FA70FDF7D1FCFAE79A
:1038F000022906D0032906D00748012918BF002055
:10390000704706487047032A03D8054800EBC200F9
:1039100070470020704700BFA0490008A04700087A
:1039200060490008AFF30080AFF30080AFF3008080
:10393000022938B50C46054618D1202383F3118897
:10394000FDF79EF928460121094AFEF751F828465D
:103950002146084AFEF74CF828460321064AFEF79E
:1039600047F8FDF7ADF9002383F3118838BD00BF98
:1039700070470008B047000830480008AFF30080E7
:1039800010B50C4C2046FEF7FBFB0B492046FEF71A
:103990001FFC0A484FF400624261FFF729FC4023F4
:1039A000074808494FF40B62FFF72AFC064B1860E2
:1039B00010BD00BF301800208049000800100140F1
:1039C00050480008800F002004190020AFF3008049
:1039D00048B907494FF40060486105484FF4006159
:1039E0000622FEF7FDBE024B4FF400621A61F4E7B7
:1039F000000C0140AFF30080AFF30080AFF3008014
:103A0000002909DD10680378302B02D00120FFF770
:103A1000DFBF0020FFF7DCBF704700BFAFF30080BF
:103A200010B558B1094B4FF480621A6107484FF442
:103A300080610622BDE81040FEF7D2BE034A4FF473
:103A400080615161FFF7C4FFF0E700BF000C014047
:103A5000F8B50020FFF7E4FF254C2648E269264D23
:103A6000036826492B60916101E0FDF711FC2E6887
:103A70004FF47A70771E002E2F60F6DC204F214E17
:103A8000336801203B60FFF7CBFF1F48FDF7E8FCE0
:103A900034682C60FDF7F4FC002C0DDD4FF47A70D7
:103AA000FDF7F6FB1848FDF7DBFC29684C1E2C607F
:103AB000FDF7E6FC002CF1DC0020FFF7B1FF3868D1
:103AC000421E00282A60DBDD4FF47A70FDF7E0FB30
:103AD0002B685C1E002B2C60D2DD4FF47A70FDF752
:103AE000D7FB2B685C1E002B2C60C9DDECE700BF08
:103AF0005C0E002018090020B81A0020B049000808
:103B0000CC1A00201C090020BC1A0020AFF3008052
:103B100010B50748FDF7A4FC064B074A1968126860
:103B20000648074B01601A60BDE81040FDF7A8BCCD
:103B3000BC1A00201C09002018090020B81A002017
:103B4000CC1A0020AFF30080AFF30080AFF3008009
:103B5000FFF7DEBFAFF30080AFF30080AFF300806C
:103B600070B50D1E144614DD0D48FDF779FC206874
:103B7000FCF7BEFA0B4B012D186006D06068FCF70D
:103B8000B7FA0949022D086004D1BDE87040FDF77D
:103B900077BC70BDA068FCF7ABFA044A1060F4E78C
:103BA000BC1A002018090020200900201C09002050
:103BB00010B5094882B0FDF7BBFB0020FFF730FFCE
:103BC00000244FF4D8714022044B05480094FDF7BF
:103BD00017FB02B010BD00BFBC1A0020513A00080C
:103BE00008190020AFF30080AFF30080AFF300802E
:103BF00010B50548FDF734FC0448054B02681A600F
:103C0000BDE81040FDF73CBC801C002024090020CA
:103C1000901C0020AFF30080AFF30080AFF3008072
:103C20002DE9F0410D4614461F46002827D0254BAC
:103C3000244E02221A61022130460622FEF7D0FDF0
:103C4000002D27D0012232611E4801210622FEF7F5
:103C5000C7FD002C27D01C48802404611A4C802109
:103C600020460622FEF7BCFD002F27D140206061D0
:103C7000154840210622BDE8F041FEF7B1BD1149CB
:103C8000104E02204861062202213046FEF7A8FDB0
:103C9000002DD7D1012373610A4801210622FEF7C6
:103CA0009FFD002CD7D1084A074C80215161204646
:103CB00080210622FEF794FD002FD7D040232361F8
:103CC000D6E700BF000C014000080140AFF30080C0
:103CD00070B504460F480D46FDF7C2FB0E4B1D6044
:103CE000FDF7CEFB8CB90D4B4FF4007159610020EC
:103CF000014602460346FFF793FF08484FF4007160
:103D00000622BDE87040FEF76BBD04484FF4007218
:103D10000261ECE7801C002024090020000C014017
:103D200070B500200321FFF7D3FF1448144AC3697C
:103D3000144D154C9A611548FDF792FB2E682660CC
:103D4000FDF79EFB002E0DDD4FF47A70FDF7A0FA13
:103D50000E48FDF785FB21684E1E2660FDF790FB9F
:103D6000002EF1DC0948FDF77BFB2E68FDF788FB90
:103D700000203146FFF7ACFFDDE700BF5C0E0020FE
:103D8000C049000824090020901C0020801C00204D
:103D9000002970B518DD13681D78303D18BF012566
:103DA000012909D05068FCF7A3F9044628462146AA
:103DB000BDE87040FFF78CBF0448FDF751FB044895
:103DC0000468FDF75DFBF1E770BD00BF801C0020BB
:103DD00024090020AFF30080AFF30080AFF3008030
:103DE000FFF706BFAFF30080AFF30080AFF30080B2
:103DF000002910B505DD14682046FCF731FA0328C8
:103E000000D810BD207861783038A278E37818BFE8
:103E10000120303918BF0121303A18BF0122303B50
:103E200018BF0123BDE81040FFF7FABEAFF30080D2
:103E300010B5094882B0FDF77BFA00200321FFF797
:103E400047FF00244FF4D8714022044B04480094EB
:103E5000FDF7D6F902B010BD801C0020213D0008FE
:103E6000D01A0020AFF30080AFF30080AFF30080E2
:103E700020003900000000000000000000000000E9
:103E8000002020202020202020202828282828202A
:103E90002020202020202020202020202020202022
:103EA000208810101010101010101010101010108A
:103EB000100404040404040404040410101010107A
:103EC0001010414141414141010101010101010144
:103ED0000101010101010101010101011010101096
:103EE0001010424242424242020202020202020216
:103EF000020202020202020202020202101010106A
:103F00002000000000000000000000000000000091
:103F100000000000000000000000000000000000A1
:103F20000000000000000000000000000000000091
:103F30000000000000000000000000000000000081
:103F40000000000000000000000000000000000071
:103F50000000000000000000000000000000000061
:103F60000000000000000000000000000000000051
:103F70000000000000000000000000000000000041
:103F80000000000000000000000000000000000031
:103F900069646C65000000006D61696E00000000DE
:103FA0005356233100000000535623320000000016
:103FB0005356233300000000535623340000000002
:103FC00053562335000000005356233600000000EE
:103FD00053562337000000005356233800000000DA
:103FE000535623390000000053562331300000009F
:103FF0005356233131000000000000000000000093
:104000002263685654536574492228290000000031
:10401000226368565452657365744922282900004A
:104020006368565452657365744928292C202331DE
:104030000000000000000000000000000000000080
:10404000636853636852656164794928292C202389
:1040500031000000737461636B206F766572666C6B
:104060006F7700000000000000000000000000006A
:104070002263685468644372656174654922282923
:1040800000000000226368546864536574507269CC
:104090006F726974792228290000000063685468EF
:1040A00064526573756D6528292C2023310000004A
:1040B000226368546864536C656570222829000087
:1040C0006368546864457869745328292C20233127
:1040D00000000000226368546864576169742228F4
:1040E0002900000063685468645761697428292CAA
:1040F0002023310063685468645761697428292C4F
:10410000202332000000000000000000000000003A
:104110002263684D7478496E697422282900000072
:104120002263684D74784C6F636B5322282900001A
:1041300063684D74784C6F636B5328292C202331AE
:104140000000000063684D74784C6F636B5328293E
:104150002C202332000000002263684D74785472D2
:10416000794C6F636B5322282900000063684D74FB
:1041700078556E6C6F636B28292C2023310000006A
:1041800063684D7478556E6C6F636B28292C2023FF
:104190003200000063684D7478556E6C6F636B532A
:1041A00028292C202331000063684D7478556E6CEB
:1041B0006F636B5328292C2023320000000000007D
:1041C00022636845767452656769737465724D61E0
:1041D000736B222829000000226368457674556EAF
:1041E00072656769737465722228290022636845C5
:1041F00076745369676E616C4922282900000000BB
:104200002263684576745369676E616C22282900C1
:1042100022636845767442726F6164636173744DA2
:1042200061736B49222829002263684576744469CA
:104230007370617463682228290000006368457602
:1042400074446973706174636828292C20233100D9
:1042500022636849515265616454696D656F757474
:10426000222829002263684F515772697465546986
:104270006D656F75742228290000000000000000A1
:10428000000000000000000000000000000000002E
:10429000000000000000000000000000000000001E
:1042A0002275736253746172742228290000000021
:1042B000757362537461727428292C2023310000B5
:1042C0002275736253746F702228290075736253CC
:1042D000746F7028292C202331000000227573622E
:1042E000496E6974456E64706F696E74492228293D
:1042F00000000000757362456E61626C65456E6416
:10430000706F696E744928292C2023310000000049
:10431000757362456E61626C65456E64706F696E3F
:10432000744928292C202332000000002275736272
:1043300044697361626C65456E64706F696E747315
:104340004922282900000000757362446973616284
:104350006C65456E64706F696E74734928292C20F2
:104360002331000022757362537461727452656365
:10437000656976654922282900000000227573626C
:1043800053746172745472616E736D69744922283A
:1043900029000000227573625374616C6C5265636E
:1043A000656976654922282900000000227573623C
:1043B0005374616C6C5472616E736D697449222818
:1043C00029000000000000000000000000000000C4
:1043D00001000000000000000000000000000000DC
:1043E00022736475537461727422282900000000DE
:1043F000736475537461727428292C202331000072
:1044000022736453746F70222829000073647553FB
:10441000746F7028292C2023310000000000000058
:104420004121000821210008B11F0008C11F000818
:1044300061210008512100083121000811210008E4
:10444000D11F000800000000000000000000000074
:10445000080002400400024000000B001C00024063
:104460000400024004010C0030000240040002403D
:1044700008020D0044000240040002400C030E003C
:10448000580002400400024010040F006C0002407B
:1044900004000240140510008000024004000240A5
:1044A00018061100000000000000000000000000DD
:1044B0000402040808000307080808080808080898
:1044C0000B0F0000000000000000000000000000D2
:1044D00000040000000600000000000000000000D2
:1044E00000020202020202020202020202020202AE
:1044F00001000000000000000000000000000000BB
:10450000706D5F616C6C6F6328292C202331000073
:1045100000000000311B0008311E0008C11E000809
:10452000400040006C0F00206C0F002000000000D5
:10453000FFFFFFFF844B888888888888FFFFFFFF84
:10454000888888888888B8B4FFFFFFFF88888444FB
:1045500088338388FFFFFFFF44888888888888889D
:10456000FFFFFFFF8888888888888888000000000F
:1045700055736167653A2025730D0A00737973746A
:10458000696D6500256C750D0A000000696E666F27
:10459000000000004B65726E656C3A2020202020E0
:1045A000202025730D0A0000322E342E3200000028
:1045B000436F6D70696C65723A202020202025734E
:1045C0000D0A000047434320342E352E32000000F0
:1045D0004172636869746563747572653A20257306
:1045E0000D0A000041524D76372D4D00436F726524
:1045F0002056617269616E743A2025730D0A0000BD
:10460000436F727465782D4D33000000506F7274E3
:1046100020496E666F3A2020202025730D0A000085
:10462000416476616E636564206B65726E656C20B3
:104630006D6F646500000000506C6174666F726D90
:104640003A202020202025730D0A000053544D33BA
:1046500032463120506572666F726D616E636520FF
:104660004C696E65204D656469756D2044656E7397
:1046700069747900426F6172643A20202020202002
:10468000202025730D0A00004F6C696D657820535A
:10469000544D33322D503130330000004275696C77
:1046A000642074696D653A20202025732573257375
:1046B0000D0A00004F637420203120323031320067
:1046C000202D200032323A31333A353900000000D3
:1046D000257320005E4400007368656C6C00000068
:1046E0000D0A43686962694F532F5254205368651D
:1046F0006C6C0D0A0000000063683E2000000000A2
:104700000D0A6C6F676F757400000000746F6F2086
:104710006D616E7920617267756D656E74730D0AD7
:1047200000000000657869740000000068656C7026
:1047300000000000436F6D6D616E64733A20686520
:104740006C702065786974200000000025730000FB
:10475000203F0D0A000000000000000000000000E3
:10476000286E756C6C29000000000000000000003D
:10477000120000000000000081220008000000007C
:1047800040000000000000000000000000000000E9
:104790000403090400000000000000000000000005
:1047A0004300000060480008000000000000000016
:1047B0001300000000000000C123000800000000FA
:1047C00010000000000000000000000000000000D9
:1047D000B0480008513B0008B8480008613B000899
:1047E000C0480008013A0008C4480008913D00088C
:1047F000CC480008E13D0008D4480008F13D00081D
:1048000000000000000000000000000000000000A8
:10481000120110010200004083044057000201020F
:104820000301000000000000000000000000000084
:10483000120000000000000000000000212300081A
:104840000000400000000000000000000000000028
:1048500030180020D04700080000000000000000D1
:1048600009024300020100C03209040000010202F3
:1048700001000524001001052401000104240202A6
:104880000524060001070582030800FF0904010052
:10489000020A00000007050302400000070581022C
:1048A00040000000000000000000000000000000C8
:1048B00070777272737400007077726366670000BD
:1048C0006C6564006D6F746F636667006D6F746F05
:1048D000727374006D6F746F736574000000000074
:1048E0002603530054004D006900630072006F00FE
:1048F00065006C0065006300740072006F006E005C
:104900006900630073000000000000000000000068
:104910003803430068006900620069004F005300DB
:104920002F005200540020005600690072007400ED
:10493000750061006C00200043004F004D00200016
:1049400050006F00720074000000000000000000C2
:1049500008033200340032000000000000000000B4
:10496000040000009047000826000000E04800080E
:1049700038000000104900080800000050490008F5
:104980001C0F002031390008F138000831220008DE
:104990000000000000000000000000000000000017
:1049A0001200000010480008000000000000000095
:1049B000706F7765720000000000000000000000CA
:1049C0006D6F746F00000000000000000000000028
:0449D00043000000A0
:1049D800803E0008080800200000000000000000D9
:1049E80000000000000000000000000000000000BF
:1049F8000000000000000000D0490008000000008E
:104A0800000000000000000000000000000000009E
:104A1800000000000000000000000000000000008E
:104A2800000000000000000000000000000000007E
:104A3800000000000000000000000000000000006E
:104A4800000000000000000000000000000000005E
:104A5800000000000000000000000000000000004E
:104A6800000000000000000000000000000000003E
:104A7800000000000000000000000000000000002E
:104A8800000000000000000000000000000000001E
:104A9800000000000000000000000000000000000E
:104AA80000000000000000000000000000000000FE
:104AB80000000000000000000000000000000000EE
:104AC8000000000000000000009600000000080040
:104AD8008C450008713000087C450008413000080A
:104AE8000000000000000000201C00001E00000064
:084AF800201C00000300000077
:04000005080000F0FF
:00000001FF
