:020000040800F2
:100000000004002021010008D1010008D1010008EE
:10001000D1010008D1010008D1010008D101000878
:10002000D1010008D1010008D10100080102000837
:10003000D1010008D1010008D1010008F102000837
:10004000D1010008D1010008D1010008D101000848
:10005000D1010008D1010008D1010008D101000838
:10006000D1010008D1010008D1010008D112000817
:10007000011300084113000881130008C113000890
:100080000114000841140008D1010008A11B000858
:10009000B11E0008D1010008D1010008D1010008FB
:1000A000D1010008D1010008D1010008D1010008E8
:1000B000D1010008D1010008C1180008D1010008D1
:1000C000D1010008D1010008D1010008D1010008C8
:1000D000D1010008D1010008D1010008D1010008B8
:0C00E000D1010008D1010008D101000886
:1000F00001E040F8042B8842FBD370470000000069
:100100007047000000000000000000000000000038
:10011000FEE70000000000000000000000000000FA
:1001200072B61D4B83F30988022383F31488BFF34F
:100130006F8F02F00DF8194819494FF05532FFF74B
:10014000D7FF4FF0553217481349FFF7D1FF164A32
:10015000164B03E052F8041B43F8041B14498B426E
:10016000F8D3144814490022FFF7C2FF134CFFF7DD
:10017000C7FF02E054F8043B9847114B9C42F9D367
:1001800001F0F6FF0F4C02E054F8043B98470E4B89
:100190009C42F9D3FFF7BCBF0008002000000020FC
:1001A000000400200004002070280008000800203F
:1001B0003C08002040080020B80E0020EC00000899
:1001C000EC000008EC000008EC0000080000000053
:1001D000FEE700000000000000000000000000003A
:1001E00072B6FEE700000000000000000000000002
:1001F00000F056FA00F0C4FB00F03AFA00DF00000D
:1002000000B5EFF30983203383F3098800F030F859
:100210005DF804FB0000000000000000000000008A
:100220000A4B002210B59A60094A0720DA601021B3
:1002300000F0B6F80A204FF4007100F0B1F80B207E
:100240008021BDE8104000F0ABB800BF00ED00E039
:100250000000FA050000000000000000000000009F
:10026000202383F311887047000000000000000085
:10027000002383F311887047000000000000000095
:1002800000B5FFF7EDFF164B5B6813F4006F22D04B
:10029000EFF30982203A82F309884FF08073D3612B
:1002A000104B996941B11968DB6989689B6899426B
:1002B00094BF0023012307E01968DB6989689B6804
:1002C000994234BF002301230BB1074B00E0074BD9
:1002D00093615DF804FBFFF7CBFF5DF804FB00BF03
:1002E00000ED00E0740D0020F1010008FC010008A1
:1002F00010B500F06DF9FFF7B3FF00F0A1F900F0C1
:10030000AFF800F085F9FFF7B3FF00F041F9BDE861
:100310001040FFF7B5BF0000000000000000000023
:100320002DE9F04FC1F80CD0D0F80CD0BDE8F08F1B
:1003300008B500F09DF9FFF79BFF2846A04700F0A5
:1003400007FC08BD000000000000000000000000E5
:1003500070B500F00304E400FF25A54011FA04F491
:100360000B4B8208C03253F82260012126EA0505B2
:10037000254343F82250420900F01F0011FA00F013
:1003800002F1600143F8210043F8220070BD00BF74
:1003900000E100E00000000000000000000000009C
:1003A000820800F0030030B5C000FF24844011FA39
:1003B00000F0054B063253F8225025EA04040443AA
:1003C00043F8224030BD00BF00ED00E00000000017
:1003D000024B034ADB699A61FEE700BF740D0020FF
:1003E000F0220008000000000000000000000000F3
:1003F00037B5FFF715FF00F0F3F900F091F900F0C1
:10040000C7FB00F005FC00F05BF840210D4800F050
:10041000DFFA0D4D0D4B0124E86180F82040C361E7
:1004200000F056F9002383F3118862B60849EA699F
:10043000084891610093C0212246074B00F020FB41
:100440003EBD00BF40080020740D002000040020C5
:10045000F522000890080020D103000800000000E9
:1004600010B500F07DF8114B9A69002A01DD013AC0
:100470009A61DB690E4C5A6A01325A62E3680133B1
:10048000E3602368A3420FD09A68013A9A6006E0BD
:10049000D368D1601168486001601069984722688C
:1004A000034891680029F3D010BD00BF740D0020EF
:1004B000640D0020000000000000000000000000AB
:1004C000034A4021134643F8081B5360704700BF9E
:1004D000540900200000000000000000000000009F
:1004E0000B4B0C495A68C96811600B49C9695160C6
:1004F000816A916090F820101173103203F58161C8
:100500008A425A6024BF03F108025A60704700BF54
:1005100054090020640D0020740D0020000000002C
:10052000014B1860FFF75CBE600D0020000000006A
:10053000054B1B681BB9054B1B68002B02DC0448EC
:10054000FFF7EEBF704700BF500900205C0D002090
:100550000023000800000000000000000000000070
:10056000054B1B68002B03DB044B1B68002B02DCD4
:100570000348FFF7D5BF7047500900205C0D0020ED
:10058000062300080000000000000000000000003A
:1005900010B5FFF765FE084C2368002B02DD074B02
:1005A0001B6813B10648FFF7BBFF2368013B2360BC
:1005B000FFF75EFE10BD00BF500900205C0D00205B
:1005C0000C230008000000000000000000000000F4
:1005D00010B5FFF745FE084C2368002B02DB074BE4
:1005E0001B6813B10648FFF79BFF236801332360A4
:1005F000FFF73EFE10BD00BF500900205C0D00203B
:1006000011230008000000000000000000000000AE
:10061000074B10B51B68074C002B02DD2368002B2D
:1006200002DC0548FFF77CFF0023236010BD00BFFC
:10063000500900205C0D0020162300080000000077
:10064000064B10B51B68064C002B01DD236813B167
:100650000448FFF765FF0123236010BD5009002007
:100660005C0D00201B2300080000000000000000BB
:10067000064B10B51B68064C13B92368002B02DC2F
:100680000448FFF74DFF0023236010BD50090020F0
:100690005C0D002020230008000000000000000086
:1006A000064B10B51B68064C0BB9236813B10548FF
:1006B000FFF736FF0123236010BD00BF5009002063
:1006C0005C0D002025230008000000000000000051
:1006D000044B1B6813B9044B1B6813B10348FFF7A5
:1006E0001FBF7047500900205C0D00202A2300081E
:1006F0000346006802681A605360704700000000FB
:1007000042680168116003685A6070470000000089
:1007100003681A6802601846704700000000000075
:10072000044B4FF0FF329A6001325B601B60DA606D
:10073000704700BF640D00200000000000000000B2
:10074000F8B504460D4616461F46FFF709FF0CB1E3
:1007500006B115B90C48FFF7E3FE0C4A2761E660C5
:100760001368104601E01B686D1A9968A942FAD314
:100770005A6883422360626014605C60A56002D0A6
:100780009A68551B9D60F8BD40230008640D002049
:1007900010B50446FFF7E4FE14B90B48FFF7C0FE9E
:1007A000E36813B90948FFF7BBFE2368084A934280
:1007B00003D09968A2688A189A60626813602368F7
:1007C0005A600023E36010BD4D2300085C2300083D
:1007D000640D002000000000000000000000000088
:1007E000044B00229A6014325B601B609A615B616B
:1007F0001B617047740D0020000000000000000025
:1008000010B590F8203004460BB10E2B02D10948E8
:10081000FFF786FE002384F82030A268064B1B6891
:1008200099689142FBD25A682360626014605C60F0
:10083000204610BD70230008740D00200000000049
:1008400010B590F820300446032B07D001D8A3B18F
:100850000BE0052B06D00D2B07D103E0836A9A68C5
:1008600001329A602046FFF74BFF4FF0FF332046DE
:10087000A362BDE81040FFF7C3BF10BD0000000039
:1008800070B5104C0646FFF753FEE569142385F852
:1008900020602046A361FFF72BFF012380F8203062
:1008A000E0612846FFF71CFEEA69ADF124039A4295
:1008B00002D90548FFF734FEE0692946BDE87040DB
:1008C000FFF72EBD740D00208223000800000000F9
:1008D00070B50E4686B00546FFF72AFEB6F1FF3F1B
:1008E0000B4C0ED0E36901A831460A4AFFF728FFF6
:1008F0002846FFF7C5FF049B33B101A8FFF748FF67
:1009000002E02846FFF7BCFFE369986A06B070BDB5
:10091000740D0020410800080000000000000000E5
:1009200070B504460D46FFF703FEA562114DA2689F
:10093000E86983689A4204D82046BDE87040FFF712
:100940005FBFFFF75DFF1423AB61133B064684F8DE
:100950002030EC61FFF7C4FDF269ADF124039A4247
:1009600002D90548FFF7DCFD20463146BDE870405E
:10097000FFF7D6BC740D00208223000800000000A1
:1009800070B50F4C14232046E569A361FFF7B0FE54
:10099000012380F82030E0612846FFF731FF284628
:1009A000FFF79EFDEA69ADF124039A4202D905489A
:1009B000FFF7B6FDE0692946BDE87040FFF7B0BC1F
:1009C000740D0020822300080000000000000000D9
:1009D000022280F82020023A816080F821204164C0
:1009E00002640121C26342628261094A80F82210D6
:1009F000516902614161506100F12C02C26200F153
:100A000030024263026300F14C020861C261704728
:100A1000740D002000000000000000000000000035
:100A200001E000F8012B8842FBD370470000000072
:100A30002DE9F04104460D4616461F46DDF81880A4
:100A4000FFF78EFD24B1AF2D02D97F2E00D817B944
:100A50000848FFF765FD243D074A631920463146E3
:100A6000E3606751C3F804801A62BDE8F041FFF704
:100A7000AFBF00BFA0230008310300080000000042
:100A80002DE9F34100F14C0804460D461746414656
:100A9000FF221E46FFF7C4FF404661195522FFF7AB
:100AA000BFFFFFF7DDFBFFF7FBFD089B3A46009316
:100AB000294633462046FFF7BBFF00210446FFF7D7
:100AC0002FFFFFF7D5FDFFF7D3FB2046BDE8FC81E4
:100AD00010B5044610B90848FFF722FDFFF7C0FB28
:100AE000FFF7DEFD21460620FFF7F2FEFFF7C0FD0F
:100AF000FFF7BEFB10BD00BFD823000800000000B8
:100B00000F4B10B5DC69A06203E0FFF701FEFFF7B1
:100B100077FEE36A04F12C008342F6D194F8213089
:100B200013F0030F04D1636922691A6122695361CA
:100B30000E20FFF7A5FE0348BDE81040FFF7F0BC0C
:100B4000740D0020E72300080000000000000000F2
:100B500010B50446FFF784FBFFF7A2FD2046BDE871
:100B60001040FFF7CDBF00000000000000000000B3
:100B700010B5044610B90448FFF7D2FC00236460A6
:100B80002460A36010BD00BF3024000800000000F6
:100B9000054A064B22F007021A60054A054B22F06F
:100BA00007021A60704700BFBF0E0020980D00209A
:100BB00000280020940D002000000000000000002C
:100BC00010B50446FFF7CCFC064B074918680968C6
:100BD000E21D22F00702091A914226BF82181A600C
:100BE000002010BD980D0020940D00200000000092
:100BF00010B50446FFF734FBFFF752FD2046FFF720
:100C0000DFFF0446FFF734FDFFF732FB204610BD3F
:100C10000448054B036000238360C3601030FFF776
:100C2000A7BF00BFA00D0020F10B000800000000CE
:100C300010B500F08DFC00F02BFB074800F030FFF2
:100C400000F00EF800F094F800F00AF900F038FB1C
:100C5000BDE8104001F084BA002800080000000040
:100C600000F00EBD000000000000000000000000C9
:100C700001230370013B43608360C36003614361F0
:100C80001830FFF775BF00000000000000000000F2
:100C900038B50D46044610B90C48FFF741FCFFF784
:100CA000DFFAFFF7FDFC2378013BDBB2012B02D911
:100CB0000748FFF735FC2046656000F019FD022368
:100CC0002370FFF7D5FCFFF7D3FA38BDD024000816
:100CD000DD2400080000000000000000000000000B
:100CE0002DE9F04104460D4616461F46FFF738FC35
:100CF00034B12DB126B1012F05D017F0010F02D06C
:100D00000B48FFF70DFC2378022B06D0042B04D0F0
:100D1000052B02D00748FFF703FC03232046A660FB
:100D2000E76025612370BDE8F04100F011BD00BF10
:100D3000062500081E250008000000000000000035
:100D4000F8B507460E4615461C46FFF789FAFFF729
:100D5000A7FC384631462A462346FFF7C1FFFFF776
:100D600087FCFFF785FAF8BD0000000000000000D6
:100D700000F0DEBD000000000000000000000000E8
:100D800001230370013B4360704700000000000036
:100D900038B50D46044600B111B90E48FFF7C0FB47
:100DA000FFF75EFAFFF77CFC2378013BDBB2012BF7
:100DB00002D90948FFF7B4FB6560AD88204625815C
:100DC00000F0C6FD02232370FFF752FCFFF750FA34
:100DD00038BD00BFD0250008DD2500080000000058
:100DE00070B50C461546064608B1032902D90B48D2
:100DF000FFF796FBFFF734FAFFF752FC3378022B2C
:100E000002D00748FFF78CFB304621462A4600F007
:100E100027FEFFF72DFCFFF72BFA70BD30260008E8
:100E2000452600080000000000000000000000004F
:100E300010B590F84230044680F84A3000F0C8FE01
:100E400063681B6813B12046012198470323237070
:100E500010BD0000000000000000000000000000C5
:100E600000F0AEBE00000000000000000000000026
:100E700001230370013B436083608381C38170471A
:100E8000022203460270023AA0F8482083F84A2062
:100E900080F84B208281C281026142618261C2611D
:100EA000026242628262C26283F8302000F008BFB0
:100EB000002370B500F14002044680F8303000F0A5
:100EC0003FFF63689B6823B120469847002840F0A5
:100ED000E28094F8403013F0600540F0CB8094F845
:100EE000416003F07F0343EA0626B6F5407F3BD01E
:100EF0000FDC022E77D004DC2EB3012E40F0BA8036
:100F00006BE0B6F5807F25D0B6F5817F40F0B280EA
:100F100085E0B6F5C06F39D009DC40F202339E425D
:100F200000F09080B6F5A06F40F0A4802AE0B6F5FE
:100F3000106F41D040F602439E424ED0B6F5006F8E
:100F400040F0988032E004F1480363630223A36316
:100F5000E663A0E094F84230012B40F08B80B4F8B7
:100F6000483023F0020308E094F84230012B40F0AF
:100F70008180B4F8483043F00203A4F84830656338
:100F8000A5634AE06563A563644B71E0636820462E
:100F90005E6894F8431094F84220B4F84430B047A7
:100FA000002867D043686363036803E004F14B03E0
:100FB00063630123A36330E094F8423084F84B303C
:100FC0000BB9033300E00423237063681B68002B14
:100FD0004BD020460221984747E0514B63630223E0
:100FE000A363023B44E094F8441011F0800F01F039
:100FF0000F0103D0204600F093FE02E0204600F0EF
:101000007FFE012802D0022834D103E0454BA663BD
:10101000636302E0444BA0636363E5633BE094F8E1
:1010200042303BBB94F8443013F00F011DD013F055
:10103000800F03D0204601F073F816E0204601F03F
:1010400057F812E094F84230A3B994F8443013F002
:101050000F010AD013F0800FC9B203D0204601F06F
:1010600037F802E0204601F023F800236363A3630E
:10107000E36310E02046002101F02AF82046002119
:1010800001F016F863681B6813B1204605219847E4
:10109000052384F83030B4F84630A26B9A4288BFFA
:1010A000A36394F94030A56B002B18DA5DB10123DE
:1010B00084F8303020460021626B2B4600F0C0FEE1
:1010C0002046002126E0022384F8303020462946BD
:1010D0002A462B4600F09CFE204629460BE075B1BF
:1010E000032384F8303020460021626B2B4600F049
:1010F0008FFE20460021BDE8704000F0B9BE0423F9
:1011000084F83030204629462A462B4600F098FEC7
:1011100020462946BDE8704000F0BABE310E0008F6
:1011200080260008A0260008902600080000000085
:1011300090F8303070B5012B044602D0042B2BD12F
:1011400025E0836BB0F84620934211D20269128ADF
:10115000B3FBF2F502FB153555B929462A462B4655
:1011600000F06EFE20462946BDE8704000F090BEBB
:101170000021022384F8303020460A460B4600F056
:1011800047FE20460021BDE8704000F071BEC36BF1
:1011900003B1984700230DE0002100F099FF20469D
:1011A000002100F085FF63681B6813B1204605210C
:1011B0009847052384F8303070BD0000000000001F
:1011C00090F8303010B5022B04460FD0032B16D107
:1011D0000021013380F830300A460B4600F030FE23
:1011E00020460021BDE8104000F052BE03699B6913
:1011F000DB6823B9C36B03B1984700230EE0204698
:10120000002100F065FF2046002100F051FF6368D7
:101210001B6813B1204605219847052384F8303018
:1012200010BD0000000000000000000000000000F1
:10123000014B5B6883607047001000E00000000015
:10124000084B5A688368D31A074A12689B1AC26807
:101250008360934201D9C36070470269934238BFEB
:1012600003617047001000E0C00D00200000000086
:10127000044B0360044B436000238360C360013B65
:10128000036170473112000841120008000000009D
:1012900010B5084C86B0002301A82360FFF7E8FFD3
:1012A00001A8019B9847029B01A89847039B2360D4
:1012B00006B010BDC00D00200000000000000000BE
:1012C0007047000000000000000000000000000067
:1012D00010B5FFF77DF9084B0F2219685A60074ACD
:1012E00013681BB1506801F00F019847FFF750F9E0
:1012F000BDE81040FEF7C4BF00000240C40D00204E
:1013000010B5FFF765F9094BF02219685A60084AD1
:10131000936823B10909D06801F00F019847FFF7DE
:1013200037F9BDE81040FEF7ABBF00BF0000024038
:10133000C40D0020000000000000000000000000BC
:1013400010B5FFF745F9094B4FF4706219685A6000
:10135000074A136923B1090A506901F00F01984740
:10136000FFF716F9BDE81040FEF78ABF0000024003
:10137000C40D00200000000000000000000000007C
:1013800010B5FFF725F9094B4FF4704219685A6000
:10139000074A936923B1090BD06901F00F019847FF
:1013A000FFF7F6F8BDE81040FEF76ABF0000024004
:1013B000C40D00200000000000000000000000003C
:1013C00010B5FFF705F9094B4FF4702219685A6000
:1013D000074A136A23B1090C506A01F00F019847BC
:1013E000FFF7D6F8BDE81040FEF74ABF0000024004
:1013F000C40D0020000000000000000000000000FC
:1014000010B5FFF7E5F8094B4FF4700219685A6000
:10141000074A936A23B1090DD06A01F00F0198477A
:10142000FFF7B6F8BDE81040FEF72ABF0000024003
:10143000C40D0020000000000000000000000000BB
:1014400010B5FFF7C5F8094B4FF0706219685A6084
:10145000074A136B23B1090E506B01F00F01984737
:10146000FFF796F8BDE81040FEF70ABF0000024003
:10147000C40D00200000000000000000000000007B
:10148000094B00221A6013460849C8580021016020
:1014900007480C3381500832542BF5D1054B4FF0DF
:1014A000FF325A60704700BFFC0D0020E0260008A4
:1014B000C40D0020000002400000000000000000F9
:1014C000F8B50C4615461E46074610B91948FFF7F1
:1014D00027F87B7A012000FA03FC174A11681CEAFE
:1014E000010F25D1154840F8335000EBC3035E606F
:1014F0004CEA010313F07F0F136004D0104B5A69BC
:1015000042F001025A613B680F201A68002622F05F
:1015100001021A60397A7A6810FA01F111601E60CE
:101520002DB1B87A2101FEF713FF3046F8BD2846E9
:10153000F8BD00BFB0260008FC0D0020C40D00203F
:101540000010024000000000000000000000000049
:10155000204B4FF0FF311A69002219611A61D868D7
:10156000D9601D494BF67F30DA60486007208A60F9
:1015700008601A49C86840F08070C8601849086857
:1015800040F001000860D96941F08051D961D96902
:1015900041F00061D9611349086840F48070086027
:1015A000196A01F44071B1F5407F03D04FF48031E6
:1015B00019621A621B6A074A13F4004F07D1136AB3
:1015C00043F440731362136A43F400431362FFF75A
:1015D00057BF00BF0010024010E000E0F0ED00E057
:1015E000001000E00070004000000000000000005B
:1015F0001D4B1A6842F001021A601B4B1A6812F068
:10160000020FFAD01A6802F0F9021A6000225A603A
:10161000154B5A6812F00C0FFAD11A6842F4803256
:101620001A60114B1A6812F4003FFAD05A6842F45B
:1016300088125A601A6842F080721A600A4B1A685F
:1016400012F0007FFAD0094A11215A60084A11604D
:101650005A6842F002025A60034B5B6803F00C03C5
:10166000082BF9D1704700BF001002400064510000
:101670000020024000000000000000000000000008
:1016800010B5144C2046FFF7F3FA134A134BE262ED
:1016900042F28A522263124AA362916941F40071B4
:1016A000916100225A6001329A6008329A600B4BB5
:1016B0009A6812F0080FFAD105229A60074B9A68CF
:1016C00012F00402FAD19A60054B9A6922F4007272
:1016D0009A6110BD000E0020E026000800240140A1
:1016E00000100240000000000000000000000000A8
:1016F00038B503780446012B19D10D4DA84212D1FB
:10170000C06A05210B4A2346FFF7DAFE10B10A48EA
:10171000FEF706FFEB6A094A1B689A60084B9A6954
:1017200042F400729A61A36A00225A609A6038BD3E
:10173000000E0020D1170008402700084C2401406B
:101740000010024000000000000000000000000047
:10175000036930B51A68016B0AB141F02001C26813
:101760009C88012A84BF41F004015443C26A856801
:101770001268D56054601160116841F00101116078
:101780001969826A41F4807151605969986941F41C
:10179000807141F003019160D060D8691061186ACE
:1017A000D062586A9B6A10635363916030BD000039
:1017B000C36A1A68116821F0010111605A681B7A26
:1017C0000F2111FA03F31360836A00229A607047B5
:1017D00011F0080F38B504460D4621D0FFF7E8FF99
:1017E0002369DB684BB1052200212270204698470F
:1017F0002378052B01D1033B237000252561FEF7DB
:101800002FFDFEF71DFF606928B14FF0FF336561C2
:101810008362FEF7F5FFFEF7FBFEFEF729FD38BDFC
:1018200011F0040F06D003699B681BB1C268816880
:101830005208984715F0020F41D021690B688BB10F
:101840008B68002B3BD0E268012A07D98D885208AB
:101850005543A168204601EB450101E0A1682046FF
:10186000984738BD2046FFF7A3FF21698B68A3B1D5
:1018700004222270E268012A07D98D885208554354
:10188000A168204601EB450101E0A1682046984788
:101890002378042B03D1023B00E0022323700025B0
:1018A0002561FEF7DDFCFEF7CBFE606918B16561CE
:1018B0008562FEF7A5FFFEF7ABFEFEF7D9FC38BD4B
:1018C00070B5194CFEF784FE23694FF6E0711A8A51
:1018D0009D891982154015F0020F03D063682046D8
:1018E0001B69984715F0040F03D063680E489B6985
:1018F000984715F0080F03D063680B481B6A984798
:1019000015F0100F03D0636807489B6A984715F0DD
:10191000010F03D0636804489B689847FEF738FEC0
:10192000BDE87040FEF7ACBC340E002000000000A3
:1019300010B5034C2046FFF723FA024B236110BD7C
:10194000340E0020000800400000000000000000ED
:1019500038B503780446012B19D13B4B984210D17E
:101960003A4B1E20DA69702142F00402DA611A69EA
:1019700042F004021A6100221A61FEF7E9FC344BBE
:10198000E360236946F668021A839A8309E00369D3
:1019900000221A809A811A825A639A63DA631A645F
:1019A0005A626268E3681168B3FBF1F2551EB5F53F
:1019B000803F02D24A439A4202D02648FEF7B0FD49
:1019C000238922696168013B9BB21585D3628B8DA7
:1019D0009380CB6803F00F03012B02D0022B04D1BC
:1019E00000E0002343F0010300E00023486900F019
:1019F0000F00012803D0022803D143F0200343F055
:101A00001003C86900F00F00012803D0022803D199
:101A100043F4007343F48073486A00F00F00012818
:101A200003D0022803D143F4005343F480531384BA
:101A3000012393828B68003B18BF0123938100230D
:101A400013828523138038BD340E0020001002401D
:101A5000006CDC02602700080000000000000000AD
:101A6000036910B501F10C0403EB84046260426861
:101A700002EBC102126962B1022010FA01F19A89E7
:101A800092B2114205D189B241EA0202C9439A8158
:101A9000198210BD000000000000000000000000DE
:101AA000144B9A6942F07D029A610268124BDA6027
:101AB00082685A6042681A60C268104BDA604269F4
:101AC0005A6002691A6082690D4BDA60026A5A60D4
:101AD000C2691A60426A0B4BDA60C26A5A60826A53
:101AE0001A60026B084BDA60826B5A60426B1A60B4
:101AF000704700BF0010024000080140000C014088
:101B000000100140001401400018014000000000D6
:101B1000032AF0B501D1016102E0042A08BF416146
:101B2000124B08269F5C00231C461A461D461201D4
:101B30002D011B01240111F0800F0CBF42F00F0298
:101B40003B4311F4004F0CBF45F00F053C43013EF1
:101B500001D04900EBE741680D4045EA04044460C8
:101B600001680A4042EA03030360F0BD80270008D1
:101B700040230360704700000000000000000000E8
:101B800010B504680919B1F5007F016002D9024857
:101B9000FEF7C6FC204610BDB0270008000000007C
:101BA00010B5FEF715FDFEF7F3FCBDE81040FEF79B
:101BB00067BB000000000000000000000000000003
:101BC0000148FFF755B900BF480E00200000000093
:101BD00090F84A20024B42F08002DA64704700BF5E
:101BE000005C004000000000000000000000000059
:101BF0000B1D70B550F82340226802F00303013B2F
:101C0000022B96BF2C4D4FF4007335F81330A568A6
:101C10000DB143F02003E56865B112F0100F07D055
:101C200001228A40C58943F440532A43C28101E01E
:101C300043F4005343EA0105204A25F4F04525F01A
:101C4000700542F8215047F6700552F8216003EA0A
:101C50000505638A75403E2B42F8215003F1FF339E
:101C600008D943F01F0301335B116FEAC3636FEAC6
:101C7000534307E043F00103013303EBD3735B02EB
:101C800003F47C430D4A00F14C06156D002205F16A
:101C9000005505F5405505EBC1056D00AA80218A68
:101CA000AB813046FFF76CFF618A28603046FFF752
:101CB00067FFA86070BD00BFA0270008005C00405F
:101CC0000D4B70B5802200251D655D64DA644268A5
:101CD0000446D2684C30AA4214BF4FF41E424FF45F
:101CE0001C421A64FFF744FF044B20462946236137
:101CF000BDE87040FFF77CBF005C0040E0270008B3
:101D0000054B53F8210010F4405004D0B0F5805F2B
:101D10000CBF012002207047005C00400000000062
:101D2000054B53F8213003F03003102B9ABF034AC0
:101D3000D05C0220704700BF005C0040C027000854
:101D40000B4B1B6D03F1005303F5405303EBC10331
:101D50005B009B6803F1005303F5405359000023D7
:101D6000585A0433102B22F8020BF9D1704700BFE8
:101D7000005C0040000000000000000000000000C7
:101D8000104810B5006D00F1005000F5405000EB18
:101D9000C10040008468808904F100548005800DF2
:101DA000834228BF034604F54054013364005B08B6
:101DB00004E054F8041B013B22F8021B002BF8D16D
:101DC00010BD00BF005C00400000000000000000EB
:101DD0000D4810B5006D00F1005000F5405000EBCB
:101DE000C10040000468838004F1005404F54054AD
:101DF000013364005B0804E032F8021B013B44F845
:101E0000041B002BF8D110BD005C00400000000056
:101E1000043150F8210081694A6000228B60CA6059
:101E200013B901230B807047428A501EC318B3FBBD
:101E3000F2F20A807047000000000000000000007D
:101E400070B50C1D50F8245000266C696360226048
:101E5000A6602C8AA34228BF2346BDE87040FFF746
:101E6000B7BF0000000000000000000000000000FC
:101E7000054A52F8213023F4904323F0700383F491
:101E8000405342F821307047005C004000000000E1
:101E9000054A52F8213023F4F04323F0400383F045
:101EA000300342F821307047005C00400000000021
:101EB0002DE9F047FEF78CFB7B4B5C6C14F4806FD4
:101EC0000DD07A4D2846FEF7DBFF6B681B6813B117
:101ED000284600219847744B6FF480625A6414F4CA
:101EE000006F0DD0704D71482B6C43F008032B64CC
:101EF00043681B680BB1032198476FF400636B6460
:101F000014F4805F12D0684B9A6C12F4004F09D120
:101F10001A6C664822F008021A6443681B680BB109
:101F200004219847604B6FF480525A6414F4007F88
:101F300000F0AF805D484368DB6803B198475A4BB7
:101F40006FF400725A64A4E0574B04F00F0453F886
:101F50002480564E221D18F0800F56F822503AD099
:101F600053F8242022F4F04222F0F00243F8242017
:101F70002A6812F0100F24D11B6D696903F1005318
:101F800003F5405303EBC4035B009B8888689BB256
:101F9000C0180A6888604868D218C31A0A604B6083
:101FA0007BB1B5F810E05FFA84F9304649467345D5
:101FB00028BF7346FFF70CFF30464946FFF768FF1E
:101FC00009E00123A340B289304622EA0303B3812A
:101FD0002146AB68984718F4004F58D0324F18F498
:101FE000006F57F8243023F4784323F0700347F848
:101FF000243004D0231D56F823305B680DE02B6895
:1020000013F0100F0CD00123A340F28922EA03033E
:10201000F381231D56F82330DB682448214635E040
:10202000AB69224E5FFA84F85A6841469B68304695
:10203000FFF7A6FE414681463046FFF719FFAB6920
:102040005A684A445A60DA684A44DA609A68C9EBC6
:1020500002029A601A88013A92B21A8052B157F875
:10206000243023F4904323F0700383F4405347F863
:1020700024300CE00123A340F289043422EA030354
:10208000F38156F824303046DB6841469847064BCA
:102090005C6C14F4004F7FF457AFFEF779FABDE89B
:1020A000F047FEF7EDB800BF005C0040480E00208E
:1020B000054A52F8213023F4904323F0700383F44F
:1020C000805342F821307047005C0040000000005F
:1020D000054A52F8213023F4F04323F0400383F003
:1020E000100342F821307047005C004000000000FF
:1020F000094B53F8212002F44052B2F5405F09D059
:1021000053F8212022F4F04222F0400282F40052DF
:1021100043F82120704700BF005C00400000000031
:10212000084B53F8212002F03002302A09D053F82E
:10213000212022F4F04222F0400282F0200243F8F3
:1021400021207047005C00400000000000000000FB
:10215000FFF74EBA00000000000000000000000081
:1021600070470000000000000000000000000000B8
:1021700008B5FEF75DFDFEF73BF900F081F800F0D1
:102180009FF84FF47A70FEF7A3FCFAE70000000016
:10219000334B0A881B8810B59A420C460FD231493E
:1021A000314B32481A880B88D21892B242F210731F
:1021B0009A4228BF1A460A8001894A4311E016D97B
:1021C000294B2A481A88274B19888A422CBFC2EB10
:1021D0000202C2EB010292B21A8003895A4342F210
:1021E0001073B2FBF3F2012192B2FEF7F9FD204B1E
:1021F000A2881B889A422BD31E4A63881288934276
:102200000FD21D491D4B18880B88C01880B242F2AE
:102210001073984228BF18460880144801894A4321
:1022200011E01CD9154B11481A88134B19888A42A2
:102230002CBFC2EB0202C2EB010292B21A800389E8
:102240005A4342F21073B2FBF3F2022192B202E05F
:10225000064802210022BDE81040FEF7C1BD10BDB6
:1022600034080020B60E002002080020340E0020A2
:102270003808002000080020B40E00203608002096
:1022800010B510220A484FF48071FFF741FC10226C
:1022900007484FF40071FFF73BFC1C21054805225D
:1022A000FFF736FC04480021BDE81040FEF7F0BC03
:1022B000000C014000080140000E0020000000005A
:1022C00010B506480649FEF763FD06480649074A69
:1022D0000223BDE81040FEF733BD00BF340E0020DE
:1022E00004080020000E002040280008A80E00204E
:1022F00069646C65006D61696E000000000000009B
:10230000535623313100535623313000535623396D
:1023100000535623380053562337005356233600B4
:10232000535623350053562334005356233300535A
:1023300056233200535623310000000000000000F5
:102340002263685654536574492228290022636821
:10235000565452657365744922282900636856549F
:1023600052657365744928292C2023310000000030
:10237000636853636852656164794928292C202376
:102380003100737461636B206F766572666C6F7772
:10239000000000000000000000000000000000003D
:1023A0002263685468644372656174654922282910
:1023B000002263685468645365745072696F72696F
:1023C0007479222829006368546864526573756DB6
:1023D0006528292C20233100226368546864536CDB
:1023E00065657022282900636854686445786974BB
:1023F0005328292C202331002263685468645761D4
:1024000069742228290063685468645761697428D4
:10241000292C20233100636854686457616974284B
:10242000292C2023320000000000000000000000E2
:102430002263684D7478496E6974222829002263EA
:10244000684D74784C6F636B532228290063684D84
:1024500074784C6F636B5328292C202331006368F8
:102460004D74784C6F636B5328292C202332002243
:1024700063684D74785472794C6F636B53222829CA
:102480000063684D7478556E6C6F636B28292C203F
:1024900023310063684D7478556E6C6F636B282927
:1024A0002C2023320063684D7478556E6C6F636B1B
:1024B0005328292C2023310063684D7478556E6CA5
:1024C0006F636B5328292C2023320000000000008A
:1024D0002261646353746172742228290061646309
:1024E000537461727428292C2023310022616463A3
:1024F00053746F702228290061646353746F7028CD
:10250000292C202331002261646353746172744367
:102510006F6E76657273696F6E4922282900616457
:10252000635374617274436F6E76657273696F6E14
:102530004928292C202331002261646353746F7071
:10254000436F6E76657273696F6E2228290061642D
:102550006353746F70436F6E76657273696F6E2824
:10256000292C202331002261646353746F70436F00
:102570006E76657273696F6E492228290061646303
:1025800053746F70436F6E76657273696F6E49280E
:10259000292C20233100616463436F6E7665727469
:1025A00028292C20233100226164634163717569FD
:1025B0007265427573222829002261646352656C3A
:1025C00065617365427573222829000000000000D0
:1025D0002270776D53746172742228290070776DB0
:1025E000537461727428292C202331002270776D76
:1025F00053746F702228290070776D53746F7028A0
:10260000292C202331002270776D4368616E676545
:10261000506572696F642228290070776D43686184
:102620006E6765506572696F6428292C202331001C
:102630002270776D456E61626C654368616E6E6590
:102640006C2228290070776D456E61626C65436865
:10265000616E6E656C28292C2023310070776D44E3
:10266000697361626C654368616E6E656C28292CC4
:1026700020233100000000000000000000000000E6
:10268000000000000000000000000000000000004A
:10269000000000000000000000000000000000003A
:1026A0000100000000000000000000000000000029
:1026B00022646D61416C6C6F63617465222829002E
:1026C00022646D6152656C6561736522282900641E
:1026D0006D6152656C6561736528292C202331007A
:1026E000080002400400024000000B001C000240F1
:1026F0000400024004010C003000024004000240CB
:1027000008020D0044000240040002400C030E00C9
:10271000580002400400024010040F006C00024008
:102720000400024014051000800002400400024032
:10273000180611000000000000000000000000006A
:102740006164635F6C6C645F737461727428292CBC
:102750002023310000000000000000000000000005
:1027600070776D5F6C6C645F737461727428292C70
:1027700020233100000000000000000000000000E5
:1027800004020408080003070808080808080808E5
:102790000B0F00000000000000000000000000001F
:1027A000000400000006000000000000000000001F
:1027B000706D5F616C6C6F6328292C2023310000E1
:1027C00000020202020202020202020202020202EB
:1027D00001000000000000000000000000000000F8
:1027E00000000000B10E000831110008C1110008FE
:1027F00040004000980E0020980E002000000000CD
:10280000FFFFFFFF844B888888888888FFFFFFFFD1
:10281000888888888888B8B4FFFFFFFF8888844448
:1028200088338388FFFFFFFF4488888888888888EA
:10283000FFFFFFFF8888888888888888000000005C
:1028400001000000030000009121000800000000CA
:102850000000000000000000000000000000000078
:0C286000000020000000000062100000DA
:1028700000048000A08601000100000000000000AC
:102880000100000000000000000000000000000047
:102890000000000000000000000000000000000038
:0C28A000000000000004800000040000A4
:04000005080000F0FF
:00000001FF
