:020000040800F2
:100000000004002011010008E1020008E1020008DC
:10001000E1020008E1020008E1020008E102000834
:10002000E1020008E1020008E102000811030008F3
:10003000E1020008E1020008E102000811040008E2
:10004000E1020008E1020008E1020008E102000804
:10005000E1020008E1020008E1020008E1020008F4
:10006000E1020008E1020008E102000801150008B1
:100070003115000861150008A1150008E1150008F8
:100080002116000861160008E1020008911B000813
:10009000A11E0008E1020008E1020008E1020008D8
:1000A000E1020008E1020008E1020008E1020008A4
:1000B00011190008E1020008E1020008E10200084D
:1000C000E1020008E1020008E1020008E102000884
:1000D000E1020008E1020008E1020008E102000874
:0C00E000E1020008E1020008E102000853
:1000F000704700BFAFF30080AFF30080AFF3008024
:10010000FEE700BFAFF30080AFF30080AFF30080E5
:1001100072B6634C84F30988022383F31488BFF317
:100120006F8F02F085F85F4A5F48824217D213460C
:100130004FF05531D64343F8041B85198342C5F36C
:1001400080050CD225B1196002F10803834206D262
:100150001A4642F8041B5960131D8342F8D3534AD0
:10016000A24217D213464FF05531D54343F8041B32
:100170006019A342C0F380000CD220B1196002F1D3
:100180000803A34206D21E4646F8041B5960331DDD
:10019000A342F8D34649474CA14222D246480B46D7
:1001A000024652F8046BCD4343F8046B04EB050C94
:1001B000A342CCF3800514D23DB1166800F10802C9
:1001C0001E6001F10803A3420BD2104650F8045BF5
:1001D000194641F8045B5668021D5E600B1DA34280
:1001E000F3D3364A3648824216D200211346D6430C
:1001F00043F8041B84198342C4F380040CD224B155
:10020000196002F10803834206D21A4642F8041B21
:100210005960131D8342F8D32A4D2B4EFFF768FF18
:10022000B54219D22C4654F8043BE9437718984755
:10023000B442C7F380070FD22FB1236805F1080439
:100240009847B44208D2254655F8042B9047606879
:100250002C1D8047B442F6D31C4D1D4E01F0F8FF13
:10026000B5421AD22C46EF4354F8043B06EB070E76
:10027000CEF380079847B4420FD22FB1226805F120
:1002800008049047B44208D2254655F8040B80472D
:1002900061682C1D8847B442F6D3FFF731BF00BF19
:1002A00000080020000000200004002000040020BE
:1002B000000800203C0800205029000840080020C9
:1002C000B80E0020EC000008EC000008EC0000086C
:1002D000EC000008AFF30080AFF30080AFF30080C4
:1002E000FEE700BFAFF30080AFF30080AFF3008004
:1002F00072B6FEE7AFF30080AFF30080AFF300808B
:1003000000F086F900F004FC00F0A2F900DF00BF65
:1003100000B5EFF30983203383F3098800F030F848
:100320005DF804FBAFF30080AFF30080AFF3008013
:100330000A4B002210B59A60094A07201021DA60A2
:1003400000F0BEF80A204FF4007100F0B9F80B205D
:100350008021BDE8104000F0B3B800BF00ED00E020
:100360000000FA05AFF30080AFF30080AFF3008028
:10037000202383F311887047AFF30080AFF3008030
:10038000002383F311887047AFF30080AFF3008040
:1003900000B5FFF7EDFF1748436813F4006F17D05F
:1003A000EFF30983203B83F30988134A4FF08070F1
:1003B0009169D86181B11068D2698168926891426F
:1003C00094BF002201228AB10C4999615DF804FBB7
:1003D000FFF7D6FF5DF804FB1068D2698168926868
:1003E000914234BF00220122002AEDD1044A9A61D1
:1003F0005DF804FB00ED00E0740D0020010300082F
:100400000C030008AFF30080AFF30080AFF300806F
:1004100010B500F07DF9FFF7ABFF00F039F900F0FF
:10042000AFF800F055F9FFF7ABFF00F091F9BDE828
:100430001040FFF7ADBF00BFAFF30080AFF3008007
:100440002DE9F04FC1F80CD0D0F80CD0BDE8F08FFA
:1004500008B500F0FDF8FFF793FF2846A04700F02D
:100460006FFC08BDAFF30080AFF30080AFF30080F6
:10047000F0B400F00307FE00FF2313FA06F200F0C9
:100480001F04B1400125A5408608094CC03654F828
:100490002670400927EA020242EA010300F16007E0
:1004A00044F8263044F8275044F82050F0BC7047F8
:1004B00000E100E0AFF30080AFF30080AFF3008015
:1004C00000F0030210B4FF23D40013FA04F2A14099
:1004D0008008064C063054F8203023EA020242EA33
:1004E000010344F8203010BC704700BF00ED00E06D
:1004F0000248034AC3699A61FEE700BF740D0020F9
:10050000E0230008AFF30080AFF30080AFF300807A
:1005100030B583B0FFF70CFF00F02AFA00F0C0F905
:1005200000F036FC00F074FC00F062F940210E4847
:1005300000F016FB0D4D0E490124E86180F82040C3
:10054000C16100F04DF8002383F3118862B6EA69B7
:100550001D46084BC021936107482246074B009572
:1005600000F06EFB03B030BD40080020740D002089
:1005700000040020E823000890080020F10400088F
:1005800070B500F005F9114B9A69002A01DD013AB6
:100590009A61DA690E4C516A2368481C5062E1681E
:1005A000481CA342E0600FD09D68013D9D605DB98D
:1005B00026461968DA681869DD604E602160904748
:1005C000236898680028F4D070BD00BF740D002027
:1005D000640D0020AFF30080AFF30080AFF3008024
:1005E0000548036813B9054A116821B10448054B51
:1005F0001860FFF77DBE7047500900205C0D002099
:1006000000240008600D0020AFF30080AFF30080ED
:10061000084810B5036853B9074C216821B1074A4F
:10062000074B1A60FFF764FE0120206010BD024CEA
:10063000F5E700BF500900205C0D002008240008E9
:10064000600D0020AFF30080AFF30080AFF30080B7
:10065000094810B5036833B9084C2168002903DD47
:100660000020206010BD054C054A064B1A60FFF7BC
:100670003FFE0020206010BD500900205C0D0020CE
:1006800010240008600D0020AFF30080AFF300805D
:10069000084810B50368002B0ADD074C216821B11A
:1006A000064A074B1A60FFF723FE0120206010BDA9
:1006B000014CF5E7500900205C0D002018240008CB
:1006C000600D0020AFF30080AFF30080AFF3008037
:1006D0000A4810B50368002B06DD094C2168002983
:1006E00003DD0020206010BD054C064A064B1A6051
:1006F000FFF7FEFD0020206010BD00BF5009002064
:100700005C0D002020240008600D0020AFF3008065
:1007100010B5FFF72DFE094C2368002B02DB0848BB
:1007200002682AB1074B08491960FFF7E1FD236809
:100730005A1C2260FFF724FE10BD00BF50090020A4
:100740005C0D0020600D002028240008AFF300801D
:1007500010B5FFF70DFE094C2368002B02DD084899
:1007600002682AB1074B08491960FFF7C1FD2368E9
:100770005A1E2260FFF704FE10BD00BF5009002082
:100780005C0D0020600D002030240008AFF30080D5
:1007900006480368002B04DB054A1168002900DDC8
:1007A00070470448044B1860FFF7A2BD50090020B1
:1007B0005C0D002038240008600D0020AFF300809D
:1007C0000648036823B9064A1168002900DD70470E
:1007D0000448054B1860FFF78BBD00BF500900208F
:1007E0005C0D002040240008600D0020AFF3008065
:1007F000034A4021134643F8081B5360704700BF6B
:1008000054090020AFF30080AFF30080AFF3008005
:1008100010B40D4A0D4C0E495368E468C9691C6058
:100820005960846A03F110019C6090F8204002F541
:10083000816081421C7328BF02F10803516028BF08
:10084000536010BC704700BF54090020640D0020A5
:10085000740D0020AFF30080AFF30080AFF3008091
:10086000014B1860FFF744BD600D0020AFF300801E
:100870000346006802681A6053607047AFF3008057
:1008800042680168116003685A607047AFF30080E6
:100890000346006802681A60704700BFAFF300802B
:1008A000044B4FF0FF3000225B601B609860DA6001
:1008B000704700BF640D0020AFF30080AFF30080ED
:1008C000F8B504460D4616461F46FFF761FFCCB14A
:1008D000C6B1BDB10D4927610B68E6609A689542C3
:1008E00004D91B68AD1A9A68AA42FAD35A688B4297
:1008F0002360626014605C60A56002D09868451B4C
:100900009D60F8BD0248FFF7ABFFE3E7640D0020F0
:1009100050240008AFF30080AFF30080AFF30080F5
:1009200010B50446FFF734FF84B1E36893B1236840
:100930000A4A934203D09968A26888189860606850
:10094000002203602368E260586010BD0448FFF78E
:1009500087FFEAE70348FFF783FFE8E7640D00201D
:100960006024000870240008AFF30080AFF300801B
:10097000044B002014225B601B6098609A615B61ED
:100980001B617047740D0020AFF30080AFF300804F
:1009900010B590F8203004468BB10E2B0FD00022FA
:1009A000094BA16884F820201B6898688842FBD214
:1009B0005968236061600C605C60204610BD03488C
:1009C000FFF74EFFEBE700BF740D002090240008F6
:1009D00010B590F8203004460D2B0FD8DFE803F057
:1009E000160E0E070E0B0E0E0E0E0E0E0E0B806A5E
:1009F00081684A1C82602046FFF742FF4FF0FF33B8
:100A00002046A362BDE81040FFF7C2BF10BD00BF83
:100A100070B5114C0646FFF7D3FEE569142385F83F
:100A200020602046A361FFF723FF0122014680F8E2
:100A300020202846E161FFF7EBFEEA69ADF12403CF
:100A40009A4202D90548FFF70BFFE0692946BDE845
:100A50007040FFF7F5BC00BF740D0020A42400080F
:100A600070B50E4686B00546FFF7AAFEB6F1FF3F09
:100A700012D00C4C3146E3690B4A01A8FFF720FF66
:100A80002846FFF7C5FF049B13B101A8FFF748FFF5
:100A9000E069806A06B070BD2846FFF7B9FF014CD7
:100AA000F6E700BF740D0020D1090008AFF3008005
:100AB00070B5154D04460E46FFF782FEE869A26840
:100AC0008368A6629A4215D9FFF762FF01231422B8
:100AD000064684F82030AA61EC61FFF799FEF069C0
:100AE000ADF1240188420AD820463146BDE8704065
:100AF000FFF7A6BC2046BDE87040FFF749BF03489A
:100B0000FFF7AEFEF0E700BF740D0020A42400083C
:100B100070B5104C14232046E569A361FFF7A8FEC9
:100B20000122014680F820202846E161FFF730FFCE
:100B30002846FFF76DFEEA69ADF124039A4202D917
:100B40000548FFF78DFEE0692946BDE87040FFF7D4
:100B500077BC00BF740D0020A4240008AFF3008010
:100B6000F0B40022104C0125022380F8203080F8D8
:100B7000212080F82250656900F1300600F12C0C2C
:100B800000F14C0704618160456141646061026469
:100B9000C263426282612861C0F82CC0466306636A
:100BA000C761F0BC704700BF740D0020AFF3008038
:100BB000F8B504460D4616461F46FFF7E9FD0CB191
:100BC000AF2D2BD81848FFF74BFE243D6119E1608B
:100BD0006751069D15484D600023154A02270125DF
:100BE000086284F8207084F8225084F8213050691B
:100BF00004F1300104F12C0704F14C05226160611D
:100C0000A6606664546123640461E3636362A36164
:100C1000E76261632163E5612046F8BD7F2ED1D88C
:100C2000002FD2D1CEE700BFC02400085104000835
:100C3000740D0020AFF30080AFF30080AFF30080AD
:100C4000F0B504460D461E4683B017464C30234689
:100C5000FF211A4602F8011B5970531C8342F8D138
:100C60006019834215D25521DA4303F8011B00EBCA
:100C7000020C83420CF001020BD01AB103F8011BE5
:100C8000834206D01A4602F8011B5970531C834256
:100C9000F8D1FFF76DFBFFF7BBFC2046089C3A46F6
:100CA000334629460094FFF783FF00210446FFF7EF
:100CB000FFFEFFF7CDFCFFF763FB204603B0F0BD5E
:100CC00010B5044610B90848FFF7CAFDFFF750FBFE
:100CD000FFF79EFC21460620FFF7C2FEFFF7B8FC97
:100CE000FFF74EFB10BD00BF00250008AFF30080EA
:100CF000114970B5CD69EB6A05F12C04A342A862D5
:100D000007D02046FFF7C4FDFFF742FEE86AA04285
:100D1000F7D195F8212012F0030F04D16B692869EF
:100D2000186129694B610E20FFF772FE0348BDE888
:100D30007040FFF795BD00BF740D0020102500081E
:100D400010B50446FFF714FBFFF762FC2046BDE830
:100D50001040FFF7CDBF00BFAFF30080AFF30080BE
:100D600010B5044620B1002364602460A36010BD68
:100D70000348FFF775FD002364602460A36010BD85
:100D800060250008AFF30080AFF30080AFF3008070
:100D9000054B064A064823F00701064B116020F078
:100DA00007021A60704700BFBF0E0020980D002098
:100DB00000280020940D0020AFF30080AFF30080E6
:100DC00010B50446FFF7E4FC074A084913680968B0
:100DD000E01D20F00700C91A884203D818181060D7
:100DE000184610BD002010BD980D0020940D002065
:100DF00010B50446FFF7BCFAFFF70AFC2046FFF7E0
:100E0000DFFF0446FFF724FCFFF7BAFA204610BDC7
:100E1000044B0549002203F1100019609A60DA6062
:100E2000FFF79EBFA00D0020F10D0008AFF300807A
:100E300010B500F065FC00F03BFB074800F070FEC9
:100E400000F00EF800F06CF800F0E2F800F050FB53
:100E5000BDE8104001F0F4B9E0280008AFF30080CD
:100E600000F0E6BCAFF30080AFF30080AFF300808A
:100E700000230122027043608360C3600361436109
:100E80001830FFF76DBF00BFAFF30080AFF30080F5
:100E90002DE9F04104460D4616461F46FFF778FC43
:100EA000D4B1CDB1C6B1012F02D017F0010F13D1CB
:100EB0002378022B06D0042B04D0052B02D008483F
:100EC000FFF7CEFC03232046A660E7602561237070
:100ED000BDE8F04100F0E4BC0248FFF7C1FCE7E7E1
:100EE000642600084C260008AFF30080AFF30080B2
:100EF000F8B507460E4615461C46FFF739FAFFF7C8
:100F000087FB384631462A462346FFF7C1FFFFF7E5
:100F10009FFBFFF735FAF8BDAFF30080AFF3008019
:100F200000F036BDAFF30080AFF30080AFF3008078
:100F30000121002301704360704700BFAFF30080C0
:100F400038B504460D46C8B1C1B1FFF711FAFFF735
:100F50005FFB2178481EC3B2012B02D90948FFF775
:100F60007FFC6560AD882046258100F021FD0222CE
:100F70002270FFF76DFBFFF703FA38BD0248FFF759
:100F80006FFCE2E73027000820270008AFF300805D
:100F900070B504460D461646A8B1032913D8FFF7CD
:100FA000E7F9FFF735FB2378022B02D00848FFF75B
:100FB00057FC20462946324600F092FDFFF748FBD9
:100FC000FFF7DEF970BD0348FFF74AFCE7E700BF13
:100FD000A027000888270008AFF30080AFF3008047
:100FE00010B590F84210044680F84A1000F0E8FD71
:100FF00063681B6813B120460121984703202070C5
:1010000010BD00BFAFF30080AFF30080AFF30080EE
:1010100000F0CEBDAFF30080AFF30080AFF30080EF
:10102000002301220270436083608381C381704783
:1010300010B4002202240470A0F8482080F84A204E
:1010400080F84B208281C281026142618261C2616B
:10105000026242628262C26280F8302010BC00F0FC
:101060003FBE00BFAFF30080AFF30080AFF300805E
:1010700000222DE9F041044680F8302000F14002C2
:1010800000F06EFE63689B68002B1FD020469847D7
:10109000E0B1A56B94F84030B4F84610A9423CBFCB
:1010A000A1630D4613F0800F33D1002D64D10421CC
:1010B00084F83010204629462A462B4601F038F89D
:1010C00020462946BDE8F04101F052B894F840307E
:1010D00013F060061A462DD00021204601F068F872
:1010E0002046002101F054F86268136813B12046CD
:1010F00005219847A56BB4F8461094F840300520B8
:10110000A9423CBFA1630D4613F0800F84F8300064
:10111000CBD0002D3FD00123002184F83030204671
:10112000626B2B4601F004F820460021BDE8F04137
:1011300001F01EB894F8417003F07F0141EA0727DF
:10114000B7F5407F00F0998034DDB7F5C06F00F04F
:10115000BD8050DDB7F5106F00F0A68040F6024567
:10116000AF425BD0B7F5006FB6D1012504F14B005B
:101170006063A563E6638FE70320002184F83000F5
:10118000626B20462B4600F0BBFF20460021BDE8E5
:10119000F04100F0DDBF022284F8302020462946CD
:1011A0002A462B4600F0ACFF20462946BDE8F04118
:1011B00000F0CEBF022F49D02BDDB7F5807F34D0B1
:1011C000B7F5817F88D194F84200002884D194F843
:1011D000443013F00F0108D013F0800F40F0B180BD
:1011E000204600F0F5FF94F8402000256563A563D4
:1011F000E563134650E740F2023087427BD0B7F5F3
:10120000A06F7FF469AF55496663A663E163354615
:1012100042E7002F41D0012F7FF45EAF50490225F5
:1012200000226163A563E26336E794F842C0BCF133
:10123000010F7FF451AFB4F84810666321F0020E3D
:10124000A4F848E0A663E663354625E794F8441021
:1012500011F0800F66D1204601F00F0100F060FD13
:10126000012866D002287FF437AF3E4BA06363634A
:10127000E66394F8403005460EE794F842000128F2
:101280007FF42AAFB4F84820666342F00205A4F860
:101290004850A663E6633546FEE6022504F148029F
:1012A0006263A563E763F7E694F8421084F84B1095
:1012B000002934D10325257060680368002B94D081
:1012C00020460221984794F840208EE76368204624
:1012D0005D6894F8431094F84220B4F84430A8476D
:1012E00000283FF4F9AE4268056894F84030626324
:1012F000A563E663D0E694F8421000297FF4ECAED3
:1013000094F8443013F00F013FF46FAF13F0800FE7
:101310001DD1204600F03CFF94F8402065E70423EF
:101320002370C9E7204601F00F0100F009FD0128F4
:1013300098D10D4DA7636563E66394F840303D4650
:10134000AAE6204600F05CFF94F840204DE72046D6
:1013500000F02EFF94F8402047E700BFE10F00089F
:10136000D0270008E0270008F0270008AFF300802E
:1013700090F8303070B5012B044619D0042B10D0F2
:10138000002100F015FF0021204600F001FF6168F8
:101390000B6813B1204605219847052284F83020B8
:1013A00070BDC36B03B19847002384F8303070BD23
:1013B000836BB0F846209A4206D90269118AB3FBC2
:1013C000F1F501FB153575B1002102200A460B46E7
:1013D00084F83000204600F093FE20460021BDE84E
:1013E000704000F0B5BE29462A462B4600F0A0FE0C
:1013F00020462946BDE8704000F0BABEAFF3008039
:1014000090F8303070B5022B044621D0032B11D058
:101410000021204600F0CCFE2046002100F0B8FE5E
:1014200063681B6813B1204605219847052184F89D
:10143000301070BD002104250A460B4680F830505C
:1014400000F076FE20460021BDE8704000F090BE1E
:1014500002699169CB68002BDAD1C36B03B198475D
:10146000002084F8300070BDAFF30080AFF300803F
:1014700001494B6883607047001000E0AFF30080C3
:10148000084B09495A6883680968D31AC2685B1A0D
:101490009342836004D80269934238BF0361704766
:1014A000C3607047001000E0C00D0020AFF3008063
:1014B00010B50B4A86B00B490B4C002301A80192D2
:1014C0004FF0FF3223600393049302910592FFF7DC
:1014D000CFFF01A802998847039B236006B010BD87
:1014E0007114000881140008C00D0020AFF30080C3
:1014F000704700BFAFF30080AFF30080AFF3008010
:1015000010B5FFF705F90848084A03680F24116869
:10151000546013B1406821409847FFF719F9BDE8BE
:101520001040FEF735BF00BFC40D00200000024090
:1015300010B5FFF7EDF80848084A8368F0241168F1
:1015400054601BB1C068C1F303119847FFF700F95D
:10155000BDE81040FEF71CBFC40D00200000024093
:1015600010B5FFF7D5F80948094A03694FF47064CC
:10157000116854601BB14069C1F303219847FFF71C
:10158000E7F8BDE81040FEF703BF00BFC40D002020
:1015900000000240AFF30080AFF30080AFF30080A3
:1015A00010B5FFF7B5F80948094A83694FF470444C
:1015B000116854601BB1C069C1F303319847FFF74C
:1015C000C7F8BDE81040FEF7E3BE00BFC40D002021
:1015D00000000240AFF30080AFF30080AFF3008063
:1015E00010B5FFF795F80948094A036A4FF47024CB
:1015F000116854601BB1406AC1F303419847FFF77B
:10160000A7F8BDE81040FEF7C3BE00BFC40D002020
:1016100000000240AFF30080AFF30080AFF3008022
:1016200010B5FFF775F80948094A836A4FF470044A
:10163000116854601BB1C06AC1F303519847FFF7AA
:1016400087F8BDE81040FEF7A3BE00BFC40D002020
:1016500000000240AFF30080AFF30080AFF30080E2
:1016600010B5FFF755F80948094A036B4FF070644D
:10167000116854601BB1406BC1F303619847FFF7D9
:1016800067F8BDE81040FEF783BE00BFC40D002020
:1016900000000240AFF30080AFF30080AFF30080A2
:1016A000124BF0B4D3F800C0DF689E695D6A1C6B12
:1016B000D86B996C0023CCF800300D4ADFF838C0A5
:1016C0003B601360336093602B6013612360936110
:1016D0000360136293621363CCF800300B60054B18
:1016E0004FF0FF325A60F0BC704700BF002800087E
:1016F000C40D002000000240FC0D0020AFF300806C
:10170000214B00224FF0FF3030B420491C69186192
:101710001A61DD68D8604BF67F30DA601C4C486097
:1017200007208A600860E1681A4841F08071E16032
:101730000468194944F001040460D86940F08050FD
:10174000D861D86940F00060D861086840F48070C2
:101750000860186A00F44071B1F5407F03D04FF47F
:10176000803119621A62084B1A6A12F4004F07D1CD
:10177000186A40F440721A62196A41F40040186213
:1017800030BCFFF78DBF00BF0010024010E000E04A
:10179000F0ED00E0001000E000700040AFF30080CA
:1017A0001F4B1868194640F001021A600B681C4A6A
:1017B00013F0020FFAD01368002003F0F901116052
:1017C000114650604868164A10F00C0FFAD11068A4
:1017D000114640F4803313600B68114A13F4003F44
:1017E000FAD05368114643F488105060136843F0F0
:1017F0008070106008680A4A10F0007FFAD009482B
:10180000094B1121506019605068114640F00203E5
:1018100053604A6802F00C0CBCF1080FF9D1704714
:10182000001002400064510000200240AFF300802D
:1018300010B5144C2046FFF71BFB134B1349986956
:1018400040F400729A61124B0020A16201224860AC
:10185000E36242F28A5009238A6020638B608B68BE
:101860000A4A13F0080FFAD105219160906810F030
:101870000403FBD10548044A8360916921F4007395
:10188000936110BD000E00200010024000240140B2
:1018900000280008AFF30080AFF30080AFF30080B2
:1018A00003692DE9F0031968026B09B142F02002C7
:1018B000C1689E880129C56A88BF4E43846829682B
:1018C00088BF42F00402D3F81480CC604E600A60F6
:1018D0001F69D1F800C0826AD3F81890DE691D6ACA
:1018E0005C6A986A48F4807343F003034CF0010C7F
:1018F00047F48077C1F800C057609360C2F80C903D
:101900001661D562146350639360BDE8F0037047BD
:1019100070B51B4DFEF7FCFE2B694FF6E0711A8A7D
:101920009C891982144014F0020F24D114F0040F82
:101930001CD114F0080F14D114F0100F0CD114F0B6
:10194000010F03D06A680E4893689847FEF700FFBE
:10195000BDE87040FEF71CBD696809488A6A904777
:10196000EDE76B680648196A8847E5E76A68044846
:1019700093699847DDE7696828460A699047D5E783
:10198000340E0020AFF30080AFF30080AFF300808F
:1019900010B5044C2046FFF7CBFA4FF0804323618B
:1019A00010BD00BF340E0020AFF30080AFF3008005
:1019B000037870B5012B04466DD0036900201880B0
:1019C0009881188258639863D86318645862626873
:1019D000E1681668B1FBF6F0451EB5F5803F03D20D
:1019E00006FB00FC614504D03948FEF739FF626808
:1019F00023692089D168441E01F00F01908DA4B2A3
:101A000001291D85DC62988003D002290CBF0321C7
:101A10000021506900F00F00012821D002281DD0BC
:101A2000D06900F00F00012821D002282ED0506A82
:101A300000F00F00012821D0022822D092681984DA
:101A4000B2F1000C18BF4FF0010C012000218522DB
:101A50009882A3F80CC019821A8070BD41F0200151
:101A6000D06941F0100100F00F000128DDD141F4F0
:101A70008071506A00F00F000128DDD141F48051DF
:101A8000DCE741F4005141F48051D7E741F40071A3
:101A900041F48071EDE70F49884207D0236946F68B
:101AA000680CA3F818C0A3F81CC090E70A4D1C20CE
:101AB000EA6942F00101E9612B69002243F0010665
:101AC0002E6170212A61FEF7D3FC0448E060E5E74F
:101AD00060280008340E002000100240006CDC0278
:101AE0004368006903EBC10C10B4DCF8103001F15D
:101AF0000C0400EB840462605BB1022313FA01F171
:101B0000828993B2194204D189B2CA4319438181AF
:101B1000028210BC704700BFAFF30080AFF30080BB
:101B2000154B30B49A69154D42F07D049C610168F3
:101B3000134CE960826813496A604368124A2B605B
:101B4000C568124BE5604569656005692560846973
:101B5000CC60046A4C60C4690C60416AD160C16A9F
:101B60005160816A1160026BDA60816B5960426B6F
:101B70001A6030BC704700BF0010024000080140EE
:101B8000000C014000100140001401400018014009
:101B900010B5FEF7BDFDFEF7DBFDBDE81040FEF71A
:101BA000F7BB00BFAFF30080AFF30080AFF300805E
:101BB0000148FFF735BA00BF480E0020AFF30080A0
:101BC00090F84A00024B40F08002DA64704700BF90
:101BD000005C0040AFF30080AFF30080AFF3008003
:101BE0000A1D2DE9F04150F822400546226802F016
:101BF0000303013B022B96BF36484FF4007330F8C5
:101C00001330A06808B143F02003E66866B112F013
:101C1000100F55D0012010FA01F2B5F80E8043F4F0
:101C2000405342EA0807EF8143EA010C2A4F2CF4A3
:101C3000F04626F0700047F8210047F6700857F884
:101C4000212003EA080C638A8CEA02063E2B47F83F
:101C500021602BD95F1E47F01F06701C42116FEAEE
:101C6000C2676FEA57421C4ED5F84C80306DB4F80D
:101C700010C000F1005707F5405606EBC1000CEB11
:101C8000080647000021B6F5007FB980BA81EE64EE
:101C900019D89B19B3F5007FC7F80080EB6402D90F
:101CA0000E48FEF7DDFDBE60BDE8F0815A1E42F031
:101CB00001077E1C06EBD670420202F47C42D2E79A
:101CC00043F40053B0E70548FEF7CAFD638AEE6CA3
:101CD000DFE700BF80280008005C0040B028000853
:101CE000416830B40A4BCD6800241C65A54214BF7E
:101CF0004FF41E454FF41C455C6421468024DC648F
:101D00001D64044B4022C264036130BCFFF768BF0E
:101D1000005C0040C0280008AFF30080AFF30080F3
:101D2000054B53F8210010F4405004D0B0F5805F0B
:101D30000CBF012002207047005C0040AFF3008020
:101D4000054B53F8211001F03003102B9ABF034AC2
:101D5000D05C0220704700BF005C00409028000863
:101D60000F4B10B41C6D134604F1005000F5405C9D
:101D70000CEBC1046100886800F1005C0CF5405474
:101D800061008C465CF8044B888823F8024BBCF851
:101D900008105080BCF8042099805A8010BC70470D
:101DA000005C0040AFF30080AFF30080AFF3008031
:101DB0001B48F0B4006D00F1005000F5405C0CEBE6
:101DC000C1014800816880898005800D834228BF59
:101DD000034601335B0820D001F1005101F5405565
:101DE00069005C1E51F8045B234622F8025B04F094
:101DF000010493B12CB151F8044B013B22F8024B82
:101E00000BD00D4655F8047B4E68144624F8027B2F
:101E1000291D5680A21C023BF3D1F0BC704700BFC5
:101E2000005C0040AFF30080AFF30080AFF30080B0
:101E3000184870B4046D04F1005000F5405C0CEBE0
:101E4000C104591C600049080468838020D004F153
:101E5000005C01390CF5405332F8020B5C000B4674
:101E600044F8040B01F0010193B129B132F8021BCF
:101E7000013B44F8041B0BD0104630F8026B558828
:101E8000214641F8046B821C65600C1D023BF3D1B6
:101E900070BC7047005C0040AFF30080AFF300807F
:101EA0002DE9F04F81B0FEF733FC904B5C6C14F4DD
:101EB000806F40F00C8114F4006F0ED08C488B4A78
:101EC0004368116C1B6841F0080111640BB10321D8
:101ED0009847864A6FF40060506414F4805F09D01C
:101EE000824A916C11F4004F00F0E4807F4A6FF455
:101EF0008050506414F4007F08D07D484368DB684C
:101F000003B1984779486FF40071416414F4004FAD
:101F100000F0A480DFF8D891744DCA4613E0012088
:101F200010FA04F1B9F80EE059F828302EEA010C45
:101F3000A9F80EC0DA686E48214690476C6C14F41C
:101F4000004F00F08B8004F00F0455F8246004F17A
:101F5000040816F0800F59F828703AD055F824106C
:101F600021F4F04C2CF0F00345F824303A6812F0DC
:101F7000100F7AD12B6D796903F1005202F5405EA2
:101F80000EEBC4004300B3F804C00A688868D1F8B7
:101F900004E01FFA8CF3D218C018C3EB0E030A60DA
:101FA00088604B60002B60D0B7F810E05FFA84FBCC
:101FB0004F485946734528BF7346FFF739FF55F818
:101FC0002B2022F4F04020F0400C8CF0300145F83A
:101FD0002B1016F4004FB1D055F8241016F4006FF2
:101FE00021F4784E2EF0700345F824304BD1386838
:101FF00010F0100F93D1BB69E6B25A6831469B6866
:102000003B48FFF7D5FEBB6955F826E01A885F68A4
:10201000D968D3F808C02EF4904E2EF0700E013A15
:102020003F1809188EF4405EC0EB0C0092B245F8E0
:1020300026E05F60D96098601A80002A2AD055F89F
:10204000242022F4904121F0700C8CF4405045F88B
:1020500024006C6C14F4004F7FF475AFFEF778FB2E
:1020600001B0BDE8F04FFEF793B9012212FA04F077
:10207000BAF80CC0BB682CEA0001AAF80C101C4886
:1020800021469847A5E759F8283019485A6821464B
:10209000904753E7012111FA04F0BAF80EC05AF83C
:1020A00028302CEA000EAAF80EE0DC681048314611
:1020B000A04743E70E48116C436821F008011B68F4
:1020C0001164002B3FF412AF042198470EE7084D2E
:1020D0002846FEF7ADFF6868036813B12846002163
:1020E000984702496FF480624A64E4E6005C00406D
:1020F000480E0020AFF30080AFF30080AFF3008004
:10210000043150F821108869426000228360C26067
:102110003BB14A8A511EC918B1FBF2FCA0F800C0BD
:102120007047012303807047AFF30080AFF3008056
:1021300070B40D1D50F8254000266569248A6B6037
:10214000A34228BF23462A60AE6070BCFFF770BE72
:10215000054B53F8212022F4904C2CF0700080F4B1
:10216000405243F821207047005C0040AFF30080EC
:10217000054B53F8212022F4F04C2CF0400080F065
:10218000300243F821207047005C0040AFF300802C
:10219000054B53F8212022F4904C2CF0700080F471
:1021A000805243F821207047005C0040AFF300806C
:1021B000054B53F8212022F4F04C2CF0400080F025
:1021C000100243F821207047005C0040AFF300800C
:1021D000094B53F8210000F44052B2F5405F09D09A
:1021E00053F8212022F4F04020F0400C8CF40052EF
:1021F00043F82120704700BF005C0040AFF300802F
:10220000084B53F8210000F03002302A09D053F86F
:10221000212022F4F04020F0400C8CF0200243F802
:1022200021207047005C0040AFF30080AFF30080D6
:10223000FFF7B6BAAFF30080AFF30080AFF30080D2
:10224000704700BFAFF30080AFF30080AFF30080B2
:1022500008B5FEF7EDFDFEF75BF900F099F84FF4D5
:102260007A70FEF72DFDFAE7AFF30080AFF3008040
:102270003B488A88038870B59A420C4614D32ED8FE
:10228000384920880B88984207D33748B4F802C0F1
:10229000028894454ED332D870BD002133480A4697
:1022A000BDE87040FEF774BE314A324B1688B3F871
:1022B00000C02E4806EB0C05ADB242F21071028947
:1022C0008D4228BF0D4602FB05F62B4A0121A2FBD9
:1022D000066C1D80CCF34F32FEF75AFED0E7244D3A
:1022E000244BB5F800E0198820488E452CBFCEEB72
:1022F0000E0ECEEB010E02891FFA8EF5E3E71F4E9C
:102300001F4B3488B3F800C0184864452CBFC4EB99
:102310000404C4EB0C040289A4B202FB04F61649BF
:10232000A1FB06620021C2F34F321C80BDE8704061
:10233000FEF72EBE1148124B0588B3F800C00B48BB
:1023400005EB0C0442F21072A4B2B0F808C094423B
:1023500028BF14460CFB04F50749A1FB0552E1E731
:10236000340800203808002000080020340E002027
:1023700002080020B60E00205917B7D136080020F9
:10238000B40E0020AFF30080AFF30080AFF3008005
:1023900010B50B4C0B492046FEF7D2FD002120461C
:1023A0000A46FEF7F5FD204601210022FEF7F0FD6A
:1023B00005480649064A0223BDE81040FEF798BDCD
:1023C000340E002004080020000E00202029000800
:1023D000A80E0020AFF30080AFF30080AFF30080C1
:1023E00069646C65000000006D61696E00000000AA
:1023F00053562331000000005356233200000000E2
:1024000053562333000000005356233400000000CD
:1024100053562335000000005356233600000000B9
:1024200053562337000000005356233800000000A5
:10243000535623390000000053562331300000006A
:10244000535623313100000000000000000000005E
:1024500022636856545365744922282900000000FD
:102460002263685654526573657449222829000016
:102470006368565452657365744928292C202331AA
:10248000000000000000000000000000000000004C
:10249000636853636852656164794928292C202355
:1024A00031000000737461636B206F766572666C37
:1024B0006F77000000000000000000000000000036
:1024C00022636854686443726561746549222829EF
:1024D0000000000022636854686453657450726998
:1024E0006F726974792228290000000063685468BB
:1024F00064526573756D6528292C20233100000016
:10250000226368546864536C656570222829000052
:102510006368546864457869745328292C202331F2
:1025200000000000226368546864576169742228BF
:102530002900000063685468645761697428292C75
:102540002023310063685468645761697428292C1A
:102550002023320000000000000000000000000006
:102560002263684D7478496E69742228290000003E
:102570002263684D74784C6F636B532228290000E6
:1025800063684D74784C6F636B5328292C2023317A
:102590000000000063684D74784C6F636B5328290A
:1025A0002C202332000000002263684D747854729E
:1025B000794C6F636B5322282900000063684D74C7
:1025C00078556E6C6F636B28292C20233100000036
:1025D00063684D7478556E6C6F636B28292C2023CB
:1025E0003200000063684D7478556E6C6F636B53F6
:1025F00028292C202331000063684D7478556E6CB7
:102600006F636B5328292C20233200000000000048
:1026100022616463537461727422282900000000EF
:10262000616463537461727428292C202331000083
:102630002261646353746F702228290061646353BC
:10264000746F7028292C20233100000022616463FC
:102650005374617274436F6E76657273696F6E49FD
:10266000222829006164635374617274436F6E762B
:10267000657273696F6E4928292C20233100000090
:102680002261646353746F70436F6E766572736911
:102690006F6E22282900000061646353746F7043D9
:1026A0006F6E76657273696F6E28292C2023310056
:1026B0002261646353746F70436F6E7665727369E1
:1026C0006F6E49222829000061646353746F704360
:1026D0006F6E76657273696F6E4928292C202331DD
:1026E00000000000616463436F6E76657274282990
:1026F0002C20233100000000226164634163717566
:1027000069726542757322282900000022616463A2
:1027100052656C656173654275732228290000005B
:102720002270776D537461727422282900000000B2
:1027300070776D537461727428292C202331000046
:102740002270776D53746F702228290070776D5353
:10275000746F7028292C2023310000002270776DBF
:102760004368616E6765506572696F64222829004D
:1027700070776D4368616E6765506572696F642834
:10278000292C2023310000002270776D456E616294
:102790006C654368616E6E656C222829000000003C
:1027A00070776D456E61626C654368616E6E656CD5
:1027B00028292C202331000070776D4469736162F1
:1027C0006C654368616E6E656C28292C202331008E
:1027D00000000000000000000000000000000000F9
:1027E00000000000000000000000000000000000E9
:1027F00001000000000000000000000000000000D8
:10280000080002400400024000000B001C000240CF
:102810000400024004010C003000024004000240A9
:1028200008020D0044000240040002400C030E00A8
:10283000580002400400024010040F006C000240E7
:102840000400024014051000800002400400024011
:102850001806110000000000000000000000000049
:1028600070776D5F6C6C645F737461727428292C6F
:1028700020233100000000000000000000000000E4
:10288000000400000006000000000000000000003E
:10289000000202020202020202020202020202021A
:1028A0000100000000000000000000000000000027
:1028B000706D5F616C6C6F6328292C2023310000E0
:1028C00000000000711000087113000801140008D6
:1028D00040004000980E0020980E002000000000EC
:1028E000FFFFFFFF844B888888888888FFFFFFFFF1
:1028F000888888888888B8B4FFFFFFFF8888844468
:1029000088338388FFFFFFFF448888888888888809
:10291000FFFFFFFF8888888888888888000000007B
:102920000100000003000000712200080000000008
:102930000000000000000000000000000000000097
:0C294000000020000000000062100000F9
:10295000F50B6400006CDC02E001000000000000E8
:102960000100000000000000010000000000000065
:102970000000000000000000000000000000000057
:0C298000000000001408640000040000C7
:04000005080000F0FF
:00000001FF
