:020000040800F2
:100000000004002011010008E1020008E1020008DC
:10001000E1020008E1020008E1020008E102000834
:10002000E1020008E1020008E102000811030008F3
:10003000E1020008E1020008E102000811040008E2
:10004000E1020008E1020008E1020008B131000805
:10005000E1020008E1020008E1020008E1020008F4
:10006000E1020008E1020008E1020008111B00089B
:10007000411B0008711B0008B11B0008F11B0008A0
:10008000311C0008711C0008E1020008E1020008B0
:10009000E1020008E1020008E1020008E1020008B4
:1000A000E1020008E1020008E1020008E1020008A4
:1000B000312C0008E1020008E10200086126000876
:1000C00081260008A1260008C1260008E1020008D8
:1000D000E1020008E1020008E1020008612E0008C8
:0C00E000E1020008E1020008E102000853
:1000F000704700BFAFF30080AFF30080AFF3008024
:10010000FEE700BFAFF30080AFF30080AFF30080E5
:1001100072B6634C84F30988022383F31488BFF317
:100120006F8F03F035F95F4A5F48824217D213465A
:100130004FF05531D64343F8041B85198342C5F36C
:1001400080050CD225B1196002F10803834206D262
:100150001A4642F8041B5960131D8342F8D3534AD0
:10016000A24217D213464FF05531D54343F8041B32
:100170006019A342C0F380000CD220B1196002F1D3
:100180000803A34206D21E4646F8041B5960331DDD
:10019000A342F8D34649474CA14222D246480B46D7
:1001A000024652F8046BCD4343F8046B04EB050C94
:1001B000A342CCF3800514D23DB1166800F10802C9
:1001C0001E6001F10803A3420BD2104650F8045BF5
:1001D000194641F8045B5668021D5E600B1DA34280
:1001E000F3D3364A3648824216D200211346D6430C
:1001F00043F8041B84198342C4F380040CD224B155
:10020000196002F10803834206D21A4642F8041B21
:100210005960131D8342F8D32A4D2B4EFFF768FF18
:10022000B54219D22C4654F8043BE9437718984755
:10023000B442C7F380070FD22FB1236805F1080439
:100240009847B44208D2254655F8042B9047606879
:100250002C1D8047B442F6D31C4D1D4E03F0A8F868
:10026000B5421AD22C46EF4354F8043B06EB070E76
:10027000CEF380079847B4420FD22FB1226805F120
:1002800008049047B44208D2254655F8040B80472D
:1002900061682C1D8847B442F6D3FFF731BF00BF19
:1002A00000080020000000200004002000040020BE
:1002B0000008002050080020D84B000850080020FB
:1002C00074230020EC000008EC000008EC0000089B
:1002D000EC000008AFF30080AFF30080AFF30080C4
:1002E000FEE700BFAFF30080AFF30080AFF3008004
:1002F00072B6FEE7AFF30080AFF30080AFF300808B
:1003000000F0A6F900F044FC00F0C2F900DF00BFE5
:1003100000B5EFF30983203383F3098800F030F848
:100320005DF804FBAFF30080AFF30080AFF3008013
:100330000A4B002210B59A60094A07201021DA60A2
:1003400000F0DEF80A204FF4007100F0D9F80B201D
:100350008021BDE8104000F0D3B800BF00ED00E000
:100360000000FA05AFF30080AFF30080AFF3008028
:10037000202383F311887047AFF30080AFF3008030
:10038000002383F311887047AFF30080AFF3008040
:1003900000B5FFF7EDFF1748436813F4006F17D05F
:1003A000EFF30983203B83F30988134A4FF08070F1
:1003B0009169D86181B11068D2698168926891426F
:1003C00094BF002201228AB10C4999615DF804FBB7
:1003D000FFF7D6FF5DF804FB1068D2698168926868
:1003E000914234BF00220122002AEDD1044A9A61D1
:1003F0005DF804FB00ED00E0840D0020010300081F
:100400000C030008AFF30080AFF30080AFF300806F
:1004100010B500F09DF9FFF7ABFF00F059F900F0BF
:10042000CFF800F075F9FFF7ABFF00F0B1F9BDE8C8
:100430001040FFF7ADBF00BFAFF30080AFF3008007
:100440002DE9F04FC1F80CD0D0F80CD0BDE8F08FFA
:1004500008B500F01DF9FFF793FF2846A04700F00C
:10046000AFFC08BDAFF30080AFF30080AFF30080B6
:10047000F0B400F00307FE00FF2313FA06F200F0C9
:100480001F04B1400125A5408608094CC03654F828
:100490002670400927EA020242EA010300F16007E0
:1004A00044F8263044F8275044F82050F0BC7047F8
:1004B00000E100E0AFF30080AFF30080AFF3008015
:1004C00010B400F01F020124944000F00301CA00A0
:1004D000FF2313FA02F24109064B2031800843F84A
:1004E0002140C03053F8201021EA020243F82020B6
:1004F00010BC704700E100E0AFF30080AFF3008074
:1005000000F0030210B4FF23D40013FA04F2A14058
:100510008008064C063054F8203023EA020242EAF2
:10052000010344F8203010BC704700BF00ED00E02C
:100530000248034AC3699A61FEE700BF840D0020A8
:1005400080400008AFF30080AFF30080AFF300807D
:1005500030B583B0FFF7ECFE00F04AFA00F0E0F9A6
:1005600000F056FF00F094FF00F062F940210E48C1
:1005700000F036FB0D4D0E490124E86180F8204063
:10058000C16100F04DF8002383F3118862B6EA6977
:100590001D46084BC021936107482246074B009532
:1005A00000F08EFB03B030BD50080020840D002009
:1005B0000004002088400008A00800203105000841
:1005C00070B500F005F9114B9A69002A01DD013A76
:1005D0009A61DA690E4C516A2368481C5062E168DE
:1005E000481CA342E0600FD09D68013D9D605DB94D
:1005F00026461968DA681869DD604E602160904708
:10060000236898680028F4D070BD00BF840D0020D6
:10061000740D0020AFF30080AFF30080AFF30080D3
:100620000548036813B9054A116821B10448054B10
:100630001860FFF75DBE7047600900206C0D002058
:10064000A0400008700D0020AFF30080AFF30080E1
:10065000084810B5036853B9074C216821B1074A0F
:10066000074B1A60FFF744FE0120206010BD024CCA
:10067000F5E700BF600900206C0D0020A8400008CD
:10068000700D0020AFF30080AFF30080AFF3008067
:10069000094810B5036833B9084C2168002903DD07
:1006A0000020206010BD054C054A064B1A60FFF77C
:1006B0001FFE0020206010BD600900206C0D00208E
:1006C000B0400008700D0020AFF30080AFF3008051
:1006D000084810B50368002B0ADD074C216821B1DA
:1006E000064A074B1A60FFF703FE0120206010BD89
:1006F000014CF5E7600900206C0D0020B8400008AF
:10070000700D0020AFF30080AFF30080AFF30080E6
:100710000A4810B50368002B06DD094C2168002942
:1007200003DD0020206010BD054C064A064B1A6010
:10073000FFF7DEFD0020206010BD00BF6009002033
:100740006C0D0020C0400008700D0020AFF3008049
:1007500010B5FFF70DFE094C2368002B02DB08489B
:1007600002682AB1074B08491960FFF7C1FD2368E9
:100770005A1C2260FFF704FE10BD00BF6009002074
:100780006C0D0020700D0020C8400008AFF3008001
:1007900010B5FFF7EDFD094C2368002B02DD08487A
:1007A00002682AB1074B08491960FFF7A1FD2368C9
:1007B0005A1E2260FFF7E4FD10BD00BF6009002053
:1007C0006C0D0020700D0020D0400008AFF30080B9
:1007D00006480368002B04DB054A1168002900DD88
:1007E00070470448044B1860FFF782BD6009002081
:1007F0006C0D0020D8400008700D0020AFF3008081
:100800000648036823B9064A1168002900DD7047CD
:100810000448054B1860FFF76BBD00BF600900205E
:100820006C0D0020E0400008700D0020AFF3008048
:10083000034A4021134643F8081B5360704700BF2A
:1008400064090020AFF30080AFF30080AFF30080B5
:1008500010B40D4A0D4C0E495368E468C9691C6018
:100860005960846A03F110019C6090F8204002F501
:10087000816081421C7328BF02F10803516028BFC8
:10088000536010BC704700BF64090020740D002045
:10089000840D0020AFF30080AFF30080AFF3008041
:1008A000014B1860FFF724BD700D0020AFF30080EE
:1008B00010B40B4603E09C688268944209D31B681D
:1008C0009942F8D14B68016043601860486010BCE1
:1008D00070471946F6E700BFAFF30080AFF3008022
:1008E0004B6801604360486018607047AFF3008058
:1008F0000346006802681A6053607047AFF30080D7
:1009000042680168116003685A607047AFF3008065
:100910000346006802681A60704700BFAFF30080AA
:10092000044B4FF0FF3000225B601B609860DA6080
:10093000704700BF740D0020AFF30080AFF300805C
:10094000F8B504460D4616461F46FFF741FFCCB1E9
:10095000C6B1BDB10D4927610B68E6609A68954242
:1009600004D91B68AD1A9A68AA42FAD35A688B4216
:100970002360626014605C60A56002D09868451BCB
:100980009D60F8BD0248FFF78BFFE3E7740D002080
:10099000F0400008AFF30080AFF30080AFF30080B9
:1009A00010B50446FFF714FF84B1E36893B12368E0
:1009B0000A4A934203D09968A268881898606068D0
:1009C000002203602368E260586010BD0448FFF70E
:1009D00067FFEAE70348FFF763FFE8E7740D0020CD
:1009E0000041000810410008AFF30080AFF3008021
:1009F000044B002014225B601B6098609A615B616D
:100A00001B617047840D0020AFF30080AFF30080BE
:100A100010B590F8203004468BB10E2B0FD0002279
:100A2000094BA16884F820201B6898688842FBD293
:100A30005968236061600C605C60204610BD03480B
:100A4000FFF72EFFEBE700BF840D002030410008C8
:100A500010B590F8203004460D2B0FD8DFE803F0D6
:100A6000160E0E070E0B0E0E0E0E0E0E0E0B806ADD
:100A700081684A1C82602046FFF742FF4FF0FF3337
:100A80002046A362BDE81040FFF7C2BF10BD00BF03
:100A900070B5114C0646FFF7B3FEE569142385F8DF
:100AA00020602046A361FFF723FF0122014680F862
:100AB00020202846E161FFF7CBFEEA69ADF124036F
:100AC0009A4202D90548FFF7EBFEE0692946BDE8E6
:100AD0007040FFF7B5BC00BF840D00204441000802
:100AE00070B50E4686B00546FFF78AFEB6F1FF3FA9
:100AF00012D00C4C3146E3690B4A01A8FFF720FFE6
:100B00002846FFF7C5FF049B13B101A8FFF748FF74
:100B1000E069806A06B070BD2846FFF7B9FF014C56
:100B2000F6E700BF840D0020510A0008AFF30080F3
:100B300070B5154D04460E46FFF762FEE869A268DF
:100B40008368A6629A4215D9FFF762FF0123142237
:100B5000064684F82030AA61EC61FFF779FEF0695F
:100B6000ADF1240188420AD820463146BDE87040E4
:100B7000FFF766BC2046BDE87040FFF749BF034859
:100B8000FFF78EFEF0E700BF840D0020444100080F
:100B900070B5104C14232046E569A361FFF7A8FE49
:100BA0000122014680F820202846E161FFF730FF4E
:100BB0002846FFF74DFEEA69ADF124039A4202D9B7
:100BC0000548FFF76DFEE0692946BDE87040FFF774
:100BD00037BC00BF840D002044410008AFF3008003
:100BE000F0B40022104C0125022380F8203080F858
:100BF000212080F82250656900F1300600F12C0CAC
:100C000000F14C07046181604561416460610264E8
:100C1000C263426282612861C0F82CC046630663E9
:100C2000C761F0BC704700BF840D0020AFF30080A7
:100C3000F8B504460D4616461F46FFF7C9FD0CB130
:100C4000AF2D2BD81848FFF72BFE243D6119E1602A
:100C50006751069D15484D600023154A022701255E
:100C6000086284F8207084F8225084F8213050699A
:100C700004F1300104F12C0704F14C05226160619C
:100C8000A6606664546123640461E3636362A361E4
:100C9000E76261632163E5612046F8BD7F2ED1D80C
:100CA000002FD2D1CEE700BF6041000851040008F8
:100CB000840D0020AFF30080AFF30080AFF300801D
:100CC000F0B504460D461E4683B017464C30234609
:100CD000FF211A4602F8011B5970531C8342F8D1B8
:100CE0006019834215D25521DA4303F8011B00EB4A
:100CF000020C83420CF001020BD01AB103F8011B65
:100D0000834206D01A4602F8011B5970531C8342D5
:100D1000F8D1FFF72DFBFFF79BFC2046089C3A46D5
:100D2000334629460094FFF783FF00210446FFF76E
:100D3000FFFEFFF7ADFCFFF723FB204603B0F0BD3D
:100D400010B5044610B90848FFF7AAFDFFF710FBDD
:100D5000FFF77EFC21460620FFF7C2FEFFF798FC56
:100D6000FFF70EFB10BD00BFA0410008AFF30080ED
:100D7000114970B5CD69EB6A05F12C04A342A86254
:100D800007D02046FFF7C4FDFFF742FEE86AA04205
:100D9000F7D195F8212012F0030F04D16B6928696F
:100DA000186129694B610E20FFF772FE0348BDE808
:100DB0007040FFF775BD00BF840D0020B0410008F2
:100DC00010B50446FFF7D4FAFFF742FC2046BDE811
:100DD0001040FFF7CDBF00BFAFF30080AFF300803E
:100DE00038B504460D4628B1002903DB6460246051
:100DF000A56038BD0348FFF753FD64602460A5601B
:100E000038BD00BF00420008AFF30080AFF30080A0
:100E100038B50446FFF7F4FC002C23D0A368002B60
:100E20000CDB2268A24203D01048FFF739FDA3680B
:100E3000013B002BA36008DB002038BD2068A042E6
:100E4000F2D0013B002BA360F6DA094D2146EA6996
:100E500010469462FFF744FD0320FFF719FEE9698D
:100E6000886A38BD0348FFF71BFDD7E744420008F6
:100E7000840D002034420008AFF30080AFF30080FF
:100E800010B50446FFF774FAFFF7E2FB2046FFF7C0
:100E9000BFFF0446FFF7FCFBFFF772FA204610BDC8
:100EA00010B50446FFF794FC002C1ED0A368002B5D
:100EB0000BDB2268A24203D00E48FFF7F1FCA368C7
:100EC0000133002BA36007DD10BD2068A042F3D0E2
:100ED0000133002BA360F7DC2046FFF709FD00215A
:100EE0008162BDE81040FFF793BD0348FFF7D8FCCF
:100EF000DCE700BFC0420008AC420008AFF300804E
:100F000010B5044620B1002364602460A36010BDC6
:100F10000348FFF7C5FC002364602460A36010BD94
:100F200050430008AFF30080AFF30080AFF30080C0
:100F3000294B70B50546DE69FFF762FC002D46D0EF
:100F4000AC68002C2AD0B268A068824207D994F815
:100F50002030A260042B2DD0052B24D0ABB130461D
:100F60002946FFF7A5FC0420B562FFF791FDAB68A9
:100F7000B34202D01948FFF793FC306CA84211D05D
:100F80001748BDE87040FFF78BBC012284F8202091
:100F90002046FFF7B5FCFFF73BFDE0E7316CAE60A4
:100FA000E960356470BD2046FFF7AAFCA16AFFF72F
:100FB0007FFCD4E72046FFF7A3FCA16AFFF778FC8B
:100FC000A46AB268A468A1689142C0D3C7E7054883
:100FD000FFF766FCB4E700BF840D002070430008F3
:100FE0008443000860430008AFF30080AFF3008043
:100FF00010B50446FFF7BCF9FFF72AFB2046FFF7C0
:1010000097FFFFF745FBFFF7BBF910BDAFF300807B
:1010100038B51F4BDD69FFF7ABF9FFF719FB2C6CF7
:10102000002C30D0A068A84203D01A48FFF738FC43
:101030002C6C2268E368A2422B641CD0696C4BB113
:101040001A689A4203D09068814238BF0146DB6833
:10105000002BF5D1A9602046FFF74AFC016CA06087
:10106000E16000210464FFF763FDFFF711FBFFF768
:1010700087F9204638BD0023A360FFF709FBFFF77F
:101080007FF9204638BD0448FFF70AFC2C6CC9E7FD
:10109000840D0020C0430008AC430008AFF300807B
:1010A00038B504460D46FFF793FBBCB1E26B94F8EC
:1010B00020301543082BE5630CD0092B00D038BD38
:1010C000A06A0540A842FAD12046FFF7A1FC002102
:1010D000816238BDA36A1D42F6D138BD0148FFF7D1
:1010E000DFFBE3E72C440008AFF30080AFF30080A0
:1010F00070B505460E46FFF76BFB65B12C68AC4238
:1011000008D0A168606846EA0101FFF7C9FF2468BA
:10111000AC42F6D170BD0248FFF7C2FBEEE700BF5C
:1011200050440008AFF30080AFF30080AFF30080BD
:1011300010B503460C4611B94FF0FF3010BD014603
:101140000548C26910469362FFF7CAFB0D2021468D
:10115000BDE81040FFF7C4BC840D0020AFF3008051
:1011600010B48A180024406000608460416181618D
:10117000C1600261C36110BC704700BFAFF3008063
:1011800038B504460D46FFF723FB6369A269934215
:1011900018D0A268511CA16003F8015B206963614B
:1011A000834224BFE36863612368A34208D02046DA
:1011B000FFF79EFBFFF72CFC00228262104638BD31
:1011C000002038BDA268002AE4D06FF0030038BDCB
:1011D00070B504460D46FFF7CBF8FFF739FAE3691F
:1011E0000BB120469847A368204629464BB9FFF724
:1011F0009FFF061EF7DAFFF74BFAFFF7C1F83046FC
:1012000070BDA269581EA06012F8016B2369A2612B
:101210009A4224BFE368A361FFF73AFAFFF7B0F8F8
:10122000304670BDAFF30080AFF30080AFF30080B5
:101230002DE9F8430446904689461D46C769002AB1
:101240002FD0FFF795F8FFF703FA00260FB12046DD
:10125000B847A3682046294653B9FFF769FF00281D
:10126000F7D0FFF715FAFFF78BF83046BDE8F883A3
:10127000A269591EA16012F8010B09F80600236942
:10128000A2619A4224BFE368A361FFF701FAFFF766
:1012900077F801364645E8D0FFF76AF8FFF7D8F946
:1012A000D4E70248FFF7FCFACBE700BF9044000800
:1012B00010B48C1840600060826041618161C1603F
:1012C0000461C36110BC7047AFF30080AFF30080CE
:1012D000F8B504460D461646FFF74AF8FFF7B8F989
:1012E000A368204631464BB9FFF722FF071EF7DA05
:1012F000FFF7CEF9FFF744F83846F8BD6269581E8B
:10130000A06002F8015B236962619A4224BFE3682E
:101310006361E3690BB120469847FFF7B9F9FFF71E
:101320002FF800273846F8BDAFF30080AFF30080F8
:1013300038B50546FFF74CFAAB696A699A4216D090
:10134000AA68511CA96013F8014B2869AB6183425C
:1013500024BFEB68AB612B68AB4206D02846FFF791
:10136000C7FAFFF755FB00228262204638BDAA6803
:10137000002AE6D06FF0020038BD00BFAFF3008056
:101380002DE9F843044615460E469946D0F81C80D0
:10139000002A36D0FEF7ECFFFFF75AF90027A368C2
:1013A00020465A1E03B3A260616996F800C001F896
:1013B00001CB22696161914224BFE1686161B8F1AA
:1013C000000F00D0C047FFF763F9FEF7D9FF0137E0
:1013D000013D13D00136FEF7CBFFFFF739F9A368C3
:1013E00020465A1E002BDED120464946FFF7A0FEBC
:1013F0000028D4D0FFF74CF9FEF7C2FF3846BDE80D
:10140000F8830248FFF74CFAC4E700BFA444000881
:10141000054B064A064823F00701064B116020F0F1
:1014200007021A60704700BF7B230020A80D002030
:1014300000500020A40D0020AFF30080AFF3008027
:1014400010B50446FFF7C4F9074A0849136809684C
:10145000E01D20F00700C91A884203D81818106050
:10146000184610BD002010BDA80D0020A40D0020BE
:1014700010B50446FEF77CFFFFF7EAF82046FFF7B9
:10148000DFFF0446FFF704F9FEF77AFF204610BDA0
:10149000044B0549002203F1100019609A60DA60DC
:1014A000FFF72EBDB00D002071140008AFF30080CF
:1014B00010B500F0ADFC00F0D3FA084801F098FD3B
:1014C00000F00EF800F014F900F0A2F900F050FA64
:1014D00000F0E6FABDE8104001F062BFD04A000813
:1014E00000F0C6BDAFF30080AFF30080AFF3008023
:1014F00000230122027043608360C3600361436183
:101500001830FFF7FDBC00BFAFF30080AFF30080E1
:1015100038B504460D46B0B1FEF72AFFFFF798F83C
:101520002178481EC3B2012B02D90948FFF7B8F948
:101530002046656000F0D4FD02222270FFF7A8F873
:10154000FEF71EFF38BD0348FFF7AAF9E4E700BF26
:10155000D0440008C0440008AFF30080AFF300801F
:1015600010B50446A8B1FEF703FFFFF771F8217824
:10157000481EC3B2012B02D90848FFF791F9204653
:1015800000F0DEFD01222270FFF782F8FEF7F8FE80
:1015900010BD0348FFF784F9E5E700BFEC440008FD
:1015A000E0440008AFF30080AFF30080AFF30080A9
:1015B0002DE9F04104460D4616461F46FFF708F98F
:1015C000D4B1CDB1C6B1012F02D017F0010F13D1A4
:1015D0002378022B06D0042B04D0052B02D0084818
:1015E000FFF75EF903232046A660E76025612370BC
:1015F000BDE8F04100F0C4BD0248FFF751F9E7E74C
:1016000014450008FC440008AFF30080AFF30080ED
:10161000F8B507460E4615461C46FEF7A9FEFFF72D
:1016200017F8384631462A462346FFF7C1FFFFF731
:101630002FF8FEF7A5FEF8BDAFF30080AFF30080F2
:1016400010B5044608B3FEF793FEFFF701F82378C0
:10165000981EC2B2012A03D90E48FFF721F9237858
:10166000022B0DD0204600F0C3FD6069002302214B
:101670002361217020B163616FF00101FFF758FA17
:10168000FFF706F8FEF77CFE10BD0348FFF708F9E8
:10169000D9E700BF4845000830450008AFF3008097
:1016A0002DE9F0410446884617461E46FEF760FEC7
:1016B000FEF7CEFF636913B10B48FFF7F1F80B4D4E
:1016C0003A46334641462046FFF772FFE969022059
:1016D0006161FFF7DDF9E869846AFEF7D9FFFEF77B
:1016E0004FFE2046BDE8F08194450008840D00209F
:1016F00000F0F6BFAFF30080AFF30080AFF30080DF
:1017000001210023017043600C30FFF7F9BB00BFDB
:1017100038B504460D46C8B1C1B12378581EC2B2CF
:10172000012A04D9052B02D00A48FFF7B9F8FEF7C1
:101730001FFEFEF78DFF2046656000F0F9FF0223D3
:101740002370FEF7A5FFFEF71BFE38BD0248FFF72A
:10175000A7F8E2E7E0450008D0450008AFF30080B5
:1017600010B50446B8B12378581EC2B2012A04D974
:10177000052B02D00A48FFF793F8FEF7F9FDFEF7B4
:1017800067FF204601F08CF901232370FEF780FFEC
:10179000FEF7F6FD10BD0348FFF782F8E3E700BF50
:1017A000FC450008F0450008AFF30080AFF300806F
:1017B000F0B5044687B00F4616461D46FEF7D8FD25
:1017C000FEF746FF0023A36023702B460C9D2046A6
:1017D00000950D9D394601950E9D324602950F9D4F
:1017E0000395109D049501F093F9B0F1FF3F054674
:1017F00008D002212170FEF74BFFFEF7C1FD2846FD
:1018000007B0F0BD05202070F5E700BFAFF3008002
:1018100001F04EBAAFF30080AFF30080AFF3008069
:101820000121002301704360704700BFAFF30080C7
:1018300038B504460D46C8B1C1B1FEF799FDFEF7B3
:1018400007FF2178481EC3B2012B02D90948FFF7D0
:1018500027F86560AD882046258101F039FA02221B
:101860002270FEF715FFFEF78BFD38BD0248FFF72B
:1018700017F8E2E7D0460008C0460008AFF3008042
:1018800070B504460D461646A8B1032913D8FEF7D5
:101890006FFDFEF7DDFE2378022B02D00848FEF72D
:1018A000FFFF20462946324601F0AAFAFEF7F0FE75
:1018B000FEF766FD70BD0348FEF7F2FFE7E700BFE5
:1018C0004047000828470008AFF30080AFF30080CE
:1018D000806BD0F1010038BF00207047AFF300806B
:1018E0008069D0F1010038BF00207047AFF300805D
:1018F00038B50446FEF73CFDFEF7AAFE0023A568B6
:10190000A360FEF7C5FEFEF73BFD284638BD00BFCD
:101910001030FFF78DBC00BFAFF30080AFF3008045
:1019200010304FF0FF33FFF783BC00BFAFF30080F0
:101930003030FFF725BD00BFAFF30080AFF300806C
:1019400030304FF0FF33FFF71BBD00BFAFF3008017
:101950001030FFF73DBC00BFAFF30080AFF3008055
:101960003030FFF7B5BC00BFAFF30080AFF30080AD
:1019700001F02EBBAFF30080AFF30080AFF3008027
:101980000B460E4970B50646044646F8041B6660D1
:101990000026A66001261546103004F150011022E1
:1019A0002673FFF7DDFB04F1300004F16001102223
:1019B0002B46BDE87040FFF77BBC00BFD047000856
:1019C00070B504460D46FEF703FF002C21D0A16937
:1019D00039B104F110002946FFF7D2FB00280EDBD5
:1019E00070BDA268201D42F00403A360FFF780FBD6
:1019F00004F110002946FFF7C3FB0028F0DAA368C2
:101A0000201D43F08001A1600021BDE87040FFF778
:101A10006FBB0248FEF744FFD9E700BFA8470008A4
:101A200001494B6883607047001000E0AFF300800D
:101A3000084B09495A6883680968D31AC2685B1A57
:101A40009342836004D80269934238BF03617047B0
:101A5000C3607047001000E0D00D0020AFF300809D
:101A600010B50B4A86B00B490B4C002301A801921C
:101A70004FF0FF3223600393049302910592FFF726
:101A8000CFFF01A802998847039B236006B010BDD1
:101A9000211A0008311A0008D00D0020AFF3008091
:101AA00001F0BEBBAFF30080AFF30080AFF3008066
:101AB00038B504460D4668B161B1FEF759FCFEF732
:101AC000C7FD2046294601F0EBFBFEF7E1FDFEF7DE
:101AD00057FC38BD0148FEF7E3FEEEE7004800087A
:101AE00038B504460D4660B1FEF742FCFEF7B0FD86
:101AF0002046294601F02CFCFEF7CAFDFEF740FC0B
:101B000038BD0248FEF7CCFEEEE700BF40480008B3
:101B100010B5FEF71DFE0848084A03680F24116837
:101B2000546013B1406821409847FEF731FEBDE88C
:101B30001040FEF72DBC00BFD40D00200000024075
:101B400010B5FEF705FE0848084A8368F0241168BE
:101B500054601BB1C068C1F303119847FEF718FE2B
:101B6000BDE81040FEF714BCD40D00200000024078
:101B700010B5FEF7EDFD0948094A03694FF470649A
:101B8000116854601BB14069C1F303219847FEF707
:101B9000FFFDBDE81040FEF7FBBB00BFD40D0020E9
:101BA00000000240AFF30080AFF30080AFF300808D
:101BB00010B5FEF7CDFD0948094A83694FF470441A
:101BC000116854601BB1C069C1F303319847FEF737
:101BD000DFFDBDE81040FEF7DBBB00BFD40D0020E9
:101BE00000000240AFF30080AFF30080AFF300804D
:101BF00010B5FEF7ADFD0948094A036A4FF4702499
:101C0000116854601BB1406AC1F303419847FEF765
:101C1000BFFDBDE81040FEF7BBBB00BFD40D0020E8
:101C200000000240AFF30080AFF30080AFF300800C
:101C300010B5FEF78DFD0948094A836A4FF4700418
:101C4000116854601BB1C06AC1F303519847FEF795
:101C50009FFDBDE81040FEF79BBB00BFD40D0020E8
:101C600000000240AFF30080AFF30080AFF30080CC
:101C700010B5FEF76DFD0948094A036B4FF070641B
:101C8000116854601BB1406BC1F303619847FEF7C4
:101C90007FFDBDE81040FEF77BBB00BFD40D0020E8
:101CA00000000240AFF30080AFF30080AFF300808C
:101CB000124BF0B4D3F800C0DF689E695D6A1C6BFC
:101CC000D86B996C0023CCF800300D4ADFF838C08F
:101CD0003B601360336093602B60136123609361FA
:101CE0000360136293621363CCF800300B60054B02
:101CF0004FF0FF325A60F0BC704700BFA0480008A8
:101D0000D40D0020000002400C0E0020AFF3008034
:101D1000F0B5044685B0002833D0667A012505FA6F
:101D200006FC1D4F38681CEA000F26D11B4D4CEAFB
:101D3000000010F07F0F05EBC60C45F83620CCF8FC
:101D40000430386004D0164B5F6947F001065E61CD
:101D5000236860681F6827F001051D60267A0F2739
:101D600017FA06F6002506601D6042B1A07A090147
:101D7000FEF77EFB284605B0F0BD2846FBE710467F
:101D8000F9E70848039102920193FEF789FD019B50
:101D9000029A0399C1E700BF0C0E0020D40D002069
:101DA0000010024060480008AFF30080AFF30080ED
:101DB00038B50446F8B1617A012010FA01F2104DED
:101DC0002B681A4213D0A07AFEF77AFB617A0122BF
:101DD00012FA01F3286820EA030212F07F0F2A604A
:101DE00004D1084B596921F00100586138BD0648FB
:101DF000FEF756FDE7E70548FEF752FDDBE700BFBB
:101E00000C0E0020001002408048000870480008B6
:101E1000214B00224FF0FF3030B420491C6918617B
:101E20001A61DD68D86043F67F60DA601C4C486058
:101E300007208A600860E1681A4841F08071E1601B
:101E40000468194944F001040460D86940F08050E6
:101E5000D861D86940F00060D861086840F48070AB
:101E60000860186A00F44071B1F5407F03D04FF468
:101E7000803119621A62084B1A6A12F4004F07D1B6
:101E8000186A40F440721A62196A41F400401862FC
:101E900030BCFFF70DBF00BF0010024010E000E0B3
:101EA000F0ED00E0001000E000700040AFF30080B3
:101EB0001F4B1868194640F001021A600B681C4A53
:101EC00013F0020FFAD01368002003F0F90111603B
:101ED000114650604868164A10F00C0FFAD110688D
:101EE000114640F4803313600B68114A13F4003F2D
:101EF000FAD05368114643F480305060136843F0C1
:101F00008070106008680A4A10F0007FFAD0094813
:101F1000094B1021506019605068114640F00203CF
:101F200053604A6802F00C0CBCF1080FF9D17047FD
:101F3000001002400064410000200240AFF3008026
:101F400011F0080FF8B50D4604462AD0C36A01699E
:101F50001A685D68166826F0010616601B7A0F265F
:101F60009E40826ACB6800212E6091602BB10525CE
:101F700005709847207805286AD000252561FEF76E
:101F8000F7F9FEF7A5FB636933B14FF0FF326561E6
:101F900018469A62FEF73CFDFEF7BAFBFEF7F0F931
:101FA000F8BD11F0040F06D003699B681BB1C2682D
:101FB00081685208984715F0020F37D021690A68E6
:101FC000002A34D1E36AA56A18685E68076827F0BA
:101FD00001070760187A0F2717FA00F08B68306046
:101FE000AA60002B37D0E2680425012A257039D970
:101FF000B1F804C052080CFB02FEA168204601EBB8
:102000004E0198472278042A25D000252561FEF745
:10201000AFF9FEF75DFB636923B1656118469D6208
:10202000FEF7F6FCFEF774FBFEF7AAF9F8BD8B6825
:10203000002BFBD0E268012A10D9B1F804C0520885
:102040000CFB02F5A168204601EB45019847F8BD5D
:102050000221217091E702232370D6E72046A16870
:102060009847F8BD2046A1689847CBE7AFF30080BA
:1020700010B5144C2046FFF73BFA134B13499869EF
:1020800040F400729A61124B0020A1620122486064
:10209000E36242F28A5009238A6020638B608B6876
:1020A0000A4A13F0080FFAD105219160906810F0E8
:1020B0000403FBD10548044A8360916921F400734D
:1020C000936110BD100E002000100240002401405A
:1020D000A0480008AFF30080AFF30080AFF30080AA
:1020E00038B503780446012B00D038BD0E4DA84208
:1020F00004D0A36A00215960996038BDC06A0521E7
:102100000A4A2346FFF704FE48B9E86A084B02680A
:1021100008489360816941F400728261E9E70648EA
:10212000FEF7BEFBF1E700BF100E0020411F0008C4
:102130004C2401400010024000490008AFF3008029
:1021400008B50378022B00D008BD08498842FBD1AE
:10215000074A0021C06A51609160FFF729FE0548D7
:10216000836923F400728261EEE700BF100E002045
:102170000024014000100240AFF30080AFF3008064
:1021800003692DE9F0031968026B09B142F02002DE
:10219000C1689E880129C56A88BF4E438468296842
:1021A00088BF42F00402D3F81480CC604E600A600D
:1021B0001F69D1F800C0826AD3F81890DE691D6AE1
:1021C0005C6A986A48F4807343F003034CF0010C96
:1021D00047F48077C1F800C057609360C2F80C9054
:1021E0001661D562146350639360BDE8F0037047D5
:1021F000C36A30B41A68816A15685C6825F001000A
:1022000010601B7A0F2212FA03F0002320608B600B
:1022100030BC7047AFF30080AFF30080AFF30080B5
:10222000C26A036B30B40021146848F200051D80B7
:1022300019809980998223680F2123F0010323607C
:10224000147A836A11FA04F450681A6804601468F6
:10225000586824F0010414601B7A9940016030BC76
:10226000704700BFAFF30080AFF30080AFF3008092
:1022700070B5C46905465CB1FFF7D2FF0020E86184
:102280004FF0FF332046A362BDE87040FEF7C0BBAD
:1022900070BD00BFAFF30080AFF30080AFF30080EC
:1022A00011F0080F38B50546046B01D0FEF720F891
:1022B000EB6A1A685968106820F0010010601B7AF8
:1022C0000F2010FA03F20A60A18888B240F400736C
:1022D000A38038BDAFF30080AFF30080AFF3008080
:1022E00011F0080F70B50446066B34D1A56A2A6850
:1022F0006968106820F001031360287A0F2212FA2F
:1023000000F30B6094F8345005B170BDB6F804E0EA
:102310002EF480521304190CB180B6F800C02CF4CE
:1023200080600204130C338031881FFA81FE4EF462
:10233000007CA6F800C0FEF71BF8FEF7C9F9E369B8
:1023400023B1E56118469D62FEF762FBFEF7E0F9F6
:10235000FEF716F870BDFDF7CBFFC7E7AFF30080BF
:10236000F8B5046B0546FEF703F8FEF7B1F9EA6A23
:10237000AB6A1068566807680F2127F001070760ED
:10238000107A1A6811FA00F030601668586826F062
:10239000010616601B7A99400160FEF7B9F9FDF756
:1023A000EFFFA68A16F4807607D0B4F814C0012691
:1023B0002CF480721304190CA182B4F814E01EF4FA
:1023C000007F07D0A28A46F0020622F400731904A7
:1023D000080CA08295F83400002834D1B4F814C059
:1023E0001CF4806F3CD1A38A13F4006F08D0B4F8BA
:1023F00014E046F008062EF400600204110CA182DD
:10240000B4F814C01CF4805F07D0A08A46F0100610
:1024100020F4805211040B0CA382B4F814E01EF4D3
:10242000804F08D0B4F814C046F020062CF4804247
:1024300011040B0CA382B4F814E00FFA8EF00028FC
:1024400025DB56BBF8BDB4F814C06B6D2CF480606E
:102450000204110CA182002BC5D028469847C2E780
:10246000B4F814E046F004062EF480600204130C65
:10247000A382B4F804C02CF400710804020CA280FA
:10248000238899B241F4007EA4F800E0ABE7A28A69
:1024900046F0400651044B0CA382AE60FDF768FF86
:1024A000FEF716F9EB693BB100206FF00101E8611E
:1024B00018469962FEF7ACFAFEF72AF9FDF760FFBD
:1024C000F8BD00BFAFF30080AFF30080AFF3008032
:1024D000F8B5056B90F834302A8BAE8A0446B6B254
:1024E0008BB946EA02425A4B22F07F429A4266D0AA
:1024F0004FD8591E8A4201D1008C288216F00A0F4B
:1025000046D02B8BF8BD16F00A0F05D0AE8A0021FD
:102510002A8BB6B20164016516F0800F0BD0236DD3
:10252000A26C216CD05CE26C01339142288223655D
:1025300001D30021216516F0400F0CD0226CB5F8B4
:1025400010C0A16B531C01F802C0E06B23648342EE
:1025500001D30020206416F0100F0BD0AE8A2A8819
:10256000636C91B241F0010CB6B2A5F800C00BB19A
:102570002046984716F4806F0AD0B5F814C0636DF2
:102580002CF480621104080CA8820BB120469847F5
:10259000F8BD304B9A422FD002339A42AED1826AB4
:1025A00017687F68002F35D02B88028C1FFA83FCB8
:1025B00042F001014CF4A06301842B80F8BDB5F812
:1025C00004C0816A2CF4007213040968180CA880F6
:1025D0000B6843F001020A60A88883B243F4805C70
:1025E000A5F804C04A68012A88D82A8822F48061A4
:1025F0000B04180C288081E7B5F804C0C06A2CF4DD
:1026000000710B0400681A0CAA80016841F00103F4
:10261000036073E7B5F804C02CF4007003041A0CCF
:10262000AA80298888B240F4007EA5F800E0FDF772
:102630009FFEFEF74DF8E36923B1E76118469F62FC
:10264000FEF7E6F9FEF764F8FDF79AFE56E700BFDD
:102650000200030082000700AFF30080AFF30080A8
:1026600010B5FEF775F80448FFF732FFFEF790F853
:10267000BDE81040FDF78CBE440E0020AFF3008093
:1026800010B5FEF765F80448FFF76AFEFEF780F81C
:10269000BDE81040FDF77CBE440E0020AFF3008083
:1026A00010B5FEF755F80448FFF712FFFEF770F873
:1026B000BDE81040FDF76CBE9C0E0020AFF300801B
:1026C00010B5FEF745F80448FFF74AFEFEF760F83C
:1026D000BDE81040FDF75CBE9C0E0020AFF300800B
:1026E000F8B50D4D0D4C0E4E2846FFF709F80D4B71
:1026F000A6F10C01002720462B63AE62EF61E96270
:10270000FEF7FEFF084AA6F11803243EE7612263A4
:10271000A362E662F8BD00BF440E00209C0E0020BC
:10272000E84800080054004000580040AFF3008023
:1027300002788A23012A2DE9F04104464362056BA1
:1027400000F0A0802F464FF09A089C466068E26A2D
:10275000A66A13683168466805F11002C3F8008064
:1027600090F80880C1F800C048F200008A604FF479
:10277000106C0021002E9A6028802980A5F804C0E2
:1027800051DDAB4B9E424EDCB7F804C02CF03F004D
:1027900001040B0CBB80BA88A64990B240F0080C2B
:1027A0008E42A7F804C042DCB8F1010F02D0A24863
:1027B000FEF776F8A148760090FBF6F106FB01F3F0
:1027C000C3F5F40808F59052002A7CD19B4A92FB8D
:1027D000F6F6B6B2032E6CD909214FEA065CB6F5BF
:1027E000805F39844FEA1C5802D39548FEF758F8A9
:1027F0006068216B0278A7F81C80B1F800C0022A3B
:102800001FFA8CF32DD0032A49D0012A03D123F0DB
:102810000A031A04130C0B802B889AB242F00101B0
:102820002980BDE8F0818748FEF73AF8ACE7864892
:10283000864224DCA8F10203DAB2012A4ED9834889
:10284000FEF72EF848F6FF78032160683984216B83
:102850000278A7F81C80B1F800C0022A1FFA8CF396
:10286000D1D143F002004FF6F77C00EA0C030B8055
:102870002B889AB242F001012980BDE8F0814FF027
:102880000008B5E7724EB04263D0724EB44200F019
:102890008C80D4F824C0276B4CF0100856E743F026
:1028A0000A030B802B889AB242F001012980BDE80F
:1028B000F0816948FDF7F4FF4FEA065809234FEA13
:1028C00018583B8494E76548FDF7EAFF5B4A92FBA2
:1028D000F6F6B6B2032E3FF67FAFEAE7B8F1020F85
:1028E00017D1564A06EB460692FBF6F006FB00FCB3
:1028F000CCF5F40808F5905139B9504890FBF6F63C
:1029000031050B0D43F400489EE75548FDF7C8FF1D
:10291000F3E7B8F1030F40F0BC8006EB86064749A9
:1029200006EB860691FBF6F306FB03FCCCF5F408F8
:1029300008F59052002A66D1404A92FBF6F086B222
:10294000002E40F0A1804748FDF7AAFF4FF4404811
:102950007AE7454F4FF0000E3B69806A43F4001858
:10296000C7F810800A21414A2346C7F810E0FFF754
:10297000CFF900284FD1F06A0A213D4A344BFFF7C6
:10298000C7F9002843D1384F1F20FB69A02143F429
:102990000012FA61FDF76CFD2020A021FDF768FD13
:1029A000716A41F4805070626FE72F4F4FF0000C56
:1029B0003969A06A41F4800EC7F810E00A212B4A59
:1029C0002346C7F810C0FFF7A3F960BBF06A0A21DD
:1029D000274A204BFFF79CF908BB234B2120DF69D6
:1029E000A02147F48002DA61FDF742FD2220A021F8
:1029F000FDF73EFD706A376B40F4805CC6F824C07A
:102A00004CF01008A2E61B48FDF74AFF94E71A486D
:102A1000FDF746FFB7E71948FDF742FFABE7184857
:102A2000FDF73EFFD9E71748FDF73AFFCEE700BFB5
:102A300000093D00A08601008849000800127A00C4
:102A4000304A000870490008801A0600D049000882
:102A5000440E00209C0E0020B8490008A049000840
:102A6000E8490008184A000800100240E122000866
:102A7000A1220008004A0008344900082049000843
:102A80005C4900084849000833051E0D46F44048DB
:102A9000DAE648F6FF78D7E6AFF30080AFF30080C0
:102AA000037810B5012B04460DD0FFF7B9FBE06A9F
:102AB000FFF77EF9A06AFFF77BF90F4884420FD039
:102AC0000E48844200D010BD2120FDF7F9FC2220E1
:102AD000FDF7F6FC0A49CB6923F48002CA61F2E7EC
:102AE0001F20FDF7EDFC2020FDF7EAFC0449CB692F
:102AF00023F40012CA6110BD440E00209C0E002079
:102B000000100240AFF30080AFF30080AFF300800D
:102B10002DE9F04F444F87B0149DFC69B5F1FF3F9C
:102B2000C4610646884691469A46046B05D001A8C2
:102B300029463E4A3346FDF703FFFDF7A9FDFDF7A1
:102B40001FFC03E0FDF7A4FDFDF71AFC208B10F03D
:102B5000020F03D1218811F4007F0ED0FDF708FC8D
:102B6000FDF776FDB5F1FF3FECD0049B002BE9D1DA
:102B70004FF0FF3007B0BDE8F08FFDF7F9FBFDF730
:102B800067FDB5F1FF3F49D1012186F83410B4F853
:102B900000C0129A2CF4807072640304109911988A
:102BA000139A4FF0000B1B0C4FEA4808A6F8208040
:102BB000B164F0647265C6F808B0C6F83890C6F81B
:102BC0003CA0C6F840B0C6F850B02380B4F804E08A
:102BD00008F0FE082EF400610804030CA380A4F89A
:102BE0000880B4F804C0FB691FFA8CF242F4C0619B
:102BF000A1802088B5F1FF3F1FFA80FE4EF4806C63
:102C0000A4F800C0F36107D004980028B2D001A84E
:102C1000FDF7C6FE5846ADE75846ABE7049A002AD2
:102C2000B2D14FF0FF30A5E7840D002071220008DB
:102C300070B51B4DFDF78CFD2B694FF6E0711A8ABC
:102C40009C891982144014F0020F24D114F0040F4F
:102C50001CD114F0080F14D114F0100F0CD114F083
:102C6000010F03D06A680E4893689847FDF790FDFE
:102C7000BDE87040FDF78CBB696809488A6A9047D7
:102C8000EDE76B680648196A8847E5E76A68044813
:102C900093699847DDE7696828460A699047D5E750
:102CA000F40E0020AFF30080AFF30080AFF300809C
:102CB00010B5044C2046FEF7B3FD4FF0804323616E
:102CC00010BD00BFF40E0020AFF30080AFF3008012
:102CD000037870B5012B04466DD00369002018807D
:102CE0009881188258639863D86318645862626840
:102CF000E1681668B1FBF6F0451EB5F5803F03D2DA
:102D000006FB00FC614504D03948FDF7C9FD626847
:102D100023692089D168441E01F00F01908DA4B26F
:102D200001291D85DC62988003D002290CBF032194
:102D30000021506900F00F00012821D002281DD089
:102D4000D06900F00F00012821D002282ED0506A4F
:102D500000F00F00012821D0022822D092681984A7
:102D6000B2F1000C18BF4FF0010C012000218522A8
:102D70009882A3F80CC019821A8070BD41F020011E
:102D8000D06941F0100100F00F000128DDD141F4BD
:102D90008071506A00F00F000128DDD141F48051AC
:102DA000DCE741F4005141F48051D7E741F4007170
:102DB00041F48071EDE70F49884207D0236946F658
:102DC000680CA3F818C0A3F81CC090E70A4D1C209B
:102DD000EA6942F00101E9612B69002243F0010632
:102DE0002E6170212A61FDF743FB0448E060E5E7AE
:102DF000904A0008F40E0020001002400024F40065
:102E00004368006903EBC10C10B4DCF8103001F129
:102E10000C0400EB840462605BB1022313FA01F13D
:102E2000828993B2194204D189B2CA43194381817C
:102E3000028210BC704700BFAFF30080AFF3008088
:102E4000034B998988B240F080029A81704700BF95
:102E500000480040AFF30080AFF30080AFF3008084
:102E60002DE9F047554EFDF773FC356FAF892C887F
:102E7000BFB2A4B214F00F0FB5F8048023D014F041
:102E8000080918BF4FF0800914F0010F18BF49F06E
:102E9000200914F0020F18BF49F0400914F0040F84
:102EA00018BF49F48079FDF763FAFDF711FCB168AA
:102EB000434849EA01030021B360FEF719F9FDF721
:102EC00027FCFDF75DFA14F4807F3CD114F0200F4D
:102ED0002BD117F0800F02D014F0800F4BD114F0DB
:102EE000400F1CD0FDF744FAFDF7F2FBB2683448FE
:102EF00042F010030021B360FEF7FAF8FDF708FC7A
:102F0000FDF73EFA4FF6BF7107EA010CA5F80CC0B9
:102F1000B5F800E02EF040021304180C2880FDF7ED
:102F200037FCBDE8F047FDF733BAFDF721FAFDF7AE
:102F3000CFFB22485FFA88F1FEF742FDFDF7E8FB80
:102F4000FDF71EFAC5E7FDF713FAFDF7C1FBB168FF
:102F50001B4841F400720021B260FEF7C9F8FDF78A
:102F6000D7FBFDF70DFAB5F800C02CF480731A04F6
:102F7000100C2880AAE7FDF7FBF9DFF84080FDF789
:102F8000A7FB08F13000FEF7D3F9002805DBA88085
:102F9000FDF7BEFBFDF7F4F9A1E7D8F8081008F13A
:102FA000040041F00802C8F808200021FEF7A0F84C
:102FB00027F0C00343F04000A881E9E7080F002094
:102FC0000C0F0020AFF30080AFF30080AFF3008060
:102FD00010B5044C00212046034AFEF7D1FC034BF8
:102FE000236710BD080F0020412E00080048004054
:102FF000154B30B49A69154D42F07D049C6101680F
:10300000134CE960826813496A604368124A2B6076
:10301000C568124BE560456965600569256084698E
:10302000CC60046A4C60C4690C60416AD160C16ABA
:103030005160816A1160026BDA60816B5960426B8A
:103040001A6030BC704700BF001002400008014009
:10305000000C014000100140001401400018014024
:10306000032AF0B400F09A80042A08BF41614C4B57
:1030700011F080079B5C40F088800F2411F400451C
:1030800040F089800F264A002401360139012D01C4
:1030900012F0800F14BF194344F00F0412F4004FD4
:1030A00014BF1D4346F00F065200240136010901EA
:1030B0002D0112F0800F14BF194344F00F0412F4D5
:1030C000004F14BF1D4346F00F0652002401360185
:1030D00009012D0112F0800F14BF194344F00F04B1
:1030E00012F4004F14BF1D4346F00F065200240196
:1030F000360109012D0112F0800F14BF194344F06D
:103100000F0412F4004F14BF1D4346F00F06520087
:103110002401360109012D0112F0800F14BF19435B
:1031200044F00F0412F4004F14BF1D4346F00F0685
:1031300052002401360109012D0112F0800F14BF45
:10314000194344F00F0412F4004F14BF1D4346F01E
:103150000F0652002401360109012D0112F0800FE3
:1031600014BF194344F00F0412F4004F18BF1D435D
:10317000436808BF46F00F061E40354345600268AD
:10318000144021430160F0BC7047002411F4004555
:103190001F463FF477AF1D46002674E7016166E7DE
:1031A000B04A0008AFF30080AFF30080AFF30080B7
:1031B00010B5FDF7CDFA16498B88154A13F0080FA4
:1031C000FAD011889488B2F804C00C402CF00700A3
:1031D0000304180C14F0010F908014D114F0020FA6
:1031E0000CD114F0040F03D00A4802210268904762
:1031F000FDF7CEFABDE81040FDF7CAB80548012139
:1032000003689847EDE70348002102689047E5E727
:10321000002800407C0F0020AFF30080AFF3008057
:103220001A498B88194A13F0080FFAD0108993892C
:1032300001041FFA83FC61444FF22340814217D0FE
:10324000B2F804C011491CF0200FF9D08A8800237D
:103250001FFA82FC4CF010004FF2234288800B8151
:103260008A81B1F804C02CF0100003041A0C8A8083
:10327000064A918811F0200FFBD0044A00231380E6
:10328000034A0320F0211360FDF7F2B80028004044
:103290007C0F0020AFF30080AFF30080AFF300801D
:1032A0000B4B9A880A4812F0200FFAD082880B68DC
:1032B0001FFA82FC4CF010011A0C81800283838378
:1032C000B0F804C02CF0100211040B0C838070477E
:1032D00000280040AFF30080AFF30080AFF3008020
:1032E000F0B4144B9A8812F0080FFBD0114B188BD6
:1032F0009F8B1D8AB3F814C01C8B9E8B0204BFB237
:103300002004B6B2D21980192D041FFA8CF482421F
:103310002C44ECD1084D094B05FB04FC08480CEB90
:103320000304A0FB044CCCF38F330A604B60F0BC69
:10333000704700BF0028004018FCFFFFB8A8B90381
:1033400083DE1B43AFF30080AFF30080AFF3008058
:1033500010B489B10D4C0160A3880C4A13F0200F02
:10336000FAD0B2F804C02CF007000304190C0720AF
:103370009180108010BC7047044A918811F0200F92
:10338000FBD0024A002313800360F3E700280040CB
:10339000FEF78EBDAFF30080AFF30080AFF3008087
:1033A000704700BFAFF30080AFF30080AFF3008041
:1033B00008B5FEF77DF8FDF7CBF800F051F800F006
:1033C000AFF800F02DFA00F023FD00F0C9F900F08D
:1033D000DFFD00F07DF9002008BD00BFAFF30080E5
:1033E0001B482DE9F041C3691A4C1B489C614FF4FE
:1033F00000510622FFF734FE17484FF480410622A1
:10340000FFF72EFE4FF40056DFF85080124C37467F
:103410004FF48045142067616561FDF791FC14202D
:1034200026612561FDF78CFC98F800204FF480415F
:1034300012F0010F14BF2661666112F0020F14BF73
:10344000216161614FF49B50FDF77AFCE0E700BF1A
:10345000840D0020104B0008000C0140800F00205C
:1034600030B50F4C83B0062220464FF40051FFF7D1
:10347000F7FD4FF40055204606224FF48041FFF738
:10348000EFFD65614FF4804565614FF4D87100240C
:103490004022044B04480094FDF712FC03B030BDF9
:1034A000000C0140E1330008880F0020AFF30080DA
:1034B0000A4A1FFA80FC107009481CF0010F4FF4F3
:1034C0000051074B14BF016141614FF480421CF071
:1034D000020F14BF1A615A61704700BF800F0020AD
:1034E000000C0140AFF30080AFF30080AFF3008029
:1034F00048B907494FF48050486105484FF480515E
:103500000622FFF7ADBD024B4FF480521A61F4E77B
:10351000000C0140AFF30080AFF30080AFF30080F8
:103520000020FFF7E5BF00BFAFF30080AFF30080DE
:1035300010B5044650B1012000F0A2FA43F69820DD
:10354000FDF7FEFBBDE8104000F08ABCFFF7D0FF9E
:10355000204600F06DF9204600F042F92046FFF7C2
:10356000A7FF00F0C5FC2046BDE8104000F088BA77
:103570002DE9F04100294AD13A48836813F4004FFD
:1035800041D0FCF7F5FE384CFDF7A2F8374821464C
:10359000FFF7A6FEFDF7BCF8FCF7F2FE34492268FF
:1035A0000B689A4235D2FCF7E3FEFDF791F8314AF9
:1035B00015786B1E0DB3304A206852F82310C1EB0A
:1035C000000CBCF1040F12D9AC006442AD0013F042
:1035D000010F02EB830239D0043A02EB040E5EF8CD
:1035E0000510013BC1EB000CBCF1040F2ED82348A1
:1035F0008368002B01DCFDF753FCFDF789F8FCF72D
:10360000BFFEBDE8F0811D488268002A26DDBDE8C6
:10361000F081D01A2060FCF7ABFEFDF759F8134893
:103620002146FFF73DFEFDF773F8FCF7A9FEBDE864
:10363000F0814959731EC1EB000EBEF1040FD6D9BB
:103640007959C1EB000CBCF1040FD0D9161F083A10
:10365000311917195E1E002BEBD1CEE7BDE8F04102
:10366000FDF71EBC000C0140381100207C0F00202B
:10367000080800200008002040110020A0110020B0
:1036800010B504460448FDF7B3FC044B1C60BDE8CC
:103690001040FDF7BDBC00BF9011002004080020C1
:1036A00010B50548FDF7A4FC0448054B02681A60F4
:1036B000BDE81040FDF7ACBC9011002004080020CC
:1036C0000C080020AFF30080AFF30080AFF3008060
:1036D0001B48F8B51B4AC36941F288309A61FDF76F
:1036E0002FFB194E194F1A4DA96811F4004F02D043
:1036F0001848FDF7C5FB0120FFF71AFF1648FDF734
:1037000077FC3C683460FDF783FC4FF47A70FDF77A
:1037100017FBAA68104812F4004FF6D0FDF768FCBA
:103720003468FDF775FC013C0B48FDF761FC346023
:10373000FDF76EFC002CE8DC0020FFF7F9FED3E774
:10374000840D0020204B00080C08002004080020F5
:10375000000C0140A011002090110020AFF3008068
:1037600030B5002183B01648FDF73AFB154B48F6FB
:10377000A0421A604CF2E0425A6002F5C442703234
:10378000114D9A60114B03221A7028461049FEF71A
:10379000A7F900242846694600940194FEF788F9A9
:1037A00000F02EF94FF4004102220A48FFF758FCBE
:1037B0000948FDF7A5FB2046FFF7BAFE03B030BD70
:1037C000A0110020401100207C0F002000080020E4
:1037D00071350008000C014090110020AFF300800B
:1037E000A8B90D494FF480524FF400704A614FF46C
:1037F000806348614FF400624FF480704B614A610E
:10380000486105484FF480710622FFF729BC024B3E
:103810004FF480721A61F4E700080140AFF30080B2
:103820000020FFF7DDBF00BFAFF30080AFF30080E3
:103830002A4B70B59D6810F0010F0446C5F30025B2
:1038400001D0002D41D1254B4FF480505861234EBB
:1038500006224FF480513046FFF702FC14F0020FAD
:1038600001D0002D2DD11D4A4FF4007656611B4E1C
:1038700006224FF400713046FFF7F2FB14F0040FFC
:1038800000D0D5B9154B4FF480615961134E062213
:103890004FF480613046FFF7E3FB14F0080F00D0CF
:1038A000BDB90E494FF4006048610C484FF4006107
:1038B0000622BDE87040FFF7D3BB4FF48060306153
:1038C000E4E74FF400713161D1E74FF480521A619F
:1038D000BDE74FF400623261E7E700BF0008014036
:1038E0003B488A88038870B59A420C4614D32ED878
:1038F000384920880B88984207D33748B4F802C06B
:10390000028894454ED332D870BD3448012100223C
:10391000BDE87040FFF774BA314A324B1688B3F8ED
:1039200000C02E4806EB0C05ADB242F210710289C0
:103930008D4228BF0D4602FB05F62B4A0221A2FB51
:10394000066C1D80CCF34F32FFF75AFAD0E7244DB6
:10395000244BB5F800E0198820488E452CBFCEEBEB
:103960000E0ECEEB010E02891FFA8EF5E3E71F4E15
:103970001F4B3488B3F800C0184864452CBFC4EB13
:103980000404C4EB0C040289A4B202FB04F6164939
:10399000A1FB06620121C2F34F321C80BDE87040DA
:1039A000FFF72EBA1148124B0588B3F800C00B4838
:1039B00005EB0C0441F65832A4B2B0F808C09442AA
:1039C00028BF14460CFB04F50749A1FB0552E1E7AB
:1039D000440800204808002010080020F40E0020B1
:1039E00012080020C01100205917B7D14608002046
:1039F000BC110020AFF30080AFF30080AFF3008074
:103A000070B5164D164C28461649FDF711FF0421D6
:103A100010222046FFF724FB204602211022FFF748
:103A20001FFB284601210022FDF72AFF284602211C
:103A300000220D4DFDF724FF05222046F821FFF757
:103A40000FFB00212846FDF763FD0849084A284678
:103A50000223BDE87040FDF7DBBD00BFF40E00207F
:103A60000008014014080020100E0020604B0008E0
:103A7000B0110020AFF30080AFF30080AFF30080FF
:103A800010B50446FCF774FCFCF7E2FD64B90B4B7F
:103A90001A8832B900221A80FCF7FAFDFCF770FC94
:103AA00010BD07490A80F5E70548044B02881A80D3
:103AB000FCF7EEFDFCF764FC10BD00BF44080020DD
:103AC000AC110020AFF30080AFF30080AFF30080B3
:103AD00010B50446FCF74CFCFCF7BAFD034B1C8008
:103AE000FCF7D6FDFCF74CFC10BD00BF1008002011
:103AF00010B50446FCF73CFCFCF7AAFD034B1C8008
:103B0000FCF7C6FDFCF73CFC10BD00BF48080020D8
:103B100038B5134C2578012D0FD120460021FDF733
:103B2000F7FC2B460F49104A2046FDF7B9FD204609
:103B3000FDF716FD0C4B188838BD2046FDF780FDBB
:103B4000012320460749084AFDF7AAFD2046022323
:103B50000649074AFDF75CFD034B188838BD00BFD6
:103B6000100E0020904B0008BE110020604B000892
:103B7000B0110020AFF30080AFF30080AFF30080FE
:103B800038B5134C2578012D0FD120460021FDF7C3
:103B9000BFFC2B460F49104A2046FDF781FD204609
:103BA000FDF7DEFC0C4B188838BD2046FDF748FDBC
:103BB000012320460749084AFDF772FD20460223EB
:103BC0000649074AFDF724FD034B188838BD00BF9E
:103BD000100E0020304B0008AE110020604B000892
:103BE000B0110020AFF30080AFF30080AFF300808E
:103BF00010B5FCF7BDFBFCF72BFD044B5C88FCF714
:103C000047FDFCF7BDFB204610BD00BFB0110020F2
:103C100010B5FCF7ADFBFCF71BFD044B9C88FCF7D3
:103C200037FDFCF7ADFB204610BD00BFB0110020F2
:103C300010B5FCF79DFBFCF70BFD044B1C88FCF753
:103C400027FDFCF79DFB204610BD00BFB0110020F2
:103C5000704700BFAFF30080AFF30080AFF3008088
:103C600038B5FCF785FB0B4CFCF732FD00230A4D01
:103C7000236004E023680133072B236005D8E95C47
:103C80000648FDF77DFA0028F4D0FCF741FDFCF76B
:103C900077FB38BD7816002094160020A01600206F
:103CA00054482DE9F047C369534E544A544C554F7C
:103CB0009A61751E4FF015084FF014094FF0120A63
:103CC0005149082251484FF0FF33FDF7B1FA2A78E5
:103CD000511E14290ED8DFE801F02A0B0B0D0D0D33
:103CE0000D8379736D67615B554B413730101F0051
:103CF000FFF7D6FCFFF7D4FCE2E7424800F080F97A
:103D000097F800C0010A6070A17084F803C084F8BD
:103D10000090FFF7C5FCD3E7308800F089F9020A6C
:103D20006070A27084F80080FFF7BAFCC8E73088A2
:103D3000FFF7A6FCFFF7B4FCC2E73088E97800F093
:103D40003FF9FFF7ADFCBBE7FFF772FF030A6070B6
:103D5000A37084F800A0FFF7A3FCB1E7FFF748FFCA
:103D6000020A60701120A2702070FFF799FCA7E78B
:103D7000FFF74EFF1023010A6070A1702370FFF758
:103D80008FFC9DE73088FFF793FBFFF789FC97E7EF
:103D90003088FFF7ADFBFFF783FC91E73088FFF732
:103DA00047FDFFF77DFC8BE73088FFF719FDFFF734
:103DB00077FC85E73088FFF78BFEFFF771FC7FE724
:103DC0003088FFF795FEFFF76BFC79E7FFF7A0FE61
:103DD000020A60700920A2702070FFF761FC6FE793
:103DE000FFF7CEFE0823010A6070A1702370FFF771
:103DF00057FC65E7840D0020C1160020D04B000859
:103E0000C81600209C160020C0160020A016002016
:103E100010B50E4C82B0402102222046FFF720F957
:103E2000204680210222FFF71BF9182200230848B0
:103E30000849FDF795F900244FF496614022064B9E
:103E400006480094FCF73CFF02B010BD000C014096
:103E5000A01600207C160020A13C0008C8110020FC
:103E60002DE9F041194C4FF4FA7386B018484021FF
:103E700011222360FFF7F4F8154880211122FFF783
:103E8000EFF8144F144E154D4FF0100806E014488B
:103E9000FDF766FC4FF4FA60FCF752FF1048114939
:103EA000FDF736FCD4F800E001210F4A08230C4846
:103EB0000097CDF8048002960395CDF810E0FDF749
:103EC00077FC0028E3D106B0BDE8F081D8160020C9
:103ED000000C0140C8160020613C0008513C00085D
:103EE000440E0020C04B000894160020AFF3008061
:103EF00010B5084C0848FDF733FC4021022220464B
:103F0000FFF7AEF8204680210222BDE81040FFF7FF
:103F1000A7B800BF000C0140440E0020AFF30080A2
:103F20002DE9F047134CDFF85CA0DFF85C90DFF878
:103F30005C80114D114F4FF47A76B4F800C01048F0
:103F4000BCF5B46F28BF4FF4B46CA4F800C0FDF703
:103F50004FF83B88B9F800102288AAF80010A8F89A
:103F600000202B60FDF754F8286806FB00F0FCF7F2
:103F7000E7FEE2E730220020342200204C08002037
:103F8000DC160020EE16002038220020EC1600205F
:103F900010B5074882B0FCF7B3FF00244FF49871C6
:103FA0004022044B04480094FCF78AFE02B010BD86
:103FB000DC160020213F000840220020AFF30080E3
:103FC00070B5044608480D46FDF712F8074A08493F
:103FD00014800848084A00230D7003801380BDE850
:103FE0007040FDF715B800BFDC1600204C0800201B
:103FF0004A080020EE160020EC160020AFF30080E7
:1040000038B504460648FCF7F3FF064B1D8814B18B
:10401000054908782070FCF7FBFF284638BD00BF33
:10402000DC160020EC1600204A080020AFF30080C8
:1040300038B505460D48FCF7DBFF0D4A0D4C1188DD
:1040400001F5B2630F335D1B2580FCF7E1FF238888
:10405000094A5809A2FB000C4FF4B46101FB1C3063
:10406000064A83B232F81300208038BDDC160020E7
:10407000EE16002070230020065BB005F01600202D
:1040800069646C65000000006D61696E00000000ED
:104090005356233100000000535623320000000025
:1040A0005356233300000000535623340000000011
:1040B00053562335000000005356233600000000FD
:1040C00053562337000000005356233800000000E9
:1040D00053562339000000005356233130000000AE
:1040E00053562331310000000000000000000000A2
:1040F0002263685654536574492228290000000041
:104100002263685654526573657449222829000059
:104110006368565452657365744928292C202331ED
:10412000000000000000000000000000000000008F
:10413000636853636852656164794928292C202398
:1041400031000000737461636B206F766572666C7A
:104150006F77000000000000000000000000000079
:104160002263685468644372656174654922282932
:1041700000000000226368546864536574507269DB
:104180006F726974792228290000000063685468FE
:1041900064526573756D6528292C20233100000059
:1041A000226368546864536C656570222829000096
:1041B0006368546864457869745328292C20233136
:1041C0000000000022636854686457616974222803
:1041D0002900000063685468645761697428292CB9
:1041E0002023310063685468645761697428292C5E
:1041F000202332000000000000000000000000004A
:1042000022636853656D496E697422282900000095
:1042100022636853656D52657365744922282900CD
:10422000636853656D52657365744928292C202392
:104230003100000022636853656D57616974532231
:1042400028290000636853656D57616974532829F4
:104250002C2023310000000022636853656D5761F4
:10426000697454696D656F757453222829000000C4
:10427000636853656D5761697454696D656F7574D2
:104280005328292C2023310022636853656D53691C
:10429000676E616C22282900636853656D536967F6
:1042A0006E616C28292C20233100000022636853A2
:1042B000656D5369676E616C492228290000000012
:1042C000636853656D5369676E616C4928292C20BA
:1042D0002331000022636853656D416464436F7548
:1042E0006E746572492228290000000063685365D6
:1042F0006D416464436F756E7465724928292C2082
:104300002331000022636853656D5369676E616CE9
:104310005761697422282900636853656D53696782
:104320006E616C5761697428292C202331000000CC
:10433000636853656D5369676E616C576169742872
:10434000292C2023320000000000000000000000A3
:104350002263684D7478496E697422282900000030
:104360002263684D74784C6F636B532228290000D8
:1043700063684D74784C6F636B5328292C2023316C
:104380000000000063684D74784C6F636B532829FC
:104390002C202332000000002263684D7478547290
:1043A000794C6F636B5322282900000063684D74B9
:1043B00078556E6C6F636B28292C20233100000028
:1043C00063684D7478556E6C6F636B28292C2023BD
:1043D0003200000063684D7478556E6C6F636B53E8
:1043E00028292C202331000063684D7478556E6CA9
:1043F0006F636B5328292C2023320000000000003B
:1044000022636845767452656769737465724D619D
:10441000736B222829000000226368457674556E6C
:104420007265676973746572222829002263684582
:1044300076745369676E616C492228290000000078
:104440002263684576745369676E616C222829007F
:1044500022636845767442726F6164636173744D60
:1044600061736B4922282900226368457674446988
:1044700073706174636822282900000063684576C0
:1044800074446973706174636828292C2023310097
:1044900022636849515265616454696D656F757432
:1044A000222829002263684F515772697465546944
:1044B0006D656F757422282900000000000000005F
:1044C0002261646353746172742228290000000021
:1044D000616463537461727428292C2023310000B5
:1044E0002261646353746F702228290061646353EE
:1044F000746F7028292C202331000000226164632E
:104500005374617274436F6E76657273696F6E492E
:10451000222829006164635374617274436F6E765C
:10452000657273696F6E4928292C202331000000C1
:104530002261646353746F70436F6E766572736942
:104540006F6E22282900000061646353746F70430A
:104550006F6E76657273696F6E28292C2023310087
:104560002261646353746F70436F6E766572736912
:104570006F6E49222829000061646353746F704391
:104580006F6E76657273696F6E4928292C2023310E
:1045900000000000616463436F6E766572742829C1
:1045A0002C20233100000000226164634163717597
:1045B00069726542757322282900000022616463D4
:1045C00052656C656173654275732228290000008D
:1045D000226932635374617274222829000000003A
:1045E000693263537461727428292C2023310000CE
:1045F0002269326353746F70222829006932635331
:10460000746F7028292C2023310000002269326346
:104610004765744572726F7273222829000000008A
:10462000226932634D61737465725472616E736D89
:10463000697454696D656F75742228290000000043
:104640006932634D61737465725472616E736D6922
:104650007454696D656F757428292C20233100000E
:10466000226932634D617374657252656365697660
:104670006554696D656F7574222829006932634D30
:1046800061737465725265636569766528292C20AB
:10469000233100002269326341637175697265429A
:1046A00075732228290000002269326352656C6507
:1046B0006173654275732228290000000000000024
:1046C0002270776D537461727422282900000000F3
:1046D00070776D537461727428292C202331000087
:1046E0002270776D53746F702228290070776D5394
:1046F000746F7028292C2023310000002270776D00
:104700004368616E6765506572696F64222829008D
:1047100070776D4368616E6765506572696F642874
:10472000292C2023310000002270776D456E6162D4
:104730006C654368616E6E656C222829000000007C
:1047400070776D456E61626C654368616E6E656C15
:1047500028292C202331000070776D446973616231
:104760006C654368616E6E656C28292C20233100CE
:104770002273645374617274222829007364537421
:1047800061727428292C20233100000022736453A5
:10479000746F702228290000736453746F70282985
:1047A0002C20233100000000227364496E636F6D7A
:1047B000696E67446174614922282900227364523A
:1047C000657175657374446174614922282900001C
:1047D0004119000821190008D1180008E118000843
:1047E0006119000851190008311900081119000851
:1047F000F1180008000000000000000000000000A8
:104800002272746353657454696D6522282900000F
:104810002272746347657454696D6522282900000B
:1048200022727463536574416C61726D2228290091
:1048300022727463476574416C61726D222829008D
:104840002272746353657443616C6C6261636B22A2
:104850002829000000000000000000000000000007
:1048600022646D61416C6C6F63617465222829005C
:1048700022646D6152656C656173652228290000B0
:10488000646D6152656C6561736528292C20233144
:104890000000000000000000000000000000000018
:1048A000080002400400024000000B001C0002400F
:1048B0000400024004010C003000024004000240E9
:1048C00008020D0044000240040002400C030E00E8
:1048D000580002400400024010040F006C00024027
:1048E0000400024014051000800002400400024051
:1048F0001806110000000000000000000000000089
:104900006164635F6C6C645F737461727428292CDA
:104910002023310000000000000000000000000023
:104920006932635F6C6C645F737461727428292CE4
:10493000202331006932635F6C6C645F7374617251
:104940007428292C202332006932635F6C6C645F09
:10495000737461727428292C202333006932635FD9
:104960006C6C645F737461727428292C202334008A
:10497000226932635F6C6C645F7365745F636C6F34
:10498000636B2228290000006932635F6C6C645FEE
:104990007365745F636C6F636B28292C202331006F
:1049A0006932635F6C6C645F7365745F636C6F63C3
:1049B0006B28292C202332006932635F6C6C645FA2
:1049C0007365745F636C6F636B28292C202333003D
:1049D0006932635F6C6C645F7365745F636C6F6393
:1049E0006B28292C202334006932635F6C6C645F70
:1049F0007365745F636C6F636B28292C202335000B
:104A00006932635F6C6C645F7365745F636C6F6362
:104A10006B28292C202336006932635F6C6C645F3D
:104A20007365745F636C6F636B28292C20233700D8
:104A30006932635F6C6C645F7365745F636C6F6332
:104A40006B28292C20233800226932635F6C6C6448
:104A50005F6D61737465725F726563656976655FCA
:104A600074696D656F7574222829000022693263AC
:104A70005F6C6C645F6D61737465725F7472616E9C
:104A8000736D69745F74696D656F75742228290090
:104A900070776D5F6C6C645F737461727428292C1D
:104AA0002023310000000000000000000000000092
:104AB0000402040808000307080808080808080892
:104AC0000B0F0000000000000000000000000000CC
:104AD000FFFFFFFF844B888888888888FFFFFFFFDF
:104AE000888888888888B8B4FFFFFFFF8888844456
:104AF00088338388FFFFFFFF4488888888888888F8
:104B0000FFFFFFFF88888888888888880000000069
:104B1000707772000000000000000000000000003C
:104B20007000000000000000000000000000000015
:104B30000000000001000000000000000000000074
:104B40000000000000000000000000000000600005
:104B5000000000000000000007000000000000004E
:104B60000100000003000000E13800080000000020
:104B700000000000000000000000000000B601007E
:104B8000000020000000000083140000000000006E
:104B90000000000001000000000000000000000014
:104BA00000000000000000000000000000000C00F9
:104BB00000000000000000000600000000000000EF
:104BC00001000000A08601000100000000000000BC
:044BD000650000007C
:104BD80003000000B400000080510100B400000090
:104BE8004F0BE80300127A001E00000000000000CE
:104BF80000000000000000000100000000000000AC
:104C0800010000000000000000000000000000009B
:104C1800000000001408E803C9060500B4000000FD
:04000005080000F0FF
:00000001FF
