:020000040800F2
:100000000004002031020008F1020008F10200089B
:10001000F1020008F1020008F1020008F1020008F4
:10002000F1020008F1020008F10200084103000893
:10003000F1020008F1020008F102000811030008B3
:10004000F1020008F1020008F1020008F1020008C4
:10005000F1020008F1020008F1020008F1020008B4
:10006000F1020008F1020008F1020008E12700088F
:100070003128000881280008D1280008212900081B
:1000800071290008C1290008F1020008F1020008E6
:10009000F1020008F1020008F1020008F102000874
:1000A000F1020008F1020008F1020008F102000864
:1000B00081400008F1020008F1020008013B00083D
:1000C000213B0008413B0008613B0008F1020008A9
:1000D000F1020008F1020008F10200085146000890
:0C00E000F1020008F1020008F102000823
:1000F00040F60003C2F2000370B41D6810F8013B23
:10010000EC181A46647804F00304012C11F8014B32
:1001100008BF03F120022E192346767806F0030665
:10012000012E08BF04F12003D21A01D1002BE5D122
:10013000104670BC704700BF0000000000000000C7
:10014000F0B40478002C20D00F78064630468FB1EA
:10015000A7421CD04B1C01E0944211D01D4613F85D
:10016000012B002AF8D17478701C44B10646304641
:10017000002FEDD174780D46701C002CF6D12A7832
:10018000002A08BF0020F0BC70472046FBE73A4633
:10019000F6E700BF000000000000000000000000C3
:1001A000F0B40646047874B10F780546064657B198
:1001B000BC4218BF0A4602D108E09C4206D012F8A1
:1001C000013F002BF9D1301AF0BC70476C786E1CDF
:1001D000002CF8D03546EBE70000000000000000DE
:1001E000704700BFAFF30080AFF30080AFF3008033
:1001F000FEE700BFAFF30080AFF30080AFF30080F5
:1002000084B003900291019206E0039B019A1A6068
:10021000039B03F104030393039A029B9A42F4D3D2
:1002200004B07047AFF30080AFF30080AFF30080FD
:1002300072B6204C84F309884FF0020484F31488CA
:10024000BFF36F8F04F024FB1B481C494FF055325D
:10025000FFF7D6FF1A4817494FF05532FFF7D0FF86
:10026000184D194C05E02B68236004F1040405F1D6
:100270000405164B9C42F6D3154816494FF0000270
:10028000FFF7BEFFFFF7ACFF134C03E0236898476E
:1002900004F10404114B9C42F8D305F061F8104CB2
:1002A00003E02368984704F104040E4B9C42F8D302
:1002B000FFF79EFF0008002000000020000400203F
:1002C00000040020D06D0008000800207008002005
:1002D0007008002090160020EC000008EC000008D8
:1002E000EC000008EC000008AFF30080AFF30080E2
:1002F000FEE700BFAFF30080AFF30080AFF30080F4
:1003000072B6FEE7AFF30080AFF30080AFF300807A
:1003100008B500F09DFA00F043F800F069FA00F02B
:10032000D7F900F07DFA00F043F800F0B1FA00F0E0
:1003300047F808BDAFF30080AFF30080AFF3008053
:1003400010B582B0EFF309840194019B03F12003FF
:100350000193019B83F3098800F02AF802B010BDD5
:1003600008B50D4B4FF000029A600B4B0B4ADA6058
:100370004FF007004FF0100100F022F94FF00A0093
:100380004FF4007100F01CF94FF00B004FF08001AA
:1003900000F016F908BD00BF00ED00E00000FA050E
:1003A0004FF0200383F31188704700BFAFF3008044
:1003B0004FF0000383F31188704700BFAFF3008054
:1003C00010B582B0FFF7ECFF1E4B5B6803F40063CF
:1003D000002B32D0EFF309840194019BA3F1200399
:1003E0000193019B83F30988019B4FF08072DA61CE
:1003F000154B9B69002B0BD0134B1B689A68124B53
:10040000DB699B689A4294BF00230123DBB20AE0B8
:100410000D4B1B689A680C4BDB699B689A4234BF92
:1004200000230123DBB2002B03D0019B074A9A6112
:1004300005E0019B064A9A6101E0FFF7B9FF02B0AF
:1004400010BD00BF00ED00E0A00D00206104000819
:100450006C040008AFF30080AFF30080AFF30080BE
:1004600000F096F900F014FD00F0AAF900DF00BFDB
:1004700003460A462DE9F04FC2F80CD0D3F80CD051
:10048000BDE8F08FAFF30080AFF30080AFF30080E2
:1004900008B500F095F9FFF78BFF2846A04700F05C
:1004A0002FFE08BDAFF30080AFF30080AFF30080F4
:1004B00010B485B001900091019B03F003034FEA53
:1004C000C30303931E4B019A4FEA92021C49019801
:1004D0004FEA900000F1C00051F8200003994FF05E
:1004E000FF0404FA01F16FEA010108400399009C3E
:1004F00004FA01F140EA010102F1C00243F82210BE
:100500000F4B019A4FEA5212019901F01F014FF06F
:10051000010000FA01F102F1600243F82210084BD9
:10052000019A4FEA5212019901F01F014FF00100A8
:1005300000FA01F143F8221005B010BC704700BF6B
:1005400000E100E0AFF30080AFF30080AFF3008084
:1005500010B485B00190019B03F003034FEAC3037D
:100560000393154B019A4FEA5212019901F01F01B2
:100570004FF0010000FA01F102F1200243F82210CD
:100580000D4B019A4FEA92020B4901984FEA9000F5
:1005900000F1C00051F8200003994FF0FF0404FA65
:1005A00001F16FEA010100EA010102F1C00243F822
:1005B000221005B010BC704700E100E0AFF30080EE
:1005C00010B485B001900091019B03F003034FEA42
:1005D000C3030393104B019A4FEA92020E4901980C
:1005E0004FEA900000F1060051F8200003994FF007
:1005F000FF0404FA01F16FEA010108400399009C2D
:1006000004FA01F140EA010102F1060243F8221066
:1006100005B010BC704700BF00ED00E0AFF30080F4
:1006200082B00190024BDB69024A9A61FEE700BF8B
:10063000A00D0020405F0008AFF30080AFF3008002
:1006400000B583B0FFF78CFE00F0E2FA00F040FA4C
:1006500001F02EFA01F09CFA00F06AF914484FF00C
:10066000400100F04DFC0246124BDA61114BDB6990
:100670004FF0010283F820200E4BDB690E4ADA614D
:1006800000F06EF84FF0000383F3118862B6094B57
:10069000DB690A4A9A610A4B4FF00002009209484E
:1006A0004FF0C0014FF0010200F0D2FC03B000BDDA
:1006B00030090020A00D002000040020485F000841
:1006C0002106000870080020AFF30080AFF300801F
:1006D00000B583B000F0FCF81F4B9B69002B05DDD3
:1006E0001D4B9B6903F1FF321B4B9A611A4BDB696F
:1006F0005A6A02F101025A62184BDB6803F10102E7
:10070000164BDA60154B1B681A46144B9A4221D0DF
:10071000124B1B689A6802F1FF329A6013E0019B4A
:10072000DB680093019B4FF00002DA60019B1B68BD
:100730000A4A5A60019B1A68084B1A60019B1A69A1
:10074000009B10469847054B1B680193019B9B68D3
:10075000002BE4D003B000BDA00D0020900D0020C0
:1007600008B5064B1B68002B03D1054B1B68002BFB
:1007700002D0044800F024F908BD00BF7C09002025
:1007800080090020605F0008AFF30080AFF30080B5
:1007900008B5084B1B68002B03D1074B1B68002BC7
:1007A00002D0064800F00CF9034B4FF001021A602A
:1007B00008BD00BF7C09002080090020685F000898
:1007C00008B5084B1B68002B03D1074B1B68002B97
:1007D00002DC064800F0F4F8034B4FF000021A6008
:1007E00008BD00BF7C09002080090020705F000860
:1007F00008B5084B1B68002B03DD074B1B68002B5B
:1008000002D0064800F0DCF8034B4FF001021A60FA
:1008100008BD00BF7C09002080090020785F000827
:1008200008B5084B1B68002B03DD074B1B68002B2A
:1008300002DC064800F0C4F8034B4FF000021A60D7
:1008400008BD00BF7C09002080090020805F0008EF
:1008500008B5FFF7A5FD0A4B1B68002B03DB094B0E
:100860001B68002B02D0084800F0AAF8044B1B6854
:1008700003F10102024B1A60FFF79AFD08BD00BFA9
:100880007C09002080090020885F0008AFF3008009
:1008900008B5FFF785FD0A4B1B68002B03DD094BEC
:1008A0001B68002B02D0084800F08AF8044B1B6834
:1008B00003F1FF32024B1A60FFF77AFD08BD00BF5B
:1008C0007C09002080090020905F0008AFF30080C1
:1008D00008B5064B1B68002B03DB054B1B68002B80
:1008E00002DC044800F06CF808BD00BF7C09002061
:1008F00080090020985F0008AFF30080AFF300800C
:1009000008B5064B1B68002B03D1054B1B68002B59
:1009100002DC044800F054F808BD00BF7C09002048
:1009200080090020A05F0008AFF30080AFF30080D3
:10093000034B4FF040021A60014B024A5A60704765
:10094000840900208C090020AFF30080AFF3008001
:1009500082B00190124B5B68124AD2681A60104B49
:100960005B68114AD2695A600D4B5B68019A926AC2
:100970009A600B4B5B68019A92F820201A73084B1F
:100980005B6803F11002064B5A60054B5A68074B2F
:100990009A4202D3024B064A5A6002B0704700BF27
:1009A00084090020900D0020A00D00208C0D002057
:1009B0008C090020AFF30080AFF30080AFF300801C
:1009C00000B583B00190034B019A1A60FFF798FCC1
:1009D00003B000BD8C0D0020AFF30080AFF30080AA
:1009E00084B001900091009B0393039B1B680393C9
:1009F000009B039A9A4205D0039B9A68019B9B68CF
:100A00009A42F2D2019B039A1A60039B5A68019B97
:100A10005A60019B5B68039A01995160039A52687E
:100A20001A6004B0704700BFAFF30080AFF30080DE
:100A300082B001900091009A019B1A60009B5A6855
:100A4000019B5A60019B5B68009A01995160009A72
:100A500052681A6002B07047AFF30080AFF30080B5
:100A600084B00190019B1B680393039B1A68019B50
:100A70001A60019B1B68019A5A60039B184604B0D8
:100A8000704700BFAFF30080AFF30080AFF300808A
:100A900082B00190019B5B68019A12681A60019B09
:100AA0001B68019A52685A60019B184602B0704751
:100AB00084B00190019B1B680393039B1A68019B00
:100AC0001A60039B184604B0704700BFAFF3008064
:100AD000074A074B5A60064B5A68054B1A60044B8D
:100AE0004FF0FF329A60024B4FF00002DA6070471D
:100AF000900D0020AFF30080AFF30080AFF30080D3
:100B000000B587B00390029101920093FFF7E0FED9
:100B1000039B002B05D0019B002B02D0029B002BD6
:100B200002D11C48FFF74CFF039B009A1A61039BFC
:100B3000019ADA60184B1B68059307E0059B9B68D8
:100B4000029AD31A0293059B1B680593059B9A682A
:100B5000029B9A42F2D3039B059A1A60039B1B687F
:100B60005A68039B5A60039B5B68059A039951601E
:100B7000059A52681A60039B029A9A60059A064B7E
:100B80009A4205D0059B9A68029BD21A059B9A60EF
:100B900007B000BDB05F0008900D0020AFF30080EB
:100BA00000B583B00190FFF793FE019B002B02D1AB
:100BB0001348FFF705FF019BDB68002B02D11148AA
:100BC000FFF7FEFE019B1A680F4B9A4208D0019B6B
:100BD0001B68019A12689168019A92688A189A6053
:100BE000019B5B68019A12681A60019B1B68019A5D
:100BF00052685A60019B4FF00002DA6003B000BDFA
:100C0000C05F0008D05F0008900D0020AFF30080A7
:100C10000B4A0B4B5A600A4B5A68094B1A60084B37
:100C20004FF000029A60064B4FF014029A61044A9A
:100C3000034B5A61024B5A69014B1A61704700BF5E
:100C4000A00D0020AFF30080AFF30080AFF3008071
:100C500000B585B00190019B93F82030002B04D0A3
:100C6000019B93F820300E2B02D11348FFF7A8FE0A
:100C7000019B4FF0000283F82020104B0393039B4D
:100C80001B680393039B9A68019B9B689A42F6D268
:100C9000019B039A1A60039B5A68019B5A60019B4F
:100CA0005B68039A01995160039A52681A60019B2C
:100CB000184605B000BD00BFF05F0008A00D002081
:100CC00000B585B003468DF80730FFF719FE164BC7
:100CD000DB690393039B9DF8072083F82020124BC8
:100CE0004FF014029A611048FFF7BAFE02460E4B0D
:100CF000DA610D4BDB694FF0010283F82020039885
:100D0000FFF726FE6B46A3F12402039BDB699A42A0
:100D100002D20648FFF754FE034BDB6918460399DD
:100D2000FFF7A6FB05B000BDA00D00200460000881
:100D300000B585B00190019B0393039B93F820308D
:100D40000D2B28D801A252F823F000BFA70D0008F0
:100D5000970D0008970D0008850D0008970D0008F5
:100D6000910D0008970D0008970D0008970D0008D9
:100D7000970D0008970D0008970D0008970D0008C3
:100D8000910D0008039B9B6A9A6802F101029A6028
:100D90000398FFF77DFE039B4FF0FF329A620398A2
:100DA000FFF756FF00E000BF05B000BDAFF30080C5
:100DB00000B589B0034600918DF80730FFF7A0FD1C
:100DC000009BB3F1FF3F14D00F4BDB6903AA104621
:100DD00000990E4AFFF794FE9DF807301846FFF77A
:100DE0006FFF069B002B09D003AB1846FFF7D8FE18
:100DF00004E09DF807301846FFF762FF024BDB69FD
:100E00009B6A184609B000BDA00D0020310D0008F6
:100E100000B585B001900091FFF772FD019B009A2B
:100E20009A62019B9A68174BDB699B689A4203D8C8
:100E30000198FFF70DFF22E0124BDB691846FFF720
:100E400007FF03900F4B4FF014029A610D4B019A6C
:100E5000DA61019B4FF0010283F820200398FFF72D
:100E600077FD6B46A3F12402039BDB699A4202D211
:100E70000548FFF7A5FD01980399FFF7F9FA05B0BA
:100E800000BD00BFA00D002004600008AFF300808B
:100E900000B583B0154B4FF014029A61134BDB6918
:100EA00001931248FFF7DCFD0246104BDA610F4B4D
:100EB000DB694FF0010283F820200198FFF7C8FE9C
:100EC0000198FFF745FD6B46A3F12402019BDB6906
:100ED0009A4202D20648FFF773FD044BDB691846BD
:100EE0000199FFF7C5FA03B000BD00BFA00D0020B7
:100EF00004600008AFF30080AFF30080AFF3008020
:100F000082B001900091019B009A9A60019B4FF082
:100F1000020283F82020019B4FF0000283F8212079
:100F2000019B009A5A64019B4FF000021A64019BD6
:100F30004FF00002DA63019B4FF000025A62019BFE
:100F40004FF0010283F82220019B4FF000029A61CA
:100F5000134A019B1A61124B5A69019B5A61019B0A
:100F60005B690F4A019951610D4A52691A61019BEF
:100F700003F12C031A46019BDA62019B03F1300353
:100F80001A46019B5A63019B5A6B019B1A63019B92
:100F900003F14C02019BDA61019B184602B07047D5
:100FA000A00D0020AFF30080AFF30080AFF300800E
:100FB00084B00390029113468DF8073007E0039B3D
:100FC0009DF807201A70039B03F101030393039A12
:100FD000029B9A42F3D304B0704700BFAFF3008086
:100FE00000B587B00390029101920093039B059393
:100FF000FFF76EFC039B002B08D0029BAF2B05D99B
:10100000019B7F2B02D8009B002B02D10E48FFF7DB
:10101000D7FC039A029BA3F12403D218059BDA6044
:10102000059BDB68009A1A60059BDB68089A5A608A
:10103000059BDB68054A1A6205980199FFF760FF76
:101040000346184607B000BD206000089104000860
:1010500000B589B00590049103920293059A059B0F
:1010600003F14C03104619464FF0FF02FFF7A0FFB3
:10107000059B03F14C020599049BCB1810461946B9
:101080004FF05502FFF794FFFFF78AF9FFF780FB57
:101090000A9B009305980499039A029BFFF7A0FF0F
:1010A000079007984FF00001FFF7B2FEFFF788FBAB
:1010B000FFF77EF9079B184609B000BDAFF300802B
:1010C00000B583B00190019B002B02D10848FFF7C7
:1010D00077FCFFF765F9FFF75BFB4FF0060001991E
:1010E000FFF766FEFFF76CFBFFF762F903B000BD88
:1010F00060600008AFF30080AFF30080AFF30080C2
:1011000000B583B00190FFF74BF9FFF741FB019861
:1011100000F006F803B000BDAFF30080AFF300802D
:1011200000B585B00190194BDB690393039B019ACD
:101130009A6209E0039B03F12C031846FFF7B8FC01
:1011400003461846FFF784FD039BDA6A039B03F10D
:101150002C039A42EED1039B93F8213003F0030352
:10116000002B09D1039B5B69039A12691A61039BE7
:101170001B69039A52695A614FF00E00FFF7A0FDF8
:101180000348FFF71DFC05B000BD00BFA00D002007
:1011900070600008AFF30080AFF30080AFF3008011
:1011A00000B585B00190FFF7FBF8FFF7F1FA019B5E
:1011B00093F82230002B02D12448FFF701FC019B59
:1011C00093F8223003F1FF33DAB2019B83F8222037
:1011D000019B93F822308DF80F30FFF7F1FAFFF7FB
:1011E000E7F89DF80F30002B2DD1019B93F82030AC
:1011F0000E2B28D1019B93F8213003F00303012B20
:1012000002D0022B0ED01EE0019B5B69019A12698D
:101210001A61019B1B69019A52695A61019800F099
:101220004FFD10E0019B5B69019A12691A61019BF5
:101230001B69019A52695A61019B9B6C184601997E
:1012400000F026FE00BF05B000BD00BFD46000085E
:1012500000B589B005900491039202930598049912
:1012600000F0AEFC0790079B002B02D14FF000036B
:1012700031E0079A079B03F14C03104619464FF0E3
:10128000FF02FFF795FE079B03F14C020799049BB1
:10129000CB18104619464FF05502FFF789FEFFF7AD
:1012A0007FF8FFF775FA0A9B009307980499039A51
:1012B000029BFFF795FE0690069B4FF0010283F814
:1012C000212006984FF00001FFF7A2FDFFF778FA02
:1012D000FFF76EF8069B184609B000BDAFF300801B
:1012E00000B583B00190019B002B02D10848FFF7A5
:1012F00067FB019B1A46019B5A60019B5A68019B40
:101300001A60019B4FF000029A6003B000BD00BF5D
:1013100010610008AFF30080AFF30080AFF30080EE
:1013200000B583B00190FFF73BF8FFF731FA019861
:1013300000F006F8FFF744FAFFF73AF803B000BDF3
:1013400000B585B001903C4BDB690293FFF7D8FAFA
:10135000019B002B02D13948FFF732FB019B9B68B0
:10136000002B5CD0019B9B68039335E0029B9A683D
:10137000039B9A60039B93F82030042B04D0052B29
:1013800011D0002B1AD02DE00398FFF781FB024605
:10139000039B9B6A10461946FFF722FB039B9B6A3F
:1013A0009B68039318E00398FFF772FB0246039BC8
:1013B0009B6A10461946FFF713FB0CE0039B4FF0A6
:1013C000010283F820200398FFF762FB03461846CA
:1013D000FFF73EFC00BF05E0039B9A68029B9B68F9
:1013E0009A42C3D3019B02981946FFF7F9FA029B70
:1013F000019A9A624FF00400FFF762FC019B9A6821
:10140000029B9A4202D00E48FFF7DAFA029B1A6C4E
:10141000019B9A420DD00B48FFF7D2FA09E0019BDD
:10142000029A9A60029B1A6C019BDA60029B019AF5
:101430001A6405B000BD00BFA00D002020610008A7
:101440003061000844610008AFF30080AFF3008012
:1014500000B587B0314BDB690393FEF7A1FFFFF7BF
:1014600097F9039B1B6C002B02D12D48FFF7A8FABC
:10147000039B1B6C9A68039B9A4202D02948FFF792
:101480009FFA039B1B6C0293029BDA68039B1A640E
:10149000029B1A68029B9A4233D0039B5B6C0493B5
:1014A000039B1B6C059311E0059B1A68059B9A42F0
:1014B00009D0059B1B689A68049B9A4203D9059B37
:1014C0001B689B680493059BDB680593059B002BB9
:1014D000EAD1039B049A9A60029B1846FFF7C0FA70
:1014E0000190029B019A9A60019B1A6C029BDA6040
:1014F000019B029A1A6401984FF00001FFF788FCE3
:1015000003E0029B4FF000029A60FFF759F9FEF7E3
:101510004FFF029B184607B000BD00BFA00D002082
:101520006C61000880610008AFF30080AFF30080B9
:1015300000B583B001900091FFF7CAF9019B002B21
:1015400002D11648FFF73CFA019BDA6B009B1A4365
:10155000019BDA63019B93F82030082B07D1019B94
:10156000DA6B019B9B6A02EA0303002B0DD1019BFE
:1015700093F82030092B0FD1019BDA6B019B9B6AFA
:101580001A40019B9B6A9A4206D10198FFF760FBC3
:1015900003464FF000029A6203B000BDFC610008F0
:1015A00000B585B001900091FFF792F9019B002BE7
:1015B00002D10D48FFF704FA019B1B6803930DE06D
:1015C000039B5A68039B9968009B41EA03031046FA
:1015D0001946FFF7ADFF039B1B680393019B039A1A
:1015E0009A42EDD105B000BD10620008AFF3008053
:1015F00000B583B001900091009B002B02D14FF009
:10160000FF3310E0094BDB69019A9A62074BDA69F4
:10161000019B10461946FFF70BFA4FF00D00009999
:10162000FFF7C6FB0346184603B000BDA00D00201F
:1016300084B00390029101920093039B1A46039B8E
:101640005A60039B5A68039B1A60039B4FF0000289
:101650009A60039B029A5A61039B5A69039B9A61A1
:10166000039B9A69039BDA60029A019BD218039B41
:101670001A61039B009ADA6104B07047AFF30080EF
:1016800000B583B001900B468DF80330FFF720F9C9
:10169000019B5A69019B9B699A4206D1019B9B68F9
:1016A000002B02D06FF003032BE0019B9B6803F13A
:1016B0000102019B9A60019B5B699DF803201A70EF
:1016C00003F10102019B5A61019B5A69019B1B694D
:1016D0009A4203D3019BDA68019B5A61019B1A6805
:1016E000019B9A420BD0019B1846FFF7B9F90346BC
:1016F0001846FFF7ADFA03464FF000029A624FF02A
:101700000003184603B000BDAFF30080AFF30080C4
:1017100000B585B001900091FEF742FEFFF738F862
:10172000019BDB69002B12D0019BDB690198984774
:101730000EE001980099FFF75BFF0390039B002BDD
:1017400006DAFFF73DF8FEF733FE039B23E000BF08
:10175000019B9B68002BECD0019B9B6803F1FF323F
:10176000019B9A60019B9B691A788DF80B2003F10D
:101770000102019B9A61019B9A69019B1B699A4234
:1017800003D3019BDA68019B9A61FFF719F8FEF712
:101790000FFE9DF80B30184605B000BDAFF300807A
:1017A00000B587B00390029101920093039BDB691F
:1017B00004934FF000030593019B002B02D12B48AB
:1017C000FFF7FEF8FEF7ECFDFEF7E2FF049B002BAF
:1017D00010D0049B039898470DE003980099FFF7F9
:1017E00007FF0346002B06D0FEF7EAFFFEF7E0FDF9
:1017F000059B37E000BF039B9B68002BEDD0039B4C
:101800009B6803F1FF32039B9A60039B9B691978E5
:10181000029A1170029A02F10102029203F101028E
:10182000039B9A61039B9A69039B1B699A4203D3AA
:10183000039BDA68039B9A61FEF7C2FFFEF7B8FDCF
:10184000059B03F101030593019B03F1FF33019312
:10185000019B002B01D1059B04E0FEF7A1FDFEF7E3
:1018600097FFB3E7184607B000BD00BF50620008FD
:1018700084B00390029101920093039B1A46039B4C
:101880005A60039B5A68039B1A60039B019A9A60F3
:10189000039B029A5A61039B5A69039B9A61039BBB
:1018A0009A69039BDA60029A019BD218039B1A6122
:1018B000039B009ADA6104B0704700BFAFF3008069
:1018C00000B587B003900B4601928DF80B30FEF700
:1018D00067FDFEF75DFF0DE003980199FFF788FEB5
:1018E0000590059B002B05DAFEF76AFFFEF760FD09
:1018F000059B2AE0039B9B68002BEDD0039B9B6814
:1019000003F1FF32039B9A60039B5B699DF80B20F8
:101910001A7003F10102039B5A61039B5A69039BEE
:101920001B699A4203D3039BDA68039B5A61039BAA
:10193000DB69002B03D0039BDB6903989847FEF714
:101940003FFFFEF735FD4FF00003184607B000BD1E
:1019500000B585B00190FEF7BBFF019B5A69019B62
:101960009B699A4206D1019B9B68002B02D06FF0C5
:1019700002032BE0019B9B6803F10102019B9A602B
:10198000019B9B691A788DF80F2003F10102019BDE
:101990009A61019B9A69019B1B699A4203D3019B3F
:1019A000DA68019B9A61019B1A68019B9A420BD0ED
:1019B000019B1846FFF754F803461846FFF748F90D
:1019C00003464FF000029A629DF80F30184605B0AA
:1019D00000BD00BFAFF30080AFF30080AFF3008025
:1019E00000B587B00390029101920093039BDB69DD
:1019F00004934FF000030593019B002B02D12B4869
:101A0000FEF7DEFFFEF7CCFCFEF7C2FE0CE003980B
:101A10000099FFF7EDFD0346002B05D0FEF7D0FE41
:101A2000FEF7C6FC059B3DE0039B9B68002BEED0B8
:101A3000039B9B6803F1FF32039B9A60039B5B69E6
:101A4000029A12781A7003F10102039B5A61029BF9
:101A500003F101030293039B5A69039B1B699A429A
:101A600003D3039BDA68039B5A61049B002B02D0CB
:101A7000049B03989847FEF7A3FEFEF799FC059B8D
:101A800003F101030593019B03F1FF330193019BD4
:101A9000002B01D1059B05E0FEF782FCFEF778FEE6
:101AA00000BFC1E7184607B000BD00BF6462000870
:101AB000074B03F1070323F007031A46054B1A608F
:101AC000054B23F007031A46044B1A60704700BF0A
:101AD00090160020C00D002000280020C40D00201A
:101AE00000B585B00190FEF75BFCFEF751FE019852
:101AF00000F00EF80390FEF763FEFEF759FC039B1F
:101B0000184605B000BD00BFAFF30080AFF3008002
:101B100000B585B00190FEF7DBFE019B03F10703E2
:101B200023F0070301930D4B1B681A460C4B1B68EF
:101B3000D31A1A46019B9A4202D24FF0000309E0E1
:101B4000074B1B680393064B1A68019BD218044B82
:101B50001A60039B184605B000BD00BFC40D0020ED
:101B6000C00D0020AFF30080AFF30080AFF3008022
:101B7000034B1B681A46034B1B68D31A1846704761
:101B8000C40D0020C00D0020AFF30080AFF3008033
:101B900008B5074B074A1A60054B4FF000029A60E0
:101BA000034B4FF00002DA600348FFF799FB08BDD2
:101BB000C80D0020E11A0008D80D0020AFF3008006
:101BC00000B587B001900091019B002B01D1384BEB
:101BD0000193009B03F1070323F007030093019B8C
:101BE00003F108030593019B03F110031846FFF767
:101BF00097FB36E0059B1B680493049B5A68009B87
:101C00009A422CD3049B5A68009B03F108039A4222
:101C100004D2049B1A68059B1A6017E0009B03F12D
:101C20000803049AD3180393049B1A68039B1A6051
:101C3000049B5A68009BD31AA3F10802039B5A60C5
:101C4000059B039A1A60049B009A5A60049B019AB0
:101C50001A60FFF7FDFB049B03F1080325E0049BDA
:101C60000593059B1B68002BC4D1FFF7F1FB019B7B
:101C70001B68002B17D0019B1B68009A02F1080219
:101C80001046984703460493049B002B0BD0049BFB
:101C9000019A1A60049B009A5A60049B03F108039E
:101CA0000493049B01E04FF00003184607B000BD09
:101CB000C80D0020AFF30080AFF30080AFF30080C9
:101CC00000B587B00190019B002B02D13A48FEF786
:101CD00077FE019BA3F108030493049B1B68039305
:101CE000039B03F108030593039B03F110031846BC
:101CF000FFF716FB049A059B9A420BD3059B5B6882
:101D000003F10803059AD218049B9A4202D92B4882
:101D1000FEF756FE039B03F10802059B9A4203D08F
:101D2000049A059B9A4242D9059B1B68002B04D05C
:101D3000059B1A68049B9A4239D9059B1A68049B33
:101D40001A60059B049A1A60049B5B6803F1080300
:101D5000049AD218049B1B689A420ED1049B5A68BD
:101D6000049B1B685B68D31803F10802049B5A604C
:101D7000049B1B681A68049B1A60059B5B6803F14F
:101D80000803059AD218049B9A420CD1059B5A6805
:101D9000049B5B68D31803F10802059B5A60049BFF
:101DA0001A68059B1A60FFF753FB07B000BD059B3F
:101DB0001B6805939EE700BF90620008A0620008C0
:101DC00000B587B001900091019B002B01D1184B09
:101DD0000193019B03F110031846FFF7A1FA4FF09E
:101DE000000303934FF000030493019B03F10803E6
:101DF00005930CE0059B1B685B68039AD31803935B
:101E0000049B03F101030493059B1B680593059B49
:101E10001B68002BEED1009B002B02D0009B039A85
:101E20001A60FFF715FB049B184607B000BD00BF02
:101E3000C80D0020AFF30080AFF30080AFF3008047
:101E400000B585B001900091009B0393FEF740FD23
:101E5000019B002B07D0009B002B04D0009B03F0BC
:101E60000703002B02D00648FEF7AAFD019B1A6863
:101E7000039B1A60019B039A1A6005B000BD00BF66
:101E8000E4620008AFF30080AFF30080AFF300809E
:101E900000B583B001900091FEF782FAFEF778FC5E
:101EA00001980099FFF7CCFFFEF78AFCFEF780FA55
:101EB00003B000BDAFF30080AFF30080AFF300804C
:101EC00008B500F0CDFE00F04BFC074802F018FC0E
:101ED00000F00EF800F044F900F00AFA00F050FBB0
:101EE00002F0DEFC08BD00BFA06C0008AFF300806C
:101EF00008B501F055F808BDAFF30080AFF30080DE
:101F000000B583B00190019B4FF001021A70019B54
:101F10004FF000025A60019B4FF000029A60019B53
:101F20004FF00002DA60019B4FF000021A61019B42
:101F30004FF000025A61019B03F118031846FFF7A6
:101F4000CFF903B000BD00BFAFF30080AFF3008056
:101F500000B583B001900091019B002B02D1114884
:101F6000FEF72EFDFEF71CFAFEF712FC019B1B7814
:101F7000012B06D0019B1B78022B02D00A48FEF7EA
:101F80001FFD019B009A5A60019801F051F8019BD6
:101F90004FF002021A70FEF713FCFEF709FA03B0C5
:101FA00000BD00BF0063000810630008AFF30080AD
:101FB00000B585B00390029101920093FEF7F0F90D
:101FC000FEF7E6FB03980299019A009B00F008F8DF
:101FD000FEF7F6FBFEF7ECF905B000BDAFF30080AD
:101FE00000B585B00390029101920093FEF770FC5A
:101FF000039B002B0ED0029B002B0BD0019B002BD0
:1020000008D0009B012B08D0009B03F00103DBB23A
:10201000002B02D01148FEF7D3FC039B1B78022B48
:102020000AD0039B1B78042B06D0039B1B78052B3F
:1020300002D00B48FEF7C4FC039B019A9A60039BF5
:10204000009ADA60039B029A1A61039B4FF0030225
:102050001A70039801F02CF805B000BD3C6300082D
:1020600054630008AFF30080AFF30080AFF300804B
:1020700000B585B00190019B002B02D11B48FEF7F3
:102080009FFCFEF78DF9FEF783FB019B1B78022B6B
:1020900006D0019B1B78032B02D01548FEF790FC5D
:1020A000019B1B78022B1AD0019801F079F8019B53
:1020B0004FF000021A61019B4FF002021A70019B5F
:1020C0005B69002B0BD0019B5B690393019B4FF075
:1020D00000025A6103986FF00101FEF799FEFEF7C6
:1020E0006FFBFEF765F905B000BD00BF7063000827
:1020F00088630008AFF30080AFF30080AFF3008087
:1021000000B587B00390029101920093FEF748F961
:10211000FEF73EFB039B5B69002B02D00E48FEF7E7
:102120004FFC03980299019A009BFFF759FF0B4B54
:10213000DA69039B5A614FF00200FEF7C1FD074BBD
:10214000DB699B6A0593FEF73BFBFEF731F9059BC4
:10215000184607B000BD00BFD4630008A00D0020E2
:1021600008B501F00DFD08BDAFF30080AFF30080AE
:1021700000B583B00190019B4FF001021A70019BE2
:102180004FF000025A60019B03F10C031846FFF761
:10219000A7F803B000BD00BFAFF30080AFF300802D
:1021A00000B583B001900091019B002B02D0009BF1
:1021B000002B02D11248FEF703FC019B1B78012B78
:1021C0000AD0019B1B78022B06D0019B1B78052BA4
:1021D00002D00C48FEF7F4FBFEF7E2F8FEF7D8FA5F
:1021E000019B009A5A60019801F002FD019B4FF09B
:1021F00002021A70FEF7E4FAFEF7DAF803B000BD47
:102200001064000820640008AFF30080AFF3008082
:1022100000B583B00190019B002B02D11148FEF75D
:10222000CFFB019B1B78012B0AD0019B1B78022B53
:1022300006D0019B1B78052B02D00B48FEF7C0FB94
:10224000FEF7AEF8FEF7A4FA019801F0C1FD019B7C
:102250004FF001021A70FEF7B3FAFEF7A9F803B0C7
:1022600000BD00BF306400083C640008AFF300808C
:1022700000B58DB00990079206930B46ADF8223059
:10228000FEF78EF8FEF784FA099B4FF000029A6081
:10229000099B4FF000021A70BDF822300E9A00928E
:1022A0000F9A0192109A0292119A0392129A049232
:1022B00009981946079A069B01F0CAFD0B900B9BE3
:1022C000B3F1FF3F04D1099B4FF005021A7003E000
:1022D000099B4FF002021A70FEF772FAFEF768F8D7
:1022E0000B9B18460DB000BDAFF30080AFF300802C
:1022F00008B501F0D5FE08BDAFF30080AFF3008054
:1023000082B00190019B4FF001021A70019B4FF0C7
:1023100000025A6002B07047AFF30080AFF3008054
:1023200000B583B001900091019B002B02D0009B6F
:10233000002B02D11248FEF743FBFEF731F8FEF7FF
:1023400027FA019B1B78012B06D0019B1B78022BDF
:1023500002D00C48FEF734FB019B009A5A60009BA8
:102360009A88019B1A81019801F0AAFE019B4FF007
:1023700002021A70FEF724FAFEF71AF803B000BD45
:102380000065000810650008AFF30080AFF300801F
:1023900000B583B0019013460A468DF80320ADF8CE
:1023A0000030019B002B03D09DF80330032B02D992
:1023B0000E48FEF705FBFDF7F3FFFEF7E9F9019B79
:1023C0001B78022B02D00A48FEF7FAFA9DF8032088
:1023D000BDF80030019811461A4601F081FFFEF762
:1023E000EFF9FDF7E5FF03B000BD00BF6865000829
:1023F00080650008AFF30080AFF30080AFF300808A
:1024000000B585B0039002910192039B03F1300364
:1024100018460299019A4FF0FF33FFF7E1FA03469D
:10242000184605B000BD00BFAFF30080AFF30080D9
:1024300000B585B0039002910192039B03F1100354
:1024400018460299019A4FF0FF33FFF7A9F90346A6
:10245000184605B000BD00BFAFF30080AFF30080A9
:1024600082B00190019B9B6B002B14BF00230123C2
:10247000184602B0704700BFAFF30080AFF3008092
:1024800082B00190019B9B69002B14BF00230123A4
:10249000184602B0704700BFAFF30080AFF3008072
:1024A00000B585B003900B4601928DF80B30039B6D
:1024B00003F130029DF80B3010461946019AFFF7E0
:1024C000FFF90346184605B000BD00BFAFF300801A
:1024D00000B583B001900091019B03F110031846F1
:1024E0000099FFF715F90346184603B000BD00BF79
:1024F00000B585B00390029101920093039B03F114
:10250000300318460299019A009BFFF769FA0346C7
:10251000184605B000BD00BFAFF30080AFF30080E8
:1025200000B585B00390029101920093039B03F1E3
:10253000100318460299019A009BFFF731F90346F0
:10254000184605B000BD00BFAFF30080AFF30080B8
:1025500000B585B00190FDF723FFFEF719F9019B47
:102560009B680393019B4FF000029A60FEF728F9E5
:10257000FDF71EFF039B184605B000BDAFF30080BA
:1025800008B502F075F808BDAFF30080AFF3008026
:1025900000B585B0039002910192039B154A1A6021
:1025A000039B03F104031A46039B5A60039B4FF0FD
:1025B00000029A60039B4FF001021A73039B03F120
:1025C0001002039B03F15003104619464FF010020E
:1025D000029BFFF72DF8039B03F13002039B03F1ED
:1025E0006003104619464FF01002019BFFF740F9B7
:1025F00005B000BDE06B0008AFF30080AFF30080D2
:1026000000B583B001900091019B002B02D11048CE
:10261000FEF7D6F9FDF7C4FEFEF7BAF8019B1B7B67
:10262000012B06D0019B1B7B022B02D00948FEF731
:10263000C7F90198009902F033F8019B4FF00202AC
:102640001A73FEF7BDF8FDF7B3FE03B000BD00BF7F
:10265000B0650008BC650008AFF30080AFF30080F0
:1026600000B583B001900B468DF80330FEF730F9CA
:10267000019B002B02D11848FEF7A2F9019B9B6930
:10268000002B0DD1019B9B6843F00402019B9A60D3
:10269000019B03F1040318464FF00001FEF780FF91
:1026A000019B03F110029DF8033010461946FEF716
:1026B000E7FF0346002B0DDA019B9B6843F0800285
:1026C000019B9A60019B03F1040318464FF000013F
:1026D000FEF766FF03B000BDE8650008AFF30080B9
:1026E00082B00190024B5A68019B9A6002B0704719
:1026F000001000E0AFF30080AFF30080AFF3008084
:1027000084B00190114B5B680393019B9B68039A13
:10271000D21A0F4B1B68D21A019B9A60019B9A68D0
:10272000019BDB689A4204D9019B9A68019BDA609D
:1027300009E0019B9A68019B1B699A4203D2019BA5
:102740009A68019B1A6104B0704700BF001000E056
:10275000E80D0020AFF30080AFF30080AFF30080FE
:1027600000B587B00A4B4FF000021A6001AB184663
:1027700000F016F8019B01AA10469847029B01AA97
:1027800010469847039A024B1A6007B000BD00BF7D
:10279000E80D0020AFF30080AFF30080AFF30080BE
:1027A00082B00190019B094A1A60019B084A5A6055
:1027B000019B4FF000029A60019B4FF00002DA602B
:1027C000019B4FF0FF321A6102B07047E12600080A
:1027D00001270008AFF30080AFF30080AFF3008063
:1027E00000B583B0FEF734F80C4B1B6803F00F0301
:1027F00001930A4B4FF00F025A60094B1B68002BE4
:1028000006D0074B1B68064A526810460199984744
:10281000FEF73EF8FDF7D4FD03B000BD0000024016
:10282000F00D0020AFF30080AFF30080AFF3008025
:1028300000B583B0FEF70CF80D4B1B684FEA13137D
:1028400003F00F0301930A4B4FF0F0025A60094B5B
:102850009B68002B06D0074B9B68064AD26810463F
:1028600001999847FEF714F8FDF7AAFD03B000BDE3
:1028700000000240F00D0020AFF30080AFF30080B5
:1028800000B583B0FDF7E4FF0D4B1B684FEA13233F
:1028900003F00F0301930A4B4FF470625A60094B27
:1028A0001B69002B06D0074B1B69064A526910466C
:1028B00001999847FDF7ECFFFDF782FD03B000BDDD
:1028C00000000240F00D0020AFF30080AFF3008065
:1028D00000B583B0FDF7BCFF0D4B1B684FEA133307
:1028E00003F00F0301930A4B4FF470425A60094BF7
:1028F0009B69002B06D0074B9B69064AD26910469C
:1029000001999847FDF7C4FFFDF75AFD03B000BDDC
:1029100000000240F00D0020AFF30080AFF3008014
:1029200000B583B0FDF794FF0D4B1B684FEA1343CE
:1029300003F00F0301930A4B4FF470225A60094BC6
:102940001B6A002B06D0074B1B6A064A526A1046C8
:1029500001999847FDF79CFFFDF732FD03B000BDDC
:1029600000000240F00D0020AFF30080AFF30080C4
:1029700000B583B0FDF76CFF0D4B1B684FEA135396
:1029800003F00F0301930A4B4FF470025A60094B96
:102990009B6A002B06D0074B9B6A064AD26A1046F8
:1029A00001999847FDF774FFFDF70AFD03B000BDDC
:1029B00000000240F00D0020AFF30080AFF3008074
:1029C00000B583B0FDF744FF0D4B1B684FEA13635E
:1029D00003F00F0301930A4B4FF070625A60094BEA
:1029E0001B6B002B06D0074B1B6B064A526B104625
:1029F00001999847FDF74CFFFDF7E2FC03B000BDDD
:102A000000000240F00D0020AFF30080AFF3008023
:102A100082B0144B4FF000021A604FF00003019394
:102A200016E01149019A13464FEA43039B184FEAF7
:102A30008303CB181B684FF000021A600B4B019AFE
:102A40004FF0000143F83210019B03F101030193A1
:102A5000019B062BE5DD064B4FF0FF325A6002B0BA
:102A6000704700BFEC0D0020106C0008F00D002036
:102A700000000240AFF30080AFF30080AFF30080AE
:102A800000B585B00390029101920093039B002B47
:102A900002D13148FDF794FF039B5B7A4FF00102AE
:102AA00002FA03F31A462D4B1B6802EA0303002BBC
:102AB00002D04FF001034BE0039B5B7A1A46284B90
:102AC000019943F83210039B5B7A254A4FEAC3030E
:102AD000D318009A5A60039B5B7A4FF0010202FA06
:102AE00003F31A461D4B1B681A431C4B1A601B4B01
:102AF0001B6803F07F03002B05D01A4B194A52695B
:102B000042F001025A61039B1B68039A1268126823
:102B100022F001021A60039B5B68039A127A4FF05D
:102B20000F0101FA02F21A60039B1B684FF00002CA
:102B30001A60019B002B09D0039B9B7A1A46029BCB
:102B40004FEA031310461946FDF7B2FC4FF000039D
:102B5000184605B000BD00BF10660008EC0D00204F
:102B6000F00D002000100240AFF30080AFF30080B2
:102B700000B583B00190019B002B02D11948FDF7ED
:102B80001FFF019B5B7A4FF0010202FA03F31A4622
:102B9000154B1B6802EA0303002B02D11348FDF713
:102BA0000FFF019B9B7A1846FDF7D2FC019B5B7AD5
:102BB0004FF0010202FA03F36FEA03031A460A4BCD
:102BC0001B681A40084B1A60074B1B6803F07F0311
:102BD000002B05D1064B064A526922F001025A61C8
:102BE00003B000BD20660008EC0D00203066000830
:102BF00000100240AFF30080AFF30080AFF300801D
:102C0000134B134A126842F480721A60114B1B6A0C
:102C100003F44073B3F5407F07D00E4B4FF480327E
:102C20001A620C4B4FF000021A620A4B1B6A03F443
:102C30000043002B0BD1074B064A126A42F4407244
:102C40001A62044B034A126A42F400421A62704745
:102C50000070004000100240AFF30080AFF300802E
:102C600008B51E4B1B691D4B4FF0FF321A611B4B01
:102C70004FF000021A61194BDB68184B4FF0FF321E
:102C8000DA60164B4FF00002DA60154B43F67F62B4
:102C90005A60134B4FF000029A60114B4FF007023D
:102CA0001A60104B0F4AD26842F08072DA600E4B05
:102CB0000D4A126842F001021A60084B074AD269B5
:102CC00042F08052DA61054B044AD26942F0006258
:102CD000DA61FFF795FFFFF79BFE08BD0010024089
:102CE00010E000E0F0ED00E0001000E0AFF3008045
:102CF000294B294A126842F001021A6000BF264B94
:102D00001B6803F00203002BF9D0234B224A126800
:102D100002F0F9021A60204B4FF000025A6000BF27
:102D20001D4B5B6803F00C03002BF9D11A4B1A4AB8
:102D3000126842F480321A6000BF174B1B6803F41C
:102D40000033002BF9D0144B134A526842F48032FE
:102D50005A60114B104A126842F080721A6000BF2C
:102D60000D4B1B6803F00073002BF9D00A4B0B4A84
:102D70005A600B4B4FF010021A60074B064A52681C
:102D800042F002025A6000BF034B5B6803F00C0381
:102D9000082BF9D1704700BF0010024000644100C9
:102DA00000200240AFF30080AFF30080AFF300805B
:102DB00000B589B001900091009B03F00803002B3F
:102DC00039D0019800F0ECF9019B1B69DB68002BFE
:102DD00012D0019B4FF005021A70019B1B69DB6842
:102DE00001984FF000019847019B1B78052B03D1F8
:102DF000019B4FF002021A70019B4FF000021A6112
:102E0000FDF7CEFAFDF7F4FC019B5B69002B0DD0BA
:102E1000019B5B690793019B4FF000025A61079B7E
:102E20004FF0FF329A620798FDF712FFFDF7F8FCAA
:102E3000FDF7BEFAABE0009B03F00403002B0FD0BC
:102E4000019B1B699B68002B0AD0019B1B699B6837
:102E5000019A9168019AD2684FEA52020198984704
:102E6000009B03F00203002B00F09180019B1B6983
:102E70001B68002B2DD0019B1B699B68002B00F069
:102E80008680019BDB68012B19D9019BDB684FEA27
:102E900053030693019B1B699B88069A02FB03F36D
:102EA0000593019B1B699B68019A9168059A4FEAFB
:102EB00042028A1801981146069A984767E0019BDA
:102EC0001B699B68019A9168019AD268019898479A
:102ED0005DE0019800F064F9019B1B699B68002B81
:102EE00033D0019B4FF004021A70019BDB68012B69
:102EF00019D9019BDB684FEA53030493019B1B69BB
:102F00009B88049A02FB03F30393019B1B699B6854
:102F1000019A9168039A4FEA42028A180198114671
:102F2000049A984708E0019B1B699B68019A916885
:102F3000019AD26801989847019B1B78042B08D10D
:102F4000019B4FF002021A7003E0019B4FF0020256
:102F50001A70019B4FF000021A61FDF721FAFDF78C
:102F600047FC019B5B69002B0DD0019B5B690293C1
:102F7000019B4FF000025A61029B4FF000029A62DF
:102F80000298FDF765FEFDF74BFCFDF711FA09B05D
:102F900000BD00BFAFF30080AFF30080AFF300804F
:102FA00008B51E48FEF7ACFF1C4B1D4A9A621B4B2E
:102FB0001C4ADA62194B42F28A521A631A4B1A4AB5
:102FC000926942F400729A61154B4FF000025A6008
:102FD000134B4FF001029A60114B4FF009029A60B7
:102FE00000BF0F4B9B6803F00803002BF9D10C4B7B
:102FF0004FF005029A6000BF094B9B6803F0040381
:10300000002BF9D1064B4FF000029A60064B064A9E
:10301000926922F400729A6108BD00BF280E002058
:1030200000240140106C000800100240AFF3008043
:1030300000B585B00190019B1B78012B29D1019A25
:10304000154B9A421BD1019BDA6A144B10464FF084
:1030500005011A46019BFFF713FD0390039B002B0C
:1030600002D00F48FDF7ACFC019BDB6A1B680D4AE0
:103070009A600D4B0C4A926942F400729A61019B6E
:103080009B6A4FF000025A60019B9B6A4FF000025E
:103090009A6005B000BD00BF280E0020B12D0008C9
:1030A000506600084C24014000100240AFF300803D
:1030B00086B00190019B1B690393019B1B6B0593D9
:1030C000039B1B68002B03D0059B43F02003059353
:1030D000019BDB68012B0BD9059B43F0040305938F
:1030E000039B9B88019AD26802FB03F3049302E0DE
:1030F000039B9B880493019BDB6A1B68019A92687F
:10310000DA60019BDB6A1B68049A5A60019BDB6AE8
:103110001B68059A1A60019BDB6A1B68019AD26AD8
:103120001268126842F001021A60019B9B6A039ABE
:10313000126942F480725A60019B9A6A039B5B6930
:1031400043F4807343F003039360019B9B6A039AEB
:103150009269DA60019B9B6A039AD2691A61019BAA
:103160009B6A039A126ADA62019B9B6A039A526A0B
:103170001A63019B9B6A039A926A5A63019B9A6A3B
:10318000039B5B6943F4807343F00303936006B0D1
:10319000704700BFAFF30080AFF30080AFF3008053
:1031A00082B00190019BDB6A1B68019AD26A1268A7
:1031B000126822F001021A60019BDB6A5B68019AC7
:1031C000D26A127A4FF00F0101FA02F21A60019BE3
:1031D0009B6A4FF000029A6002B07047AFF3008024
:1031E00084B00190019B1B6B0393039B4FF400423F
:1031F0001A80039B4FF000021A80039B4FF00002DD
:103200009A80039B4FF000029A82019BDB6A1B6845
:10321000019AD26A1268126822F001021A60019BB8
:10322000DB6A5B68019AD26A127A4FF00F0101FAE9
:1032300002F21A60019B9B6A1B68019A926A1268EB
:10324000126822F001021A60019B9B6A5B68019A76
:10325000926A127A4FF00F0101FA02F21A6004B07A
:10326000704700BFAFF30080AFF30080AFF3008082
:1032700000B585B00190019B0393039BDB69002B94
:1032800010D0039BDB6902930398FFF7A9FF039B10
:103290004FF00002DA61029B4FF0FF329A6202980F
:1032A000FDF7D6FC05B000BDAFF30080AFF30080A2
:1032B00000B587B00190019B1B6B0493019B5B6879
:1032C0005B680393019B5B681B7A8DF80B30019B55
:1032D000002B06D0039B002B03DD039A6E4B9A4212
:1032E00002DD6E48FDF76CFB049B9B889BB223F0CC
:1032F0003F039AB2049B9A80049B9B889BB243F045
:1033000008039AB2049B9A804FF00003ADF8163080
:1033100040F6FF73ADF81430039A614B9A4236DCE5
:103320009DF80B30012B02D05E48FDF749FB039B53
:103330004FEA43025C4B93FBF2F102FB01F29B1A52
:10334000002B02D05948FDF73BFB039B4FEA430398
:10335000554A92FBF3F3ADF81430BDF81430032B4B
:1033600002D85348FDF72CFBBDF814304FEA035345
:103370004FEA13539AB2BDF8163042EA03039BB2E8
:10338000ADF81630049B4FF009021A8475E0039AD9
:10339000484B9A4271DC9DF80B30022B06D09DF809
:1033A0000B30032B02D04448FDF70AFB9DF80B308D
:1033B000022B1AD1039A13464FEA43039A183A4B49
:1033C00093FBF2F102FB01F29B1A002B02D03B4867
:1033D000FDF7F6FA039A13464FEA43039B18324A65
:1033E00092FBF3F3ADF8143029E09DF80B30032B7A
:1033F00025D1039A13464FEA83039B184FEA8302B1
:103400009A18294B93FBF2F102FB01F29B1A002B55
:1034100002D02B48FDF7D4FA039A13464FEA8303F0
:103420009B184FEA83029B181F4A92FBF3F3ADF8F7
:103430001430BDF8163043F48043ADF81630BDF8B3
:103440001430002B02D11F48FDF7BAFABDF8143032
:103450004FEA03534FEA13539BB26FEA43436FEAB9
:1034600053439AB2BDF8163042EA03039BB2ADF85B
:103470001630049B4FF003021A84BDF8142040F666
:10348000FF739A4202D91048FDF79AFA049BBDF8DF
:1034900016209A8307B000BD00093D007066000841
:1034A000A08601008866000800127A00A066000865
:1034B000B8660008801A0600D0660008E8660008B2
:1034C000006700081867000830670008AFF3008045
:1034D00086B00190019B1B6B0493019B5B681B787A
:1034E0008DF80F30049B1B88ADF816309DF80F3017
:1034F000022B0AD0032B15D0012B1AD1BDF81630A0
:1035000023F00A03ADF8163013E0BDF8163043F08F
:103510000203ADF81630BDF8163023F00803ADF8FD
:10352000163006E0BDF8163043F00A03ADF8163049
:1035300000BF049BBDF816201A8006B0704700BF7C
:1035400000B587B00190019B1B6B0493049B1B8B00
:103550009BB20393049B9B8A9BB20593019B93F8B8
:103560003430002B40F0AE80039B4FEA0342059BB2
:1035700042EA030323F07F434E4A934212D04D4A5E
:10358000934203D84C4A934207D089E04B4A934276
:1035900031D04B4A934241D082E0019B1A8C049B6C
:1035A0001A827DE0049B9B889BB223F400739AB23D
:1035B000049B9A80019B9B6A1B68019A926A12681D
:1035C000126842F001021A60049B9B889BB243F48C
:1035D00080539AB2049B9A80019B9B6A1B685B682C
:1035E000012B5CD8049B1B889BB223F480639AB2A6
:1035F000049B1A8054E0049B9B889BB223F40073C5
:103600009AB2049B9A80019BDB6A1B68019AD26A7A
:103610001268126842F001021A6041E0019B9B6A45
:103620001B685B68002B0FD0019B1B8C43F00103D0
:103630009AB2019B1A84049B1B889BB243F4A0633B
:103640009AB2049B1A80B9E0049B9B889BB223F436
:1036500000739AB2049B9A80049B1B889BB243F42C
:1036600000739AB2049B1A80FCF79AFEFDF7C0F82B
:10367000019BDB69002B0DD0019BDB690293019B51
:103680004FF00002DA61029B4FF000029A6202984A
:10369000FDF7DEFAFDF7C4F8FCF78AFE00E000BF94
:1036A000059B03F00A03002B00F08880049B1B8B12
:1036B00084E000BF02000300010003008200070055
:1036C00084000700059B03F00A03002B0FD0019B29
:1036D0004FF000021A64019B4FF000021A65049B30
:1036E0009B8A9BB20593049B1B8B9BB20393059B08
:1036F00003F08003002B16D0019B9A6C019B1B6D7D
:10370000D21812781146049A118203F10102019B2A
:103710001A65019B1A6C019BDB6C9A4203D3019BD7
:103720004FF000021A65059B03F04003002B17D0F1
:10373000019B9A6B019B1B6CD2180499098A89B270
:10374000C9B2117003F10102019B1A64019B1A6C4A
:10375000019BDB6B9A4203D3019B4FF000021A647A
:10376000059B03F01003002B13D0049B9B8A9BB294
:103770000593049B1B889BB243F001039AB2049B00
:103780001A80019B5B6C002B03D0019B5B6C019842
:103790009847059B03F48063002B0FD0049B9B8A02
:1037A0009BB223F480639AB2049B9A82019B5B6D67
:1037B000002B03D0019B5B6D0198984707B000BDBB
:1037C00000B585B001900091019B1B6B0393009B9A
:1037D00003F00803002B01D0FCF792FD019B9B6ACC
:1037E0001B68019A926A1268126822F001021A603C
:1037F000019B9B6A5B68019A926A127A4FF00F01F3
:1038000001FA02F21A60019B93F83430002B31D197
:10381000039B9B889BB223F480539AB2039B9A80AC
:10382000039B1B889BB223F480639AB2039B1A808C
:10383000039B1B889BB243F400739AB2039B1A80CC
:10384000FCF7AEFDFCF7D4FF019BDB69002B0DD02C
:10385000019BDB690293019B4FF00002DA61029B3E
:103860004FF000029A620298FDF7F2F9FCF7D8FFD8
:10387000FCF79EFD05B000BDAFF30080AFF3008004
:1038800000B585B001900091019B1B6B0393009BD9
:1038900003F00803002B01D0FCF732FD019BDB6A2B
:1038A0001B68019AD26A1268126822F001021A603B
:1038B000019BDB6A5B68019AD26A127A4FF00F01B2
:1038C00001FA02F21A60039B9B889BB243F40073D7
:1038D0009AB2039B9A8005B000BD00BFAFF3008091
:1038E00000B587B00190019B1B6B0493FCF758FD5A
:1038F000FCF77EFF019BDB6A1B68019AD26A1268A3
:10390000126822F001021A60019BDB6A5B68019A6F
:10391000D26A127A4FF00F0101FA02F21A60019B8B
:103920009B6A1B68019A926A1268126822F001026F
:103930001A60019B9B6A5B68019A926A127A4FF047
:103940000F0101FA02F21A60FCF76AFFFCF730FD82
:103950004FF000030593049B9B8A9BB203F4807392
:10396000002B0BD0049B9B8A9BB223F480739AB2EA
:10397000049B9A82059B43F001030593049B9B8A59
:103980009BB203F40073002B0BD0049B9B8A9BB269
:1039900023F400739AB2049B9A82059B43F00203BE
:1039A0000593019B93F83430002B23D1049B9B8A11
:1039B0009BB203F48063002B2CD0049B9B8A9BB2A8
:1039C00023F480639AB2049B9A82049B9B889BB2E7
:1039D00023F400739AB2049B9A80049B1B889BB2C9
:1039E00043F400739AB2049B1A80059B43F00403CE
:1039F00005930FE0049B9B8A9BB223F480639AB2E9
:103A0000049B9A82019B5B6D002B03D0019B5B6D35
:103A100001989847049B9B8A9BB203F40063002B98
:103A20000BD0049B9B8A9BB223F400639AB2049B45
:103A30009A82059B43F008030593049B9B8A9BB2E3
:103A400003F48053002B0BD0049B9B8A9BB223F47E
:103A500080539AB2049B9A82059B43F0100305930E
:103A6000049B9B8A9BB203F48043002B0BD0049BE6
:103A70009B8A9BB223F480439AB2049B9A82059B53
:103A800043F020030593049B9B8A9BB29BB21BB21D
:103A9000002B0DDA049B9B8A9BB24FEA43434FEA0B
:103AA00053439AB2049B9A82059B43F040030593CB
:103AB000059B002B1CD0019B059A9A60FCF770FCBB
:103AC000FCF796FE019BDB69002B0DD0019BDB69A7
:103AD0000393019B4FF00002DA61039B6FF0010238
:103AE0009A620398FDF7B4F8FCF79AFEFCF760FCC5
:103AF00007B000BDAFF30080AFF30080AFF30080EC
:103B000008B5FCF7A5FE0448FFF71AFDFCF7C0FE58
:103B1000FCF756FC08BD00BF5C0E0020AFF3008030
:103B200008B5FCF795FE0448FFF7DAFEFCF7B0FE97
:103B3000FCF746FC08BD00BF5C0E0020AFF3008020
:103B400008B5FCF785FE0448FFF7FAFCFCF7A0FE79
:103B5000FCF736FC08BD00BFB40E0020AFF30080B8
:103B600008B5FCF775FE0448FFF7BAFEFCF790FEB7
:103B7000FCF726FC08BD00BFB40E0020AFF30080A8
:103B800008B51048FEF7F4FA0E4B4FF00002DA6168
:103B90000C4B0D4A1A630B4B0C4A9A62094B0C4AA8
:103BA000DA620C48FEF7E4FA0A4B4FF00002DA61E1
:103BB000084B094A1A63074B084A9A62054B084AA0
:103BC000DA6208BD5C0E002000540040586C00080A
:103BD0004C6C0008B40E002000580040406C0008F7
:103BE000346C0008AFF30080AFF30080AFF30080C7
:103BF00000B587B00190019B1B6B0593019B4FF0B3
:103C00008A025A62019B1B78012B40F09080019A36
:103C1000634B9A4243D1634B624A126942F40012E9
:103C20001A61604B4FF000021A61019B9A6A5E4B69
:103C300010464FF00A011A46019BFEF721FF04903F
:103C4000049B002B02D05948FCF7BAFE019BDA6AAC
:103C5000574B10464FF00A011A46019BFEF710FF22
:103C60000490049B002B02D05248FCF7A9FE4D4B58
:103C70004C4AD26942F40012DA614FF01F004FF053
:103C8000A001FCF715FC4FF020004FF0A001FCF75D
:103C90000FFC019B5B6A43F48052019B5A62019ABC
:103CA000454B9A4243D13F4B3E4A126942F480024F
:103CB0001A613C4B4FF000021A61019B9A6A3A4B21
:103CC00010464FF00A011A46019BFEF7D9FE0390F9
:103CD000039B002B02D03948FCF772FE019BDA6A85
:103CE000334B10464FF00A011A46019BFEF7C8FEFF
:103CF0000390039B002B02D03148FCF761FE294B57
:103D0000284AD26942F48002DA614FF021004FF074
:103D1000A001FCF7CDFB4FF022004FF0A001FCF713
:103D2000C7FB019B5B6A43F48052019B5A62019B73
:103D3000DB6A1B68019A526A42F010021A60019B0A
:103D40009B6A1B68019A526A1A60019B9B6A1B68F6
:103D5000059A02F110029A60019BDB6A1B68059AC2
:103D600002F110029A60059B4FF400421A80059BF5
:103D70004FF000021A80059B4FF410629A80019860
:103D8000FFF796FA0198FFF7A3FB059B1B889BB2F0
:103D900043F001039AB2059B1A8007B000BD00BF33
:103DA0005C0E002000100240C13700084867000880
:103DB000813800085C670008B40E002070670008B6
:103DC00084670008AFF30080AFF30080AFF300809A
:103DD00000B583B00190019B1B78012B30D0019876
:103DE000FFF7FEF9019BDB6A1846FEF7C1FE019B57
:103DF0009B6A1846FEF7BCFE019A124B9A420DD1FF
:103E00004FF01F00FCF7A4FB4FF02000FCF7A0FBD5
:103E10000D4B0D4AD26922F40012DA61019A0B4B64
:103E20009A420DD14FF02100FCF792FB4FF0220097
:103E3000FCF78EFB044B044AD26922F48002DA615B
:103E400003B000BD5C0E002000100240B40E002044
:103E500000B58BB00390019200930B46ADF80A3089
:103E6000039B1B6B0993554BDA69039BDA61109B2B
:103E7000B3F1FF3F06D004AB18461099504A039B9C
:103E8000FCF73EFEFCF79CFCFCF792FA11E0FCF715
:103E900087FAFCF77DFC109BB3F1FF3F05D0079B31
:103EA000002B02D14FF0FF3384E0FCF789FCFCF7D4
:103EB0007FFA099B1B8B9BB203F00203002BE6D118
:103EC000099B1B889BB203F40073002BDFD1FCF726
:103ED00067FAFCF75DFC109BB3F1FF3F05D0079B31
:103EE000002B02D14FF0FF3364E0BDF80A304FEAF7
:103EF00043039AB2039B1A84039B4FF000029A601B
:103F0000039B019A9A63039B009ADA63039B4FF029
:103F100000021A64039B0E9A5A64039B0C9A9A64DB
:103F2000039B0D9ADA64039B4FF000021A65039B12
:103F30000F9A5A65039B4FF0010283F83420099BC6
:103F40001B889BB223F480739AB2099B1A80099B49
:103F50009B889BB223F400639AB2099B9A80BDF8B8
:103F60000A304FEA43039BB203F0FF039AB2099B66
:103F70001A81099B9B889BB243F4C0639AB2099B48
:103F80009A80099B1B889BB243F480639AB2099B79
:103F90001A800A4BDA69039BDA61109BB3F1FF3F89
:103FA00006D0079B002B03D004AB1846FCF7F8FDA6
:103FB0004FF0000318460BB000BD00BFA00D00205D
:103FC00071320008AFF30080AFF30080AFF30080E0
:103FD00000B585B00190019B1B691B8AADF80E30BE
:103FE000019B1B699B899AB2BDF80E3002EA03035C
:103FF000ADF80E30019B1B694FF6E0721A82BDF8D6
:104000000E3003F00203002B04D0019B5B681B6998
:1040100001989847BDF80E3003F00403002B04D03C
:10402000019B5B689B6901989847BDF80E3003F0CF
:104030000803002B04D0019B5B681B6A019898471A
:10404000BDF80E3003F01003002B04D0019B5B6819
:104050009B6A01989847BDF80E3003F00103DBB26C
:10406000002B04D0019B5B689B680198984705B0C2
:1040700000BD00BFAFF30080AFF30080AFF300805E
:1040800008B5FCF7E5FB0448FFF7A2FFFCF700FCCE
:10409000FCF796F908BD00BF0C0F0020AFF30080BD
:1040A00008B50448FEF72CF9024B4FF080421A6124
:1040B00008BD00BF0C0F0020AFF30080AFF30080FD
:1040C00000B585B00190019B1B78012B27D1019A87
:1040D0007C4B9A4218D17C4B7B4AD26942F0010258
:1040E000DA61794B784A126942F001021A61764B23
:1040F0004FF000021A614FF01C004FF07001FCF706
:10410000D7F9019B714ADA60019B1B6946F6680288
:104110001A83019B1B6946F668029A8327E0019B7C
:104120001B694FF000021A80019B1B694FF00002CF
:104130009A81019B1B694FF000021A82019B1B6947
:104140004FF000025A63019B1B694FF000029A6313
:10415000019B1B694FF00002DA63019B1B694FF062
:1041600000021A64019B1B694FF000025A62019B16
:10417000DA68019B5B681B68B2FBF3F303F1FF3362
:104180000293029A4FF6FF739A420BD8029B03F1F7
:104190000103019A5268126802FB03F2019BDB687B
:1041A0009A4202D04A48FCF70BFC019B1B69029A19
:1041B00092B21A85019B1B69019A128902F1FF32A2
:1041C00092B2DA62019B1B69019A5268928D9A80C1
:1041D0004FF00003ADF80E30019B5B68DB6803F025
:1041E0000F03012B07D0022B0BD1BDF80E3043F08B
:1041F0000203ADF80E30BDF80E3043F00103ADF808
:104200000E30019B5B685B6903F00F03012B07D045
:10421000022B0BD1BDF80E3043F02003ADF80E3069
:10422000BDF80E3043F01003ADF80E30019B5B6813
:10423000DB6903F00F03012B07D0022B0BD1BDF874
:104240000E3043F40073ADF80E30BDF80E3043F479
:104250008073ADF80E30019B5B685B6A03F00F035F
:10426000012B07D0022B0BD1BDF80E3043F40053C5
:10427000ADF80E30BDF80E3043F48053ADF80E307B
:10428000019B1B69BDF80E201A84019B1B694FF02E
:1042900001029A82019B1B69019A52689268002A66
:1042A0000CBF0022012292B29A81019B1B694FF040
:1042B00000021A82019B1B694FF085021A8005B02B
:1042C00000BD00BF0C0F0020001002400024F400CD
:1042D000E0670008AFF30080AFF30080AFF3008029
:1042E00084B0019013460A468DF80320ADF80030E3
:1042F000019B19699DF80330BDF8002003F10C0300
:104300004FEA8303CB185A60019B5A689DF803302B
:1043100003F101034FEAC303D3189B68002B2CD091
:10432000019B1B699B899BB203939DF803304FF05F
:10433000020202FA03F31A46039B02EA0303002B6C
:104340001BD1019B1B699DF803204FF0020101FA6C
:1043500002F291B2039A92B241EA020292B29A81B7
:10436000019B1B699DF803204FF0020101FA02F244
:1043700092B26FEA020292B21A8204B0704700BF92
:1043800084B001900091019B1B6F0393019B1A6FF6
:104390001A4B9A4208D1009B1B68194AB2FBF3F3EF
:1043A0009AB2039B1A8107E0009B1B68144AB2FB78
:1043B000F3F39AB2039B1A81009B9B8843F4045346
:1043C00043F02C039AB2039B9A81009BDB8843F055
:1043D00040039AB2039B1A82009B1B8943F001039E
:1043E0009AB2039B9A82039B4FF000021A80039BB0
:1043F0001B88039B9B8804B0704700BF00380140B6
:1044000000127A00AFF30080AFF30080AFF30080BA
:1044100000B585B001900B46ADF802304FF00003B7
:104420000393BDF8023003F00803002B03D0039B75
:1044300043F080030393BDF8023003F00103DBB2C5
:10444000002B03D0039B43F020030393BDF80230FD
:1044500003F00203002B03D0039B43F040030393BC
:10446000BDF8023003F00403002B03D0039B43F498
:1044700080730393FBF794FFFCF7BAF9019B9A68EA
:10448000039B1A43019B9A60019B03F104031846A6
:104490004FF00001FDF784F8FCF7C2F9FBF788FF45
:1044A00005B000BDAFF30080AFF30080AFF3008034
:1044B00000B587B00190019B1B6F0593059B9B89FD
:1044C000ADF81230059B1B88ADF81030059B9B881A
:1044D000ADF80E30BDF8103003F00F03002B05D0FF
:1044E000BDF8103001981946FFF792FFBDF8103063
:1044F00003F48073002B1DD0FBF752FFFCF778F913
:10450000019B9B6843F40072019B9A60019B03F13D
:10451000040318464FF00001FDF742F8FCF780F95C
:10452000FBF746FF059B1B889BB223F480739AB26E
:10453000059B1A80BDF8103003F02003002B0ED02D
:10454000FBF72EFFFCF754F9BDF80E30DBB20198F3
:104550001946FEF785F8FCF763F9FBF729FFBDF86C
:10456000123003F08003002B35D0BDF8103003F07B
:104570008003002B2FD0FBF713FFFCF739F9019BC9
:1045800003F130031846FDF7E3F90290029B002B7C
:1045900019DA019B9B6843F00802019B9A60019B1A
:1045A00003F1040318464FF00001FCF7F9FFBDF8D2
:1045B000123023F0C0039BB243F040039BB29AB287
:1045C000059B9A8103E0029B9AB2059B9A80FCF7B7
:1045D00027F9FBF7EDFEBDF8103003F04003002B88
:1045E00024D0FBF7DDFEFCF703F9019B9B6843F049
:1045F0001002019B9A60019B03F1040318464FF0DF
:104600000001FCF7CDFFFCF70BF9FBF7D1FEBDF87D
:10461000123023F040039AB2059B9A81059B1B88B8
:104620009BB223F040039AB2059B1A8007B000BDED
:1046300082B00190044B044A928992B242F0800207
:1046400092B29A8102B0704700480040AFF30080F8
:1046500008B5FCF7FDF80448FFF72AFFFCF718F946
:10466000FBF7AEFE08BD00BF200F0020AFF30080B7
:1046700008B505484FF00001044AFDF789FF024BD9
:10468000034A1A6708BD00BF200F0020314600080A
:1046900000480040AFF30080AFF30080AFF300802C
:1046A00000B583B001900091009B002B01D10E4B0F
:1046B0000093019B1B7B012B0FD1019A0B4B9A425C
:1046C0000BD10B4B0A4AD26942F48022DA614FF0D7
:1046D00027004FF0C001FBF7EBFE01980099FFF7B0
:1046E0004FFE03B000BD00BF706C0008200F00201B
:1046F00000100240AFF30080AFF30080AFF3008002
:1047000082B00190214B214A926942F07D029A6168
:104710001F4B019A1268DA601D4B019A92685A6029
:104720001B4B019A52681A601A4B019AD268DA60E0
:10473000184B019A52695A60164B019A12691A6015
:10474000154B019A9269DA60134B019A126A5A600A
:10475000114B019AD2691A60104B019A526ADA60C1
:104760000E4B019AD26A5A600C4B019A926A1A60F7
:104770000B4B019A126BDA60094B019A926B5A60EB
:10478000074B019A526B1A6002B07047001002404A
:1047900000080140000C01400010014000140140DD
:1047A00000180140AFF30080AFF30080AFF300804A
:1047B0008AB0039002910192019B032B03D1039BCA
:1047C000029A1A6105E0019B042B02D1039B029A15
:1047D0005A612E4A019BD3181B7804934FF00003B3
:1047E0000693069B0793079B0893089B09934FF03A
:1047F0000003059335E0089B4FEA03130893099BD8
:104800004FEA03130993069B4FEA03130693079B92
:104810004FEA03130793029B03F08003002B04D19C
:10482000089B43F00F03089304E0069A049B42EAB6
:1048300003030693029B03F40043002B04D1099B5E
:1048400043F00F03099304E0079A049B42EA030331
:104850000793029B4FEA43030293059B03F1010375
:104860000593059B072BC6D9039B5A68099B1A40E1
:10487000079B1A43039B5A60039B1A68089B1A40C4
:10488000069B1A43039B1A600AB07047806C0008AD
:1048900008B5FEF72DFA08BDAFF30080AFF3008036
:1048A000704700BFAFF30080AFF30080AFF300802C
:1048B00000B587B0039002910192039B002B02D0B8
:1048C000019B039A1A60019B1B680593059B002BB3
:1048D00002D14FF0000323E005980299FBF760FC3A
:1048E0000346059AD318059305980299FBF728FC0F
:1048F0000246019B1A60019B1B68002B08D0019B9C
:104900001B684FF000021A7003F10102019B1A604C
:10491000059B1B78002B01D0059B01E04FF00003A5
:10492000184607B000BD00BFAFF30080AFF30080B2
:1049300000B583B00190009101980349009A00F0FE
:10494000B7FA03B000BD00BF00680008AFF30080F5
:1049500000B583B0019000910AE0009B1B680198AC
:1049600006491A4600F0A4FA009B03F108030093DD
:10497000009B1B68002BF0D103B000BD0C68000841
:1049800000B587B0059004910392049B002B04DDD1
:1049900005981849FFF7CCFF2AE005981649174AF1
:1049A00000F086FA05981649164A00F081FA059833
:1049B0001549164A00F07CFA05981549154A00F089
:1049C00077FA05981449154A00F072FA05981449C7
:1049D000144A00F06DFA05981349144A00F068FA79
:1049E000134B009305981349134A144B00F060FAD7
:1049F00007B000BD10680008186800082C6800089F
:104A000034680008486800085468000868680008AE
:104A1000706800088468000890680008A4680008AE
:104A2000BC680008D0680008F86800080C69000835
:104A300048690008206900083869000844690008CE
:104A400000B585B0039002910192029B002B04DD1A
:104A500003980649FFF76CFF06E0054BDB680398F7
:104A600004491A4600F024FA05B000BD5469000854
:104A7000900D00205C690008AFF30080AFF3008068
:104A800000B585B0039002910192009315E0039B5D
:104A90001B6818460199FBF72BFB0346002B08D136
:104AA000039B5B6802980099069A98474FF00003B1
:104AB00009E0039B03F108030393039B1B68002B8E
:104AC000E5D14FF00103184605B000BDAFF30080FB
:104AD00000B5A1B003904FF000031D93039B1B682A
:104AE0001C93039B5B681B93634BDB69634A9A616E
:104AF0001C98634900F0DCF904E000BF02E000BF4D
:104B000000E000BF1C985F4900F0D2F909AB1C9887
:104B100019464FF0400200F0EBF80346002B04D09A
:104B20001C98594900F0C4F994E009AA19AB104641
:104B300056491A46FFF7BCFE1A901A9B1E934FF077
:104B400000031F9316E01F9B032B07DD1C985049A1
:104B500000F0AEF94FF000031E9316E01F9B4FEAE2
:104B6000830320AAD3181A9A43F8702C1F9B03F1D1
:104B700001031F9319AB4FF0000044491A46FFF799
:104B800097FE1A901A9B002BDDD11F9B4FEA8303DF
:104B900020AAD3184FF0000243F8702C1E9B002B64
:104BA000ABD01E983B49FBF7A3FA0346002B07D175
:104BB0001F9B002B4DDD1C983649FFF7B9FE47E0DF
:104BC0001E983549FBF794FA0346002B1BD11F9B17
:104BD000002B04DD1C983049FFF7AAFE38E01C9832
:104BE0002E4900F065F91C982D49FFF7B1FE1B9B7B
:104BF000002B03D01C981B99FFF7AAFE1C9829498B
:104C000000F056F97EE704AB009325481C991E9AE4
:104C10001F9BFFF735FF0346002B3FF470AF1B9B34
:104C2000002B0BD004AB00931B981C991E9A1F9B62
:104C3000FFF726FF0346002B3FF463AF1C981A4989
:104C40001E9A00F035F91C98184900F031F959E71F
:104C500058E700BFFBF7A4FBFBF79AFD14484FF0A1
:104C60000001FCF79DFC1D98FCF75AFA4FF0000379
:104C7000184621B000BD00BFA00D002064690008E7
:104C80006C690008846900088C690008986900084C
:104C90009C690008B4690008BC690008C469000880
:104CA00004080020DC690008E0690008E4690008E5
:104CB000940F0020AFF30080AFF30080AFF30080CB
:104CC00000B587B0059004910392059B00934FF0C7
:104CD00000000499039A034BFCF7BAFA03461846FE
:104CE00007B000BDD14A0008AFF30080AFF30080E9
:104CF00000B587B0039002910192029B059300E0FA
:104D000000BF039B1B685B6903984FF0FF31984716
:104D10000346ADF81230BDF91230002B02DA4FF025
:104D2000010368E0BDF91230042B06D10398334922
:104D300000F0BEF84FF001035DE0BDF91230082B22
:104D400027D1059A029B9A4222D0039B1B681B69BC
:104D5000BDF81220D2B2039811464FF0FF329847A7
:104D6000039B1B681B6903984FF020014FF0FF3233
:104D70009847039B1B681B69BDF81220D2B20398A9
:104D800011464FF0FF329847059B03F1FF3305931F
:104D900030E0BDF912300D2B0AD10398184900F00C
:104DA00087F8059B4FF000021A704FF0000322E0D5
:104DB000BDF912301F2B00DC1CE0019B03F1FF3317
:104DC000029AD218059B9A429AD9039B1B681B69C9
:104DD000BDF81220D2B2039811464FF0FF32984727
:104DE000BDF81230DAB2059B1A70059B03F101037E
:104DF000059386E785E7184607B000BDEC69000813
:104E0000DC690008AFF30080AFF30080AFF30080EF
:104E100086B0039002910192039B03F10B0304936C
:104E2000029B019AB3FBF2F2019901FB02F29B1A79
:104E30000593059B03F130030593059B392B03DD97
:104E4000059B03F107030593049B03F1FF330493D0
:104E5000059BDAB2049B1A70029A019BB2FBF3F332
:104E60000293029B002BDBD1039B03F10B031A4639
:104E7000049BD31A0593049B1A78039B1A70039B17
:104E800003F101030393049B03F101030493059BC6
:104E900003F1FF330593059B002BECD1039B1846D0
:104EA00006B07047AFF30080AFF30080AFF300802F
:104EB0000EB400B590B0019012AB0693119B1B7815
:104EC0008DF83730119B03F1010311939DF83730B2
:104ED000002B00F036829DF83730252B0BD0019B3C
:104EE0001B681B699DF83720019811464FF0FF326F
:104EF000984700BFE2E703AB0F9303AB0E934FF06D
:104F000000030893119B1B782D2B06D1119B03F1F5
:104F1000010311934FF0010308934FF020038DF824
:104F20003630119B1B782E2B07D1119B03F1010307
:104F300011934FF030038DF836304FF000030A9391
:104F4000119B1B788DF83730119B03F101031193EE
:104F50009DF837302F2B0AD99DF83730392B06D8DA
:104F60009DF83730A3F130038DF8373013E09DF80A
:104F700037302A2B07D1069B03F1040206921B68E7
:104F80008DF8373007E04FF000030B939DF8373072
:104F90002E2B0DD03DE00A9A13464FEA83039B184F
:104FA0004FEA43031A469DF83730D3180A93C7E7F0
:104FB000119B1B788DF83730119B03F1010311937E
:104FC0009DF837302F2B0AD99DF83730392B06D86A
:104FD0009DF83730A3F130038DF837300AE09DF8A3
:104FE00037302A2B14D1069B03F1040206921B686A
:104FF0008DF837300B9A13464FEA83039B184FEA1C
:1050000043030B939DF837300B9AD3180B93CFE7DC
:1050100000BF9DF837306C2B03D09DF837304C2BF8
:105020000FD14FF001030993119B1B78002B16D071
:10503000119B1B788DF83730119B03F101031193FD
:105040000DE09DF83730402B06D99DF837305A2BAC
:1050500002D84FF0010301E04FF0000309939DF8DF
:105060003730A3F14403342B00F2F58001A252F84B
:1050700023F000BFBB5100085752000857520008E8
:10508000575200085752000857520008575200085C
:10509000575200085752000857520008575200084C
:1050A0001D52000857520008575200085752000876
:1050B0005752000857520008135200085752000870
:1050C000575200080952000857520008575200086A
:1050D000575200085752000857520008575200080C
:1050E00057520008575200085752000857520008FC
:1050F00049510008BB510008575200085752000898
:1051000057520008575200085752000857520008DB
:1051100057520008575200085752000857520008CB
:105120001D520008575200085752000857520008F5
:105130006B510008575200081352000857520008DC
:1051400057520008095200084FF020038DF83630FE
:10515000069B03F1040206921B68DAB20F9B1A70D9
:105160000F9B03F101030F937FE04FF020038DF8B5
:105170003630069B03F1040206921B680E930E9BC9
:10518000002B01D1724B0E930B9B002B02D147F6E3
:10519000FF730B930E9B0F9303E00F9B03F101032F
:1051A0000F930F9B1B78002B5ED00B9B03F1FF33FB
:1051B0000B930B9B002BF0DA57E0099B002B06D0DA
:1051C000069B03F1040206921B68079305E0069B09
:1051D00003F1040206921B680793079B002B0BDA6E
:1051E0000F9B4FF02D021A700F9B03F101030F93D9
:1051F000079BC3F1000307930F9807994FF00A022A
:10520000FFF706FE0F9030E04FF010038DF83730B7
:1052100008E04FF00A038DF8373003E04FF0080341
:105220008DF83730099B002B06D0069B03F1040252
:1052300006921B68079305E0069B03F104020692A1
:105240001B6807939DF837300F9807991A46FFF7A8
:10525000DFFD0F9009E00F9B9DF837201A700F9B20
:1052600003F101030F9300E000BF0F9A0E9BD31AC6
:105270000C930A9A0C9BD31A0A930A9B002B02DA0E
:105280004FF000030A93089B002B03D10A9BC3F144
:1052900000030A930A9B002B39DA0E9B1B782D2BF7
:1052A00015D19DF83630302B11D1019B1B681B693D
:1052B0000E9A12780E9901F101010E910198114692
:1052C0004FF0FF3298470C9B03F1FF330C93019B87
:1052D0001B681B699DF83620019811464FF0FF327C
:1052E00098470A9B03F101030A930A9B002BEED116
:1052F0000DE0019B1B681B690E9A12780E9901F153
:1053000001010E91019811464FF0FF3298470C9B16
:1053100003F1FF330C930C9B002BEADA0DE0019BA9
:105320001B681B699DF83620019811464FF0FF322B
:1053300098470A9B03F1FF330A930A9B002BEED197
:10534000BCE500BF10B05DF804EB03B0704700BFD0
:10535000F0690008AFF30080AFF30080AFF3008086
:1053600008B5FCF7ADFDFBF76BF900F081FC00F030
:10537000AFFC00F04DF800F0ABF800F011F900F0D0
:105380008FFA00F04DFB00F073FB4FF47A70FBF7DF
:1053900097FEF8E7AFF30080AFF30080AFF3008033
:1053A00000B583B00190164BDB69164A9A61164826
:1053B0004FF400514FF00602FFF7FAF912484FF48C
:1053C00080414FF00602FFF7F3F94FF0010000F0C3
:1053D0004FF84FF06400FBF773FE4FF0020000F04F
:1053E00047F84FF06400FBF76BFE084B1B7818463C
:1053F00000F03EF84FF44870FBF762FEE5E700BFAF
:10540000A00D0020006A0008000C0140980F002049
:1054100000B583B011484FF400514FF00602FFF77A
:10542000C7F90E484FF480414FF00602FFF7C0F96C
:105430000A4B4FF400525A61084B4FF480425A61B4
:105440004FF00003009306484FF4D8714FF040022C
:10545000044BFBF7FDFD03B000BD00BF000C014095
:10546000A00F0020A1530008AFF30080AFF300802D
:1054700082B00190019BDAB2104B1A70019B03F0CD
:105480000103DBB2002B04D00D4B4FF400521A6124
:1054900003E00B4B4FF400525A61019B03F00203EF
:1054A000002B04D0064B4FF480421A6103E0044BFA
:1054B0004FF480425A6102B0704700BF980F00203D
:1054C000000C0140AFF30080AFF30080AFF3008029
:1054D00008B54FF0000000F003F808BDAFF30080FE
:1054E00000B583B00190019B002B04D0084B4FF412
:1054F00080521A6103E0064B4FF480525A6104480F
:105500004FF480514FF00602FFF752F903B000BD8F
:10551000000C0140AFF30080AFF30080AFF30080D8
:1055200000B585B00390029101920848FBF7F8FEA0
:10553000074B039A1A60074B029A1A60064B019AAE
:105540001A60FBF785FF05B000BD00BF50110020B9
:105550001C0800202008002024080020AFF3008051
:1055600008B50748FBF7DCFE064B1A68064B1A60C5
:10557000064B1A68064B1A60FBF76AFF08BD00BFAE
:105580005011002024080020641100201C08002075
:1055900060110020AFF30080AFF30080AFF3008014
:1055A00008B54FF0000000F00BF84FF0000000F0DD
:1055B0002FF808BDAFF30080AFF30080AFF3008099
:1055C00000B583B00346ADF80630BDF80630002BB9
:1055D00004D00B4B4FF480721A6103E0084B4FF478
:1055E00080725A614FF0000000F012F804484FF446
:1055F00080714FF00602FFF7DBF803B000BD00BF7B
:1056000000080140AFF30080AFF30080AFF30080EB
:1056100000B583B00346ADF80630BDF8063003F0A0
:105620000103DBB2002B04D0294B4FF480521A61E6
:1056300003E0274B4FF480525A6125484FF48051C4
:105640004FF00602FFF7B4F8BDF8063003F002038E
:10565000002B04D01E4B4FF400721A6103E01C4B68
:105660004FF400725A611A484FF400714FF006026D
:10567000FFF79EF8BDF8063003F00403002B04D0BA
:10568000134B4FF480621A6103E0114B4FF48062B8
:105690005A610F484FF480614FF00602FFF788F817
:1056A000BDF8063003F00803002B04D0084B4FF47C
:1056B00000621A6103E0064B4FF400625A6104482D
:1056C0004FF400614FF00602FFF772F803B000BD1F
:1056D00000080140AFF30080AFF30080AFF300801B
:1056E00000B585B0039002910192029B03F104037F
:1056F0001A885F4B1B889A4224D25E4B1A885E4BF5
:105700001B88D3189AB25B4B1A805A4B1A8842F204
:1057100010739A4238BF13469AB2564B1A80574BB1
:105720001B89544A128802FB03F2554BA3FB021358
:105730004FEA53339BB251484FF002011A46FEF72D
:10574000CFFD2BE0029B03F104031A88484B1B8812
:105750009A4223D9474B1A88474B1B889A4228BF45
:1057600013469AB2434B1A80424B1A88424B1B880D
:10577000D31A9AB23F4B1A80404B1B893D4A12887C
:1057800002FB03F23E4BA3FB02134FEA53339BB2DF
:105790003A484FF002011A46FEF7A2FD029B1A8812
:1057A000384B1B889A4259D3029B03F102031A8893
:1057B000354B1B889A4224D2344B1A88344B1B88B1
:1057C000D3189AB2314B1A80304B1A8842F22833E0
:1057D0009A4238BF13469AB22C4B1A80274B1B892A
:1057E0002A4A128802FB03F2254BA3FB02134FEA5D
:1057F00053339BB221484FF001011A46FEF770FD6A
:1058000033E0029B03F102031A881F4B1B889A4264
:105810002BD91E4B1A881E4B1B889A4228BF134651
:105820009AB21A4B1A80194B1A88194B1B88D31A33
:105830009AB2164B1A80114B1B89144A128802FB2C
:1058400003F20F4BA3FB02134FEA53339BB20B48F7
:105850004FF001011A46FEF743FD06E007484FF0FE
:1058600001014FF00002FEF73BFD05B000BD00BF97
:105870002C08002068110020280800200C0F0020B0
:105880005917B7D1300800202E0800206A110020D7
:105890002A080020AFF30080AFF30080AFF3008050
:1058A00008B51D484FF400414FF00202FEF780FF9B
:1058B0001A481B49FCF734FD1A484FF004014FF019
:1058C0001002FEF775FF17484FF002014FF010026B
:1058D000FEF76EFF11484FF001014FF00002FCF798
:1058E00057FD0E484FF002014FF00002FCF750FD4B
:1058F0000C484FF0F8014FF00502FEF759FF0A4837
:105900004FF00001FCF724FB07480849084A4FF014
:105910000203FCF74DFB08BD000C01400C0F0020FA
:105920003408002000080140280E0020E06C000828
:105930006C110020AFF30080AFF30080AFF3008064
:1059400000B583B00346ADF80630FAF729FDFAF743
:105950001FFF054BBDF806201A80FAF731FFFAF752
:1059600027FD03B000BD00BF2E080020AFF300806C
:1059700000B583B00346ADF80630FAF711FDFAF72B
:1059800007FF054BBDF806201A80FAF719FFFAF752
:105990000FFD03B000BD00BF30080020AFF3008052
:1059A00008B50A48FCF764FB08480949094A4FF062
:1059B0000103FCF7A5FB05480749084A4FF002031D
:1059C000FCF7F6FA034B1B88184608BD280E00208A
:1059D000106D000878110020E06C00086C110020A8
:1059E00008B50A48FCF744FB08480949094A4FF042
:1059F0000103FCF785FB05480749084A4FF00203FD
:105A0000FCF7D6FA034B1B88184608BD280E002069
:105A1000406D00087A110020E06C00086C11002035
:105A200008B50C484FF480614FF01002FEF7C0FE3D
:105A300008484FF400614FF00202FEF7B9FE064835
:105A40000649FCF7DDFD044B18460549FFF730FA1F
:105A500008BD00BF000C0140200F0020640800209A
:105A60002C6A0008AFF30080AFF30080AFF3008032
:105A700008B50F4B1B68002B0AD10E484FF40B6181
:105A80004FF04002FFF71CF90246094B1A600EE086
:105A9000074B1B6893F820300E2B08D1044B1B6872
:105AA0001846FBF77DFB024B4FF000021A6008BD61
:105AB0007C110020B06D0008AFF30080AFF30080D0
:105AC00000B587B003900291019204AB4FF0000043
:105AD0001946FCF775F90590FCF74AF80346039858
