:020000040800F2
:10000000000400204101000801020008010200086C
:1000100001020008010200080102000801020008B4
:100020000102000801020008010200085102000854
:100030000102000801020008010200082102000874
:100040000102000801020008010200080102000884
:100050000102000801020008010200080102000874
:10006000010200080102000801020008B121000895
:100070000122000851220008A1220008F1220008F4
:100080004123000891230008010200080102000832
:100090000102000801020008010200080102000834
:1000A0000102000801020008010200080102000824
:1000B000A13A0008010200080102000821350008E9
:1000C000413500086135000881350008010200084B
:1000D000010200080102000801020008C13D0008F9
:0C00E000010200080102000801020008F3
:1000F000704700BFAFF30080AFF30080AFF3008024
:10010000FEE700BFAFF30080AFF30080AFF30080E5
:1001100084B003900291019206E0039B019A1A6059
:10012000039B03F104030393039A029B9A42F4D3C3
:1001300004B07047AFF30080AFF30080AFF30080EE
:1001400072B6204C84F309884FF0020484F31488BB
:10015000BFF36F8F03F024FF1B481C494FF055324B
:10016000FFF7D6FF1A4817494FF05532FFF7D0FF77
:10017000184D194C05E02B68236004F1040405F1C7
:100180000405164B9C42F6D3154816494FF0000261
:10019000FFF7BEFFFFF7ACFF134C03E0236898475F
:1001A00004F10404114B9C42F8D303F009FF104CF6
:1001B00003E02368984704F104040E4B9C42F8D3F3
:1001C000FFF79EFF00080020000000200004002030
:1001D0000004002030540008000800201808002007
:1001E000180800203C160020EC000008EC00000875
:1001F000EC000008EC000008AFF30080AFF30080D3
:10020000FEE700BFAFF30080AFF30080AFF30080E4
:1002100072B6FEE7AFF30080AFF30080AFF300806B
:1002200008B500F09DFA00F043F800F069FA00F01C
:10023000D7F900F07DFA00F043F800F0B1FA00F0D1
:1002400047F808BDAFF30080AFF30080AFF3008044
:1002500010B582B0EFF309840194019B03F12003F0
:100260000193019B83F3098800F02AF802B010BDC6
:1002700008B50D4B4FF000029A600B4B0B4ADA6049
:100280004FF007004FF0100100F022F94FF00A0084
:100290004FF4007100F01CF94FF00B004FF080019B
:1002A00000F016F908BD00BF00ED00E00000FA05FF
:1002B0004FF0200383F31188704700BFAFF3008035
:1002C0004FF0000383F31188704700BFAFF3008045
:1002D00010B582B0FFF7ECFF1E4B5B6803F40063C0
:1002E000002B32D0EFF309840194019BA3F120038A
:1002F0000193019B83F30988019B4FF08072DA61BF
:10030000154B9B69002B0BD0134B1B689A68124B43
:10031000DB699B689A4294BF00230123DBB20AE0A9
:100320000D4B1B689A680C4BDB699B689A4234BF83
:1003300000230123DBB2002B03D0019B074A9A6103
:1003400005E0019B064A9A6101E0FFF7B9FF02B0A0
:1003500010BD00BF00ED00E0480D00207103000853
:100360007C030008AFF30080AFF30080AFF30080A0
:1003700000F096F900F014FD00F0AAF900DF00BFCC
:1003800003460A462DE9F04FC2F80CD0D3F80CD042
:10039000BDE8F08FAFF30080AFF30080AFF30080D3
:1003A00008B500F095F9FFF78BFF2846A04700F04D
:1003B0002FFE08BDAFF30080AFF30080AFF30080E5
:1003C00010B485B001900091019B03F003034FEA44
:1003D000C30303931E4B019A4FEA92021C490198F2
:1003E0004FEA900000F1C00051F8200003994FF04F
:1003F000FF0404FA01F16FEA010108400399009C2F
:1004000004FA01F140EA010102F1C00243F82210AE
:100410000F4B019A4FEA5212019901F01F014FF060
:10042000010000FA01F102F1600243F82210084BCA
:10043000019A4FEA5212019901F01F014FF0010099
:1004400000FA01F143F8221005B010BC704700BF5C
:1004500000E100E0AFF30080AFF30080AFF3008075
:1004600010B485B00190019B03F003034FEAC3036E
:100470000393154B019A4FEA5212019901F01F01A3
:100480004FF0010000FA01F102F1200243F82210BE
:100490000D4B019A4FEA92020B4901984FEA9000E6
:1004A00000F1C00051F8200003994FF0FF0404FA56
:1004B00001F16FEA010100EA010102F1C00243F813
:1004C000221005B010BC704700E100E0AFF30080DF
:1004D00010B485B001900091019B03F003034FEA33
:1004E000C3030393104B019A4FEA92020E490198FD
:1004F0004FEA900000F1060051F8200003994FF0F8
:10050000FF0404FA01F16FEA010108400399009C1D
:1005100004FA01F140EA010102F1060243F8221057
:1005200005B010BC704700BF00ED00E0AFF30080E5
:1005300082B00190024BDB69024A9A61FEE700BF7C
:10054000480D0020504B0008AFF30080AFF300804F
:1005500000B583B0FFF78CFE00F0E2FA00F040FA3D
:1005600001F08EF901F0ECF900F06AF914484FF04F
:10057000400100F04DFC0246124BDA61114BDB6981
:100580004FF0010283F820200E4BDB690E4ADA613E
:1005900000F06EF84FF0000383F3118862B6094B48
:1005A000DB690A4A9A610A4B4FF00002009209483F
:1005B0004FF0C0014FF0010200F0D2FC03B000BDCB
:1005C000D8080020480D002000040020584B0008E7
:1005D0003105000818080020AFF30080AFF3008059
:1005E00000B583B000F0FCF81F4B9B69002B05DDC4
:1005F0001D4B9B6903F1FF321B4B9A611A4BDB6960
:100600005A6A02F101025A62184BDB6803F10102D7
:10061000164BDA60154B1B681A46144B9A4221D0D0
:10062000124B1B689A6802F1FF329A6013E0019B3B
:10063000DB680093019B4FF00002DA60019B1B68AE
:100640000A4A5A60019B1A68084B1A60019B1A6992
:10065000009B10469847054B1B680193019B9B68C4
:10066000002BE4D003B000BD480D0020380D002061
:1006700008B5064B1B68002B03D1054B1B68002BEC
:1006800002D0044800F024F908BD00BF240900206E
:1006900028090020704B0008AFF30080AFF3008002
:1006A00008B5084B1B68002B03D1074B1B68002BB8
:1006B00002D0064800F00CF9034B4FF001021A601B
:1006C00008BD00BF2409002028090020784B00083D
:1006D00008B5084B1B68002B03D1074B1B68002B88
:1006E00002DC064800F0F4F8034B4FF000021A60F9
:1006F00008BD00BF2409002028090020804B000805
:1007000008B5084B1B68002B03DD074B1B68002B4B
:1007100002D0064800F0DCF8034B4FF001021A60EB
:1007200008BD00BF2409002028090020884B0008CC
:1007300008B5084B1B68002B03DD074B1B68002B1B
:1007400002DC064800F0C4F8034B4FF000021A60C8
:1007500008BD00BF2409002028090020904B000894
:1007600008B5FFF7A5FD0A4B1B68002B03DB094BFF
:100770001B68002B02D0084800F0AAF8044B1B6845
:1007800003F10102024B1A60FFF79AFD08BD00BF9A
:100790002409002028090020984B0008AFF30080AE
:1007A00008B5FFF785FD0A4B1B68002B03DD094BDD
:1007B0001B68002B02D0084800F08AF8044B1B6825
:1007C00003F1FF32024B1A60FFF77AFD08BD00BF4C
:1007D0002409002028090020A04B0008AFF3008066
:1007E00008B5064B1B68002B03DB054B1B68002B71
:1007F00002DC044800F06CF808BD00BF24090020AA
:1008000028090020A84B0008AFF30080AFF3008058
:1008100008B5064B1B68002B03D1054B1B68002B4A
:1008200002DC044800F054F808BD00BF2409002091
:1008300028090020B04B0008AFF30080AFF3008020
:10084000034B4FF040021A60014B024A5A60704756
:100850002C09002034090020AFF30080AFF30080A2
:1008600082B00190124B5B68124AD2681A60104B3A
:100870005B68114AD2695A600D4B5B68019A926AB3
:100880009A600B4B5B68019A92F820201A73084B10
:100890005B6803F11002064B5A60054B5A68074B20
:1008A0009A4202D3024B064A5A6002B0704700BF18
:1008B0002C090020380D0020480D0020340D0020A8
:1008C00034090020AFF30080AFF30080AFF3008065
:1008D00000B583B00190034B019A1A60FFF798FCB2
:1008E00003B000BD340D0020AFF30080AFF30080F3
:1008F00084B001900091009B0393039B1B680393BA
:10090000009B039A9A4205D0039B9A68019B9B68BF
:100910009A42F2D2019B039A1A60039B5A68019B88
:100920005A60019B5B68039A01995160039A52686F
:100930001A6004B0704700BFAFF30080AFF30080CF
:1009400082B001900091009A019B1A60009B5A6846
:10095000019B5A60019B5B68009A01995160009A63
:1009600052681A6002B07047AFF30080AFF30080A6
:1009700084B00190019B1B680393039B1A68019B41
:100980001A60019B1B68019A5A60039B184604B0C9
:10099000704700BFAFF30080AFF30080AFF300807B
:1009A00082B00190019B5B68019A12681A60019BFA
:1009B0001B68019A52685A60019B184602B0704742
:1009C00084B00190019B1B680393039B1A68019BF1
:1009D0001A60039B184604B0704700BFAFF3008055
:1009E000074A074B5A60064B5A68054B1A60044B7E
:1009F0004FF0FF329A60024B4FF00002DA6070470E
:100A0000380D0020AFF30080AFF30080AFF300801B
:100A100000B587B00390029101920093FFF7E0FECA
:100A2000039B002B05D0019B002B02D0029B002BC7
:100A300002D11C48FFF74CFF039B009A1A61039BED
:100A4000019ADA60184B1B68059307E0059B9B68C9
:100A5000029AD31A0293059B1B680593059B9A681B
:100A6000029B9A42F2D3039B059A1A60039B1B6870
:100A70005A68039B5A60039B5B68059A039951600F
:100A8000059A52681A60039B029A9A60059A064B6F
:100A90009A4205D0059B9A68029BD21A059B9A60E0
:100AA00007B000BDC04B0008380D0020AFF3008038
:100AB00000B583B00190FFF793FE019B002B02D19C
:100AC0001348FFF705FF019BDB68002B02D111489B
:100AD000FFF7FEFE019B1A680F4B9A4208D0019B5C
:100AE0001B68019A12689168019A92688A189A6044
:100AF000019B5B68019A12681A60019B1B68019A4E
:100B000052685A60019B4FF00002DA6003B000BDEA
:100B1000D04B0008E04B0008380D0020AFF30080F8
:100B20000B4A0B4B5A600A4B5A68094B1A60084B28
:100B30004FF000029A60064B4FF014029A61044A8B
:100B4000034B5A61024B5A69014B1A61704700BF4F
:100B5000480D0020AFF30080AFF30080AFF30080BA
:100B600000B585B00190019B93F82030002B04D094
:100B7000019B93F820300E2B02D11348FFF7A8FEFB
:100B8000019B4FF0000283F82020104B0393039B3E
:100B90001B680393039B9A68019B9B689A42F6D259
:100BA000019B039A1A60039B5A68019B5A60019B40
:100BB0005B68039A01995160039A52681A60019B1D
:100BC000184605B000BD00BF004C0008480D0020CD
:100BD00000B585B003468DF80730FFF719FE164BB8
:100BE000DB690393039B9DF8072083F82020124BB9
:100BF0004FF014029A611048FFF7BAFE02460E4BFE
:100C0000DA610D4BDB694FF0010283F82020039875
:100C1000FFF726FE6B46A3F12402039BDB699A4291
:100C200002D20648FFF754FE034BDB6918460399CE
:100C3000FFF7A6FB05B000BD480D0020144C0008CE
:100C400000B585B00190019B0393039B93F820307E
:100C50000D2B28D801A252F823F000BFB70C0008D2
:100C6000A70C0008A70C0008950C0008A70C0008AA
:100C7000A10C0008A70C0008A70C0008A70C00088E
:100C8000A70C0008A70C0008A70C0008A70C000878
:100C9000A10C0008039B9B6A9A6802F101029A600A
:100CA0000398FFF77DFE039B4FF0FF329A62039893
:100CB000FFF756FF00E000BF05B000BDAFF30080B6
:100CC00000B589B0034600918DF80730FFF7A0FD0D
:100CD000009BB3F1FF3F14D00F4BDB6903AA104612
:100CE00000990E4AFFF794FE9DF807301846FFF76B
:100CF0006FFF069B002B09D003AB1846FFF7D8FE09
:100D000004E09DF807301846FFF762FF024BDB69ED
:100D10009B6A184609B000BD480D0020410C000830
:100D200000B585B001900091FFF772FD019B009A1C
:100D30009A62019B9A68174BDB699B689A4203D8B9
:100D40000198FFF70DFF22E0124BDB691846FFF711
:100D500007FF03900F4B4FF014029A610D4B019A5D
:100D6000DA61019B4FF0010283F820200398FFF71E
:100D700077FD6B46A3F12402039BDB699A4202D202
:100D80000548FFF7A5FD01980399FFF7F9FA05B0AB
:100D900000BD00BF480D0020144C0008AFF30080D8
:100DA00000B583B0154B4FF014029A61134BDB6909
:100DB00001931248FFF7DCFD0246104BDA610F4B3E
:100DC000DB694FF0010283F820200198FFF7C8FE8D
:100DD0000198FFF745FD6B46A3F12402019BDB69F7
:100DE0009A4202D20648FFF773FD044BDB691846AE
:100DF0000199FFF7C5FA03B000BD00BF480D002000
:100E0000144C0008AFF30080AFF30080AFF3008014
:100E100082B001900091019B009A9A60019B4FF073
:100E2000020283F82020019B4FF0000283F821206A
:100E3000019B009A5A64019B4FF000021A64019BC7
:100E40004FF00002DA63019B4FF000025A62019BEF
:100E50004FF0010283F82220019B4FF000029A61BB
:100E6000134A019B1A61124B5A69019B5A61019BFB
:100E70005B690F4A019951610D4A52691A61019BE0
:100E800003F12C031A46019BDA62019B03F1300344
:100E90001A46019B5A63019B5A6B019B1A63019B83
:100EA00003F14C02019BDA61019B184602B07047C6
:100EB000480D0020AFF30080AFF30080AFF3008057
:100EC00084B00390029113468DF8073007E0039B2E
:100ED0009DF807201A70039B03F101030393039A03
:100EE000029B9A42F3D304B0704700BFAFF3008077
:100EF00000B587B00390029101920093039B059384
:100F0000FFF76EFC039B002B08D0029BAF2B05D98B
:100F1000019B7F2B02D8009B002B02D10E48FFF7CC
:100F2000D7FC039A029BA3F12403D218059BDA6035
:100F3000059BDB68009A1A60059BDB68089A5A607B
:100F4000059BDB68054A1A6205980199FFF760FF67
:100F50000346184607B000BD304C0008A103000846
:100F600000B589B00590049103920293059A059B00
:100F700003F14C03104619464FF0FF02FFF7A0FFA4
:100F8000059B03F14C020599049BCB1810461946AA
:100F90004FF05502FFF794FFFFF78AF9FFF780FB48
:100FA0000A9B009305980499039A029BFFF7A0FF00
:100FB000079007984FF00001FFF7B2FEFFF788FB9C
:100FC000FFF77EF9079B184609B000BDAFF300801C
:100FD00000B583B00190019B002B02D10848FFF7B8
:100FE00077FCFFF765F9FFF75BFB4FF0060001990F
:100FF000FFF766FEFFF76CFBFFF762F903B000BD79
:10100000704C0008AFF30080AFF30080AFF30080B6
:1010100000B583B00190FFF74BF9FFF741FB019852
:1010200000F006F803B000BDAFF30080AFF300801E
:1010300000B585B00190194BDB690393039B019ABE
:101040009A6209E0039B03F12C031846FFF7B8FCF2
:1010500003461846FFF784FD039BDA6A039B03F1FE
:101060002C039A42EED1039B93F8213003F0030343
:10107000002B09D1039B5B69039A12691A61039BD8
:101080001B69039A52695A614FF00E00FFF7A0FDE9
:101090000348FFF71DFC05B000BD00BF480D002050
:1010A000804C0008AFF30080AFF30080AFF3008006
:1010B00000B583B00190019B002B02D10848FFF7D7
:1010C00007FC019B1A46019B5A60019B5A68019BD1
:1010D0001A60019B4FF000029A6003B000BD00BF90
:1010E000D04C0008AFF30080AFF30080AFF3008076
:1010F00000B583B00190FFF7DBF8FFF7D1FA019854
:1011000000F006F8FFF7E4FAFFF7DAF803B000BDE5
:1011100000B585B001903C4BDB690293FFF778FB8B
:10112000019B002B02D13948FFF7D2FB019B9B6842
:10113000002B5CD0019B9B68039335E0029B9A686F
:10114000039B9A60039B93F82030042B04D0052B5B
:1011500011D0002B1AD02DE00398FFF721FC024696
:10116000039B9B6A10461946FFF7C2FB039B9B6AD1
:101170009B68039318E00398FFF712FC0246039B59
:101180009B6A10461946FFF7B3FB0CE0039B4FF038
:10119000010283F820200398FFF702FC034618465B
:1011A000FFF7DEFC00BF05E0039B9A68029B9B688B
:1011B0009A42C3D3019B02981946FFF799FB029B01
:1011C000019A9A624FF00400FFF702FD019B9A68B2
:1011D000029B9A4202D00E48FFF77AFB029B1A6CE0
:1011E000019B9A420DD00B48FFF772FB09E0019B6F
:1011F000029A9A60029B1A6C019BDA60029B019A28
:101200001A6405B000BD00BF480D0020E04C000886
:10121000F04C0008044D0008AFF30080AFF30080ED
:1012200000B587B0314BDB690393FFF741F8FFF757
:1012300037FA039B1B6C002B02D12D48FFF748FBAC
:10124000039B1B6C9A68039B9A4202D02948FFF7C4
:101250003FFB039B1B6C0293029BDA68039B1A649F
:10126000029B1A68029B9A4233D0039B5B6C0493E7
:10127000039B1B6C059311E0059B1A68059B9A4222
:1012800009D0059B1B689A68049B9A4203D9059B69
:101290001B689B680493059BDB680593059B002BEB
:1012A000EAD1039B049A9A60029B1846FFF760FB01
:1012B0000190029B019A9A60019B1A6C029BDA6072
:1012C000019B029A1A6401984FF00001FFF728FD74
:1012D00003E0029B4FF000029A60FFF7F9F9FEF776
:1012E000EFFF029B184607B000BD00BF480D00206D
:1012F0002C4D0008404D0008AFF30080AFF3008094
:1013000000B583B001900091FFF76AFA019B002BB2
:1013100002D11648FFF7DCFA019BDA6B009B1A43F7
:10132000019BDA63019B93F82030082B07D1019BC6
:10133000DA6B019B9B6A02EA0303002B0DD1019B30
:1013400093F82030092B0FD1019BDA6B019B9B6A2C
:101350001A40019B9B6A9A4206D10198FFF700FC54
:1013600003464FF000029A6203B000BDBC4D000876
:1013700000B585B001900091FFF732FA019B002B78
:1013800002D10D48FFF7A4FA019B1B6803930DE0FF
:10139000039B5A68039B9968009B41EA030310462C
:1013A0001946FFF7ADFF039B1B680393019B039A4C
:1013B0009A42EDD105B000BDD04D0008AFF30080DA
:1013C00000B583B001900091009B002B02D14FF03B
:1013D000FF3310E0094BDB69019A9A62074BDA6927
:1013E000019B10461946FFF7ABFA4FF00D0000992C
:1013F000FFF766FC0346184603B000BD480D002009
:1014000084B00390029101920093039B1A46039BC0
:101410005A60039B5A68039B1A60039B4FF00002BB
:101420009A60039B029A5A61039B5A69039B9A61D3
:10143000039B9A69039BDA60029A019BD218039B73
:101440001A61039B009ADA6104B07047AFF3008021
:1014500000B583B001900B468DF80330FFF7C0F95B
:10146000019B5A69019B9B699A4206D1019B9B682B
:10147000002B02D06FF003032BE0019B9B6803F16C
:101480000102019B9A60019B5B699DF803201A7021
:1014900003F10102019B5A61019B5A69019B1B697F
:1014A0009A4203D3019BDA68019B5A61019B1A6837
:1014B000019B9A420BD0019B1846FFF759FA03464D
:1014C0001846FFF74DFB03464FF000029A624FF0BB
:1014D0000003184603B000BDAFF30080AFF30080F7
:1014E00000B585B001900091FEF7E2FEFFF7D8F855
:1014F000019BDB69002B12D0019BDB6901989847A7
:101500000EE001980099FFF75BFF0390039B002B0F
:1015100006DAFFF7DDF8FEF7D3FE039B23E000BFFA
:10152000019B9B68002BECD0019B9B6803F1FF3271
:10153000019B9A60019B9B691A788DF80B2003F13F
:101540000102019B9A61019B9A69019B1B699A4266
:1015500003D3019BDA68019B9A61FFF7B9F8FEF7A4
:10156000AFFE9DF80B30184605B000BDAFF300800C
:1015700000B587B00390029101920093039BDB6951
:1015800004934FF000030593019B002B02D12B48DD
:10159000FFF79EF9FEF78CFEFFF782F8049B002B05
:1015A00010D0049B039898470DE003980099FFF72B
:1015B00007FF0346002B06D0FFF78AF8FEF780FEF0
:1015C000059B37E000BF039B9B68002BEDD0039B7E
:1015D0009B6803F1FF32039B9A60039B9B69197818
:1015E000029A1170029A02F10102029203F10102C1
:1015F000039B9A61039B9A69039B1B699A4203D3DD
:10160000039BDA68039B9A61FFF762F8FEF758FEC6
:10161000059B03F101030593019B03F1FF33019344
:10162000019B002B01D1059B04E0FEF741FEFFF773
:1016300037F8B3E7184607B000BD00BF104E0008EA
:1016400084B00390029101920093039B1A46039B7E
:101650005A60039B5A68039B1A60039B019A9A6025
:10166000039B029A5A61039B5A69039B9A61039BED
:101670009A69039BDA60029A019BD218039B1A6154
:10168000039B009ADA6104B0704700BFAFF300809B
:1016900000B587B003900B4601928DF80B30FEF732
:1016A00007FEFEF7FDFF0DE003980199FFF788FEA6
:1016B0000590059B002B05DAFFF70AF8FEF700FE00
:1016C000059B2AE0039B9B68002BEDD0039B9B6846
:1016D00003F1FF32039B9A60039B5B699DF80B202B
:1016E0001A7003F10102039B5A61039B5A69039B21
:1016F0001B699A4203D3039BDA68039B5A61039BDD
:10170000DB69002B03D0039BDB6903989847FEF746
:10171000DFFFFEF7D5FD4FF00003184607B000BD10
:1017200000B585B00190FFF75BF8019B5A69019BFA
:101730009B699A4206D1019B9B68002B02D06FF0F7
:1017400002032BE0019B9B6803F10102019B9A605D
:10175000019B9B691A788DF80F2003F10102019B10
:101760009A61019B9A69019B1B699A4203D3019B71
:10177000DA68019B9A61019B1A68019B9A420BD01F
:10178000019B1846FFF7F4F803461846FFF7E8F9FF
:1017900003464FF000029A629DF80F30184605B0DC
:1017A00000BD00BFAFF30080AFF30080AFF3008057
:1017B00000B587B00390029101920093039BDB690F
:1017C00004934FF000030593019B002B02D12B489B
:1017D000FFF77EF8FEF76CFDFEF762FF0CE0039862
:1017E0000099FFF7EDFD0346002B05D0FEF770FFD3
:1017F000FEF766FD059B3DE0039B9B68002BEED04A
:10180000039B9B6803F1FF32039B9A60039B5B6918
:10181000029A12781A7003F10102039B5A61029B2B
:1018200003F101030293039B5A69039B1B699A42CC
:1018300003D3039BDA68039B5A61049B002B02D0FD
:10184000049B03989847FEF743FFFEF739FD059B7D
:1018500003F101030593019B03F1FF330193019B06
:10186000002B01D1059B05E0FEF722FDFEF718FFD6
:1018700000BFC1E7184607B000BD00BF244E0008F6
:10188000074B03F1070323F007031A46054B1A60C1
:10189000054B23F007031A46044B1A60704700BF3C
:1018A0003C160020680D0020005000206C0D002028
:1018B00000B585B00190FEF7FBFCFEF7F1FE019844
:1018C00000F00EF80390FEF703FFFEF7F9FC039B10
:1018D000184605B000BD00BFAFF30080AFF3008035
:1018E00000B585B00190FEF77BFF019B03F1070374
:1018F00023F0070301930D4B1B681A460C4B1B6822
:10190000D31A1A46019B9A4202D24FF0000309E013
:10191000074B1B680393064B1A68019BD218044BB4
:101920001A60039B184605B000BD00BF6C0D002077
:10193000680D0020AFF30080AFF30080AFF30080AC
:1019400008B5074B074A1A60054B4FF000029A6032
:10195000034B4FF00002DA600348FFF7A9FB08BD14
:10196000700D0020B1180008800D0020AFF300803A
:1019700008B500F05DFE00F0DBFB074802F048FA16
:1019800000F00EF800F074F900F03AFA00F010FBE5
:1019900002F00EFB08BD00BF50530008AFF30080FB
:1019A00008B500F0E5FF08BDAFF30080AFF300809D
:1019B00000B583B00190019B4FF001021A70019BAA
:1019C0004FF000025A60019B4FF000029A60019BA9
:1019D0004FF00002DA60019B4FF000021A61019B98
:1019E0004FF000025A61019B03F118031846FFF7FC
:1019F0005FFB03B000BD00BFAFF30080AFF300801A
:101A000000B583B001900091019B002B02D11148D9
:101A1000FEF75EFFFEF74CFCFEF742FE019B1B78D3
:101A2000012B06D0019B1B78022B02D00A48FEF73F
:101A30004FFF019B009A5A60019800F0E1FF019B63
:101A40004FF002021A70FEF743FEFEF739FC03B0B6
:101A500000BD00BF404E0008504E0008AFF30080AC
:101A600000B583B00190019B002B02D10F48FEF717
:101A70002FFFFEF71DFCFEF713FE019B1B78012BC9
:101A800006D0019B1B78022B02D00948FEF720FFED
:101A9000019800F0F5FF019B4FF001021A70FEF76C
:101AA00017FEFEF70DFC03B000BD00BF604E00083E
:101AB0006C4E0008AFF30080AFF30080AFF30080FE
:101AC00000B585B00390029101920093FEF7F0FB00
:101AD000FEF7E6FD03980299019A009B00F008F8D2
:101AE000FEF7F6FDFEF7ECFB05B000BDAFF300809E
:101AF00000B585B00390029101920093FEF770FE4D
:101B0000039B002B0ED0029B002B0BD0019B002BC4
:101B100008D0009B012B08D0009B03F00103DBB22F
:101B2000002B02D01148FEF7D3FE039B1B78022B3B
:101B30000AD0039B1B78042B06D0039B1B78052B34
:101B400002D00B48FEF7C4FE039B019A9A60039BE8
:101B5000009ADA60039B029A1A61039B4FF003021A
:101B60001A70039800F0B4FF05B000BD7C4E000869
:101B7000944E0008AFF30080AFF30080AFF3008015
:101B800000B585B00190019B002B02D11B48FEF7E8
:101B90009FFEFEF78DFBFEF783FD019B1B78022B5A
:101BA00006D0019B1B78032B02D01548FEF790FE50
:101BB000019B1B78022B1AD0019801F001F8019BC0
:101BC0004FF000021A61019B4FF002021A70019B54
:101BD0005B69002B0BD0019B5B690393019B4FF06A
:101BE00000025A6103986FF00101FFF799F8FEF7C0
:101BF0006FFDFEF765FB05B000BD00BFB04E0008ED
:101C0000C84E0008AFF30080AFF30080AFF3008050
:101C100000B587B00390029101920093FEF748FB54
:101C2000FEF73EFD039B5B69002B02D00E48FEF7DA
:101C30004FFE03980299019A009BFFF759FF0B4B47
:101C4000DA69039B5A614FF00200FEF7C1FF074BB0
:101C5000DB699B6A0593FEF73BFDFEF731FB059BB5
:101C6000184607B000BD00BF144F0008480D002003
:101C700008B501F095FC08BDAFF30080AFF300801C
:101C800000B583B00190019B4FF001021A70019BD7
:101C90004FF000025A60019B03F10C031846FFF756
:101CA00007FA03B000BD00BFAFF30080AFF30080C0
:101CB00000B583B001900091019B002B02D0009BE6
:101CC000002B02D11248FEF703FE019B1B78012B6B
:101CD0000AD0019B1B78022B06D0019B1B78052B99
:101CE00002D00C48FEF7F4FDFEF7E2FAFEF7D8FC4E
:101CF000019B009A5A60019801F08AFC019B4FF009
:101D000002021A70FEF7E4FCFEF7DAFA03B000BD37
:101D1000504F0008604F0008AFF30080AFF3008021
:101D200000B583B00190019B002B02D11148FEF752
:101D3000CFFD019B1B78012B0AD0019B1B78022B46
:101D400006D0019B1B78052B02D00B48FEF7C0FD87
:101D5000FEF7AEFAFEF7A4FC019801F049FD019BE5
:101D60004FF001021A70FEF7B3FCFEF7A9FA03B0B8
:101D700000BD00BF704F00087C4F0008AFF300802B
:101D800000B58DB00990079206930B46ADF822304E
:101D9000FEF78EFAFEF784FC099B4FF000029A6072
:101DA000099B4FF000021A70BDF822300E9A009283
:101DB0000F9A0192109A0292119A0392129A049227
:101DC00009981946079A069B01F052FD0B900B9B50
:101DD000B3F1FF3F04D1099B4FF005021A7003E0F5
:101DE000099B4FF002021A70FEF772FCFEF768FAC8
:101DF0000B9B18460DB000BDAFF30080AFF3008021
:101E000008B501F05DFE08BDAFF30080AFF30080C0
:101E100082B00190019B4FF001021A70019B4FF0BC
:101E200000025A6002B07047AFF30080AFF3008049
:101E300000B585B0039002910192039B03F130033A
:101E400018460299019A4FF0FF33FFF7B1FC0346A1
:101E5000184605B000BD00BFAFF30080AFF30080AF
:101E600000B585B0039002910192039B03F110032A
:101E700018460299019A4FF0FF33FFF779FB0346AA
:101E8000184605B000BD00BFAFF30080AFF300807F
:101E900082B00190019B9B6B002B14BF0023012398
:101EA000184602B0704700BFAFF30080AFF3008068
:101EB00082B00190019B9B69002B14BF002301237A
:101EC000184602B0704700BFAFF30080AFF3008048
:101ED00000B585B003900B4601928DF80B30039B43
:101EE00003F130029DF80B3010461946019AFFF7B6
:101EF000CFFB0346184605B000BD00BFAFF300801E
:101F000000B583B001900091019B03F110031846C6
:101F10000099FFF7E5FA0346184603B000BD00BF7D
:101F200000B585B00390029101920093039B03F1E9
:101F3000300318460299019A009BFFF739FC0346CB
:101F4000184605B000BD00BFAFF30080AFF30080BE
:101F500000B585B00390029101920093039B03F1B9
:101F6000100318460299019A009BFFF701FB0346F4
:101F7000184605B000BD00BFAFF30080AFF300808E
:101F800000B585B00190FEF793F9FEF789FB019B40
:101F90009B680393019B4FF000029A60FEF798FB49
:101FA000FEF78EF9039B184605B000BDAFF3008025
:101FB00008B501F015FF08BDAFF30080AFF3008056
:101FC00000B585B0039002910192039B154A1A60F7
:101FD000039B03F104031A46039B5A60039B4FF0D3
:101FE00000029A60039B4FF001021A73039B03F1F6
:101FF0001002039B03F15003104619464FF01002E4
:10200000029BFFF7FDF9039B03F13002039B03F1F1
:102010006003104619464FF01002019BFFF710FBBA
:1020200005B000BDA0520008AFF30080AFF3008000
:1020300000B583B001900B468DF80330FEF7D0FB5E
:10204000019B002B02D11848FEF742FC019B9B69C3
:10205000002B0DD1019B9B6843F00402019B9A6009
:10206000019B03F1040318464FF00001FFF780F9CC
:10207000019B03F110029DF8033010461946FFF74B
:10208000E7F90346002B0DDA019B9B6843F08002C1
:10209000019B9A60019B03F1040318464FF0000175
:1020A000FFF766F903B000BD78500008AFF3008079
:1020B00082B00190024B5A68019B9A6002B070474F
:1020C000001000E0AFF30080AFF30080AFF30080BA
:1020D00084B00190114B5B680393019B9B68039A4A
:1020E000D21A0F4B1B68D21A019B9A60019B9A6807
:1020F000019BDB689A4204D9019B9A68019BDA60D4
:1021000009E0019B9A68019B1B699A4203D2019BDB
:102110009A68019B1A6104B0704700BF001000E08C
:10212000900D0020AFF30080AFF30080AFF300808C
:1021300000B587B00A4B4FF000021A6001AB184699
:1021400000F016F8019B01AA10469847029B01AACD
:1021500010469847039A024B1A6007B000BD00BFB3
:10216000900D0020AFF30080AFF30080AFF300804C
:1021700082B00190019B094A1A60019B084A5A608B
:10218000019B4FF000029A60019B4FF00002DA6061
:10219000019B4FF0FF321A6102B07047B120000876
:1021A000D1200008AFF30080AFF30080AFF30080D0
:1021B00000B583B0FEF7D4FA0C4B1B6803F00F0395
:1021C00001930A4B4FF00F025A60094B1B68002B1A
:1021D00006D0074B1B68064A52681046019998477B
:1021E000FEF7DEFAFEF774F803B000BD000002400F
:1021F000980D0020AFF30080AFF30080AFF30080B4
:1022000000B583B0FEF7ACFA0D4B1B684FEA131311
:1022100003F00F0301930A4B4FF0F0025A60094B91
:102220009B68002B06D0074B9B68064AD268104675
:1022300001999847FEF7B4FAFEF74AF803B000BDDB
:1022400000000240980D0020AFF30080AFF3008043
:1022500000B583B0FEF784FA0D4B1B684FEA1323D9
:1022600003F00F0301930A4B4FF470625A60094B5D
:102270001B69002B06D0074B1B69064A52691046A2
:1022800001999847FEF78CFAFEF722F803B000BDDB
:1022900000000240980D0020AFF30080AFF30080F3
:1022A00000B583B0FEF75CFA0D4B1B684FEA1333A1
:1022B00003F00F0301930A4B4FF470425A60094B2D
:1022C0009B69002B06D0074B9B69064AD2691046D2
:1022D00001999847FEF764FAFDF7FAFF03B000BDD5
:1022E00000000240980D0020AFF30080AFF30080A3
:1022F00000B583B0FEF734FA0D4B1B684FEA134369
:1023000003F00F0301930A4B4FF470225A60094BFC
:102310001B6A002B06D0074B1B6A064A526A1046FE
:1023200001999847FEF73CFAFDF7D2FF03B000BDD4
:1023300000000240980D0020AFF30080AFF3008052
:1023400000B583B0FEF70CFA0D4B1B684FEA135330
:1023500003F00F0301930A4B4FF470025A60094BCC
:102360009B6A002B06D0074B9B6A064AD26A10462E
:1023700001999847FEF714FAFDF7AAFF03B000BDD4
:1023800000000240980D0020AFF30080AFF3008002
:1023900000B583B0FEF7E4F90D4B1B684FEA1363F9
:1023A00003F00F0301930A4B4FF070625A60094B20
:1023B0001B6B002B06D0074B1B6B064A526B10465B
:1023C00001999847FEF7ECF9FDF782FF03B000BDD5
:1023D00000000240980D0020AFF30080AFF30080B2
:1023E00082B0144B4FF000021A604FF000030193CB
:1023F00016E01149019A13464FEA43039B184FEA2E
:102400008303CB181B684FF000021A600B4B019A34
:102410004FF0000143F83210019B03F101030193D7
:10242000019B062BE5DD064B4FF0FF325A6002B0F0
:10243000704700BF940D0020D0520008980D002076
:1024400000000240AFF30080AFF30080AFF30080E4
:1024500000B585B00390029101920093039B002B7D
:1024600002D13148FEF734FA039B5B7A4FF0010248
:1024700002FA03F31A462D4B1B6802EA0303002BF2
:1024800002D04FF001034BE0039B5B7A1A46284BC6
:10249000019943F83210039B5B7A254A4FEAC30344
:1024A000D318009A5A60039B5B7A4FF0010202FA3C
:1024B00003F31A461D4B1B681A431C4B1A601B4B37
:1024C0001B6803F07F03002B05D01A4B194A526991
:1024D00042F001025A61039B1B68039A126812685A
:1024E00022F001021A60039B5B68039A127A4FF094
:1024F0000F0101FA02F21A60039B1B684FF0000201
:102500001A60019B002B09D0039B9B7A1A46029B01
:102510004FEA031310461946FDF752FF4FF0000330
:10252000184605B000BD00BFA0500008940D002063
:10253000980D002000100240AFF30080AFF3008040
:1025400000B583B00190019B002B02D11948FEF722
:10255000BFF9019B5B7A4FF0010202FA03F31A46BE
:10256000154B1B6802EA0303002B02D11348FEF748
:10257000AFF9019B9B7A1846FDF772FF019B5B7ACE
:102580004FF0010202FA03F36FEA03031A460A4B03
:102590001B681A40084B1A60074B1B6803F07F0347
:1025A000002B05D1064B064A526922F001025A61FE
:1025B00003B000BDB0500008940D0020C0500008CA
:1025C00000100240AFF30080AFF30080AFF3008053
:1025D000134B134A126842F480721A60114B1B6A43
:1025E00003F44073B3F5407F07D00E4B4FF48032B5
:1025F0001A620C4B4FF000021A620A4B1B6A03F47A
:102600000043002B0BD1074B064A126A42F440727A
:102610001A62044B034A126A42F400421A6270477B
:102620000070004000100240AFF30080AFF3008064
:1026300008B51E4B1B691D4B4FF0FF321A611B4B37
:102640004FF000021A61194BDB68184B4FF0FF3254
:10265000DA60164B4FF00002DA60154B43F67F62EA
:102660005A60134B4FF000029A60114B4FF0070273
:102670001A60104B0F4AD26842F08072DA600E4B3B
:102680000D4A126842F001021A60084B074AD269EB
:1026900042F08052DA61054B044AD26942F000628E
:1026A000DA61FFF795FFFFF79BFE08BD00100240BF
:1026B00010E000E0F0ED00E0001000E0AFF300807B
:1026C000294B294A126842F001021A6000BF264BCA
:1026D0001B6803F00203002BF9D0234B224A126837
:1026E00002F0F9021A60204B4FF000025A6000BF5E
:1026F0001D4B5B6803F00C03002BF9D11A4B1A4AEF
:10270000126842F480321A6000BF174B1B6803F452
:102710000033002BF9D0144B134A526842F4803234
:102720005A60114B104A126842F080721A6000BF62
:102730000D4B1B6803F00073002BF9D00A4B0B4ABA
:102740005A600B4B4FF010021A60074B064A526852
:1027500042F002025A6000BF034B5B6803F00C03B7
:10276000082BF9D1704700BF0010024000644100FF
:1027700000200240AFF30080AFF30080AFF3008091
:1027800000B589B001900091009B03F00803002B75
:1027900039D0019800F014FA019B1B69DB68002B0B
:1027A00012D0019B4FF005021A70019B1B69DB6878
:1027B00001984FF000019847019B1B78052B03D12E
:1027C000019B4FF002021A70019B4FF000021A6148
:1027D000FDF76EFDFDF794FF019B5B69002B0DD0AB
:1027E000019B5B690793019B4FF000025A61079BB5
:1027F0004FF0FF329A620798FEF7B2F9FDF798FFA3
:10280000FDF75EFDABE0009B03F00403002B0FD04F
:10281000019B1B699B68002B0AD0019B1B699B686D
:10282000019A9168019AD2684FEA5202019898473A
:10283000009B03F00203002B00F09180019B1B69B9
:102840001B68002B2DD0019B1B699B68002B00F09F
:102850008680019BDB68012B19D9019BDB684FEA5D
:1028600053030693019B1B699B88069A02FB03F3A3
:102870000593019B1B699B68019A9168059A4FEA31
:1028800042028A1801981146069A984767E0019B10
:102890001B699B68019A9168019AD26801989847D0
:1028A0005DE0019800F08CF9019B1B699B68002B8F
:1028B00033D0019B4FF004021A70019BDB68012B9F
:1028C00019D9019BDB684FEA53030493019B1B69F1
:1028D0009B88049A02FB03F30393019B1B699B688B
:1028E000019A9168039A4FEA42028A1801981146A8
:1028F000049A984708E0019B1B699B68019A9168BC
:10290000019AD26801989847019B1B78042B08D143
:10291000019B4FF002021A7003E0019B4FF002028C
:102920001A70019B4FF000021A61FDF7C1FCFDF720
:10293000E7FE019B5B69002B0DD0019B5B69029355
:10294000019B4FF000025A61029B4FF000029A6215
:102950000298FEF705F9FDF7EBFEFDF7B1FC09B0B3
:1029600000BD00BFAFF30080AFF30080AFF3008085
:1029700008B51E48FFF71CF81C4B1D4A9A621B4BFA
:102980001C4ADA62194B42F28A521A631A4B1A4AEB
:10299000926942F400729A61154B4FF000025A603E
:1029A000134B4FF001029A60114B4FF009029A60ED
:1029B00000BF0F4B9B6803F00803002BF9D10C4BB1
:1029C0004FF005029A6000BF094B9B6803F00403B7
:1029D000002BF9D1064B4FF000029A60064B064AD5
:1029E000926922F400729A6108BD00BFD00D0020E8
:1029F00000240140D052000800100240AFF30080D4
:102A000000B585B00190019B1B78012B29D1019A5B
:102A1000154B9A421BD1019BDA6A144B10464FF0BA
:102A200005011A46019BFFF713FD0390039B002B42
:102A300002D00F48FDF74CFF019BDB6A1B680D4A73
:102A40009A600D4B0C4A926942F400729A61019BA4
:102A50009B6A4FF000025A60019B9B6A4FF0000294
:102A60009A6005B000BD00BFD00D0020812700088E
:102A7000E05000084C24014000100240AFF30080F9
:102A800000B583B00190019B1B78022B16D1019AEF
:102A90000B4B9A4212D10B4B4FF000025A60094B7C
:102AA0004FF000029A60019BDB6A1846FFF748FD71
:102AB000054B054A926922F400729A6103B000BD89
:102AC000D00D00200024014000100240AFF3008030
:102AD00086B00190019B1B690393019B1B6B0593BF
:102AE000039B1B68002B03D0059B43F02003059339
:102AF000019BDB68012B0BD9059B43F00403059375
:102B0000039B9B88019AD26802FB03F3049302E0C3
:102B1000039B9B880493019BDB6A1B68019A926864
:102B2000DA60019BDB6A1B68049A5A60019BDB6ACE
:102B30001B68059A1A60019BDB6A1B68019AD26ABE
:102B40001268126842F001021A60019B9B6A039AA4
:102B5000126942F480725A60019B9A6A039B5B6916
:102B600043F4807343F003039360019B9B6A039AD1
:102B70009269DA60019B9B6A039AD2691A61019B90
:102B80009B6A039A126ADA62019B9B6A039A526AF1
:102B90001A63019B9B6A039A926A5A63019B9A6A21
:102BA000039B5B6943F4807343F00303936006B0B7
:102BB000704700BFAFF30080AFF30080AFF3008039
:102BC00082B00190019BDB6A1B68019AD26A12688D
:102BD000126822F001021A60019BDB6A5B68019AAD
:102BE000D26A127A4FF00F0101FA02F21A60019BC9
:102BF0009B6A4FF000029A6002B07047AFF300800A
:102C000084B00190019B1B6B0393039B4FF4004224
:102C10001A80039B4FF000021A80039B4FF00002C2
:102C20009A80039B4FF000029A82019BDB6A1B682B
:102C3000019AD26A1268126822F001021A60019B9E
:102C4000DB6A5B68019AD26A127A4FF00F0101FACF
:102C500002F21A60019B9B6A1B68019A926A1268D1
:102C6000126822F001021A60019B9B6A5B68019A5C
:102C7000926A127A4FF00F0101FA02F21A6004B060
:102C8000704700BFAFF30080AFF30080AFF3008068
:102C900000B585B00190019B0393039BDB69002B7A
:102CA00010D0039BDB6902930398FFF7A9FF039BF6
:102CB0004FF00002DA61029B4FF0FF329A620298F5
:102CC000FDF74EFF05B000BDAFF30080AFF300800D
:102CD00000B587B00190019B1B6B0493019B5B685F
:102CE0005B680393019B5B681B7A8DF80B30019B3B
:102CF000002B06D0039B002B03DD039A6E4B9A42F8
:102D000002DD6E48FDF7E4FD049B9B889BB223F037
:102D10003F039AB2049B9A80049B9B889BB243F02A
:102D200008039AB2049B9A804FF00003ADF8163066
:102D300040F6FF73ADF81430039A614B9A4236DCCB
:102D40009DF80B30012B02D05E48FDF7C1FD039BBF
:102D50004FEA43025C4B93FBF2F102FB01F29B1A38
:102D6000002B02D05948FDF7B3FD039B4FEA430304
:102D7000554A92FBF3F3ADF81430BDF81430032B31
:102D800002D85348FDF7A4FDBDF814304FEA0353B1
:102D90004FEA13539AB2BDF8163042EA03039BB2CE
:102DA000ADF81630049B4FF009021A8475E0039ABF
:102DB000484B9A4271DC9DF80B30022B06D09DF8EF
:102DC0000B30032B02D04448FDF782FD9DF80B30F9
:102DD000022B1AD1039A13464FEA43039A183A4B2F
:102DE00093FBF2F102FB01F29B1A002B02D03B484D
:102DF000FDF76EFD039A13464FEA43039B18324AD0
:102E000092FBF3F3ADF8143029E09DF80B30032B5F
:102E100025D1039A13464FEA83039B184FEA830296
:102E20009A18294B93FBF2F102FB01F29B1A002B3B
:102E300002D02B48FDF74CFD039A13464FEA83035B
:102E40009B184FEA83029B181F4A92FBF3F3ADF8DD
:102E50001430BDF8163043F48043ADF81630BDF899
:102E60001430002B02D11F48FDF732FDBDF814309D
:102E70004FEA03534FEA13539BB26FEA43436FEA9F
:102E800053439AB2BDF8163042EA03039BB2ADF841
:102E90001630049B4FF003021A84BDF8142040F64C
:102EA000FF739A4202D91048FDF712FD049BBDF84A
:102EB00016209A8307B000BD00093D0000510008AC
:102EC000A08601001851000800127A003051000855
:102ED00048510008801A0600605100087851000827
:102EE00090510008A8510008C0510008AFF30080BD
:102EF00086B00190019B1B6B0493019B5B681B7860
:102F00008DF80F30049B1B88ADF816309DF80F30FC
:102F1000022B0AD0032B15D0012B1AD1BDF8163085
:102F200023F00A03ADF8163013E0BDF8163043F075
:102F30000203ADF81630BDF8163023F00803ADF8E3
:102F4000163006E0BDF8163043F00A03ADF816302F
:102F500000BF049BBDF816201A8006B0704700BF62
:102F600000B587B00190019B1B6B0493049B1B8BE6
:102F70009BB20393049B9B8A9BB20593019B93F89E
:102F80003430002B40F0AE80039B4FEA0342059B98
:102F900042EA030323F07F434E4A934212D04D4A44
:102FA000934203D84C4A934207D089E04B4A93425C
:102FB00031D04B4A934241D082E0019B1A8C049B52
:102FC0001A827DE0049B9B889BB223F400739AB223
:102FD000049B9A80019B9B6A1B68019A926A126803
:102FE000126842F001021A60049B9B889BB243F472
:102FF00080539AB2049B9A80019B9B6A1B685B6812
:10300000012B5CD8049B1B889BB223F480639AB28B
:10301000049B1A8054E0049B9B889BB223F40073AA
:103020009AB2049B9A80019BDB6A1B68019AD26A60
:103030001268126842F001021A6041E0019B9B6A2B
:103040001B685B68002B0FD0019B1B8C43F00103B6
:103050009AB2019B1A84049B1B889BB243F4A06321
:103060009AB2049B1A80B9E0049B9B889BB223F41C
:1030700000739AB2049B9A80049B1B889BB243F412
:1030800000739AB2049B1A80FDF712F9FDF738FB22
:10309000019BDB69002B0DD0019BDB690293019B37
:1030A0004FF00002DA61029B4FF000029A62029830
:1030B000FDF756FDFDF73CFBFDF702F900E000BF10
:1030C000059B03F00A03002B00F08880049B1B8BF8
:1030D00084E000BF0200030001000300820007003B
:1030E00084000700059B03F00A03002B0FD0019B0F
:1030F0004FF000021A64019B4FF000021A65049B16
:103100009B8A9BB20593049B1B8B9BB20393059BED
:1031100003F08003002B16D0019B9A6C019B1B6D62
:10312000D21812781146049A118203F10102019B10
:103130001A65019B1A6C019BDB6C9A4203D3019BBD
:103140004FF000021A65059B03F04003002B17D0D7
:10315000019B9A6B019B1B6CD2180499098A89B256
:10316000C9B2117003F10102019B1A64019B1A6C30
:10317000019BDB6B9A4203D3019B4FF000021A6460
:10318000059B03F01003002B13D0049B9B8A9BB27A
:103190000593049B1B889BB243F001039AB2049BE6
:1031A0001A80019B5B6C002B03D0019B5B6C019828
:1031B0009847059B03F48063002B0FD0049B9B8AE8
:1031C0009BB223F480639AB2049B9A82019B5B6D4D
:1031D000002B03D0019B5B6D0198984707B000BDA1
:1031E00000B585B001900091019B1B6B0393009B80
:1031F00003F00803002B01D0FDF70AF8019B9B6A3E
:103200001B68019A926A1268126822F001021A6021
:10321000019B9B6A5B68019A926A127A4FF00F01D8
:1032200001FA02F21A60019B93F83430002B31D17D
:10323000039B9B889BB223F480539AB2039B9A8092
:10324000039B1B889BB223F480639AB2039B1A8072
:10325000039B1B889BB243F400739AB2039B1A80B2
:10326000FDF726F8FDF74CFA019BDB69002B0DD02A
:10327000019BDB690293019B4FF00002DA61029B24
:103280004FF000029A620298FDF76AFCFDF750FACF
:10329000FDF716F805B000BDAFF30080AFF3008076
:1032A00000B585B001900091019B1B6B0393009BBF
:1032B00003F00803002B01D0FCF7AAFF019BDB6A97
:1032C0001B68019AD26A1268126822F001021A6021
:1032D000019BDB6A5B68019AD26A127A4FF00F0198
:1032E00001FA02F21A60039B9B889BB243F40073BD
:1032F0009AB2039B9A8005B000BD00BFAFF3008077
:1033000000B587B00190019B1B6B0493FCF7D0FFC5
:10331000FDF7F6F9019BDB6A1B68019AD26A126815
:10332000126822F001021A60019BDB6A5B68019A55
:10333000D26A127A4FF00F0101FA02F21A60019B71
:103340009B6A1B68019A926A1268126822F0010255
:103350001A60019B9B6A5B68019A926A127A4FF02D
:103360000F0101FA02F21A60FDF7E2F9FCF7A8FF7B
:103370004FF000030593049B9B8A9BB203F4807378
:10338000002B0BD0049B9B8A9BB223F480739AB2D0
:10339000049B9A82059B43F001030593049B9B8A3F
:1033A0009BB203F40073002B0BD0049B9B8A9BB24F
:1033B00023F400739AB2049B9A82059B43F00203A4
:1033C0000593019B93F83430002B23D1049B9B8AF7
:1033D0009BB203F48063002B2CD0049B9B8A9BB28E
:1033E00023F480639AB2049B9A82049B9B889BB2CD
:1033F00023F400739AB2049B9A80049B1B889BB2AF
:1034000043F400739AB2049B1A80059B43F00403B3
:1034100005930FE0049B9B8A9BB223F480639AB2CE
:10342000049B9A82019B5B6D002B03D0019B5B6D1B
:1034300001989847049B9B8A9BB203F40063002B7E
:103440000BD0049B9B8A9BB223F400639AB2049B2B
:103450009A82059B43F008030593049B9B8A9BB2C9
:1034600003F48053002B0BD0049B9B8A9BB223F464
:1034700080539AB2049B9A82059B43F010030593F4
:10348000049B9B8A9BB203F48043002B0BD0049BCC
:103490009B8A9BB223F480439AB2049B9A82059B39
:1034A00043F020030593049B9B8A9BB29BB21BB203
:1034B000002B0DDA049B9B8A9BB24FEA43434FEAF1
:1034C00053439AB2049B9A82059B43F040030593B1
:1034D000059B002B1CD0019B059A9A60FCF7E8FE27
:1034E000FDF70EF9019BDB69002B0DD0019BDB6919
:1034F0000393019B4FF00002DA61039B6FF001021E
:103500009A620398FDF72CFBFDF712F9FCF7D8FE41
:1035100007B000BDAFF30080AFF30080AFF30080D1
:1035200008B5FDF71DF90448FFF71AFDFDF738F956
:10353000FCF7CEFE08BD00BF040E0020AFF30080F4
:1035400008B5FDF70DF90448FFF7DAFEFDF728F995
:10355000FCF7BEFE08BD00BF040E0020AFF30080E4
:1035600008B5FDF7FDF80448FFF7FAFCFDF718F978
:10357000FCF7AEFE08BD00BF5C0E0020AFF300807C
:1035800008B5FDF7EDF80448FFF7BAFEFDF708F9B6
:10359000FCF79EFE08BD00BF5C0E0020AFF300806C
:1035A00008B51048FEF76CFB0E4B4FF00002DA61D5
:1035B0000C4B0D4A1A630B4B0C4A9A62094B0C4A8E
:1035C000DA620C48FEF75CFB0A4B4FF00002DA614E
:1035D000084B094A1A63074B084A9A62054B084A86
:1035E000DA6208BD040E00200054004018530008A1
:1035F0000C5300085C0E00200058004000530008E7
:10360000F4520008AFF30080AFF30080AFF3008006
:1036100000B587B00190019B1B6B0593019B4FF098
:103620008A025A62019B1B78012B40F09080019A1C
:10363000634B9A4243D1634B624A126942F40012CF
:103640001A61604B4FF000021A61019B9A6A5E4B4F
:1036500010464FF00A011A46019BFEF7F9FE04904E
:10366000049B002B02D05948FDF732F9019BDA6A1E
:10367000574B10464FF00A011A46019BFEF7E8FE31
:103680000490049B002B02D05248FDF721F94D4BCA
:103690004C4AD26942F40012DA614FF01F004FF039
:1036A000A001FCF78DFE4FF020004FF0A001FCF7C9
:1036B00087FE019B5B6A43F48052019B5A62019A28
:1036C000454B9A4243D13F4B3E4A126942F4800235
:1036D0001A613C4B4FF000021A61019B9A6A3A4B07
:1036E00010464FF00A011A46019BFEF7B1FE039007
:1036F000039B002B02D03948FDF7EAF8019BDA6AF8
:10370000334B10464FF00A011A46019BFEF7A0FE0C
:103710000390039B002B02D03148FDF7D9F8294BC9
:10372000284AD26942F48002DA614FF021004FF05A
:10373000A001FCF745FE4FF022004FF0A001FCF77E
:103740003FFE019B5B6A43F48052019B5A62019BDE
:10375000DB6A1B68019A526A42F010021A60019BF0
:103760009B6A1B68019A526A1A60019B9B6A1B68DC
:10377000059A02F110029A60019BDB6A1B68059AA8
:1037800002F110029A60059B4FF400421A80059BDB
:103790004FF000021A80059B4FF410629A80019846
:1037A000FFF796FA0198FFF7A3FB059B1B889BB2D6
:1037B00043F001039AB2059B1A8007B000BD00BF19
:1037C000040E002000100240E1310008D85100082A
:1037D000A1320008EC5100085C0E002000520008E5
:1037E00014520008AFF30080AFF30080AFF3008005
:1037F00000B583B00190019B1B78012B30D001985C
:10380000FFF7FEF9019BDB6A1846FEF799FE019B64
:103810009B6A1846FEF794FE019A124B9A420DD10C
:103820004FF01F00FCF71CFE4FF02000FCF718FEC5
:103830000D4B0D4AD26922F40012DA61019A0B4B4A
:103840009A420DD14FF02100FCF70AFE4FF0220002
:10385000FCF706FE044B044AD26922F48002DA61C6
:1038600003B000BD040E0020001002405C0E0020DA
:1038700000B58BB00390019200930B46ADF80A306F
:10388000039B1B6B0993554BDA69039BDA61109B11
:10389000B3F1FF3F06D004AB18461099504A039B82
:1038A000FDF7B6F8FCF714FFFCF70AFD11E0FCF792
:1038B000FFFCFCF7F5FE109BB3F1FF3F05D0079B23
:1038C000002B02D14FF0FF3384E0FCF701FFFCF73F
:1038D000F7FC099B1B8B9BB203F00203002BE6D184
:1038E000099B1B889BB203F40073002BDFD1FCF70C
:1038F000DFFCFCF7D5FE109BB3F1FF3F05D0079B23
:10390000002B02D14FF0FF3364E0BDF80A304FEADC
:1039100043039AB2039B1A84039B4FF000029A6000
:10392000039B019A9A63039B009ADA63039B4FF00F
:1039300000021A64039B0E9A5A64039B0C9A9A64C1
:10394000039B0D9ADA64039B4FF000021A65039BF8
:103950000F9A5A65039B4FF0010283F83420099BAC
:103960001B889BB223F480739AB2099B1A80099B2F
:103970009B889BB223F400639AB2099B9A80BDF89E
:103980000A304FEA43039BB203F0FF039AB2099B4C
:103990001A81099B9B889BB243F4C0639AB2099B2E
:1039A0009A80099B1B889BB243F480639AB2099B5F
:1039B0001A800A4BDA69039BDA61109BB3F1FF3F6F
:1039C00006D0079B002B03D004AB1846FDF770F818
:1039D0004FF0000318460BB000BD00BF480D00209B
:1039E000912C0008AFF30080AFF30080AFF30080AC
:1039F00000B585B00190019B1B691B8AADF80E30A4
:103A0000019B1B699B899AB2BDF80E3002EA030341
:103A1000ADF80E30019B1B694FF6E0721A82BDF8BB
:103A20000E3003F00203002B04D0019B5B681B697E
:103A300001989847BDF80E3003F00403002B04D022
:103A4000019B5B689B6901989847BDF80E3003F0B5
:103A50000803002B04D0019B5B681B6A0198984700
:103A6000BDF80E3003F01003002B04D0019B5B68FF
:103A70009B6A01989847BDF80E3003F00103DBB252
:103A8000002B04D0019B5B689B680198984705B0A8
:103A900000BD00BFAFF30080AFF30080AFF3008044
:103AA00008B5FCF75DFE0448FFF7A2FFFCF778FEBF
:103AB000FCF70EFC08BD00BFB40E0020AFF3008081
:103AC00008B50448FEF7A4F9024B4FF080421A6192
:103AD00008BD00BFB40E0020AFF30080AFF300803C
:103AE00084B0019013460A468DF80320ADF80030EB
:103AF000019B19699DF80330BDF8002003F10C0308
:103B00004FEA8303CB185A60019B5A689DF8033033
:103B100003F101034FEAC303D3189B68002B2CD099
:103B2000019B1B699B899BB203939DF803304FF067
:103B3000020202FA03F31A46039B02EA0303002B74
:103B40001BD1019B1B699DF803204FF0020101FA74
:103B500002F291B2039A92B241EA020292B29A81BF
:103B6000019B1B699DF803204FF0020101FA02F24C
:103B700092B26FEA020292B21A8204B0704700BF9A
:103B800000B585B001900B46ADF802304FF0000350
:103B90000393BDF8023003F00803002B03D0039B0E
:103BA00043F080030393BDF8023003F00103DBB25E
:103BB000002B03D0039B43F020030393BDF8023096
:103BC00003F00203002B03D0039B43F04003039355
:103BD000BDF8023003F00403002B03D0039B43F431
:103BE00080730393FCF764FBFCF78AFD019B9A68E2
:103BF000039B1A43019B9A60019B03F1040318463F
:103C00004FF00001FDF7B4FBFCF792FDFCF758FB09
:103C100005B000BDAFF30080AFF30080AFF30080CC
:103C200000B587B00190019B1B6F0593059B9B8995
:103C3000ADF81230059B1B88ADF81030059B9B88B2
:103C4000ADF80E30BDF8103003F00F03002B05D097
:103C5000BDF8103001981946FFF792FFBDF81030FB
:103C600003F48073002B1DD0FCF722FBFCF748FD0A
:103C7000019B9B6843F40072019B9A60019B03F1D6
:103C8000040318464FF00001FDF772FBFCF750FDEE
:103C9000FCF716FB059B1B889BB223F480739AB23A
:103CA000059B1A80BDF8103003F02003002B0ED0C6
:103CB000FCF7FEFAFCF724FDBDF80E30DBB20198EC
:103CC0001946FEF7B5F9FCF733FDFCF7F9FABDF834
:103CD000123003F08003002B35D0BDF8103003F014
:103CE0008003002B2FD0FCF7E3FAFCF709FD019BC2
:103CF00003F130031846FDF713FD0290029B002BE1
:103D000019DA019B9B6843F00802019B9A60019BB2
:103D100003F1040318464FF00001FDF729FBBDF83D
:103D2000123023F0C0039BB243F040039BB29AB21F
:103D3000059B9A8103E0029B9AB2059B9A80FCF74F
:103D4000F7FCFCF7BDFABDF8103003F04003002B80
:103D500024D0FCF7ADFAFCF7D3FC019B9B6843F041
:103D60001002019B9A60019B03F1040318464FF077
:103D70000001FDF7FDFAFCF7DBFCFCF7A1FABDF84A
:103D8000123023F040039AB2059B9A81059B1B8851
:103D90009BB223F040039AB2059B1A8007B000BD86
:103DA00082B00190044B044A928992B242F08002A0
:103DB00092B29A8102B0704700480040AFF3008091
:103DC00008B5FCF7CDFC0448FFF72AFFFCF7E8FC38
:103DD000FCF77EFA08BD00BFC80E0020AFF30080DC
:103DE00008B505484FF00001044AFEF7E9F8024B18
:103DF000034A1A6708BD00BFC80E0020A13D000895
:103E000000480040AFF30080AFF30080AFF30080C4
:103E100082B00190214B214A926942F07D029A6161
:103E20001F4B019A1268DA601D4B019A92685A6022
:103E30001B4B019A52681A601A4B019AD268DA60D9
:103E4000184B019A52695A60164B019A12691A600E
:103E5000154B019A9269DA60134B019A126A5A6003
:103E6000114B019AD2691A60104B019A526ADA60BA
:103E70000E4B019AD26A5A600C4B019A926A1A60F0
:103E80000B4B019A126BDA60094B019A926B5A60E4
:103E9000074B019A526B1A6002B070470010024043
:103EA00000080140000C01400010014000140140D6
:103EB00000180140AFF30080AFF30080AFF3008043
:103EC0008AB0039002910192019B032B03D1039BC3
:103ED000029A1A6105E0019B042B02D1039B029A0E
:103EE0005A612E4A019BD3181B7804934FF00003AC
:103EF0000693069B0793079B0893089B09934FF033
:103F00000003059335E0089B4FEA03130893099BD0
:103F10004FEA03130993069B4FEA03130693079B8B
:103F20004FEA03130793029B03F08003002B04D195
:103F3000089B43F00F03089304E0069A049B42EAAF
:103F400003030693029B03F40043002B04D1099B57
:103F500043F00F03099304E0079A049B42EA03032A
:103F60000793029B4FEA43030293059B03F101036E
:103F70000593059B072BC6D9039B5A68099B1A40DA
:103F8000079B1A43039B5A60039B1A68089B1A40BD
:103F9000069B1A43039B1A600AB07047305300080F
:103FA00008B5FEF78DFB08BDAFF30080AFF30080CE
:103FB000704700BFAFF30080AFF30080AFF3008025
:103FC00008B5FDF7D5FCFCF7C3FA00F049F800F09E
:103FD000AFF800F0F5F900F03BFC00F049F900F013
:103FE0002FF94FF00003184608BD00BFAFF3008063
:103FF00000B583B00190164BDB69164A9A611648EA
:104000004FF400514FF00602FFF75AFF12484FF4E9
:1040100080414FF00602FFF753FF4FF0000000F021
:104020005FF84FF06400FCF7D3FF4FF0030000F09F
:1040300057F84FF06400FCF7CBFF084B1B7818468D
:1040400000F04EF84FF44870FCF7C2FFE5E700BF00
:10405000480D002070520008000C01403C0F002069
:1040600000B583B011484FF400514FF00602FFF73E
:1040700027FF0E484FF480414FF00602FFF720FF64
:104080000A4B4FF400525A61084B4FF480425A6178
:104090004FF00003009306484FF4D8714FF04002F0
:1040A000044BFCF75DFF03B000BD00BF000C0140F6
:1040B000400F0020F13F0008AFF30080AFF3008015
:1040C00000B583B00190019BDAB2044B1A70019BDA
:1040D0009BB2184600F004F803B000BD3C0F00206E
:1040E00082B00346ADF80630BDF8063003F0010398
:1040F000DBB2002B04D00D4B4FF400521A6103E0E9
:104100000A4B4FF400525A61BDF8063003F0020327
:10411000002B04D0054B4FF480421A6103E0034B9F
:104120004FF480425A6102B0704700BF000C01405A
:1041300008B54FF0000000F003F808BDAFF30080B1
:1041400000B583B00190019B002B04D0084B4FF4C5
:1041500080521A6103E0064B4FF480525A610448C2
:104160004FF480514FF00602FFF7AAFE03B000BDE6
:10417000000C0140AFF30080AFF30080AFF300808C
:1041800000B583B0019000910648FCF7B1FF064BE3
:10419000009A1A60054B019A1A60FDF741F803B0C6
:1041A00000BD00BFF010002000080020040800201F
:1041B00008B50548FCF79CFF044B1A68044B1A60CD
:1041C000FDF72EF808BD00BFF01000200408002005
:1041D00008080020AFF30080AFF30080AFF3008049
:1041E00000B583B00190019B002B0FD14FF0000070
:1041F000FFF7A6FF4FF0000000F00AF94FF00000B3
:1042000000F0E6F84FF00000FFF75AFF019B002B8B
:1042100001D100F08DFB019B002B0CBF002301237B
:104220009BB2184600F03CFA019B002B05D041F2EE
:104230008830FCF7CDFE00F03BFB03B000BD00BFB3
:1042400008B5084BDB69084A9A6100F029F8034673
:10425000002B01D000F03CF800F07AF800F038F8BC
:10426000FAE700BF480D002080520008AFF300803D
:1042700008B507484FF400414FF00202FFF720FE57
:104280000448FCF715FF4FF00000FFF7A9FF08BD39
:10429000000C0140F0100020AFF30080AFF300806D
:1042A000074B9B684FEAD33303F00103DBB2002BCB
:1042B00002D04FF0000301E04FF0010318467047B1
:1042C000000C0140AFF30080AFF30080AFF300803B
:1042D00000B583B04FF00100FFF782FF1748FCF7ED
:1042E00007FF174B1A68174B1A60FCF799FF02E09B
:1042F00000BF00E000BF4FF47A70FCF769FEFFF7E3
:10430000CFFF0346002BF3D10C48FCF7F1FE0D4B19
:104310001B680193FCF784FF019B03F1FF330193BA
:104320000648FCF7E5FE074B019A1A60FCF778FF98
:10433000019B002BDEDC00BF03B000BDF0100020AD
:104340000408002008080020AFF30080AFF30080CD
:1043500000B583B04FF00000FFF742FF1448FCF7B0
:10436000C7FE144B1A68144B1A60FCF759FF00E0A3
:1043700000BF4FF47A70FCF72BFE0D48FCF7B8FE37
:104380000D4B1B680193FCF74BFF019B03F1FF33BF
:1043900001930748FCF7ACFE074B019A1A60FCF743
:1043A0003FFF019B002BE3DC00BF03B000BD00BF5B
:1043B000F01000200008002008080020AFF3008063
:1043C00008B54FF0000000F003F808BDAFF300801F
:1043D00000B583B00346ADF80630BDF80630002BBB
:1043E00004D0094B4FF480721A6103E0064B4FF47E
:1043F00080725A6104484FF480714FF00602FFF753
:104400005FFD03B000BD00BF00080140AFF30080B6
:1044100000B583B00346ADF80630BDF8063003F0B2
:104420000103DBB2002B04D0294B4FF480521A61F8
:1044300003E0274B4FF480525A6125484FF48051D6
:104440004FF00602FFF73CFDBDF8063003F0020313
:10445000002B04D01E4B4FF400721A6103E01C4B7A
:104460004FF400725A611A484FF400714FF006027F
:10447000FFF726FDBDF8063003F00403002B04D03F
:10448000134B4FF480621A6103E0114B4FF48062CA
:104490005A610F484FF480614FF00602FFF710FD9C
:1044A000BDF8063003F00803002B04D0084B4FF48E
:1044B00000621A6103E0064B4FF400625A6104483F
:1044C0004FF400614FF00602FFF7FAFC03B000BDA5
:1044D00000080140AFF30080AFF30080AFF300802D
:1044E00000B585B0039002910192029B03F1040391
:1044F0001A885F4B1B889A4224D25E4B1A885E4B07
:104500001B88D3189AB25B4B1A805A4B1A8842F216
:1045100010739A4238BF13469AB2564B1A80574BC3
:104520001B89544A128802FB03F2554BA3FB02136A
:104530004FEA53339BB251484FF002011A46FFF73E
:10454000CFFA2BE0029B03F104031A88484B1B8827
:104550009A4223D9474B1A88474B1B889A4228BF57
:1045600013469AB2434B1A80424B1A88424B1B881F
:10457000D31A9AB23F4B1A80404B1B893D4A12888E
:1045800002FB03F23E4BA3FB02134FEA53339BB2F1
:104590003A484FF002011A46FFF7A2FA029B1A8826
:1045A000384B1B889A4259D3029B03F102031A88A5
:1045B000354B1B889A4224D2344B1A88344B1B88C3
:1045C000D3189AB2314B1A80304B1A8842F22833F2
:1045D0009A4238BF13469AB22C4B1A80274B1B893C
:1045E0002A4A128802FB03F2254BA3FB02134FEA6F
:1045F00053339BB221484FF001011A46FFF770FA7E
:1046000033E0029B03F102031A881F4B1B889A4276
:104610002BD91E4B1A881E4B1B889A4228BF134663
:104620009AB21A4B1A80194B1A88194B1B88D31A45
:104630009AB2164B1A80114B1B89144A128802FB3E
:1046400003F20F4BA3FB02134FEA53339BB20B4809
:104650004FF001011A46FFF743FA06E007484FF012
:1046600001014FF00002FFF73BFA05B000BD00BFAB
:1046700010080020001100200C080020B40E0020BB
:104680005917B7D114080020120800200211002089
:104690000E080020AFF30080AFF30080AFF300807E
:1046A00000B583B00346ADF80630FBF701FEFBF71B
:1046B000F7FFBDF80630002B04D0094B1A88094BD0
:1046C0001A8007E0074B1A88054B1A80054B4FF0FC
:1046D00000021A80FBF7FCFFFBF7F2FD03B000BD00
:1046E0000411002010080020AFF30080AFF3008019
:1046F00000B583B00346ADF80630FBF7D9FDFBF7F4
:10470000CFFF054BBDF806201A80FBF7E1FFFBF752
:10471000D7FD03B000BD00BF12080020AFF300803A
:1047200000B583B00346ADF80630FBF7C1FDFBF7DB
:10473000B7FF054BBDF806201A80FBF7C9FFFBF752
:10474000BFFD03B000BD00BF14080020AFF3008020
:1047500000B583B0174B1B78012B0CBF002301233E
:104760008DF807309DF80730002B05D111484FF028
:104770000001FDF745F902E00E48FDF701FA0D488A
:104780000D490E4A4FF00103FDF742FA9DF807303C
:10479000002B07D007480A490A4A4FF00203FDF7E9
:1047A0008FF902E00348FDF75BF9044B1B881846BC
:1047B00003B000BDD00D0020C0530008141100202C
:1047C0009053000808110020AFF30080AFF3008081
:1047D00000B583B0174B1B78012B0CBF00230123BE
:1047E0008DF807309DF80730002B05D111484FF0A8
:1047F0000001FDF705F902E00E48FDF7C1F90D488B
:104800000D490E4A4FF00103FDF702FA9DF80730FB
:10481000002B07D007480A490A4A4FF00203FDF768
:104820004FF902E00348FDF71BF9044B1B881846BB
:1048300003B000BDD00D0020F05300081611002079
:104840009053000808110020AFF30080AFF3008000
:1048500000B583B011484FF040014FF01102FFF74F
:104860002FFB0E484FF080014FF01102FFF728FB9D
:104870000B480C494FF018024FF00003FCF7C0FD45
:104880004FF00003009308484FF496614FF0400248
:10489000064BFCF765FB03B000BD00BF000C0140F8
:1048A000301100205011002068110020C14900087B
:1048B00000B587B0164B4FF4FA721A6015481649C6
:1048C000FDF7F6F9124B1B68144A00924FF01002E4
:1048D0000192134A0292134A039204930D484FF037
:1048E0000101114A4FF00803FDF74AFA02460F4B47
:1048F0001A600E4B1B68002B07D00648FDF710FA14
:104900004FF4FA60FCF764FBD8E707B000BD00BFC6
:1049100034160020040E0020205400081811002036
:1049200041490008B149000828110020381600202C
:1049300008B50248FDF7F4F908BD00BF040E0020D9
:1049400000B583B00190FBF7B3FCFBF7D9FE134B26
:104950004FF000021A6014E0104B1B68104AD35C41
:1049600010481946FCF774FD02460F4B1A600E4BB7
:104970001B68002B0AD1094B1B6803F10102074B8E
:104980001A60064B1B68072BE6D900E000BFFBF757
:10499000CFFEFBF795FC03B000BD00BF2C16002036
:1049A000281100203011002030160020AFF30080C5
:1049B00082B0019002B07047AFF30080AFF3008087
:1049C00000B583B00190594BDB69594A9A6100E008
:1049D00000BF584858494FF008024FF0FF33FCF72A
:1049E000C7FD0246554B1A60534B03F10102544B6D
:1049F0001A60514B1B7803F1FF33112BE8D801A249
:104A000052F823F04D4A0008694A00086F4A00082E
:104A1000754A0008A54A0008D54A0008E34A00087C
:104A2000F14A0008FF4A00080D4B00081B4B000824
:104A3000294B0008294B0008294B0008294B000886
:104A4000294B0008294B0008294B00083C4B1B68E8
:104A50001B881A463A4B1B6803F102031B88104659
:104A60001946FFF78DFB60E0FFF7A2FB5DE0FFF763
:104A70009FFB5AE0FFF7ACFE03461A46314B1A8003
:104A8000304B1B88DAB2304B5A702E4B1B884FEAE2
:104A900013239BB2DAB22C4B9A702B4B4FF00402CB
:104AA0001A7042E0FFF754FE03461A46254B1A805F
:104AB000244B1B88DAB2244B5A70224B1B884FEAD6
:104AC00013239BB2DAB2204B9A701F4B4FF00502B2
:104AD0001A702AE01A4B1B681B881846FFF720FE45
:104AE00023E0174B1B681B881846FFF701FE1CE0EC
:104AF000134B1B681B881846FFF76AFC15E0104B28
:104B00001B681B881846FFF783FC0EE00C4B1B68E4
:104B10001B881846FFF714FB07E0094B1B681B882E
:104B20001846FFF7CDFA00E000BF52E7480D00201D
:104B30009052000830110020181600202016002086
:104B4000241600202816002018110020AFF3008042
:104B500069646C65000000006D61696E0000000012
:104B6000535623310000000053562332000000004A
:104B70005356233300000000535623340000000036
:104B80005356233500000000535623360000000022
:104B9000535623370000000053562338000000000E
:104BA00053562339000000005356233130000000D3
:104BB00053562331310000000000000000000000C7
:104BC0002263685654536574492228290000000066
:104BD000226368565452657365744922282900007F
:104BE0006368565452657365744928292C20233113
:104BF00000000000000000000000000000000000B5
:104C0000636853636852656164794928292C2023BD
:104C100031000000737461636B206F766572666C9F
:104C20006F7700000000000000000000000000009E
:104C30002263685468644372656174654922282957
:104C40000000000022636854686453657450726900
:104C50006F72697479222829000000006368546823
:104C600064526573756D6528292C2023310000007E
:104C7000226368546864536C6565702228290000BB
:104C80006368546864457869745328292C2023315B
:104C90000000000022636854686457616974222828
:104CA0002900000063685468645761697428292CDE
:104CB0002023310063685468645761697428292C83
:104CC000202332000000000000000000000000006F
:104CD0002263684D7478496E6974222829000000A7
:104CE0002263684D74784C6F636B5322282900004F
:104CF00063684D74784C6F636B5328292C202331E3
:104D00000000000063684D74784C6F636B53282972
:104D10002C202332000000002263684D7478547206
:104D2000794C6F636B5322282900000063684D742F
:104D300078556E6C6F636B28292C2023310000009E
:104D400063684D7478556E6C6F636B28292C202333
:104D50003200000063684D7478556E6C6F636B535E
:104D600028292C202331000063684D7478556E6C1F
:104D70006F636B5328292C202332000000000000B1
:104D800022636845767452656769737465724D6114
:104D9000736B222829000000226368457674556EE3
:104DA00072656769737465722228290022636845F9
:104DB00076745369676E616C222829002263684506
:104DC00076745369676E616C4922282900000000DF
:104DD00022636845767442726F6164636173744DD7
:104DE00061736B49222829002263684576744469FF
:104DF0007370617463682228290000006368457637
:104E000074446973706174636828292C202331000D
:104E100022636849515265616454696D656F7574A8
:104E2000222829002263684F5157726974655469BA
:104E30006D656F75742228290000000000000000D5
:104E40002261646353746172742228290000000097
:104E5000616463537461727428292C20233100002B
:104E60002261646353746F70222829006164635364
:104E7000746F7028292C20233100000022616463A4
:104E80005374617274436F6E76657273696F6E49A5
:104E9000222829006164635374617274436F6E76D3
:104EA000657273696F6E4928292C20233100000038
:104EB0002261646353746F70436F6E7665727369B9
:104EC0006F6E22282900000061646353746F704381
:104ED0006F6E76657273696F6E28292C20233100FE
:104EE0002261646353746F70436F6E766572736989
:104EF0006F6E49222829000061646353746F704308
:104F00006F6E76657273696F6E4928292C20233184
:104F100000000000616463436F6E76657274282937
:104F20002C2023310000000022616463416371750D
:104F3000697265427573222829000000226164634A
:104F400052656C6561736542757322282900000003
:104F500022693263537461727422282900000000B0
:104F6000693263537461727428292C202331000044
:104F70002269326353746F702228290069326353A7
:104F8000746F7028292C20233100000022693263BD
:104F90004765744572726F72732228290000000001
:104FA000226932634D61737465725472616E736D00
:104FB000697454696D656F757422282900000000BA
:104FC0006932634D61737465725472616E736D6999
:104FD0007454696D656F757428292C202331000085
:104FE000226932634D6173746572526563656976D7
:104FF0006554696D656F7574222829006932634DA7
:1050000061737465725265636569766528292C2021
:105010002331000022693263416371756972654210
:1050200075732228290000002269326352656C657D
:10503000617365427573222829000000000000009A
:105040002273645374617274222829007364537448
:1050500061727428292C20233100000022736453CC
:10506000746F702228290000736453746F702829AC
:105070002C20233100000000227364496E636F6DA1
:10508000696E674461746149222829002273645261
:105090006571756573744461746149222829000043
:1050A00022646D61416C6C6F636174652228290014
:1050B00022646D6152656C65617365222829000068
:1050C000646D6152656C6561736528292C202331FC
:1050D00000000000000000000000000000000000D0
:1050E0006164635F6C6C645F737461727428292CF3
:1050F000202331000000000000000000000000003C
:10510000226932635F6C6C645F7365745F636C6F9C
:10511000636B2228290000006932635F6C6C645F56
:105120007365745F636C6F636B28292C20233100D7
:105130006932635F6C6C645F7365745F636C6F632B
:105140006B28292C202332006932635F6C6C645F0A
:105150007365745F636C6F636B28292C20233300A5
:105160006932635F6C6C645F7365745F636C6F63FB
:105170006B28292C202334006932635F6C6C645FD8
:105180007365745F636C6F636B28292C2023350073
:105190006932635F6C6C645F7365745F636C6F63CB
:1051A0006B28292C202336006932635F6C6C645FA6
:1051B0007365745F636C6F636B28292C2023370041
:1051C0006932635F6C6C645F7365745F636C6F639B
:1051D0006B28292C202338006932635F6C6C645F74
:1051E000737461727428292C202331006932635F43
:1051F0006C6C645F737461727428292C20233200F4
:105200006932635F6C6C645F737461727428292CFB
:10521000202333006932635F6C6C645F7374617266
:105220007428292C20233400226932635F6C6C645B
:105230005F6D61737465725F726563656976655FE2
:1052400074696D656F7574222829000022693263C4
:105250005F6C6C645F6D61737465725F7472616EB4
:10526000736D69745F74696D656F757422282900A8
:1052700070777200000000000000000000000000D5
:1052800070000000000000000000000000000000AE
:1052900065000000000000000000000000000000A9
:1052A000311E0008611E0008911E0008B11E000892
:1052B000D11E0008011F0008211F0008511F00080F
:1052C000811F000800000000000000000000000036
:1052D000080002400400024000000B001C000240D5
:1052E0000400024004010C003000024004000240AF
:1052F00008020D0044000240040002400C030E00AE
:10530000580002400400024010040F006C000240EC
:105310000400024014051000800002400400024016
:10532000180611000000000000000000000000004E
:105330000402040808000307080808080808080809
:105340000B0F000000000000000000000000000043
:10535000FFFFFFFF844B888888888888FFFFFFFF56
:10536000888888888888B8B4FFFFFFFF88888444CD
:1053700088338388FFFFFFFF44888888888888886F
:10538000FFFFFFFF888888888888888800000000E1
:105390000100000003000000E144000800000000DC
:1053A00000000000000000000000000000240100D8
:1053B0000000200000000000831400000000000036
:1053C00000000000010000000000000000000000DC
:1053D00000000000000000000000000000000800C5
:1053E00000000000000000000600000000000000B7
:1053F00000000000010000000000000000000000AC
:10540000000000000000000000000000000040005C
:105410000000000000000000070000000000000085
:0C54200001000000A08601000100000057
:10543000302A0000B4000000B4000000E803E803D4
:085440001408F40BC90600007A
:04000005080000F0FF
:00000001FF
