:020000040800F2
:100000000004002031020008F1020008F10200089B
:10001000F1020008F1020008F1020008F1020008F4
:10002000F1020008F1020008F10200084103000893
:10003000F1020008F1020008F102000811030008B3
:10004000F1020008F1020008F1020008F1020008C4
:10005000F1020008F1020008F1020008F1020008B4
:10006000F1020008F1020008F1020008E125000891
:100070003126000881260008D12600082127000823
:1000800071270008C1270008F1020008F1020008EA
:10009000F1020008F1020008F1020008F102000874
:1000A000F1020008F1020008F1020008F102000864
:1000B00001300008F1020008F1020008F102000816
:1000C000F1020008F1020008F1020008F102000844
:1000D000F1020008F1020008F1020008D135000821
:0C00E000F1020008F1020008F102000823
:1000F00040F60003C2F2000370B41D6810F8013B23
:10010000EC181A46647804F00304012C11F8014B32
:1001100008BF03F120022E192346767806F0030665
:10012000012E08BF04F12003D21A01D1002BE5D122
:10013000104670BC704700BF0000000000000000C7
:10014000F0B40478002C20D00F78064630468FB1EA
:10015000A7421CD04B1C01E0944211D01D4613F85D
:10016000012B002AF8D17478701C44B10646304641
:10017000002FEDD174780D46701C002CF6D12A7832
:10018000002A08BF0020F0BC70472046FBE73A4633
:10019000F6E700BF000000000000000000000000C3
:1001A000F0B40646047874B10F780546064657B198
:1001B000BC4218BF0A4602D108E09C4206D012F8A1
:1001C000013F002BF9D1301AF0BC70476C786E1CDF
:1001D000002CF8D03546EBE70000000000000000DE
:1001E000704700BFAFF30080AFF30080AFF3008033
:1001F000FEE700BFAFF30080AFF30080AFF30080F5
:1002000084B003900291019206E0039B019A1A6068
:10021000039B03F104030393039A029B9A42F4D3D2
:1002200004B07047AFF30080AFF30080AFF30080FD
:1002300072B6204C84F309884FF0020484F31488CA
:10024000BFF36F8F03F0E4FA1B481C494FF055329F
:10025000FFF7D6FF1A4817494FF05532FFF7D0FF86
:10026000184D194C05E02B68236004F1040405F1D6
:100270000405164B9C42F6D3154816494FF0000270
:10028000FFF7BEFFFFF7ACFF134C03E0236898476E
:1002900004F10404114B9C42F8D304F071F8104CA3
:1002A00003E02368984704F104040E4B9C42F8D302
:1002B000FFF79EFF0008002000000020000400203F
:1002C00000040020B8530008000800206408002043
:1002D00068080020A8100020EC000008EC000008CE
:1002E000EC000008EC000008AFF30080AFF30080E2
:1002F000FEE700BFAFF30080AFF30080AFF30080F4
:1003000072B6FEE7AFF30080AFF30080AFF300807A
:1003100008B500F065FA00F043F800F031FA00F09B
:100320009FF900F045FA00F043F800F079FA00F088
:1003300047F808BDAFF30080AFF30080AFF3008053
:1003400010B582B0EFF309840194019B03F12003FF
:100350000193019B83F3098800F02AF802B010BDD5
:1003600008B50D4B4FF000029A600B4B0B4ADA6058
:100370004FF007004FF0100100F0EAF84FF00A00CC
:100380004FF4007100F0E4F84FF00B004FF08001E3
:1003900000F0DEF808BD00BF00ED00E00000FA0547
:1003A0004FF0200383F31188704700BFAFF3008044
:1003B0004FF0000383F31188704700BFAFF3008054
:1003C00010B582B0FFF7ECFF1E4B5B6803F40063CF
:1003D000002B32D0EFF309840194019BA3F1200399
:1003E0000193019B83F30988019B4FF08072DA61CE
:1003F000154B9B69002B0BD0134B1B689A68124B53
:10040000DB699B689A4294BF00230123DBB20AE0B8
:100410000D4B1B689A680C4BDB699B689A4234BF92
:1004200000230123DBB2002B03D0019B074A9A6112
:1004300005E0019B064A9A6101E0FFF7B9FF02B0AF
:1004400010BD00BF00ED00E0980D00206104000821
:100450006C040008AFF30080AFF30080AFF30080BE
:1004600000F05EF900F0DCFC00F072F900DF00BF84
:1004700003460A462DE9F04FC2F80CD0D3F80CD051
:10048000BDE8F08FAFF30080AFF30080AFF30080E2
:1004900008B500F05DF9FFF78BFF2846A04700F094
:1004A000F7FD08BDAFF30080AFF30080AFF300802D
:1004B00010B485B001900091019B03F003034FEA53
:1004C000C30303931E4B019A4FEA92021C49019801
:1004D0004FEA900000F1C00051F8200003994FF05E
:1004E000FF0404FA01F16FEA010108400399009C3E
:1004F00004FA01F140EA010102F1C00243F82210BE
:100500000F4B019A4FEA5212019901F01F014FF06F
:10051000010000FA01F102F1600243F82210084BD9
:10052000019A4FEA5212019901F01F014FF00100A8
:1005300000FA01F143F8221005B010BC704700BF6B
:1005400000E100E0AFF30080AFF30080AFF3008084
:1005500010B485B001900091019B03F003034FEAB2
:10056000C3030393104B019A4FEA92020E4901987C
:100570004FEA900000F1060051F8200003994FF077
:10058000FF0404FA01F16FEA010108400399009C9D
:1005900004FA01F140EA010102F1060243F82210D7
:1005A00005B010BC704700BF00ED00E0AFF3008065
:1005B00082B00190024BDB69024A9A61FEE700BFFC
:1005C000980D0020E0470008AFF30080AFF30080F3
:1005D00000B583B0FFF7C4FE00F0E2FA00F040FA85
:1005E00001F02EFA01F09CFA00F06AF914484FF07D
:1005F000400100F04DFC0246124BDA61114BDB6901
:100600004FF0010283F820200E4BDB690E4ADA61BD
:1006100000F06EF84FF0000383F3118862B6094BC7
:10062000DB690A4A9A610A4B4FF0000200920948BE
:100630004FF0C0014FF0010200F0D2FC03B000BD4A
:1006400028090020980D002000040020E847000839
:10065000B105000868080020AFF30080AFF3008008
:1006600000B583B000F0FCF81F4B9B69002B05DD43
:100670001D4B9B6903F1FF321B4B9A611A4BDB69DF
:100680005A6A02F101025A62184BDB6803F1010257
:10069000164BDA60154B1B681A46144B9A4221D050
:1006A000124B1B689A6802F1FF329A6013E0019BBB
:1006B000DB680093019B4FF00002DA60019B1B682E
:1006C0000A4A5A60019B1A68084B1A60019B1A6912
:1006D000009B10469847054B1B680193019B9B6844
:1006E000002BE4D003B000BD980D0020880D002041
:1006F00008B5064B1B68002B03D1054B1B68002B6C
:1007000002D0044800F024F908BD00BF740900209D
:100710007809002000480008AFF30080AFF30080A4
:1007200008B5084B1B68002B03D1074B1B68002B37
:1007300002D0064800F00CF9034B4FF001021A609A
:1007400008BD00BF7409002078090020084800088F
:1007500008B5084B1B68002B03D1074B1B68002B07
:1007600002DC064800F0F4F8034B4FF000021A6078
:1007700008BD00BF74090020780900201048000857
:1007800008B5084B1B68002B03DD074B1B68002BCB
:1007900002D0064800F0DCF8034B4FF001021A606B
:1007A00008BD00BF7409002078090020184800081F
:1007B00008B5084B1B68002B03DD074B1B68002B9B
:1007C00002DC064800F0C4F8034B4FF000021A6048
:1007D00008BD00BF740900207809002020480008E7
:1007E00008B5FFF7DDFD0A4B1B68002B03DB094B47
:1007F0001B68002B02D0084800F0AAF8044B1B68C5
:1008000003F10102024B1A60FFF7D2FD08BD00BFE1
:10081000740900207809002028480008AFF3008000
:1008200008B5FFF7BDFD0A4B1B68002B03DD094B24
:100830001B68002B02D0084800F08AF8044B1B68A4
:1008400003F1FF32024B1A60FFF7B2FD08BD00BF93
:10085000740900207809002030480008AFF30080B8
:1008600008B5064B1B68002B03DB054B1B68002BF0
:1008700002DC044800F06CF808BD00BF74090020D9
:100880007809002038480008AFF30080AFF30080FB
:1008900008B5064B1B68002B03D1054B1B68002BCA
:1008A00002DC044800F054F808BD00BF74090020C1
:1008B0007809002040480008AFF30080AFF30080C3
:1008C000034B4FF040021A60014B024A5A607047D6
:1008D0007C09002084090020AFF30080AFF3008082
:1008E00082B00190124B5B68124AD2681A60104BBA
:1008F0005B68114AD2695A600D4B5B68019A926A33
:100900009A600B4B5B68019A92F820201A73084B8F
:100910005B6803F11002064B5A60054B5A68074B9F
:100920009A4202D3024B064A5A6002B0704700BF97
:100930007C090020880D0020980D0020840D0020E7
:1009400084090020AFF30080AFF30080AFF3008094
:1009500000B583B00190034B019A1A60FFF7D0FCF9
:1009600003B000BD840D0020AFF30080AFF3008022
:1009700084B001900091009B0393039B1B68039339
:10098000009B039A9A4205D0039B9A68019B9B683F
:100990009A42F2D2019B039A1A60039B5A68019B08
:1009A0005A60019B5B68039A01995160039A5268EF
:1009B0001A6004B0704700BFAFF30080AFF300804F
:1009C00082B001900091009A019B1A60009B5A68C6
:1009D000019B5A60019B5B68009A01995160009AE3
:1009E00052681A6002B07047AFF30080AFF3008026
:1009F00084B00190019B1B680393039B1A68019BC1
:100A00001A60019B1B68019A5A60039B184604B048
:100A1000704700BFAFF30080AFF30080AFF30080FA
:100A200082B00190019B5B68019A12681A60019B79
:100A30001B68019A52685A60019B184602B07047C1
:100A400084B00190019B1B680393039B1A68019B70
:100A50001A60039B184604B0704700BFAFF30080D4
:100A6000074A074B5A60064B5A68054B1A60044BFD
:100A70004FF0FF329A60024B4FF00002DA6070478D
:100A8000880D0020AFF30080AFF30080AFF300804B
:100A900000B587B00390029101920093FFF7E0FE4A
:100AA000039B002B05D0019B002B02D0029B002B47
:100AB00002D11C48FFF74CFF039B009A1A61039B6D
:100AC000019ADA60184B1B68059307E0059B9B6849
:100AD000029AD31A0293059B1B680593059B9A689B
:100AE000029B9A42F2D3039B059A1A60039B1B68F0
:100AF0005A68039B5A60039B5B68059A039951608F
:100B0000059A52681A60039B029A9A60059A064BEE
:100B10009A4205D0059B9A68029BD21A059B9A605F
:100B200007B000BD50480008880D0020AFF30080DA
:100B300000B583B00190FFF793FE019B002B02D11B
:100B40001348FFF705FF019BDB68002B02D111481A
:100B5000FFF7FEFE019B1A680F4B9A4208D0019BDB
:100B60001B68019A12689168019A92688A189A60C3
:100B7000019B5B68019A12681A60019B1B68019ACD
:100B800052685A60019B4FF00002DA6003B000BD6A
:100B90006048000870480008880D0020AFF300800E
:100BA0000B4A0B4B5A600A4B5A68094B1A60084BA8
:100BB0004FF000029A60064B4FF014029A61044A0B
:100BC000034B5A61024B5A69014B1A61704700BFCF
:100BD000980D0020AFF30080AFF30080AFF30080EA
:100BE00000B585B00190019B93F82030002B04D014
:100BF000019B93F820300E2B02D11348FFF7A8FE7B
:100C0000019B4FF0000283F82020104B0393039BBD
:100C10001B680393039B9A68019B9B689A42F6D2D8
:100C2000019B039A1A60039B5A68019B5A60019BBF
:100C30005B68039A01995160039A52681A60019B9C
:100C4000184605B000BD00BF90480008980D002070
:100C500000B585B003468DF80730FFF719FE164B37
:100C6000DB690393039B9DF8072083F82020124B38
:100C70004FF014029A611048FFF7BAFE02460E4B7D
:100C8000DA610D4BDB694FF0010283F820200398F5
:100C9000FFF726FE6B46A3F12402039BDB699A4211
:100CA00002D20648FFF754FE034BDB69184603994E
:100CB000FFF7DEFB05B000BD980D0020A44800083A
:100CC00000B585B00190019B0393039B93F82030FE
:100CD0000D2B28D801A252F823F000BF370D0008D1
:100CE000270D0008270D0008150D0008270D000826
:100CF000210D0008270D0008270D0008270D00080A
:100D0000270D0008270D0008270D0008270D0008F3
:100D1000210D0008039B9B6A9A6802F101029A6008
:100D20000398FFF77DFE039B4FF0FF329A62039812
:100D3000FFF756FF00E000BF05B000BDAFF3008035
:100D400000B589B0034600918DF80730FFF7A0FD8C
:100D5000009BB3F1FF3F14D00F4BDB6903AA104691
:100D600000990E4AFFF794FE9DF807301846FFF7EA
:100D70006FFF069B002B09D003AB1846FFF7D8FE88
:100D800004E09DF807301846FFF762FF024BDB696D
:100D90009B6A184609B000BD980D0020C10C0008E0
:100DA00000B585B001900091FFF772FD019B009A9C
:100DB0009A62019B9A68174BDB699B689A4203D839
:100DC0000198FFF70DFF22E0124BDB691846FFF791
:100DD00007FF03900F4B4FF014029A610D4B019ADD
:100DE000DA61019B4FF0010283F820200398FFF79E
:100DF00077FD6B46A3F12402039BDB699A4202D282
:100E00000548FFF7A5FD01980399FFF731FB05B0F1
:100E100000BD00BF980D0020A4480008AFF300807B
:100E200000B583B0154B4FF014029A61134BDB6988
:100E300001931248FFF7DCFD0246104BDA610F4BBD
:100E4000DB694FF0010283F820200198FFF7C8FE0C
:100E50000198FFF745FD6B46A3F12402019BDB6976
:100E60009A4202D20648FFF773FD044BDB6918462D
:100E70000199FFF7FDFA03B000BD00BF980D0020F7
:100E8000A4480008AFF30080AFF30080AFF3008008
:100E900082B001900091019B009A9A60019B4FF0F3
:100EA000020283F82020019B4FF0000283F82120EA
:100EB000019B009A5A64019B4FF000021A64019B47
:100EC0004FF00002DA63019B4FF000025A62019B6F
:100ED0004FF0010283F82220019B4FF000029A613B
:100EE000134A019B1A61124B5A69019B5A61019B7B
:100EF0005B690F4A019951610D4A52691A61019B60
:100F000003F12C031A46019BDA62019B03F13003C3
:100F10001A46019B5A63019B5A6B019B1A63019B02
:100F200003F14C02019BDA61019B184602B0704745
:100F3000980D0020AFF30080AFF30080AFF3008086
:100F400084B00390029113468DF8073007E0039BAD
:100F50009DF807201A70039B03F101030393039A82
:100F6000029B9A42F3D304B0704700BFAFF30080F6
:100F700000B587B00390029101920093039B059303
:100F8000FFF76EFC039B002B08D0029BAF2B05D90B
:100F9000019B7F2B02D8009B002B02D10E48FFF74C
:100FA000D7FC039A029BA3F12403D218059BDA60B5
:100FB000059BDB68009A1A60059BDB68089A5A60FB
:100FC000059BDB68054A1A6205980199FFF760FFE7
:100FD0000346184607B000BDC04800089104000849
:100FE00000B589B00590049103920293059A059B80
:100FF00003F14C03104619464FF0FF02FFF7A0FF24
:10100000059B03F14C020599049BCB181046194629
:101010004FF05502FFF794FFFFF7C2F9FFF780FB8F
:101020000A9B009305980499039A029BFFF7A0FF7F
:10103000079007984FF00001FFF7B2FEFFF788FB1B
:10104000FFF7B6F9079B184609B000BDAFF3008063
:1010500000B583B00190019B002B02D10848FFF737
:1010600077FCFFF79DF9FFF75BFB4FF00600019956
:10107000FFF766FEFFF76CFBFFF79AF903B000BDC0
:1010800000490008AFF30080AFF30080AFF30080A9
:1010900000B583B00190FFF783F9FFF741FB01989A
:1010A00000F006F803B000BDAFF30080AFF300809E
:1010B00000B585B00190194BDB690393039B019A3E
:1010C0009A6209E0039B03F12C031846FFF7B8FC72
:1010D00003461846FFF784FD039BDA6A039B03F17E
:1010E0002C039A42EED1039B93F8213003F00303C3
:1010F000002B09D1039B5B69039A12691A61039B58
:101100001B69039A52695A614FF00E00FFF7A0FD68
:101110000348FFF71DFC05B000BD00BF980D00207F
:1011200010490008AFF30080AFF30080AFF30080F8
:1011300000B585B00190FFF733F9FFF7F1FA019B95
:1011400093F82230002B02D12448FFF701FC019BC9
:1011500093F8223003F1FF33DAB2019B83F82220A7
:10116000019B93F822308DF80F30FFF7F1FAFFF76B
:101170001FF99DF80F30002B2DD1019B93F82030E3
:101180000E2B28D1019B93F8213003F00303012B90
:1011900002D0022B0ED01EE0019B5B69019A1269FE
:1011A0001A61019B1B69019A52695A61019800F00A
:1011B0004FFD10E0019B5B69019A12691A61019B66
:1011C0001B69019A52695A61019B9B6C18460199EF
:1011D00000F026FE00BF05B000BD00BF7449000846
:1011E00000B589B005900491039202930598049983
:1011F00000F0AEFC0790079B002B02D14FF00003DC
:1012000031E0079A079B03F14C03104619464FF053
:10121000FF02FFF795FE079B03F14C020799049B21
:10122000CB18104619464FF05502FFF789FEFFF71D
:10123000B7F8FFF775FA0A9B009307980499039A89
:10124000029BFFF795FE0690069B4FF0010283F884
:10125000212006984FF00001FFF7A2FDFFF778FA72
:10126000FFF7A6F8069B184609B000BDAFF3008053
:1012700000B583B00190019B002B02D10848FFF715
:1012800067FB019B1A46019B5A60019B5A68019BB0
:101290001A60019B4FF000029A6003B000BD00BFCE
:1012A000B0490008AFF30080AFF30080AFF30080D7
:1012B00000B583B00190FFF773F8FFF731FA01989A
:1012C00000F006F8FFF744FAFFF772F803B000BD2C
:1012D00000B585B001903C4BDB690293FFF7D8FA6B
:1012E000019B002B02D13948FFF732FB019B9B6821
:1012F000002B5CD0019B9B68039335E0029B9A68AE
:10130000039B9A60039B93F82030042B04D0052B99
:1013100011D0002B1AD02DE00398FFF781FB024675
:10132000039B9B6A10461946FFF722FB039B9B6AAF
:101330009B68039318E00398FFF772FB0246039B38
:101340009B6A10461946FFF713FB0CE0039B4FF016
:10135000010283F820200398FFF762FB034618463A
:10136000FFF73EFC00BF05E0039B9A68029B9B6869
:101370009A42C3D3019B02981946FFF7F9FA029BE0
:10138000019A9A624FF00400FFF762FC019B9A6891
:10139000029B9A4202D00E48FFF7DAFA029B1A6CBF
:1013A000019B9A420DD00B48FFF7D2FA09E0019B4E
:1013B000029A9A60029B1A6C019BDA60029B019A66
:1013C0001A6405B000BD00BF980D0020C049000898
:1013D000D0490008E4490008AFF30080AFF3008073
:1013E00000B587B0314BDB690393FEF7D9FFFFF7F8
:1013F00097F9039B1B6C002B02D12D48FFF7A8FA2D
:10140000039B1B6C9A68039B9A4202D02948FFF702
:101410009FFA039B1B6C0293029BDA68039B1A647E
:10142000029B1A68029B9A4233D0039B5B6C049325
:10143000039B1B6C059311E0059B1A68059B9A4260
:1014400009D0059B1B689A68049B9A4203D9059BA7
:101450001B689B680493059BDB680593059B002B29
:10146000EAD1039B049A9A60029B1846FFF7C0FAE0
:101470000190029B019A9A60019B1A6C029BDA60B0
:10148000019B029A1A6401984FF00001FFF788FC53
:1014900003E0029B4FF000029A60FFF759F9FEF754
:1014A00087FF029B184607B000BD00BF980D0020C3
:1014B0000C4A0008204A0008AFF30080AFF3008018
:1014C00000B583B001900091FFF7CAF9019B002B92
:1014D00002D11648FFF73CFA019BDA6B009B1A43D6
:1014E000019BDA63019B93F82030082B07D1019B05
:1014F000DA6B019B9B6A02EA0303002B0DD1019B6F
:1015000093F82030092B0FD1019BDA6B019B9B6A6A
:101510001A40019B9B6A9A4206D10198FFF760FB33
:1015200003464FF000029A6203B000BD9C4A0008D7
:1015300000B585B001900091FFF792F9019B002B57
:1015400002D10D48FFF704FA019B1B6803930DE0DD
:10155000039B5A68039B9968009B41EA030310466A
:101560001946FFF7ADFF039B1B680393019B039A8A
:101570009A42EDD105B000BDB04A0008AFF300803B
:1015800000B583B001900091009B002B02D14FF079
:10159000FF3310E0094BDB69019A9A62074BDA6965
:1015A000019B10461946FFF70BFA4FF00D0000990A
:1015B000FFF7C6FB0346184603B000BD980D002098
:1015C00084B00390029101920093039B1A46039BFF
:1015D0005A60039B5A68039B1A60039B4FF00002FA
:1015E0009A60039B029A5A61039B5A69039B9A6112
:1015F000039B9A69039BDA60029A019BD218039BB2
:101600001A61039B009ADA6104B07047AFF300805F
:1016100000B583B001900B468DF80330FFF720F939
:10162000019B5A69019B9B699A4206D1019B9B6869
:10163000002B02D06FF003032BE0019B9B6803F1AA
:101640000102019B9A60019B5B699DF803201A705F
:1016500003F10102019B5A61019B5A69019B1B69BD
:101660009A4203D3019BDA68019B5A61019B1A6875
:10167000019B9A420BD0019B1846FFF7B9F903462C
:101680001846FFF7ADFA03464FF000029A624FF09A
:101690000003184603B000BDAFF30080AFF3008035
:1016A00000B585B001900091FEF77AFEFFF738F89B
:1016B000019BDB69002B12D0019BDB6901989847E5
:1016C0000EE001980099FFF75BFF0390039B002B4E
:1016D00006DAFFF73DF8FEF76BFE039B23E000BF41
:1016E000019B9B68002BECD0019B9B6803F1FF32B0
:1016F000019B9A60019B9B691A788DF80B2003F17E
:101700000102019B9A61019B9A69019B1B699A42A4
:1017100003D3019BDA68019B9A61FFF719F8FEF782
:1017200047FE9DF80B30184605B000BDAFF30080B2
:1017300000B587B00390029101920093039BDB698F
:1017400004934FF000030593019B002B02D12B481B
:10175000FFF7FEF8FEF724FEFEF7E2FF049B002BE6
:1017600010D0049B039898470DE003980099FFF769
:1017700007FF0346002B06D0FEF7EAFFFEF718FE30
:10178000059B37E000BF039B9B68002BEDD0039BBC
:101790009B6803F1FF32039B9A60039B9B69197856
:1017A000029A1170029A02F10102029203F10102FF
:1017B000039B9A61039B9A69039B1B699A4203D31B
:1017C000039BDA68039B9A61FEF7C2FFFEF7F0FD08
:1017D000059B03F101030593019B03F1FF33019383
:1017E000019B002B01D1059B04E0FEF7D9FDFEF71C
:1017F00097FFB3E7184607B000BD00BFF04A0008E6
:1018000084B00390029101920093039B1A46039BBC
:101810005A60039B5A68039B1A60039B019A9A6063
:10182000039B029A5A61039B5A69039B9A61039B2B
:101830009A69039BDA60029A019BD218039B1A6192
:10184000039B009ADA6104B0704700BFAFF30080D9
:1018500000B587B003900B4601928DF80B30FEF770
:101860009FFDFEF75DFF0DE003980199FFF788FEED
:101870000590059B002B05DAFEF76AFFFEF798FD41
:10188000059B2AE0039B9B68002BEDD0039B9B6884
:1018900003F1FF32039B9A60039B5B699DF80B2069
:1018A0001A7003F10102039B5A61039B5A69039B5F
:1018B0001B699A4203D3039BDA68039B5A61039B1B
:1018C000DB69002B03D0039BDB6903989847FEF785
:1018D0003FFFFEF76DFD4FF00003184607B000BD57
:1018E00000B585B00190FEF7BBFF019B5A69019BD3
:1018F0009B699A4206D1019B9B68002B02D06FF036
:1019000002032BE0019B9B6803F10102019B9A609B
:10191000019B9B691A788DF80F2003F10102019B4E
:101920009A61019B9A69019B1B699A4203D3019BAF
:10193000DA68019B9A61019B1A68019B9A420BD05D
:10194000019B1846FFF754F803461846FFF748F97D
:1019500003464FF000029A629DF80F30184605B01A
:1019600000BD00BFAFF30080AFF30080AFF3008095
:1019700000B587B00390029101920093039BDB694D
:1019800004934FF000030593019B002B02D12B48D9
:10199000FEF7DEFFFEF704FDFEF7C2FE0CE0039843
:1019A0000099FFF7EDFD0346002B05D0FEF7D0FEB2
:1019B000FEF7FEFC059B3DE0039B9B68002BEED0F1
:1019C000039B9B6803F1FF32039B9A60039B5B6957
:1019D000029A12781A7003F10102039B5A61029B6A
:1019E00003F101030293039B5A69039B1B699A420B
:1019F00003D3039BDA68039B5A61049B002B02D03C
:101A0000049B03989847FEF7A3FEFEF7D1FC059BC5
:101A100003F101030593019B03F1FF330193019B44
:101A2000002B01D1059B05E0FEF7BAFCFEF778FE1E
:101A300000BFC1E7184607B000BD00BF044B000857
:101A4000074B03F1070323F007031A46054B1A60FF
:101A5000054B23F007031A46044B1A60704700BF7A
:101A6000A8100020B80D002000280020BC0D002088
:101A700000B585B00190FEF793FCFEF751FE01988A
:101A800000F00EF80390FEF763FEFEF791FC039B57
:101A9000184605B000BD00BFAFF30080AFF3008073
:101AA00000B585B00190FEF7DBFE019B03F1070353
:101AB00023F0070301930D4B1B681A460C4B1B6860
:101AC000D31A1A46019B9A4202D24FF0000309E052
:101AD000074B1B680393064B1A68019BD218044BF3
:101AE0001A60039B184605B000BD00BFBC0D002066
:101AF000B80D0020AFF30080AFF30080AFF300809B
:101B0000034B1B681A46034B1B68D31A18467047D1
:101B1000BC0D0020B80D0020AFF30080AFF30080B3
:101B200008B5074B074A1A60054B4FF000029A6050
:101B3000034B4FF00002DA600348FFF799FB08BD42
:101B4000C00D0020711A0008D00D0020AFF30080F6
:101B500000B587B001900091019B002B01D1384B5B
:101B60000193009B03F1070323F007030093019BFC
:101B700003F108030593019B03F110031846FFF7D7
:101B800097FB36E0059B1B680493049B5A68009BF7
:101B90009A422CD3049B5A68009B03F108039A4293
:101BA00004D2049B1A68059B1A6017E0009B03F19E
:101BB0000803049AD3180393049B1A68039B1A60C2
:101BC000049B5A68009BD31AA3F10802039B5A6036
:101BD000059B039A1A60049B009A5A60049B019A21
:101BE0001A60FFF7FDFB049B03F1080325E0049B4B
:101BF0000593059B1B68002BC4D1FFF7F1FB019BEC
:101C00001B68002B17D0019B1B68009A02F1080289
:101C10001046984703460493049B002B0BD0049B6B
:101C2000019A1A60049B009A5A60049B03F108030E
:101C30000493049B01E04FF00003184607B000BD79
:101C4000C00D0020AFF30080AFF30080AFF3008041
:101C500000B587B00190019B002B02D13A48FEF7F6
:101C600077FE019BA3F108030493049B1B68039375
:101C7000039B03F108030593039B03F1100318462C
:101C8000FFF716FB049A059B9A420BD3059B5B68F2
:101C900003F10803059AD218049B9A4202D92B48F3
:101CA000FEF756FE039B03F10802059B9A4203D000
:101CB000049A059B9A4242D9059B1B68002B04D0CD
:101CC000059B1A68049B9A4239D9059B1A68049BA4
:101CD0001A60059B049A1A60049B5B6803F1080371
:101CE000049AD218049B1B689A420ED1049B5A682E
:101CF000049B1B685B68D31803F10802049B5A60BD
:101D0000049B1B681A68049B1A60059B5B6803F1BF
:101D10000803059AD218049B9A420CD1059B5A6875
:101D2000049B5B68D31803F10802059B5A60049B6F
:101D30001A68059B1A60FFF753FB07B000BD059BAF
:101D40001B6805939EE700BF304B0008404B00081E
:101D500000B587B001900091019B002B01D1184B79
:101D60000193019B03F110031846FFF7A1FA4FF00E
:101D7000000303934FF000030493019B03F1080356
:101D800005930CE0059B1B685B68039AD3180393CB
:101D9000049B03F101030493059B1B680593059BBA
:101DA0001B68002BEED1009B002B02D0009B039AF6
:101DB0001A60FFF715FB049B184607B000BD00BF73
:101DC000C00D0020AFF30080AFF30080AFF30080C0
:101DD00000B585B001900091009B0393FEF740FD94
:101DE000019B002B07D0009B002B04D0009B03F02D
:101DF0000703002B02D00648FEF7AAFD019B1A68D4
:101E0000039B1A60019B039A1A6005B000BD00BFD6
:101E1000844B0008AFF30080AFF30080AFF3008085
:101E200000B583B001900091FEF7BAFAFEF778FC96
:101E300001980099FFF7CCFFFEF78AFCFEF7B8FA8D
:101E400003B000BDAFF30080AFF30080AFF30080BC
:101E500008B500F0BDFD00F083FB064801F010FC62
:101E600000F00EF800F044F900F08AFA01F0D8FC16
:101E700008BD00BFC0520008AFF30080AFF3008080
:101E800008B500F045FF08BDAFF30080AFF3008058
:101E900000B583B00190019B4FF001021A70019BC5
:101EA0004FF000025A60019B4FF000029A60019BC4
:101EB0004FF00002DA60019B4FF000021A61019BB3
:101EC0004FF000025A61019B03F118031846FFF717
:101ED000CFF903B000BD00BFAFF30080AFF30080C7
:101EE00000B583B001900091019B002B02D11148F5
:101EF000FEF72EFDFEF754FAFEF712FC019B1B784D
:101F0000012B06D0019B1B78022B02D00A48FEF75A
:101F10001FFD019B009A5A60019800F041FF019B50
:101F20004FF002021A70FEF713FCFEF741FA03B0FD
:101F300000BD00BFA04B0008B04B0008AFF300800D
:101F400000B585B00390029101920093FEF728FA44
:101F5000FEF7E6FB03980299019A009B00F008F84F
:101F6000FEF7F6FBFEF724FA05B000BDAFF30080E4
:101F700000B585B00390029101920093FEF770FCCA
:101F8000039B002B0ED0029B002B0BD0019B002B40
:101F900008D0009B012B08D0009B03F00103DBB2AB
:101FA000002B02D01148FEF7D3FC039B1B78022BB9
:101FB0000AD0039B1B78042B06D0039B1B78052BB0
:101FC00002D00B48FEF7C4FC039B019A9A60039B66
:101FD000009ADA60039B029A1A61039B4FF0030296
:101FE0001A70039800F01CFF05B000BDDC4B000820
:101FF000F44B0008AFF30080AFF30080AFF3008034
:1020000000B585B00190019B002B02D11B48FEF763
:102010009FFCFEF7C5F9FEF783FB019B1B78022BA3
:1020200006D0019B1B78032B02D01548FEF790FCCD
:10203000019B1B78022B1AD0019800F069FF019BCD
:102040004FF000021A61019B4FF002021A70019BCF
:102050005B69002B0BD0019B5B690393019B4FF0E5
:1020600000025A6103986FF00101FEF799FEFEF736
:102070006FFBFEF79DF905B000BD00BF104C0008D6
:10208000284C0008AFF30080AFF30080AFF300806E
:1020900000B587B00390029101920093FEF780F99A
:1020A000FEF73EFB039B5B69002B02D00E48FEF758
:1020B0004FFC03980299019A009BFFF759FF0B4BC5
:1020C000DA69039B5A614FF00200FEF7C1FD074B2E
:1020D000DB699B6A0593FEF73BFBFEF769F9059BFD
:1020E000184607B000BD00BF744C0008980D0020D2
:1020F00008B500F095FF08BDAFF30080AFF3008096
:1021000082B00190019B4FF001021A70019B4FF0C9
:1021100000025A6002B07047AFF30080AFF3008056
:1021200000B583B001900091019B002B02D0009B71
:10213000002B02D11248FEF70BFCFEF731F9FEF737
:10214000EFFA019B1B78012B06D0019B1B78022B19
:1021500002D00C48FEF7FCFB019B009A5A60009BE2
:102160009A88019B1A81019800F06AFF019B4FF049
:1021700002021A70FEF7ECFAFEF71AF903B000BD7E
:10218000B04C0008C04C0008AFF30080AFF30080F3
:1021900000B583B0019013460A468DF80320ADF8D0
:1021A0000030019B002B03D09DF80330032B02D994
:1021B0000E48FEF7CDFBFEF7F3F8FEF7B1FA019BF0
:1021C0001B78022B02D00A48FEF7C2FB9DF80320C1
:1021D000BDF80030019811461A4601F041F8FEF7AB
:1021E000B7FAFEF7E5F803B000BD00BF184D0008D0
:1021F000304D0008AFF30080AFF30080AFF30080F4
:1022000000B585B0039002910192039B03F1300366
:1022100018460299019A4FF0FF33FFF7A9FB0346D6
:10222000184605B000BD00BFAFF30080AFF30080DB
:1022300000B585B0039002910192039B03F1100356
:1022400018460299019A4FF0FF33FFF771FA0346DF
:10225000184605B000BD00BFAFF30080AFF30080AB
:1022600082B00190019B9B6B002B14BF00230123C4
:10227000184602B0704700BFAFF30080AFF3008094
:1022800082B00190019B9B69002B14BF00230123A6
:10229000184602B0704700BFAFF30080AFF3008074
:1022A00000B585B003900B4601928DF80B30039B6F
:1022B00003F130029DF80B3010461946019AFFF7E2
:1022C000C7FA0346184605B000BD00BFAFF3008053
:1022D00000B583B001900091019B03F110031846F3
:1022E0000099FFF7DDF90346184603B000BD00BFB3
:1022F00000B585B00390029101920093039B03F116
:10230000300318460299019A009BFFF731FB034600
:10231000184605B000BD00BFAFF30080AFF30080EA
:1023200000B585B00390029101920093039B03F1E5
:10233000100318460299019A009BFFF7F9F903462A
:10234000184605B000BD00BFAFF30080AFF30080BA
:1023500000B585B00190FEF723F8FEF7E1F9019B87
:102360009B680393019B4FF000029A60FEF7F0F91F
:10237000FEF71EF8039B184605B000BDAFF30080C2
:1023800008B501F035F908BDAFF30080AFF3008068
:1023900000B585B0039002910192039B154A1A6023
:1023A000039B03F104031A46039B5A60039B4FF0FF
:1023B00000029A60039B4FF001021A73039B03F122
:1023C0001002039B03F15003104619464FF0100210
:1023D000029BFFF7F5F8039B03F13002039B03F127
:1023E0006003104619464FF01002019BFFF708FAF0
:1023F00005B000BD00520008AFF30080AFF30080CD
:1024000000B583B001900091019B002B02D11048D0
:10241000FEF79EFAFDF7C4FFFEF782F9019B1B7BD6
:10242000012B06D0019B1B7B022B02D00948FEF733
:102430008FFA0198009901F0F3F8019B4FF0020226
:102440001A73FEF785F9FDF7B3FF03B000BD00BFB7
:10245000604D00086C4D0008AFF30080AFF30080C2
:1024600000B583B001900B468DF80330FEF7F8F904
:10247000019B002B02D11848FEF76AFA019B9B6969
:10248000002B0DD1019B9B6843F00402019B9A60D5
:10249000019B03F1040318464FF00001FFF748F8D1
:1024A000019B03F110029DF8033010461946FFF717
:1024B000AFF80346002B0DDA019B9B6843F08002C6
:1024C000019B9A60019B03F1040318464FF0000141
:1024D000FFF72EF803B000BD984D0008AFF3008061
:1024E00082B00190024B5A68019B9A6002B070471B
:1024F000001000E0AFF30080AFF30080AFF3008086
:1025000084B00190114B5B680393019B9B68039A15
:10251000D21A0F4B1B68D21A019B9A60019B9A68D2
:10252000019BDB689A4204D9019B9A68019BDA609F
:1025300009E0019B9A68019B1B699A4203D2019BA7
:102540009A68019B1A6104B0704700BF001000E058
:10255000E00D0020AFF30080AFF30080AFF3008008
:1025600000B587B00A4B4FF000021A6001AB184665
:1025700000F016F8019B01AA10469847029B01AA99
:1025800010469847039A024B1A6007B000BD00BF7F
:10259000E00D0020AFF30080AFF30080AFF30080C8
:1025A00082B00190019B094A1A60019B084A5A6057
:1025B000019B4FF000029A60019B4FF00002DA602D
:1025C000019B4FF0FF321A6102B07047E12400080E
:1025D00001250008AFF30080AFF30080AFF3008067
:1025E00000B583B0FEF7FCF80C4B1B6803F00F033B
:1025F00001930A4B4FF00F025A60094B1B68002BE6
:1026000006D0074B1B68064A526810460199984746
:10261000FEF706F9FDF7D4FE03B000BD000002404E
:10262000E80D0020AFF30080AFF30080AFF300802F
:1026300000B583B0FEF7D4F80D4B1B684FEA1313B7
:1026400003F00F0301930A4B4FF0F0025A60094B5D
:102650009B68002B06D0074B9B68064AD268104641
:1026600001999847FEF7DCF8FDF7AAFE03B000BD1C
:1026700000000240E80D0020AFF30080AFF30080BF
:1026800000B583B0FEF7ACF80D4B1B684FEA13237F
:1026900003F00F0301930A4B4FF470625A60094B29
:1026A0001B69002B06D0074B1B69064A526910466E
:1026B00001999847FEF7B4F8FDF782FE03B000BD1C
:1026C00000000240E80D0020AFF30080AFF300806F
:1026D00000B583B0FEF784F80D4B1B684FEA133347
:1026E00003F00F0301930A4B4FF470425A60094BF9
:1026F0009B69002B06D0074B9B69064AD26910469E
:1027000001999847FEF78CF8FDF75AFE03B000BD1B
:1027100000000240E80D0020AFF30080AFF300801E
:1027200000B583B0FEF75CF80D4B1B684FEA13430E
:1027300003F00F0301930A4B4FF470225A60094BC8
:102740001B6A002B06D0074B1B6A064A526A1046CA
:1027500001999847FEF764F8FDF732FE03B000BD1B
:1027600000000240E80D0020AFF30080AFF30080CE
:1027700000B583B0FEF734F80D4B1B684FEA1353D6
:1027800003F00F0301930A4B4FF470025A60094B98
:102790009B6A002B06D0074B9B6A064AD26A1046FA
:1027A00001999847FEF73CF8FDF70AFE03B000BD1B
:1027B00000000240E80D0020AFF30080AFF300807E
:1027C00000B583B0FEF70CF80D4B1B684FEA13639E
:1027D00003F00F0301930A4B4FF070625A60094BEC
:1027E0001B6B002B06D0074B1B6B064A526B104627
:1027F00001999847FEF714F8FDF7E2FD03B000BD1C
:1028000000000240E80D0020AFF30080AFF300802D
:1028100082B0144B4FF000021A604FF00003019396
:1028200016E01149019A13464FEA43039B184FEAF9
:102830008303CB181B684FF000021A600B4B019A00
:102840004FF0000143F83210019B03F101030193A3
:10285000019B062BE5DD064B4FF0FF325A6002B0BC
:10286000704700BFE40D002030520008E80D002042
:1028700000000240AFF30080AFF30080AFF30080B0
:1028800000B585B00390029101920093039B002B49
:1028900002D13148FEF75CF8039B5B7A4FF00102EE
:1028A00002FA03F31A462D4B1B6802EA0303002BBE
:1028B00002D04FF001034BE0039B5B7A1A46284B92
:1028C000019943F83210039B5B7A254A4FEAC30310
:1028D000D318009A5A60039B5B7A4FF0010202FA08
:1028E00003F31A461D4B1B681A431C4B1A601B4B03
:1028F0001B6803F07F03002B05D01A4B194A52695D
:1029000042F001025A61039B1B68039A1268126825
:1029100022F001021A60039B5B68039A127A4FF05F
:102920000F0101FA02F21A60039B1B684FF00002CC
:102930001A60019B002B09D0039B9B7A1A46029BCD
:102940004FEA031310461946FDF7B2FD4FF000039E
:10295000184605B000BD00BFC04D0008E40D0020C2
:10296000E80D002000100240AFF30080AFF30080BC
:10297000134B134A126842F480721A60114B1B6A9F
:1029800003F44073B3F5407F07D00E4B4FF4803211
:102990001A620C4B4FF000021A620A4B1B6A03F4D6
:1029A0000043002B0BD1074B064A126A42F44072D7
:1029B0001A62044B034A126A42F400421A627047D8
:1029C0000070004000100240AFF30080AFF30080C1
:1029D00008B51E4B1B691D4B4FF0FF321A611B4B94
:1029E0004FF000021A61194BDB68184B4FF0FF32B1
:1029F000DA60164B4FF00002DA60154B43F67F6247
:102A00005A60134B4FF000029A60114B4FF00702CF
:102A10001A60104B0F4AD26842F08072DA600E4B97
:102A20000D4A126842F001021A60084B074AD26947
:102A300042F08052DA61054B044AD26942F00062EA
:102A4000DA61FFF795FFFFF7E3FE08BD00100240D3
:102A500010E000E0F0ED00E0001000E0AFF30080D7
:102A6000294B294A126842F001021A6000BF264B26
:102A70001B6803F00203002BF9D0234B224A126893
:102A800002F0F9021A60204B4FF000025A6000BFBA
:102A90001D4B5B6803F00C03002BF9D11A4B1A4A4B
:102AA000126842F480321A6000BF174B1B6803F4AF
:102AB0000033002BF9D0144B134A526842F4803291
:102AC0005A60114B104A126842F080721A6000BFBF
:102AD0000D4B1B6803F00073002BF9D00A4B0B4A17
:102AE0005A600B4B4FF010021A60074B064A5268AF
:102AF00042F002025A6000BF034B5B6803F00C0314
:102B0000082BF9D1704700BF00100240006441005B
:102B100000200240AFF30080AFF30080AFF30080ED
:102B200000B589B001900091009B03F00803002BD1
:102B300039D0019800F0ECF9019B1B69DB68002B90
:102B400012D0019B4FF005021A70019B1B69DB68D4
:102B500001984FF000019847019B1B78052B03D18A
:102B6000019B4FF002021A70019B4FF000021A61A4
:102B7000FDF716FCFDF704FE019B5B69002B0DD0F1
:102B8000019B5B690793019B4FF000025A61079B11
:102B90004FF0FF329A620798FEF722F8FDF708FE21
:102BA000FDF706FCABE0009B03F00403002B0FD005
:102BB000019B1B699B68002B0AD0019B1B699B68CA
:102BC000019A9168019AD2684FEA52020198984797
:102BD000009B03F00203002B00F09180019B1B6916
:102BE0001B68002B2DD0019B1B699B68002B00F0FC
:102BF0008680019BDB68012B19D9019BDB684FEABA
:102C000053030693019B1B699B88069A02FB03F3FF
:102C10000593019B1B699B68019A9168059A4FEA8D
:102C200042028A1801981146069A984767E0019B6C
:102C30001B699B68019A9168019AD268019898472C
:102C40005DE0019800F064F9019B1B699B68002B13
:102C500033D0019B4FF004021A70019BDB68012BFB
:102C600019D9019BDB684FEA53030493019B1B694D
:102C70009B88049A02FB03F30393019B1B699B68E7
:102C8000019A9168039A4FEA42028A180198114604
:102C9000049A984708E0019B1B699B68019A916818
:102CA000019AD26801989847019B1B78042B08D1A0
:102CB000019B4FF002021A7003E0019B4FF00202E9
:102CC0001A70019B4FF000021A61FDF769FBFDF7D6
:102CD00057FD019B5B69002B0DD0019B5B69029343
:102CE000019B4FF000025A61029B4FF000029A6272
:102CF0000298FDF775FFFDF75BFDFDF759FB09B085
:102D000000BD00BFAFF30080AFF30080AFF30080E1
:102D100008B51E48FFF7BCF81C4B1D4A9A621B4BB6
:102D20001C4ADA62194B42F28A521A631A4B1A4A47
:102D3000926942F400729A61154B4FF000025A609A
:102D4000134B4FF001029A60114B4FF009029A6049
:102D500000BF0F4B9B6803F00803002BF9D10C4B0D
:102D60004FF005029A6000BF094B9B6803F0040313
:102D7000002BF9D1064B4FF000029A60064B064A31
:102D8000926922F400729A6108BD00BF200E0020F3
:102D9000002401403052000800100240AFF30080D0
:102DA00000B585B00190019B1B78012B29D1019AB8
:102DB000154B9A421BD1019BDA6A144B10464FF017
:102DC00005011A46019BFFF75BFD0390039B002B57
:102DD00002D00F48FDF7BCFD019BDB6A1B680D4A62
:102DE0009A600D4B0C4A926942F400729A61019B01
:102DF0009B6A4FF000025A60019B9B6A4FF00002F1
:102E00009A6005B000BD00BF200E0020212B0008F5
:102E1000004E00084C24014000100240AFF3008037
:102E200086B00190019B1B690393019B1B6B05936B
:102E3000039B1B68002B03D0059B43F020030593E5
:102E4000019BDB68012B0BD9059B43F00403059321
:102E5000039B9B88019AD26802FB03F3049302E070
:102E6000039B9B880493019BDB6A1B68019A926811
:102E7000DA60019BDB6A1B68049A5A60019BDB6A7B
:102E80001B68059A1A60019BDB6A1B68019AD26A6B
:102E90001268126842F001021A60019B9B6A039A51
:102EA000126942F480725A60019B9A6A039B5B69C3
:102EB00043F4807343F003039360019B9B6A039A7E
:102EC0009269DA60019B9B6A039AD2691A61019B3D
:102ED0009B6A039A126ADA62019B9B6A039A526A9E
:102EE0001A63019B9B6A039A926A5A63019B9A6ACE
:102EF000039B5B6943F4807343F00303936006B064
:102F0000704700BFAFF30080AFF30080AFF30080E5
:102F100082B00190019BDB6A1B68019AD26A126839
:102F2000126822F001021A60019BDB6A5B68019A59
:102F3000D26A127A4FF00F0101FA02F21A60019B75
:102F40009B6A4FF000029A6002B07047AFF30080B6
:102F500000B585B00190019B1B691B8AADF80E304E
:102F6000019B1B699B899AB2BDF80E3002EA0303EC
:102F7000ADF80E30019B1B694FF6E0721A82BDF866
:102F80000E3003F00203002B04D0019B5B681B6929
:102F900001989847BDF80E3003F00403002B04D0CD
:102FA000019B5B689B6901989847BDF80E3003F060
:102FB0000803002B04D0019B5B681B6A01989847AB
:102FC000BDF80E3003F01003002B04D0019B5B68AA
:102FD0009B6A01989847BDF80E3003F00103DBB2FD
:102FE000002B04D0019B5B689B680198984705B053
:102FF00000BD00BFAFF30080AFF30080AFF30080EF
:1030000008B5FDF7EDFB0448FFF7A2FFFDF708FC4C
:10301000FDF7D6F908BD00BF540E0020AFF30080C5
:1030200008B50448FFF76CF8024B4FF080421A6174
:1030300008BD00BF540E0020AFF30080AFF3008046
:1030400000B585B00190019B1B78012B27D1019A17
:103050007C4B9A4218D17C4B7B4AD26942F00102E8
:10306000DA61794B784A126942F001021A61764BB3
:103070004FF000021A614FF01C004FF07001FDF795
:1030800017FA019B714ADA60019B1B6946F66802D8
:103090001A83019B1B6946F668029A8327E0019B0D
:1030A0001B694FF000021A80019B1B694FF0000260
:1030B0009A81019B1B694FF000021A82019B1B69D8
:1030C0004FF000025A63019B1B694FF000029A63A4
:1030D000019B1B694FF00002DA63019B1B694FF0F3
:1030E00000021A64019B1B694FF000025A62019BA7
:1030F000DA68019B5B681B68B2FBF3F303F1FF33F3
:103100000293029A4FF6FF739A420BD8029B03F187
:103110000103019A5268126802FB03F2019BDB680B
:103120009A4202D04A48FDF713FC019B1B69029AA0
:1031300092B21A85019B1B69019A128902F1FF3232
:1031400092B2DA62019B1B69019A5268928D9A8051
:103150004FF00003ADF80E30019B5B68DB6803F0B5
:103160000F03012B07D0022B0BD1BDF80E3043F01B
:103170000203ADF80E30BDF80E3043F00103ADF898
:103180000E30019B5B685B6903F00F03012B07D0D6
:10319000022B0BD1BDF80E3043F02003ADF80E30FA
:1031A000BDF80E3043F01003ADF80E30019B5B68A4
:1031B000DB6903F00F03012B07D0022B0BD1BDF805
:1031C0000E3043F40073ADF80E30BDF80E3043F40A
:1031D0008073ADF80E30019B5B685B6A03F00F03F0
:1031E000012B07D0022B0BD1BDF80E3043F4005356
:1031F000ADF80E30BDF80E3043F48053ADF80E300C
:10320000019B1B69BDF80E201A84019B1B694FF0BE
:1032100001029A82019B1B69019A52689268002AF6
:103220000CBF0022012292B29A81019B1B694FF0D0
:1032300000021A82019B1B694FF085021A8005B0BB
:1032400000BD00BF540E0020001002400024F40016
:10325000204E0008AFF30080AFF30080AFF3008092
:1032600084B0019013460A468DF80320ADF8003073
:10327000019B19699DF80330BDF8002003F10C0390
:103280004FEA8303CB185A60019B5A689DF80330BC
:1032900003F101034FEAC303D3189B68002B2CD022
:1032A000019B1B699B899BB203939DF803304FF0F0
:1032B000020202FA03F31A46039B02EA0303002BFD
:1032C0001BD1019B1B699DF803204FF0020101FAFD
:1032D00002F291B2039A92B241EA020292B29A8148
:1032E000019B1B699DF803204FF0020101FA02F2D5
:1032F00092B26FEA020292B21A8204B0704700BF23
:1033000084B001900091019B1B6F0393019B1A6F86
:103310001A4B9A4208D1009B1B68194AB2FBF3F37F
:103320009AB2039B1A8107E0009B1B68144AB2FB08
:10333000F3F39AB2039B1A81009B9B8843F40453D6
:1033400043F02C039AB2039B9A81009BDB8843F0E5
:1033500040039AB2039B1A82009B1B8943F001032E
:103360009AB2039B9A82039B4FF000021A80039B40
:103370001B88039B9B8804B0704700BF0038014046
:1033800000127A00AFF30080AFF30080AFF300804B
:1033900000B585B001900B46ADF802304FF0000348
:1033A0000393BDF8023003F00803002B03D0039B06
:1033B00043F080030393BDF8023003F00103DBB256
:1033C000002B03D0039B43F020030393BDF802308E
:1033D00003F00203002B03D0039B43F0400303934D
:1033E000BDF8023003F00403002B03D0039B43F429
:1033F00080730393FCF7D4FFFDF7C2F9019B9A6831
:10340000039B1A43019B9A60019B03F10403184636
:103410004FF00001FEF78CF8FDF7CAF9FCF7C8FF82
:1034200005B000BDAFF30080AFF30080AFF30080C4
:1034300000B587B00190019B1B6F0593059B9B898D
:10344000ADF81230059B1B88ADF81030059B9B88AA
:10345000ADF80E30BDF8103003F00F03002B05D08F
:10346000BDF8103001981946FFF792FFBDF81030F3
:1034700003F48073002B1DD0FCF792FFFDF780F959
:10348000019B9B6843F40072019B9A60019B03F1CE
:10349000040318464FF00001FEF74AF8FDF788F9DB
:1034A000FCF786FF059B1B889BB223F480739AB2BE
:1034B000059B1A80BDF8103003F02003002B0ED0BE
:1034C000FCF76EFFFDF75CF9BDF80E30DBB201983A
:1034D0001946FEF7C5FFFDF76BF9FCF769FFBDF86C
:1034E000123003F08003002B35D0BDF8103003F00C
:1034F0008003002B2FD0FCF753FFFDF741F9019B10
:1035000003F130031846FEF7EBF90290029B002B03
:1035100019DA019B9B6843F00802019B9A60019BAA
:1035200003F1040318464FF00001FEF701F8BDF85F
:10353000123023F0C0039BB243F040039BB29AB217
:10354000059B9A8103E0029B9AB2059B9A80FDF746
:103550002FF9FCF72DFFBDF8103003F04003002BCE
:1035600024D0FCF71DFFFDF70BF9019B9B6843F08E
:103570001002019B9A60019B03F1040318464FF06F
:103580000001FDF7D5FFFDF713F9FCF711FFBDF8BA
:10359000123023F040039AB2059B9A81059B1B8849
:1035A0009BB223F040039AB2059B1A8007B000BD7E
:1035B00082B00190044B044A928992B242F0800298
:1035C00092B29A8102B0704700480040AFF3008089
:1035D00008B5FDF705F90448FFF72AFFFDF720F9C4
:1035E000FCF7EEFE08BD00BF680E0020AFF30080C0
:1035F00008B505484FF00001044AFEF7C9FE024B2A
:10360000034A1A6708BD00BF680E0020B1350008E4
:1036100000480040AFF30080AFF30080AFF30080BC
:1036200000B583B001900091009B002B01D10E4B9F
:103630000093019B1B7B012B0FD1019A0B4B9A42EC
:103640000BD10B4B0A4AD26942F48022DA614FF067
:1036500027004FF0C001FCF72BFF01980099FFF7FE
:103660004FFE03B000BD00BF90520008680E00205E
:1036700000100240AFF30080AFF30080AFF3008092
:1036800082B00190214B214A926942F07D029A61F9
:103690001F4B019A1268DA601D4B019A92685A60BA
:1036A0001B4B019A52681A601A4B019AD268DA6071
:1036B000184B019A52695A60164B019A12691A60A6
:1036C000154B019A9269DA60134B019A126A5A609B
:1036D000114B019AD2691A60104B019A526ADA6052
:1036E0000E4B019AD26A5A600C4B019A926A1A6088
:1036F0000B4B019A126BDA60094B019A926B5A607C
:10370000074B019A526B1A6002B0704700100240DA
:1037100000080140000C014000100140001401406D
:1037200000180140AFF30080AFF30080AFF30080DA
:103730008AB0039002910192019B032B03D1039B5A
:10374000029A1A6105E0019B042B02D1039B029AA5
:103750005A612E4A019BD3181B7804934FF0000343
:103760000693069B0793079B0893089B09934FF0CA
:103770000003059335E0089B4FEA03130893099B68
:103780004FEA03130993069B4FEA03130693079B23
:103790004FEA03130793029B03F08003002B04D12D
:1037A000089B43F00F03089304E0069A049B42EA47
:1037B00003030693029B03F40043002B04D1099BEF
:1037C00043F00F03099304E0079A049B42EA0303C2
:1037D0000793029B4FEA43030293059B03F1010306
:1037E0000593059B072BC6D9039B5A68099B1A4072
:1037F000079B1A43039B5A60039B1A68089B1A4055
:10380000069B1A43039B1A600AB07047A052000837
:1038100008B5FFF725F908BDAFF30080AFF30080CE
:10382000704700BFAFF30080AFF30080AFF30080BC
:1038300000B587B0039002910192039B002B02D048
:10384000019B039A1A60019B1B680593059B002B43
:1038500002D14FF0000323E005980299FCF7A0FC89
:103860000346059AD318059305980299FCF768FC5E
:103870000246019B1A60019B1B68002B08D0019B2C
:103880001B684FF000021A7003F10102019B1A60DD
:10389000059B1B78002B01D0059B01E04FF0000336
:1038A000184607B000BD00BFAFF30080AFF3008043
:1038B00000B583B00190009101980349009A00F08F
:1038C000B7FA03B000BD00BF404E0008AFF3008060
:1038D00000B583B0019000910AE0009B1B6801983D
:1038E00006491A4600F0A4FA009B03F1080300936E
:1038F000009B1B68002BF0D103B000BD4C4E0008AC
:1039000000B587B0059004910392049B002B04DD61
:1039100005981849FFF7CCFF2AE005981649174A81
:1039200000F086FA05981649164A00F081FA0598C3
:103930001549164A00F07CFA05981549154A00F019
:1039400077FA05981449154A00F072FA0598144957
:10395000144A00F06DFA05981349144A00F068FA09
:10396000134B009305981349134A144B00F060FA67
:1039700007B000BD504E0008584E00086C4E0008BD
:10398000744E0008884E0008944E0008A84E0008A7
:10399000B04E0008C44E0008D04E0008E44E0008A7
:1039A000FC4E0008104F0008384F00084C4F00082C
:1039B000884F0008604F0008784F0008844F0008C7
:1039C00000B585B0039002910192029B002B04DDAB
:1039D00003980649FFF76CFF06E0054BDB68039888
:1039E00004491A4600F024FA05B000BD944F0008BF
:1039F000880D00209C4F0008AFF30080AFF30080DB
:103A000000B585B0039002910192009315E0039BED
:103A10001B6818460199FCF76BFB0346002B08D185
:103A2000039B5B6802980099069A98474FF0000341
:103A300009E0039B03F108030393039B1B68002B1E
:103A4000E5D14FF00103184605B000BDAFF300808B
:103A500000B5A1B003904FF000031D93039B1B68BA
:103A60001C93039B5B681B93634BDB69634A9A61FE
:103A70001C98634900F0DCF904E000BF02E000BFDD
:103A800000E000BF1C985F4900F0D2F909AB1C9818
:103A900019464FF0400200F0EBF80346002B04D02B
:103AA0001C98594900F0C4F994E009AA19AB1046D2
:103AB00056491A46FFF7BCFE1A901A9B1E934FF008
:103AC00000031F9316E01F9B032B07DD1C98504932
:103AD00000F0AEF94FF000031E9316E01F9B4FEA73
:103AE000830320AAD3181A9A43F8702C1F9B03F162
:103AF00001031F9319AB4FF0000044491A46FFF72A
:103B000097FE1A901A9B002BDDD11F9B4FEA83036F
:103B100020AAD3184FF0000243F8702C1E9B002BF4
:103B2000ABD01E983B49FCF7E3FA0346002B07D1C4
:103B30001F9B002B4DDD1C983649FFF7B9FE47E06F
:103B40001E983549FCF7D4FA0346002B1BD11F9B66
:103B5000002B04DD1C983049FFF7AAFE38E01C98C2
:103B60002E4900F065F91C982D49FFF7B1FE1B9B0B
:103B7000002B03D01C981B99FFF7AAFE1C9829491B
:103B800000F056F97EE704AB009325481C991E9A75
:103B90001F9BFFF735FF0346002B3FF470AF1B9BC5
:103BA000002B0BD004AB00931B981C991E9A1F9BF3
:103BB000FFF726FF0346002B3FF463AF1C981A491A
:103BC0001E9A00F035F91C98184900F031F959E7B0
:103BD00058E700BFFCF7E4FBFCF7A2FD14484FF0E8
:103BE0000001FDF7A5FC1D98FDF762FA4FF00003F8
:103BF000184621B000BD00BF980D0020A44F00085A
:103C0000AC4F0008C44F0008CC4F0008D84F000844
:103C1000DC4F0008F44F0008FC4F00080450000877
:103C2000040800201C500008205000082450000800
:103C3000DC0E0020AFF30080AFF30080AFF3008014
:103C400000B587B0059004910392059B00934FF057
:103C500000000499039A034BFDF7C2FA0346184685
:103C600007B000BD513A0008AFF30080AFF3008009
:103C700000B587B0039002910192029B059300E08A
:103C800000BF039B1B685B6903984FF0FF319847A7
:103C90000346ADF81230BDF91230002B02DA4FF0B6
:103CA000010368E0BDF91230042B06D103983349B3
:103CB00000F0BEF84FF001035DE0BDF91230082BB3
:103CC00027D1059A029B9A4222D0039B1B681B694D
:103CD000BDF81220D2B2039811464FF0FF32984738
:103CE000039B1B681B6903984FF020014FF0FF32C4
:103CF0009847039B1B681B69BDF81220D2B203983A
:103D000011464FF0FF329847059B03F1FF330593AF
:103D100030E0BDF912300D2B0AD10398184900F09C
:103D200087F8059B4FF000021A704FF0000322E065
:103D3000BDF912301F2B00DC1CE0019B03F1FF33A7
:103D4000029AD218059B9A429AD9039B1B681B6959
:103D5000BDF81220D2B2039811464FF0FF329847B7
:103D6000BDF81230DAB2059B1A70059B03F101030E
:103D7000059386E785E7184607B000BD2C5000087C
:103D80001C500008AFF30080AFF30080AFF3008059
:103D900086B0039002910192039B03F10B030493FD
:103DA000029B019AB3FBF2F2019901FB02F29B1A0A
:103DB0000593059B03F130030593059B392B03DD28
:103DC000059B03F107030593049B03F1FF33049361
:103DD000059BDAB2049B1A70029A019BB2FBF3F3C3
:103DE0000293029B002BDBD1039B03F10B031A46CA
:103DF000049BD31A0593049B1A78039B1A70039BA8
:103E000003F101030393049B03F101030493059B56
:103E100003F1FF330593059B002BECD1039B184660
:103E200006B07047AFF30080AFF30080AFF30080BF
:103E30000EB400B590B0019012AB0693119B1B78A5
:103E40008DF83730119B03F1010311939DF8373042
:103E5000002B00F036829DF83730252B0BD0019BCC
:103E60001B681B699DF83720019811464FF0FF32FF
:103E7000984700BFE2E703AB0F9303AB0E934FF0FD
:103E800000030893119B1B782D2B06D1119B03F186
:103E9000010311934FF0010308934FF020038DF8B5
:103EA0003630119B1B782E2B07D1119B03F1010398
:103EB00011934FF030038DF836304FF000030A9322
:103EC000119B1B788DF83730119B03F1010311937F
:103ED0009DF837302F2B0AD99DF83730392B06D86B
:103EE0009DF83730A3F130038DF8373013E09DF89B
:103EF00037302A2B07D1069B03F1040206921B6878
:103F00008DF8373007E04FF000030B939DF8373002
:103F10002E2B0DD03DE00A9A13464FEA83039B18DF
:103F20004FEA43031A469DF83730D3180A93C7E780
:103F3000119B1B788DF83730119B03F1010311930E
:103F40009DF837302F2B0AD99DF83730392B06D8FA
:103F50009DF83730A3F130038DF837300AE09DF833
:103F600037302A2B14D1069B03F1040206921B68FA
:103F70008DF837300B9A13464FEA83039B184FEAAC
:103F800043030B939DF837300B9AD3180B93CFE76D
:103F900000BF9DF837306C2B03D09DF837304C2B89
:103FA0000FD14FF001030993119B1B78002B16D002
:103FB000119B1B788DF83730119B03F1010311938E
:103FC0000DE09DF83730402B06D99DF837305A2B3D
:103FD00002D84FF0010301E04FF0000309939DF870
:103FE0003730A3F14403342B00F2F58001A252F8DC
:103FF00023F000BF3B410008D7410008D74100082B
:10400000D7410008D7410008D7410008D741000830
:10401000D7410008D7410008D7410008D741000820
:104020009D410008D7410008D7410008D74100084A
:10403000D7410008D741000893410008D741000844
:10404000D741000889410008D7410008D74100083E
:10405000D7410008D7410008D7410008D7410008E0
:10406000D7410008D7410008D7410008D7410008D0
:10407000C94000083B410008D7410008D74100086B
:10408000D7410008D7410008D7410008D7410008B0
:10409000D7410008D7410008D7410008D7410008A0
:1040A0009D410008D7410008D7410008D7410008CA
:1040B000EB400008D741000893410008D7410008B1
:1040C000D7410008894100084FF020038DF83630B1
:1040D000069B03F1040206921B68DAB20F9B1A706A
:1040E0000F9B03F101030F937FE04FF020038DF846
:1040F0003630069B03F1040206921B680E930E9B5A
:10410000002B01D1724B0E930B9B002B02D147F673
:10411000FF730B930E9B0F9303E00F9B03F10103BF
:104120000F930F9B1B78002B5ED00B9B03F1FF338B
:104130000B930B9B002BF0DA57E0099B002B06D06A
:10414000069B03F1040206921B68079305E0069B99
:1041500003F1040206921B680793079B002B0BDAFE
:104160000F9B4FF02D021A700F9B03F101030F9369
:10417000079BC3F1000307930F9807994FF00A02BA
:10418000FFF706FE0F9030E04FF010038DF8373048
:1041900008E04FF00A038DF8373003E04FF00803D2
:1041A0008DF83730099B002B06D0069B03F10402E3
:1041B00006921B68079305E0069B03F10402069232
:1041C0001B6807939DF837300F9807991A46FFF739
:1041D000DFFD0F9009E00F9B9DF837201A700F9BB1
:1041E00003F101030F9300E000BF0F9A0E9BD31A57
:1041F0000C930A9A0C9BD31A0A930A9B002B02DA9F
:104200004FF000030A93089B002B03D10A9BC3F1D4
:1042100000030A930A9B002B39DA0E9B1B782D2B87
:1042200015D19DF83630302B11D1019B1B681B69CD
:104230000E9A12780E9901F101010E910198114622
:104240004FF0FF3298470C9B03F1FF330C93019B17
:104250001B681B699DF83620019811464FF0FF320C
:1042600098470A9B03F101030A930A9B002BEED1A6
:104270000DE0019B1B681B690E9A12780E9901F1E3
:1042800001010E91019811464FF0FF3298470C9BA7
:1042900003F1FF330C930C9B002BEADA0DE0019B3A
:1042A0001B681B699DF83620019811464FF0FF32BC
:1042B00098470A9B03F1FF330A930A9B002BEED128
:1042C000BCE500BF10B05DF804EB03B0704700BF61
:1042D00030500008AFF30080AFF30080AFF30080F0
:1042E00000B583B00190154BDB69154A9A611548FA
:1042F0004FF400514FF00602FFF71AFA11484FF43D
:1043000080414FF00602FFF713FA4FF49670FCF766
:104310009FFE0C4B4FF400521A610A4B4FF480423F
:104320005A614FF49670FCF793FE064B4FF400521F
:104330005A61044B4FF480421A61E6E7980D002061
:1043400040500008000C0140AFF30080AFF3008044
:1043500000B583B04FF00003009305484FF4D871C7
:104360004FF04002034BFCF73BFE03B000BD00BF23
:10437000E00E0020E1420008AFF30080AFF30080C0
:1043800008B5FDF765FDFCF723F9FFF7E1FF00F045
:10439000EFF800F07DF900F0A3F94FF47A70FCF724
:1043A00057FEF8E7AFF30080AFF30080AFF3008073
:1043B00000B585B0039002910192029B03F10403C2
:1043C0001A885F4B1B889A4224D25E4B1A885E4B38
:1043D0001B88D3189AB25B4B1A805A4B1A8842F248
:1043E00010739A4238BF13469AB2564B1A80574BF5
:1043F0001B89544A128802FB03F2554BA3FB02139C
:104400004FEA53339BB251484FF002011A46FEF770
:1044100027FF2BE0029B03F104031A88484B1B88FB
:104420009A4223D9474B1A88474B1B889A4228BF88
:1044300013469AB2434B1A80424B1A88424B1B8850
:10444000D31A9AB23F4B1A80404B1B893D4A1288BF
:1044500002FB03F23E4BA3FB02134FEA53339BB222
:104460003A484FF002011A46FEF7FAFE029B1A88FC
:10447000384B1B889A4259D3029B03F102031A88D6
:10448000354B1B889A4224D2344B1A88344B1B88F4
:10449000D3189AB2314B1A80304B1A8842F2283323
:1044A0009A4238BF13469AB22C4B1A80274B1B896D
:1044B0002A4A128802FB03F2254BA3FB02134FEAA0
:1044C00053339BB221484FF001011A46FEF7C8FE54
:1044D00033E0029B03F102031A881F4B1B889A42A8
:1044E0002BD91E4B1A881E4B1B889A4228BF134695
:1044F0009AB21A4B1A80194B1A88194B1B88D31A77
:104500009AB2164B1A80114B1B89144A128802FB6F
:1045100003F20F4BA3FB02134FEA53339BB20B483A
:104520004FF001011A46FEF79BFE06E007484FF0E8
:1045300001014FF00002FEF793FE05B000BD00BF81
:1045400020080020901000201C080020540E00209D
:104550005917B7D12408002022080020921000200B
:104560001E080020AFF30080AFF30080AFF300809F
:1045700008B51D484FF400414FF00202FFF7D8F88C
:104580001A481B49FDF7CCFD1A484FF004014FF0C3
:104590001002FFF7CDF817484FF002014FF010025C
:1045A000FFF7C6F811484FF001014FF00002FDF788
:1045B000EFFD0E484FF002014FF00002FDF7E8FD5D
:1045C0000C484FF0F8014FF00502FFF7B1F80A4828
:1045D0004FF00001FDF784FC07480849084A4FF0F6
:1045E0000203FDF7ADFC08BD000C0140540E002095
:1045F0002808002000080140200E00200053000879
:1046000094100020AFF30080AFF30080AFF3008080
:1046100008B50A48FDF7F4FC08480949094A4FF073
:104620000103FDF735FD05480749084A4FF002032D
:10463000FDF786FC034B1B88184608BD200E0020A2
:1046400030530008A01000200053000894100020F0
:1046500008B50A48FDF7D4FC08480949094A4FF053
:104660000103FDF715FD05480749084A4FF002030D
:10467000FDF766FC034B1B88184608BD200E002082
:1046800060530008A210002000530008941000207E
:1046900008B50C484FF480614FF01002FFF748F85E
:1046A00008484FF400614FF00202FFF741F8064856
:1046B0000649FDF7A5FE044B18460549FFF7B8FB70
:1046C00008BD00BF000C0140680E00205808002003
:1046D0005C500008AFF30080AFF30080AFF30080C0
:1046E00008B50F4B1B68002B0AD10E484FF40B6125
:1046F0004FF04002FFF7A4FA0246094B1A600EE0A1
:10470000074B1B6893F820300E2B08D1044B1B6815
:104710001846FCF70DFD024B4FF000021A6008BD71
:10472000A4100020B0530008AFF30080AFF3008066
:1047300000B587B003900291019204AB4FF00000E6
:104740001946FDF705FB0590FDF7DAF903460398D6
:1047500008491A46FFF76CFB03980749059AFFF7CB
:1047600067FB049B039805491A46FFF761FB07B0F6
:1047700000BD00BF6850000888500008A050000825
:1047800000B585B0039002910192FFF761FF0346E7
:10479000039803491A46FFF74BFB05B000BD00BF65
:1047A000C0500008AFF30080AFF30080AFF300808B
:1047B00000B585B0039002910192FFF729FF0346EF
:1047C000039803491A46FFF733FB05B000BD00BF4D
:1047D000D4500008AFF30080AFF30080AFF3008047
:1047E00069646C65000000006D61696E0000000086
:1047F00053562331000000005356233200000000BE
:1048000053562333000000005356233400000000A9
:104810005356233500000000535623360000000095
:104820005356233700000000535623380000000081
:104830005356233900000000535623313000000046
:10484000535623313100000000000000000000003A
:1048500022636856545365744922282900000000D9
:1048600022636856545265736574492228290000F2
:104870006368565452657365744928292C20233186
:104880000000000000000000000000000000000028
:10489000636853636852656164794928292C202331
:1048A00031000000737461636B206F766572666C13
:1048B0006F77000000000000000000000000000012
:1048C00022636854686443726561746549222829CB
:1048D0000000000022636854686453657450726974
:1048E0006F72697479222829000000006368546897
:1048F00064526573756D6528292C202331000000F2
:10490000226368546864536C65657022282900002E
:104910006368546864457869745328292C202331CE
:10492000000000002263685468645761697422289B
:104930002900000063685468645761697428292C51
:104940002023310063685468645761697428292CF6
:1049500020233200000000000000000000000000E2
:10496000636854686441646452656628292C202376
:1049700031000000636854686452656C656173655A
:1049800028292C2023310000226368546864437274
:104990006561746546726F6D4D656D6F7279506FAC
:1049A0006F6C2228290000000000000000000000B9
:1049B0002263684D7478496E6974222829000000CA
:1049C0002263684D74784C6F636B53222829000072
:1049D00063684D74784C6F636B5328292C20233106
:1049E0000000000063684D74784C6F636B53282996
:1049F0002C202332000000002263684D747854722A
:104A0000794C6F636B5322282900000063684D7452
:104A100078556E6C6F636B28292C202331000000C1
:104A200063684D7478556E6C6F636B28292C202356
:104A30003200000063684D7478556E6C6F636B5381
:104A400028292C202331000063684D7478556E6C42
:104A50006F636B5328292C202332000000000000D4
:104A600022636845767452656769737465724D6137
:104A7000736B222829000000226368457674556E06
:104A8000726567697374657222282900226368451C
:104A900076745369676E616C222829002263684529
:104AA00076745369676E616C492228290000000002
:104AB00022636845767442726F6164636173744DFA
:104AC00061736B4922282900226368457674446922
:104AD000737061746368222829000000636845765A
:104AE00074446973706174636828292C2023310031
:104AF00022636849515265616454696D656F7574CC
:104B0000222829002263684F5157726974655469DD
:104B10006D656F75742228290000000000000000F8
:104B200022636848656170496E6974222829000013
:104B30002263684865617046726565222829000015
:104B40006368486561704672656528292C202331A9
:104B50000000000000000000000000000000000055
:104B6000226368506F6F6C496E69742228290000B7
:104B7000226368506F6F6C416C6C6F634922282907
:104B800000000000226368506F6F6C4672656549D3
:104B900022282900000000000000000000000000A2
:104BA000226164635374617274222829000000003A
:104BB000616463537461727428292C2023310000CE
:104BC0002261646353746F70222829006164635307
:104BD000746F7028292C2023310000002261646347
:104BE0005374617274436F6E76657273696F6E4948
:104BF000222829006164635374617274436F6E7676
:104C0000657273696F6E4928292C202331000000DA
:104C10002261646353746F70436F6E76657273695B
:104C20006F6E22282900000061646353746F704323
:104C30006F6E76657273696F6E28292C20233100A0
:104C40002261646353746F70436F6E76657273692B
:104C50006F6E49222829000061646353746F7043AA
:104C60006F6E76657273696F6E4928292C20233127
:104C700000000000616463436F6E766572742829DA
:104C80002C202331000000002261646341637175B0
:104C900069726542757322282900000022616463ED
:104CA00052656C65617365427573222829000000A6
:104CB0002270776D537461727422282900000000FD
:104CC00070776D537461727428292C202331000091
:104CD0002270776D53746F702228290070776D539E
:104CE000746F7028292C2023310000002270776D0A
:104CF0004368616E6765506572696F642228290098
:104D000070776D4368616E6765506572696F64287E
:104D1000292C2023310000002270776D456E6162DE
:104D20006C654368616E6E656C2228290000000086
:104D300070776D456E61626C654368616E6E656C1F
:104D400028292C202331000070776D44697361623B
:104D50006C654368616E6E656C28292C20233100D8
:104D6000227364537461727422282900736453742B
:104D700061727428292C20233100000022736453AF
:104D8000746F702228290000736453746F7028298F
:104D90002C20233100000000227364496E636F6D84
:104DA000696E674461746149222829002273645244
:104DB0006571756573744461746149222829000026
:104DC00022646D61416C6C6F6361746522282900F7
:104DD00022646D6152656C6561736522282900004B
:104DE000646D6152656C6561736528292C202331DF
:104DF00000000000000000000000000000000000B3
:104E00006164635F6C6C645F737461727428292CD5
:104E1000202331000000000000000000000000001E
:104E200070776D5F6C6C645F737461727428292C89
:104E300020233100000000000000000000000000FE
:104E400055736167653A2025730D0A0025732000AC
:104E5000696E666F000000004B65726E656C3A20EB
:104E600020202020202025730D0A0000322E342E11
:104E700032000000436F6D70696C65723A2020202B
:104E8000202025730D0A000047434320342E352E81
:104E900032000000417263686974656374757265FD
:104EA0003A2025730D0A000041524D76372D4D00F2
:104EB000436F72652056617269616E743A20257382
:104EC0000D0A0000436F727465782D4D33000000A9
:104ED000506F727420496E666F3A2020202025732F
:104EE0000D0A0000416476616E636564206B657233
:104EF0006E656C206D6F646500000000506C61741D
:104F0000666F726D3A202020202025730D0A000064
:104F100053544D3332463120506572666F726D6165
:104F20006E6365204C696E65204D656469756D2002
:104F300044656E7369747900426F6172643A20202F
:104F400020202020202025730D0A00004F6C696D61
:104F500065782053544D33322D50313033000000EA
:104F60004275696C642074696D653A202020257350
:104F7000257325730D0A00004D61792020352032FC
:104F800030313300202D200032323A35353A32307C
:104F90000000000073797374696D6500256C750DF0
:104FA0000A0000007368656C6C0000000D0A43681D
:104FB0006962694F532F5254205368656C6C0D0A17
:104FC0000000000063683E20000000000D0A6C6FC6
:104FD000676F75740000000020003900746F6F2047
:104FE0006D616E7920617267756D656E74730D0AFF
:104FF00000000000657869740000000068656C704E
:1050000000000000436F6D6D616E64733A20686547
:105010006C70206578697420000000000D0A0000A3
:1050200025730000203F0D0A000000005E440000D0
:10503000286E756C6C290000000000000000000064
:105040007077720000000000000000000000000007
:105050006D656D006375720074656D0048656C6CFC
:105060006F210D0A00000000636F72652066726593
:1050700065206D656D6F7279203A20257520627903
:105080007465730D0A0000006865617020667261C6
:10509000676D656E74732020203A2025750D0A0017
:1050A00068656170206672656520746F74616C203C
:1050B000203A2025752062797465730D0A0000007E
:1050C00074656D70657261747572653A2025750D31
:1050D0000A00000063757272656E743A2025750DC2
:1050E0000A000000000000000000000000000000B6
:1050F00000202020202020202020282828282820A8
:10510000202020202020202020202020202020209F
:105110002088101010101010101010101010101007
:1051200010040404040404040404041010101010F7
:1051300010104141414141410101010101010101C1
:105140000101010101010101010101011010101013
:105150001010424242424242020202020202020293
:1051600002020202020202020202020210101010E7
:10517000200000000000000000000000000000000F
:10518000000000000000000000000000000000001F
:10519000000000000000000000000000000000000F
:1051A00000000000000000000000000000000000FF
:1051B00000000000000000000000000000000000EF
:1051C00000000000000000000000000000000000DF
:1051D00000000000000000000000000000000000CF
:1051E00000000000000000000000000000000000BF
:1051F00000000000000000000000000000000000AF
:1052000001220008312200086122000881220008E2
:10521000A1220008D1220008F12200082123000861
:105220005123000800000000000000000000000002
:10523000080002400400024000000B001C00024075
:105240000400024004010C0030000240040002404F
:1052500008020D0044000240040002400C030E004E
:10526000580002400400024010040F006C0002408D
:1052700004000240140510008000024004000240B7
:1052800018061100000000000000000000000000EF
:105290000096000000000040000000000000000038
:1052A000040204080800030708080808080808089A
:1052B0000B0F0000000000000000000000000000D4
:1052C000FFFFFFFF844B888888888888FFFFFFFFE7
:1052D000888888888888B8B4FFFFFFFF888884445E
:1052E00088338388FFFFFFFF448888888888888800
:1052F000FFFFFFFF88888888888888880000000072
:105300000100000003000000B1430008000000009D
:105310000000000000000000000000000024010068
:1053200000002000000000008314000000000000C6
:10533000000000000100000000000000000000006C
:105340000000000000000000000000000000080055
:105350000000000000000000060000000000000047
:10536000000000000100000000000000000000003C
:1053700000000000000000000000000000004000ED
:105380000000000000000000070000000000000016
:10539000505000083147000854500008B147000839
:1053A000585000088147000800000000000000007D
:0853B000680E00209053000874
:1053B800F0500008504E000801390008944F0008CA
:1053C800C13900080000000000000000E803E803FD
:1053D8001408F40BB109000000127A003C00000028
:1053E80000000000000000000000000001000000B4
:1053F80000000000010000000000000000000000A4
:1054080000000000000000008025000000000000EF
:045418000000000090
:04000005080000F0FF
:00000001FF
