:020000040800F2
:10000000000400204101000801020008010200086C
:1000100001020008010200080102000801020008B4
:100020000102000801020008010200085102000854
:100030000102000801020008010200082102000874
:100040000102000801020008010200080102000884
:100050000102000801020008010200080102000874
:10006000010200080102000801020008811A0008CC
:10007000D11A0008211B0008711B0008C11B0008D1
:10008000111C0008611C00080102000801020008A0
:100090000102000801020008010200080102000834
:1000A0000102000801020008010200080102000824
:1000B000A12500080102000801020008012400082F
:1000C00021240008412400086124000801020008DE
:1000D00001020008010200080102000821280008AE
:0C00E000010200080102000801020008F3
:1000F000704700BFAFF30080AFF30080AFF3008024
:10010000FEE700BFAFF30080AFF30080AFF30080E5
:1001100084B003900291019206E0039B019A1A6059
:10012000039B03F104030393039A029B9A42F4D3C3
:1001300004B07047AFF30080AFF30080AFF30080EE
:1001400072B6204C84F309884FF0020484F31488BB
:10015000BFF36F8F02F054FC1B481C494FF055321F
:10016000FFF7D6FF1A4817494FF05532FFF7D0FF77
:10017000184D194C05E02B68236004F1040405F1C7
:100180000405164B9C42F6D3154816494FF0000261
:10019000FFF7BEFFFFF7ACFF134C03E0236898475F
:1001A00004F10404114B9C42F8D302F039FC104CCA
:1001B00003E02368984704F104040E4B9C42F8D3F3
:1001C000FFF79EFF00080020000000200004002030
:1001D00000040020B02F00080008002000080020C4
:1001E00000080020D8100020EC000008EC000008F7
:1001F000EC000008EC000008AFF30080AFF30080D3
:10020000FEE700BFAFF30080AFF30080AFF30080E4
:1002100072B6FEE7AFF30080AFF30080AFF300806B
:1002200008B500F015FA00F043F800F0E1F900F02D
:100230004FF900F0F5F900F043F800F029FA00F06A
:1002400047F808BDAFF30080AFF30080AFF3008044
:1002500010B582B0EFF309840194019B03F12003F0
:100260000193019B83F3098800F02AF802B010BDC6
:1002700008B50D4B4FF000029A600B4B0B4ADA6049
:100280004FF007004FF0100100F09AF84FF00A000D
:100290004FF4007100F094F84FF00B004FF0800124
:1002A00000F08EF808BD00BF00ED00E00000FA0588
:1002B0004FF0200383F31188704700BFAFF3008035
:1002C0004FF0000383F31188704700BFAFF3008045
:1002D00010B582B0FFF7ECFF1E4B5B6803F40063C0
:1002E000002B32D0EFF309840194019BA3F120038A
:1002F0000193019B83F30988019B4FF08072DA61BF
:10030000154B9B69002B0BD0134B1B689A68124B43
:10031000DB699B689A4294BF00230123DBB20AE0A9
:100320000D4B1B689A680C4BDB699B689A4234BF83
:1003300000230123DBB2002B03D0019B074A9A6103
:1003400005E0019B064A9A6101E0FFF7B9FF02B0A0
:1003500010BD00BF00ED00E0300D0020710300086B
:100360007C030008AFF30080AFF30080AFF30080A0
:1003700000F00EF900F064FC00F022F900DF00BF8D
:1003800003460A462DE9F04FC2F80CD0D3F80CD042
:10039000BDE8F08FAFF30080AFF30080AFF30080D3
:1003A00008B500F00DF9FFF78BFF2846A04700F0D5
:1003B0007FFD08BDAFF30080AFF30080AFF3008096
:1003C00010B485B001900091019B03F003034FEA44
:1003D000C3030393104B019A4FEA92020E4901980E
:1003E0004FEA900000F1060051F8200003994FF009
:1003F000FF0404FA01F16FEA010108400399009C2F
:1004000004FA01F140EA010102F1060243F8221068
:1004100005B010BC704700BF00ED00E0AFF30080F6
:1004200082B00190024BDB69024A9A61FEE700BF8D
:10043000300D0020602B0008AFF30080AFF3008088
:1004400000B583B0FFF714FF00F0BAFA00F018FA15
:1004500001F05EF801F0BCF800F06AF914484FF0C2
:10046000400100F025FC0246124BDA61114BDB69BA
:100470004FF0010283F820200E4BDB690E4ADA614F
:1004800000F06EF84FF0000383F3118862B6094B59
:10049000DB690A4A9A610A4B4FF000020092094850
:1004A0004FF0C0014FF0010200F0AAFC03B000BD04
:1004B000C0080020300D002000040020682B000838
:1004C0002104000800080020AFF30080AFF3008093
:1004D00000B583B000F0FCF81F4B9B69002B05DDD5
:1004E0001D4B9B6903F1FF321B4B9A611A4BDB6971
:1004F0005A6A02F101025A62184BDB6803F10102E9
:10050000164BDA60154B1B681A46144B9A4221D0E1
:10051000124B1B689A6802F1FF329A6013E0019B4C
:10052000DB680093019B4FF00002DA60019B1B68BF
:100530000A4A5A60019B1A68084B1A60019B1A69A3
:10054000009B10469847054B1B680193019B9B68D5
:10055000002BE4D003B000BD300D0020200D0020A2
:1005600008B5064B1B68002B03D1054B1B68002BFD
:1005700002D0044800F024F908BD00BF0C09002097
:1005800010090020802B0008AFF30080AFF300803B
:1005900008B5084B1B68002B03D1074B1B68002BC9
:1005A00002D0064800F00CF9034B4FF001021A602C
:1005B00008BD00BF0C09002010090020882B00088E
:1005C00008B5084B1B68002B03D1074B1B68002B99
:1005D00002DC064800F0F4F8034B4FF000021A600A
:1005E00008BD00BF0C09002010090020902B000856
:1005F00008B5084B1B68002B03DD074B1B68002B5D
:1006000002D0064800F0DCF8034B4FF001021A60FC
:1006100008BD00BF0C09002010090020982B00081D
:1006200008B5084B1B68002B03DD074B1B68002B2C
:1006300002DC064800F0C4F8034B4FF000021A60D9
:1006400008BD00BF0C09002010090020A02B0008E5
:1006500008B5FFF72DFE0A4B1B68002B03DB094B87
:100660001B68002B02D0084800F0AAF8044B1B6856
:1006700003F10102024B1A60FFF722FE08BD00BF22
:100680000C09002010090020A82B0008AFF30080FF
:1006900008B5FFF70DFE0A4B1B68002B03DD094B65
:1006A0001B68002B02D0084800F08AF8044B1B6836
:1006B00003F1FF32024B1A60FFF702FE08BD00BFD4
:1006C0000C09002010090020B02B0008AFF30080B7
:1006D00008B5064B1B68002B03DB054B1B68002B82
:1006E00002DC044800F06CF808BD00BF0C090020D3
:1006F00010090020B82B0008AFF30080AFF3008092
:1007000008B5064B1B68002B03D1054B1B68002B5B
:1007100002DC044800F054F808BD00BF0C090020BA
:1007200010090020C02B0008AFF30080AFF3008059
:10073000034B4FF040021A60014B024A5A60704767
:10074000140900201C090020AFF30080AFF30080E3
:1007500082B00190124B5B68124AD2681A60104B4B
:100760005B68114AD2695A600D4B5B68019A926AC4
:100770009A600B4B5B68019A92F820201A73084B21
:100780005B6803F11002064B5A60054B5A68074B31
:100790009A4202D3024B064A5A6002B0704700BF29
:1007A00014090020200D0020300D00201C0D002019
:1007B0001C090020AFF30080AFF30080AFF300808E
:1007C00000B583B00190034B019A1A60FFF720FD3A
:1007D00003B000BD1C0D0020AFF30080AFF300801C
:1007E00082B001900091009A019B1A60009B5A68A8
:1007F000019B5A60019B5B68009A01995160009AC5
:1008000052681A6002B07047AFF30080AFF3008007
:1008100084B00190019B1B680393039B1A68019BA2
:100820001A60019B1B68019A5A60039B184604B02A
:10083000704700BFAFF30080AFF30080AFF30080DC
:1008400082B00190019B5B68019A12681A60019B5B
:100850001B68019A52685A60019B184602B07047A3
:1008600084B00190019B1B680393039B1A68019B52
:100870001A60039B184604B0704700BFAFF30080B6
:10088000074A074B5A60064B5A68054B1A60044BDF
:100890004FF0FF329A60024B4FF00002DA6070476F
:1008A000200D0020AFF30080AFF30080AFF3008095
:1008B00000B587B00390029101920093FFF708FF03
:1008C000039B002B05D0019B002B02D0029B002B29
:1008D00002D11C48FFF774FF039B009A1A61039B27
:1008E000019ADA60184B1B68059307E0059B9B682B
:1008F000029AD31A0293059B1B680593059B9A687D
:10090000029B9A42F2D3039B059A1A60039B1B68D1
:100910005A68039B5A60039B5B68059A0399516070
:10092000059A52681A60039B029A9A60059A064BD0
:100930009A4205D0059B9A68029BD21A059B9A6041
:1009400007B000BDD02B0008200D0020AFF30080C1
:1009500000B583B00190FFF7BBFE019B002B02D1D5
:100960001348FFF72DFF019BDB68002B02D11148D4
:10097000FFF726FF019B1A680F4B9A4208D0019B94
:100980001B68019A12689168019A92688A189A60A5
:10099000019B5B68019A12681A60019B1B68019AAF
:1009A00052685A60019B4FF00002DA6003B000BD4C
:1009B000E02B0008F02B0008200D0020AFF3008092
:1009C0000B4A0B4B5A600A4B5A68094B1A60084B8A
:1009D0004FF000029A60064B4FF014029A61044AED
:1009E000034B5A61024B5A69014B1A61704700BFB1
:1009F000300D0020AFF30080AFF30080AFF3008034
:100A000000B585B00190019B93F82030002B04D0F5
:100A1000019B93F820300E2B02D11348FFF7D0FE34
:100A2000019B4FF0000283F82020104B0393039B9F
:100A30001B680393039B9A68019B9B689A42F6D2BA
:100A4000019B039A1A60039B5A68019B5A60019BA1
:100A50005B68039A01995160039A52681A60019B7E
:100A6000184605B000BD00BF102C0008300D002056
:100A700000B585B003468DF80730FFF741FE164BF1
:100A8000DB690393039B9DF8072083F82020124B1A
:100A90004FF014029A611048FFF7BAFE02460E4B5F
:100AA000DA610D4BDB694FF0010283F820200398D7
:100AB000FFF74EFE6B46A3F12402039BDB699A42CB
:100AC00002D20648FFF77CFE034BDB691846039908
:100AD000FFF756FC05B000BD300D0020242C0008A7
:100AE00000B585B00190019B0393039B93F82030E0
:100AF0000D2B28D801A252F823F000BF570B000895
:100B0000470B0008470B0008350B0008470B00088F
:100B1000410B0008470B0008470B0008470B000873
:100B2000470B0008470B0008470B0008470B00085D
:100B3000410B0008039B9B6A9A6802F101029A60CC
:100B40000398FFF77DFE039B4FF0FF329A620398F4
:100B5000FFF756FF00E000BF05B000BDAFF3008017
:100B600000B589B0034600918DF80730FFF7C8FD46
:100B7000009BB3F1FF3F14D00F4BDB6903AA104673
:100B800000990E4AFFF794FE9DF807301846FFF7CC
:100B90006FFF069B002B09D003AB1846FFF7D8FE6A
:100BA00004E09DF807301846FFF762FF024BDB694F
:100BB0009B6A184609B000BD300D0020E10A00080C
:100BC00000B585B001900091FFF79AFD019B009A56
:100BD0009A62019B9A68174BDB699B689A4203D81B
:100BE0000198FFF70DFF22E0124BDB691846FFF773
:100BF00007FF03900F4B4FF014029A610D4B019ABF
:100C0000DA61019B4FF0010283F820200398FFF77F
:100C10009FFD6B46A3F12402039BDB699A4202D23B
:100C20000548FFF7CDFD01980399FFF7A9FB05B033
:100C300000BD00BF300D0020242C0008AFF3008061
:100C400000B583B0154B4FF014029A61134BDB696A
:100C500001931248FFF7DCFD0246104BDA610F4B9F
:100C6000DB694FF0010283F820200198FFF7C8FEEE
:100C70000198FFF76DFD6B46A3F12402019BDB6930
:100C80009A4202D20648FFF79BFD044BDB691846E7
:100C90000199FFF775FB03B000BD00BF300D0020C8
:100CA000242C0008AFF30080AFF30080AFF3008086
:100CB00082B001900091019B009A9A60019B4FF0D5
:100CC000020283F82020019B4FF0000283F82120CC
:100CD000019B009A5A64019B4FF000021A64019B29
:100CE0004FF00002DA63019B4FF000025A62019B51
:100CF0004FF0010283F82220019B4FF000029A611D
:100D0000134A019B1A61124B5A69019B5A61019B5C
:100D10005B690F4A019951610D4A52691A61019B41
:100D200003F12C031A46019BDA62019B03F13003A5
:100D30001A46019B5A63019B5A6B019B1A63019BE4
:100D400003F14C02019BDA61019B184602B0704727
:100D5000300D0020AFF30080AFF30080AFF30080D0
:100D600084B00390029113468DF8073007E0039B8F
:100D70009DF807201A70039B03F101030393039A64
:100D8000029B9A42F3D304B0704700BFAFF30080D8
:100D900000B587B00390029101920093039B0593E5
:100DA000FFF796FC039B002B08D0029BAF2B05D9C5
:100DB000019B7F2B02D8009B002B02D10E48FFF72E
:100DC000FFFC039A029BA3F12403D218059BDA606F
:100DD000059BDB68009A1A60059BDB68089A5A60DD
:100DE000059BDB68054A1A6205980199FFF760FFC9
:100DF0000346184607B000BD402C0008A1030008B8
:100E000000B589B00590049103920293059A059B61
:100E100003F14C03104619464FF0FF02FFF7A0FF05
:100E2000059B03F14C020599049BCB18104619460B
:100E30004FF05502FFF794FFFFF73AFAFFF7A8FBD0
:100E40000A9B009305980499039A029BFFF7A0FF61
:100E5000079007984FF00001FFF7B2FEFFF7B0FBD5
:100E6000FFF72EFA079B184609B000BDAFF30080CC
:100E700000B583B00190019B002B02D10848FFF719
:100E80009FFCFFF715FAFFF783FB4FF0060001996F
:100E9000FFF766FEFFF794FBFFF712FA03B000BD01
:100EA000802C0008AFF30080AFF30080AFF3008028
:100EB00000B583B00190FFF7FBF9FFF769FB0198DC
:100EC00000F006F803B000BDAFF30080AFF3008080
:100ED00000B585B00190194BDB690393039B019A20
:100EE0009A6209E0039B03F12C031846FFF7B8FC54
:100EF00003461846FFF784FD039BDA6A039B03F160
:100F00002C039A42EED1039B93F8213003F00303A4
:100F1000002B09D1039B5B69039A12691A61039B39
:100F20001B69039A52695A614FF00E00FFF7A0FD4A
:100F30000348FFF745FC05B000BD00BF300D0020A1
:100F4000902C0008AFF30080AFF30080AFF3008077
:100F500000B583B00190019B002B02D10848FFF738
:100F60002FFC019B1A46019B5A60019B5A68019B0A
:100F70001A60019B4FF000029A6003B000BD00BFF1
:100F8000E02C0008AFF30080AFF30080AFF30080E7
:100F900000B583B001900091FFF79AFB019B002BF5
:100FA00002D11648FFF70CFC019BDA6B009B1A4339
:100FB000019BDA63019B93F82030082B07D1019B3A
:100FC000DA6B019B9B6A02EA0303002B0DD1019BA4
:100FD00093F82030092B0FD1019BDA6B019B9B6AA0
:100FE0001A40019B9B6A9A4206D10198FFF708FDBF
:100FF00003464FF000029A6203B000BDCC2D0008FA
:1010000000B585B001900091FFF762FB019B002BBA
:1010100002D10D48FFF7D4FB019B1B6803930DE041
:10102000039B5A68039B9968009B41EA030310469F
:101030001946FFF7ADFF039B1B680393019B039ABF
:101040009A42EDD105B000BDE02D0008AFF300805D
:1010500000B583B001900091009B002B02D14FF0AE
:10106000FF3310E0094BDB69019A9A62074BDA699A
:10107000019B10461946FFF7B3FB4FF00D00009996
:10108000FFF76EFD0346184603B000BD300D00208B
:1010900084B00390029101920093039B1A46039B34
:1010A0005A60039B5A68039B1A60039B4FF000022F
:1010B0009A60039B029A5A61039B5A69039B9A6147
:1010C000039B9A69039BDA60029A019BD218039BE7
:1010D0001A61039B009ADA6104B07047AFF3008095
:1010E00000B583B001900B468DF80330FFF7F0FA9E
:1010F000019B5A69019B9B699A4206D1019B9B689F
:10110000002B02D06FF003032BE0019B9B6803F1DF
:101110000102019B9A60019B5B699DF803201A7094
:1011200003F10102019B5A61019B5A69019B1B69F2
:101130009A4203D3019BDA68019B5A61019B1A68AA
:10114000019B9A420BD0019B1846FFF761FB0346B7
:101150001846FFF755FC03464FF000029A624FF025
:101160000003184603B000BDAFF30080AFF300806A
:1011700000B585B001900091FFF79AF8FFF708FAE3
:10118000019BDB69002B12D0019BDB69019898471A
:101190000EE001980099FFF75BFF0390039B002B83
:1011A00006DAFFF70DFAFFF78BF8039B23E000BF89
:1011B000019B9B68002BECD0019B9B6803F1FF32E5
:1011C000019B9A60019B9B691A788DF80B2003F1B3
:1011D0000102019B9A61019B9A69019B1B699A42DA
:1011E00003D3019BDA68019B9A61FFF7E9F9FFF7E6
:1011F00067F89DF80B30184605B000BDAFF30080CE
:1012000000B587B00390029101920093039BDB69C4
:1012100004934FF000030593019B002B02D12B4850
:10122000FFF7CEFAFFF744F8FFF7B2F9049B002B63
:1012300010D0049B039898470DE003980099FFF79E
:1012400007FF0346002B06D0FFF7BAF9FFF738F87F
:10125000059B37E000BF039B9B68002BEDD0039BF1
:101260009B6803F1FF32039B9A60039B9B6919788B
:10127000029A1170029A02F10102029203F1010234
:10128000039B9A61039B9A69039B1B699A4203D350
:10129000039BDA68039B9A61FFF792F9FFF710F856
:1012A000059B03F101030593019B03F1FF330193B8
:1012B000019B002B01D1059B04E0FEF7F9FFFFF72E
:1012C00067F9B3E7184607B000BD00BF202E00083D
:1012D00084B00390029101920093039B1A46039BF2
:1012E0005A60039B5A68039B1A60039B019A9A6099
:1012F000039B029A5A61039B5A69039B9A61039B61
:101300009A69039BDA60029A019BD218039B1A61C7
:10131000039B009ADA6104B0704700BFAFF300800E
:1013200000B587B003900B4601928DF80B30FEF7A5
:10133000BFFFFFF72DF90DE003980199FFF788FE35
:101340000590059B002B05DAFFF73AF9FEF7B8FF89
:10135000059B2AE0039B9B68002BEDD0039B9B68B9
:1013600003F1FF32039B9A60039B5B699DF80B209E
:101370001A7003F10102039B5A61039B5A69039B94
:101380001B699A4203D3039BDA68039B5A61039B50
:10139000DB69002B03D0039BDB6903989847FFF7B9
:1013A0000FF9FEF78DFF4FF00003184607B000BDA0
:1013B00000B585B00190FFF78BF9019B5A69019B3D
:1013C0009B699A4206D1019B9B68002B02D06FF06B
:1013D00002032BE0019B9B6803F10102019B9A60D1
:1013E000019B9B691A788DF80F2003F10102019B84
:1013F0009A61019B9A69019B1B699A4203D3019BE5
:10140000DA68019B9A61019B1A68019B9A420BD092
:10141000019B1846FFF7FCF903461846FFF7F0FA60
:1014200003464FF000029A629DF80F30184605B04F
:1014300000BD00BFAFF30080AFF30080AFF30080CA
:1014400000B587B00390029101920093039BDB6982
:1014500004934FF000030593019B002B02D12B480E
:10146000FFF7AEF9FEF724FFFFF792F80CE00398C0
:101470000099FFF7EDFD0346002B05D0FFF7A0F81C
:10148000FEF71EFF059B3DE0039B9B68002BEED003
:10149000039B9B6803F1FF32039B9A60039B5B698C
:1014A000029A12781A7003F10102039B5A61029B9F
:1014B00003F101030293039B5A69039B1B699A4240
:1014C00003D3039BDA68039B5A61049B002B02D071
:1014D000049B03989847FFF773F8FEF7F1FE059B0E
:1014E00003F101030593019B03F1FF330193019B7A
:1014F000002B01D1059B05E0FEF7DAFEFFF748F867
:1015000000BFC1E7184607B000BD00BF342E000879
:10151000074B03F1070323F007031A46054B1A6034
:10152000054B23F007031A46044B1A60704700BFAF
:10153000D8100020500D002000500020540D002035
:1015400000B585B00190FEF7B3FEFFF721F80198D2
:1015500000F00EF80390FFF733F8FEF7B1FE039B9F
:10156000184605B000BD00BFAFF30080AFF30080A8
:1015700000B585B00190FFF7ABF8019B03F10703BD
:1015800023F0070301930D4B1B681A460C4B1B6895
:10159000D31A1A46019B9A4202D24FF0000309E087
:1015A000074B1B680393064B1A68019BD218044B28
:1015B0001A60039B184605B000BD00BF540D002003
:1015C000500D0020AFF30080AFF30080AFF3008038
:1015D00008B5074B074A1A60054B4FF000029A60A6
:1015E000034B4FF00002DA600348FFF7B1FC08BD7F
:1015F000580D002041150008680D0020AFF3008051
:1016000008B500F0BDFB00F0FBF9074801F030F928
:1016100000F00EF800F03CF800F05AF800F030F955
:1016200001F0F6F908BD00BF702F0008AFF300808D
:1016300008B500F04DFC08BDAFF30080AFF30080AB
:1016400000B583B00190019B4FF001021A70019B1D
:101650004FF000025A60019B4FF000029A60019B1C
:101660004FF00002DA60019B4FF000021A61019B0B
:101670004FF000025A61019B03F118031846FFF76F
:1016800067FC03B000BD00BFAFF30080AFF3008084
:1016900008B500F0F5FE08BDAFF30080AFF30080A1
:1016A00000B583B00190019B4FF001021A70019BBD
:1016B0004FF000025A60019B03F10C031846FFF73C
:1016C00047FC03B000BD00BFAFF30080AFF3008064
:1016D00008B500F075FF08BDAFF30080AFF30080E0
:1016E00082B00190019B4FF001021A70019B4FF0F4
:1016F00000025A6002B07047AFF30080AFF3008081
:1017000000B585B0039002910192039B03F1300371
:1017100018460299019A4FF0FF33FFF791FE0346F6
:10172000184605B000BD00BFAFF30080AFF30080E6
:1017300000B585B0039002910192039B03F1100361
:1017400018460299019A4FF0FF33FFF759FD0346FF
:10175000184605B000BD00BFAFF30080AFF30080B6
:1017600082B00190019B9B6B002B14BF00230123CF
:10177000184602B0704700BFAFF30080AFF300809F
:1017800082B00190019B9B69002B14BF00230123B1
:10179000184602B0704700BFAFF30080AFF300807F
:1017A00000B585B003900B4601928DF80B30039B7A
:1017B00003F130029DF80B3010461946019AFFF7ED
:1017C000AFFD0346184605B000BD00BFAFF3008073
:1017D00000B583B001900091019B03F110031846FE
:1017E0000099FFF7C5FC0346184603B000BD00BFD3
:1017F00000B585B00390029101920093039B03F121
:10180000300318460299019A009BFFF719FE034620
:10181000184605B000BD00BFAFF30080AFF30080F5
:1018200000B585B00390029101920093039B03F1F0
:10183000100318460299019A009BFFF7E1FC03464A
:10184000184605B000BD00BFAFF30080AFF30080C5
:1018500000B585B00190FEF72BFDFEF799FE019BC8
:101860009B680393019B4FF000029A60FEF7A8FE6D
:10187000FEF726FD039B184605B000BDAFF30080C0
:1018800008B500F0DDFF08BDAFF30080AFF30080C6
:1018900000B585B0039002910192039B154A1A602E
:1018A000039B03F104031A46039B5A60039B4FF00A
:1018B00000029A60039B4FF001021A73039B03F12D
:1018C0001002039B03F15003104619464FF010021B
:1018D000029BFFF7DDFB039B03F13002039B03F147
:1018E0006003104619464FF01002019BFFF7F0FC11
:1018F00005B000BDC02E0008AFF30080AFF300803C
:1019000000B583B001900B468DF80330FEF7E0FE82
:10191000019B002B02D11848FEF752FF019B9B69E7
:10192000002B0DD1019B9B6843F00402019B9A6040
:10193000019B03F1040318464FF00001FFF760FB21
:10194000019B03F110029DF8033010461946FFF782
:10195000C7FB0346002B0DDA019B9B6843F0800216
:10196000019B9A60019B03F1040318464FF00001AC
:10197000FFF746FB03B000BD882E0008AFF30080E0
:1019800082B00190024B5A68019B9A6002B0704786
:10199000001000E0AFF30080AFF30080AFF30080F1
:1019A00084B00190114B5B680393019B9B68039A81
:1019B000D21A0F4B1B68D21A019B9A60019B9A683E
:1019C000019BDB689A4204D9019B9A68019BDA600B
:1019D00009E0019B9A68019B1B699A4203D2019B13
:1019E0009A68019B1A6104B0704700BF001000E0C4
:1019F000780D0020AFF30080AFF30080AFF30080DC
:101A000000B587B00A4B4FF000021A6001AB1846D0
:101A100000F016F8019B01AA10469847029B01AA04
:101A200010469847039A024B1A6007B000BD00BFEA
:101A3000780D0020AFF30080AFF30080AFF300809B
:101A400082B00190019B094A1A60019B084A5A60C2
:101A5000019B4FF000029A60019B4FF00002DA6098
:101A6000019B4FF0FF321A6102B0704781190008E4
:101A7000A1190008AFF30080AFF30080AFF300803E
:101A800000B583B0FEF7E4FD0C4B1B6803F00F03B9
:101A900001930A4B4FF00F025A60094B1B68002B51
:101AA00006D0074B1B68064A5268104601999847B2
:101AB000FEF7EEFDFEF70CFC03B000BD0000024097
:101AC000800D0020AFF30080AFF30080AFF3008003
:101AD00000B583B0FEF7BCFD0D4B1B684FEA131336
:101AE00003F00F0301930A4B4FF0F0025A60094BC9
:101AF0009B68002B06D0074B9B68064AD2681046AD
:101B000001999847FEF7C4FDFEF7E2FB03B000BD64
:101B100000000240800D0020AFF30080AFF3008092
:101B200000B583B0FEF794FD0D4B1B684FEA1323FD
:101B300003F00F0301930A4B4FF470625A60094B94
:101B40001B69002B06D0074B1B69064A52691046D9
:101B500001999847FEF79CFDFEF7BAFB03B000BD64
:101B600000000240800D0020AFF30080AFF3008042
:101B700000B583B0FEF76CFD0D4B1B684FEA1333C5
:101B800003F00F0301930A4B4FF470425A60094B64
:101B90009B69002B06D0074B9B69064AD269104609
:101BA00001999847FEF774FDFEF792FB03B000BD64
:101BB00000000240800D0020AFF30080AFF30080F2
:101BC00000B583B0FEF744FD0D4B1B684FEA13438D
:101BD00003F00F0301930A4B4FF470225A60094B34
:101BE0001B6A002B06D0074B1B6A064A526A104636
:101BF00001999847FEF74CFDFEF76AFB03B000BD64
:101C000000000240800D0020AFF30080AFF30080A1
:101C100000B583B0FEF71CFD0D4B1B684FEA135354
:101C200003F00F0301930A4B4FF470025A60094B03
:101C30009B6A002B06D0074B9B6A064AD26A104665
:101C400001999847FEF724FDFEF742FB03B000BD63
:101C500000000240800D0020AFF30080AFF3008051
:101C600000B583B0FEF7F4FC0D4B1B684FEA13631D
:101C700003F00F0301930A4B4FF070625A60094B57
:101C80001B6B002B06D0074B1B6B064A526B104692
:101C900001999847FEF7FCFCFEF71AFB03B000BD64
:101CA00000000240800D0020AFF30080AFF3008001
:101CB00082B0144B4FF000021A604FF00003019302
:101CC00016E01149019A13464FEA43039B184FEA65
:101CD0008303CB181B684FF000021A600B4B019A6C
:101CE0004FF0000143F83210019B03F1010301930F
:101CF000019B062BE5DD064B4FF0FF325A6002B028
:101D0000704700BF7C0D0020F02E0008800D0020E1
:101D100000000240AFF30080AFF30080AFF300801B
:101D2000134B134A126842F480721A60114B1B6AFB
:101D300003F44073B3F5407F07D00E4B4FF480326D
:101D40001A620C4B4FF000021A620A4B1B6A03F432
:101D50000043002B0BD1074B064A126A42F4407233
:101D60001A62044B034A126A42F400421A62704734
:101D70000070004000100240AFF30080AFF300801D
:101D800008B51E4B1B691D4B4FF0FF321A611B4BF0
:101D90004FF000021A61194BDB68184B4FF0FF320D
:101DA000DA60164B4FF00002DA60154B43F67F62A3
:101DB0005A60134B4FF000029A60114B4FF007022C
:101DC0001A60104B0F4AD26842F08072DA600E4BF4
:101DD0000D4A126842F001021A60084B074AD269A4
:101DE00042F08052DA61054B044AD26942F0006247
:101DF000DA61FFF795FFFFF75BFF08BD00100240B7
:101E000010E000E0F0ED00E0001000E0AFF3008033
:101E1000294B294A126842F001021A6000BF264B82
:101E20001B6803F00203002BF9D0234B224A1268EF
:101E300002F0F9021A60204B4FF000025A6000BF16
:101E40001D4B5B6803F00C03002BF9D11A4B1A4AA7
:101E5000126842F480321A6000BF174B1B6803F40B
:101E60000033002BF9D0144B134A526842F48032ED
:101E70005A60114B104A126842F080721A6000BF1B
:101E80000D4B1B6803F00073002BF9D00A4B0B4A73
:101E90005A600B4B4FF010021A60074B064A52680B
:101EA00042F002025A6000BF034B5B6803F00C0370
:101EB000082BF9D1704700BF0010024000644100B8
:101EC00000200240AFF30080AFF30080AFF300804A
:101ED00008B51E48FFF7B4FB1C4B1D4A9A621B4B0A
:101EE0001C4ADA62194B42F28A521A631A4B1A4A96
:101EF000926942F400729A61154B4FF000025A60E9
:101F0000134B4FF001029A60114B4FF009029A6097
:101F100000BF0F4B9B6803F00803002BF9D10C4B5B
:101F20004FF005029A6000BF094B9B6803F0040361
:101F3000002BF9D1064B4FF000029A60064B064A7F
:101F4000926922F400729A6108BD00BFB80D0020AA
:101F500000240140F02E000800100240AFF3008082
:101F600000B587B00190019B1B6B0493049B1B8BF6
:101F70009BB20393049B9B8A9BB20593019B93F8AE
:101F80003430002B40F0AE80039B4FEA0342059BA8
:101F900042EA030323F07F434E4A934212D04D4A54
:101FA000934203D84C4A934207D089E04B4A93426C
:101FB00031D04B4A934241D082E0019B1A8C049B62
:101FC0001A827DE0049B9B889BB223F400739AB233
:101FD000049B9A80019B9B6A1B68019A926A126813
:101FE000126842F001021A60049B9B889BB243F482
:101FF00080539AB2049B9A80019B9B6A1B685B6822
:10200000012B5CD8049B1B889BB223F480639AB29B
:10201000049B1A8054E0049B9B889BB223F40073BA
:102020009AB2049B9A80019BDB6A1B68019AD26A70
:102030001268126842F001021A6041E0019B9B6A3B
:102040001B685B68002B0FD0019B1B8C43F00103C6
:102050009AB2019B1A84049B1B889BB243F4A06331
:102060009AB2049B1A80B9E0049B9B889BB223F42C
:1020700000739AB2049B9A80049B1B889BB243F422
:1020800000739AB2049B1A80FEF712F9FEF7B0FAB9
:10209000019BDB69002B0DD0019BDB690293019B47
:1020A0004FF00002DA61029B4FF000029A62029840
:1020B000FEF7A6FCFEF7B4FAFEF702F900E000BF57
:1020C000059B03F00A03002B00F08880049B1B8B08
:1020D00084E000BF0200030001000300820007004B
:1020E00084000700059B03F00A03002B0FD0019B1F
:1020F0004FF000021A64019B4FF000021A65049B26
:102100009B8A9BB20593049B1B8B9BB20393059BFD
:1021100003F08003002B16D0019B9A6C019B1B6D72
:10212000D21812781146049A118203F10102019B20
:102130001A65019B1A6C019BDB6C9A4203D3019BCD
:102140004FF000021A65059B03F04003002B17D0E7
:10215000019B9A6B019B1B6CD2180499098A89B266
:10216000C9B2117003F10102019B1A64019B1A6C40
:10217000019BDB6B9A4203D3019B4FF000021A6470
:10218000059B03F01003002B13D0049B9B8A9BB28A
:102190000593049B1B889BB243F001039AB2049BF6
:1021A0001A80019B5B6C002B03D0019B5B6C019838
:1021B0009847059B03F48063002B0FD0049B9B8AF8
:1021C0009BB223F480639AB2049B9A82019B5B6D5D
:1021D000002B03D0019B5B6D0198984707B000BDB1
:1021E00000B587B00190019B1B6B0493FEF760F86C
:1021F000FEF7FEF9019BDB6A1B68019AD26A12683E
:10220000126822F001021A60019BDB6A5B68019A86
:10221000D26A127A4FF00F0101FA02F21A60019BA2
:102220009B6A1B68019A926A1268126822F0010286
:102230001A60019B9B6A5B68019A926A127A4FF05E
:102240000F0101FA02F21A60FEF7EAF9FEF738F818
:102250004FF000030593049B9B8A9BB203F48073A9
:10226000002B0BD0049B9B8A9BB223F480739AB201
:10227000049B9A82059B43F001030593049B9B8A70
:102280009BB203F40073002B0BD0049B9B8A9BB280
:1022900023F400739AB2049B9A82059B43F00203D5
:1022A0000593019B93F83430002B23D1049B9B8A28
:1022B0009BB203F48063002B2CD0049B9B8A9BB2BF
:1022C00023F480639AB2049B9A82049B9B889BB2FE
:1022D00023F400739AB2049B9A80049B1B889BB2E0
:1022E00043F400739AB2049B1A80059B43F00403E5
:1022F00005930FE0049B9B8A9BB223F480639AB200
:10230000049B9A82019B5B6D002B03D0019B5B6D4C
:1023100001989847049B9B8A9BB203F40063002BAF
:102320000BD0049B9B8A9BB223F400639AB2049B5C
:102330009A82059B43F008030593049B9B8A9BB2FA
:1023400003F48053002B0BD0049B9B8A9BB223F495
:1023500080539AB2049B9A82059B43F01003059325
:10236000049B9B8A9BB203F48043002B0BD0049BFD
:102370009B8A9BB223F480439AB2049B9A82059B6A
:1023800043F020030593049B9B8A9BB29BB21BB234
:10239000002B0DDA049B9B8A9BB24FEA43434FEA22
:1023A00053439AB2049B9A82059B43F040030593E2
:1023B000059B002B1CD0019B059A9A60FDF778FFC6
:1023C000FEF716F9019BDB69002B0DD0019BDB6941
:1023D0000393019B4FF00002DA61039B6FF001024F
:1023E0009A620398FEF70CFBFEF71AF9FDF768FFF7
:1023F00007B000BDAFF30080AFF30080AFF3008003
:1024000008B5FEF725F90448FFF7AAFDFEF740F9E5
:10241000FDF75EFF08BD00BFEC0D0020AFF30080AC
:1024200008B5FEF715F90448FFF7DAFEFEF730F9B4
:10243000FDF74EFF08BD00BFEC0D0020AFF300809C
:1024400008B5FEF705F90448FFF78AFDFEF720F905
:10245000FDF73EFF08BD00BF440E0020AFF3008033
:1024600008B5FEF7F5F80448FFF7BAFEFEF710F9D5
:10247000FDF72EFF08BD00BF440E0020AFF3008023
:1024800008B51048FFF70CF90E4B4FF00002DA6167
:102490000C4B0D4A1A630B4B0C4A9A62094B0C4ABF
:1024A000DA620C48FFF7FCF80A4B4FF00002DA61E1
:1024B000084B094A1A63074B084A9A62054B084AB7
:1024C000DA6208BDEC0D002000540040382F0008EF
:1024D0002C2F0008440E002000580040202F000838
:1024E000142F0008AFF30080AFF30080AFF300803B
:1024F00000B585B00190019B1B691B8AADF80E30B9
:10250000019B1B699B899AB2BDF80E3002EA030356
:10251000ADF80E30019B1B694FF6E0721A82BDF8D0
:102520000E3003F00203002B04D0019B5B681B6993
:1025300001989847BDF80E3003F00403002B04D037
:10254000019B5B689B6901989847BDF80E3003F0CA
:102550000803002B04D0019B5B681B6A0198984715
:10256000BDF80E3003F01003002B04D0019B5B6814
:102570009B6A01989847BDF80E3003F00103DBB267
:10258000002B04D0019B5B689B680198984705B0BD
:1025900000BD00BFAFF30080AFF30080AFF3008059
:1025A00008B5FEF755F80448FFF7A2FFFEF770F8EC
:1025B000FDF78EFE08BD00BF9C0E0020AFF300802B
:1025C00008B50448FFF78CF8024B4FF080421A61BF
:1025D00008BD00BF9C0E0020AFF30080AFF3008069
:1025E00000B585B001900B46ADF802304FF0000306
:1025F0000393BDF8023003F00803002B03D0039BC4
:1026000043F080030393BDF8023003F00103DBB213
:10261000002B03D0039B43F020030393BDF802304B
:1026200003F00203002B03D0039B43F0400303930A
:10263000BDF8023003F00403002B03D0039B43F4E6
:1026400080730393FDF734FEFDF7D2FF019B9A6878
:10265000039B1A43019B9A60019B03F104031846F4
:102660004FF00001FEF7CCFCFDF7DAFFFDF728FE86
:1026700005B000BDAFF30080AFF30080AFF3008082
:1026800000B587B00190019B1B6F0593059B9B894B
:10269000ADF81230059B1B88ADF81030059B9B8868
:1026A000ADF80E30BDF8103003F00F03002B05D04D
:1026B000BDF8103001981946FFF792FFBDF81030B1
:1026C00003F48073002B1DD0FDF7F2FDFDF790FFA2
:1026D000019B9B6843F40072019B9A60019B03F18C
:1026E000040318464FF00001FEF78AFCFDF798FF3F
:1026F000FDF7E6FD059B1B889BB223F480739AB21D
:10270000059B1A80BDF8103003F02003002B0ED07B
:10271000FDF7CEFDFDF76CFFBDF80E30DBB2019882
:102720001946FFF7EDF8FDF77BFFFDF7C9FDBDF892
:10273000123003F08003002B35D0BDF8103003F0C9
:102740008003002B2FD0FDF7B3FDFDF751FF019B58
:1027500003F130031846FEF72BFE0290029B002B7C
:1027600019DA019B9B6843F00802019B9A60019B68
:1027700003F1040318464FF00001FEF741FCBDF8D9
:10278000123023F0C0039BB243F040039BB29AB2D5
:10279000059B9A8103E0029B9AB2059B9A80FDF704
:1027A0003FFFFDF78DFDBDF8103003F04003002B17
:1027B00024D0FDF77DFDFDF71BFF019B9B6843F0D7
:1027C0001002019B9A60019B03F1040318464FF02D
:1027D0000001FEF715FCFDF723FFFDF771FDBDF8C5
:1027E000123023F040039AB2059B9A81059B1B8807
:1027F0009BB223F040039AB2059B1A8007B000BD3C
:1028000082B00190044B044A928992B242F0800255
:1028100092B29A8102B0704700480040AFF3008046
:1028200008B5FDF715FF0448FFF72AFFFDF730FF55
:10283000FDF74EFD08BD00BFB00E0020AFF30080D5
:1028400008B505484FF00001044AFFF721F8024B94
:10285000034A1A6708BD00BFB00E00200128000817
:1028600000480040AFF30080AFF30080AFF300807A
:1028700082B00190214B214A926942F07D029A6117
:102880001F4B019A1268DA601D4B019A92685A60D8
:102890001B4B019A52681A601A4B019AD268DA608F
:1028A000184B019A52695A60164B019A12691A60C4
:1028B000154B019A9269DA60134B019A126A5A60B9
:1028C000114B019AD2691A60104B019A526ADA6070
:1028D0000E4B019AD26A5A600C4B019A926A1A60A6
:1028E0000B4B019A126BDA60094B019A926B5A609A
:1028F000074B019A526B1A6002B0704700100240F9
:1029000000080140000C014000100140001401408B
:1029100000180140AFF30080AFF30080AFF30080F8
:102920008AB0039002910192019B032B03D1039B78
:10293000029A1A6105E0019B042B02D1039B029AC3
:102940005A612E4A019BD3181B7804934FF0000361
:102950000693069B0793079B0893089B09934FF0E8
:102960000003059335E0089B4FEA03130893099B86
:102970004FEA03130993069B4FEA03130693079B41
:102980004FEA03130793029B03F08003002B04D14B
:10299000089B43F00F03089304E0069A049B42EA65
:1029A00003030693029B03F40043002B04D1099B0D
:1029B00043F00F03099304E0079A049B42EA0303E0
:1029C0000793029B4FEA43030293059B03F1010324
:1029D0000593059B072BC6D9039B5A68099B1A4090
:1029E000079B1A43039B5A60039B1A68089B1A4073
:1029F000069B1A43039B1A600AB07047502F0008C9
:102A000008B5FFF705FA08BDAFF30080AFF300800B
:102A1000704700BFAFF30080AFF30080AFF30080DA
:102A200008B5FEF7EDFDFDF70BFD00F041F84FF4A2
:102A30007A70FEF71DFAFAE7AFF30080AFF300807B
:102A400000B583B00190164BDB69164A9A611648AF
:102A50004FF400514FF00602FFF762FF12484FF4A7
:102A600080414FF00602FFF75BFF4FF0000000F0DF
:102A70004FF84FF06400FEF7FBF94FF0030000F051
:102A800047F84FF06400FEF7F3F9084B1B7818463F
:102A900000F03EF84FF44870FEF7EAF9E5E700BFB2
:102AA000300D0020B02E0008000C0140240F002043
:102AB00000B583B011484FF400514FF00602FFF704
:102AC0002FFF0E484FF480414FF00602FFF728FF1A
:102AD0000A4B4FF400525A61084B4FF480425A613E
:102AE0004FF00003009306484FF4D8714FF04002B6
:102AF000044BFEF785F903B000BD00BF000C014098
:102B0000280F0020412A0008AFF30080AFF30080B7
:102B100082B00346ADF80630BDF8063003F001037D
:102B2000DBB2002B04D00D4B4FF400521A6103E0CE
:102B30000A4B4FF400525A61BDF8063003F002030D
:102B4000002B04D0054B4FF480421A6103E0034B85
:102B50004FF480425A6102B0704700BF000C014040
:102B600069646C65000000006D61696E0000000022
:102B7000535623310000000053562332000000005A
:102B80005356233300000000535623340000000046
:102B90005356233500000000535623360000000032
:102BA000535623370000000053562338000000001E
:102BB00053562339000000005356233130000000E3
:102BC00053562331310000000000000000000000D7
:102BD0002263685654536574492228290000000076
:102BE000226368565452657365744922282900008F
:102BF0006368565452657365744928292C20233123
:102C000000000000000000000000000000000000C4
:102C1000636853636852656164794928292C2023CD
:102C200031000000737461636B206F766572666CAF
:102C30006F770000000000000000000000000000AE
:102C40002263685468644372656174654922282967
:102C50000000000022636854686453657450726910
:102C60006F72697479222829000000006368546833
:102C700064526573756D6528292C2023310000008E
:102C8000226368546864536C6565702228290000CB
:102C90006368546864457869745328292C2023316B
:102CA0000000000022636854686457616974222838
:102CB0002900000063685468645761697428292CEE
:102CC0002023310063685468645761697428292C93
:102CD000202332000000000000000000000000007F
:102CE0002263684D7478496E6974222829000000B7
:102CF0002263684D74784C6F636B5322282900005F
:102D000063684D74784C6F636B5328292C202331F2
:102D10000000000063684D74784C6F636B53282982
:102D20002C202332000000002263684D7478547216
:102D3000794C6F636B5322282900000063684D743F
:102D400078556E6C6F636B28292C202331000000AE
:102D500063684D7478556E6C6F636B28292C202343
:102D60003200000063684D7478556E6C6F636B536E
:102D700028292C202331000063684D7478556E6C2F
:102D80006F636B5328292C202332000000000000C1
:102D900022636845767452656769737465724D6124
:102DA000736B222829000000226368457674556EF3
:102DB0007265676973746572222829002263684509
:102DC00076745369676E616C222829002263684516
:102DD00076745369676E616C4922282900000000EF
:102DE00022636845767442726F6164636173744DE7
:102DF00061736B492228290022636845767444690F
:102E00007370617463682228290000006368457646
:102E100074446973706174636828292C202331001D
:102E200022636849515265616454696D656F7574B8
:102E3000222829002263684F5157726974655469CA
:102E40006D656F75742228290000000000000000E5
:102E5000227364537461727422282900736453745A
:102E600061727428292C20233100000022736453DE
:102E7000746F702228290000736453746F702829BE
:102E80002C20233100000000227364496E636F6DB3
:102E9000696E674461746149222829002273645273
:102EA0006571756573744461746149222829000055
:102EB00070777200000000000000000000000000B9
:102EC0000117000831170008611700088117000872
:102ED000A1170008D1170008F117000821180008F1
:102EE0005118000800000000000000000000000071
:102EF000080002400400024000000B001C000240D9
:102F00000400024004010C003000024004000240B2
:102F100008020D0044000240040002400C030E00B1
:102F2000580002400400024010040F006C000240F0
:102F3000040002401405100080000240040002401A
:102F40001806110000000000000000000000000052
:102F5000040204080800030708080808080808080D
:102F60000B0F000000000000000000000000000047
:102F7000FFFFFFFF844B888888888888FFFFFFFF5A
:102F8000888888888888B8B4FFFFFFFF88888444D1
:102F900088338388FFFFFFFF448888888888888873
:0C2FA000FFFFFFFF8888888888888888E9
:04000005080000F0FF
:00000001FF
