:020000040800F2
:100000000004002011010008E1020008E1020008DC
:10001000E1020008E1020008E1020008E102000834
:10002000E1020008E1020008E102000811030008F3
:10003000E1020008E1020008E102000811040008E2
:10004000E1020008E1020008E1020008E102000804
:10005000E1020008E1020008E1020008E1020008F4
:10006000E1020008E1020008E1020008B110000806
:10007000E110000811110008511100089111000849
:10008000D111000811120008E1020008E102000885
:10009000E1020008E1020008E1020008E1020008B4
:1000A000E1020008E1020008E1020008E1020008A4
:1000B000F1160008E1020008E1020008E102000870
:1000C000E1020008E1020008E1020008E102000884
:1000D000E1020008E1020008E1020008E102000874
:0C00E000E1020008E1020008E102000853
:1000F000704700BFAFF30080AFF30080AFF3008024
:10010000FEE700BFAFF30080AFF30080AFF30080E5
:1001100072B6634C84F30988022383F31488BFF317
:100120006F8F01F0CDFC5F4A5F48824217D21346C1
:100130004FF05531D64343F8041B85198342C5F36C
:1001400080050CD225B1196002F10803834206D262
:100150001A4642F8041B5960131D8342F8D3534AD0
:10016000A24217D213464FF05531D54343F8041B32
:100170006019A342C0F380000CD220B1196002F1D3
:100180000803A34206D21E4646F8041B5960331DDD
:10019000A342F8D34649474CA14222D246480B46D7
:1001A000024652F8046BCD4343F8046B04EB050C94
:1001B000A342CCF3800514D23DB1166800F10802C9
:1001C0001E6001F10803A3420BD2104650F8045BF5
:1001D000194641F8045B5668021D5E600B1DA34280
:1001E000F3D3364A3648824216D200211346D6430C
:1001F00043F8041B84198342C4F380040CD224B155
:10020000196002F10803834206D21A4642F8041B21
:100210005960131D8342F8D32A4D2B4EFFF768FF18
:10022000B54219D22C4654F8043BE9437718984755
:10023000B442C7F380070FD22FB1236805F1080439
:100240009847B44208D2254655F8042B9047606879
:100250002C1D8047B442F6D31C4D1D4E01F088FC86
:10026000B5421AD22C46EF4354F8043B06EB070E76
:10027000CEF380079847B4420FD22FB1226805F120
:1002800008049047B44208D2254655F8040B80472D
:1002900061682C1D8847B442F6D3FFF731BF00BF19
:1002A00000080020000000200004002000040020BE
:1002B000000800203C080020B02200084008002070
:1002C00008100020EC000008EC000008EC0000081A
:1002D000EC000008AFF30080AFF30080AFF30080C4
:1002E000FEE700BFAFF30080AFF30080AFF3008004
:1002F00072B6FEE7AFF30080AFF30080AFF300808B
:1003000000F086F900F004FC00F0A2F900DF00BF65
:1003100000B5EFF30983203383F3098800F030F848
:100320005DF804FBAFF30080AFF30080AFF3008013
:100330000A4B002210B59A60094A07201021DA60A2
:1003400000F0BEF80A204FF4007100F0B9F80B205D
:100350008021BDE8104000F0B3B800BF00ED00E020
:100360000000FA05AFF30080AFF30080AFF3008028
:10037000202383F311887047AFF30080AFF3008030
:10038000002383F311887047AFF30080AFF3008040
:1003900000B5FFF7EDFF1748436813F4006F17D05F
:1003A000EFF30983203B83F30988134A4FF08070F1
:1003B0009169D86181B11068D2698168926891426F
:1003C00094BF002201228AB10C4999615DF804FBB7
:1003D000FFF7D6FF5DF804FB1068D2698168926868
:1003E000914234BF00220122002AEDD1044A9A61D1
:1003F0005DF804FB00ED00E0740D0020010300082F
:100400000C030008AFF30080AFF30080AFF300806F
:1004100010B500F07DF9FFF7ABFF00F039F900F0FF
:10042000AFF800F055F9FFF7ABFF00F091F9BDE828
:100430001040FFF7ADBF00BFAFF30080AFF3008007
:100440002DE9F04FC1F80CD0D0F80CD0BDE8F08FFA
:1004500008B500F0FDF8FFF793FF2846A04700F02D
:100460006FFC08BDAFF30080AFF30080AFF30080F6
:10047000F0B400F00307FE00FF2313FA06F200F0C9
:100480001F04B1400125A5408608094CC03654F828
:100490002670400927EA020242EA010300F16007E0
:1004A00044F8263044F8275044F82050F0BC7047F8
:1004B00000E100E0AFF30080AFF30080AFF3008015
:1004C00000F0030210B4FF23D40013FA04F2A14099
:1004D0008008064C063054F8203023EA020242EA33
:1004E000010344F8203010BC704700BF00ED00E06D
:1004F0000248034AC3699A61FEE700BF740D0020F9
:10050000401D0008AFF30080AFF30080AFF3008020
:1005100030B583B0FFF70CFF00F02AFA00F0C0F905
:1005200000F036FC00F074FC00F062F940210E4847
:1005300000F016FB0D4D0E490124E86180F82040C3
:10054000C16100F04DF8002383F3118862B6EA69B7
:100550001D46084BC021936107482246074B009572
:1005600000F06EFB03B030BD40080020740D002089
:1005700000040020481D000890080020F104000835
:1005800070B500F005F9114B9A69002A01DD013AB6
:100590009A61DA690E4C516A2368481C5062E1681E
:1005A000481CA342E0600FD09D68013D9D605DB98D
:1005B00026461968DA681869DD604E602160904748
:1005C000236898680028F4D070BD00BF740D002027
:1005D000640D0020AFF30080AFF30080AFF3008024
:1005E0000548036813B9054A116821B10448054B51
:1005F0001860FFF77DBE7047500900205C0D002099
:10060000601D0008600D0020AFF30080AFF3008094
:10061000084810B5036853B9074C216821B1074A4F
:10062000074B1A60FFF764FE0120206010BD024CEA
:10063000F5E700BF500900205C0D0020681D000890
:10064000600D0020AFF30080AFF30080AFF30080B7
:10065000094810B5036833B9084C2168002903DD47
:100660000020206010BD054C054A064B1A60FFF7BC
:100670003FFE0020206010BD500900205C0D0020CE
:10068000701D0008600D0020AFF30080AFF3008004
:10069000084810B50368002B0ADD074C216821B11A
:1006A000064A074B1A60FFF723FE0120206010BDA9
:1006B000014CF5E7500900205C0D0020781D000872
:1006C000600D0020AFF30080AFF30080AFF3008037
:1006D0000A4810B50368002B06DD094C2168002983
:1006E00003DD0020206010BD054C064A064B1A6051
:1006F000FFF7FEFD0020206010BD00BF5009002064
:100700005C0D0020801D0008600D0020AFF300800C
:1007100010B5FFF72DFE094C2368002B02DB0848BB
:1007200002682AB1074B08491960FFF7E1FD236809
:100730005A1C2260FFF724FE10BD00BF50090020A4
:100740005C0D0020600D0020881D0008AFF30080C4
:1007500010B5FFF70DFE094C2368002B02DD084899
:1007600002682AB1074B08491960FFF7C1FD2368E9
:100770005A1E2260FFF704FE10BD00BF5009002082
:100780005C0D0020600D0020901D0008AFF300807C
:1007900006480368002B04DB054A1168002900DDC8
:1007A00070470448044B1860FFF7A2BD50090020B1
:1007B0005C0D0020981D0008600D0020AFF3008044
:1007C0000648036823B9064A1168002900DD70470E
:1007D0000448054B1860FFF78BBD00BF500900208F
:1007E0005C0D0020A01D0008600D0020AFF300800C
:1007F000034A4021134643F8081B5360704700BF6B
:1008000054090020AFF30080AFF30080AFF3008005
:1008100010B40D4A0D4C0E495368E468C9691C6058
:100820005960846A03F110019C6090F8204002F541
:10083000816081421C7328BF02F10803516028BF08
:10084000536010BC704700BF54090020640D0020A5
:10085000740D0020AFF30080AFF30080AFF3008091
:10086000014B1860FFF744BD600D0020AFF300801E
:100870000346006802681A6053607047AFF3008057
:1008800042680168116003685A607047AFF30080E6
:100890000346006802681A60704700BFAFF300802B
:1008A000044B4FF0FF3000225B601B609860DA6001
:1008B000704700BF640D0020AFF30080AFF30080ED
:1008C000F8B504460D4616461F46FFF761FFCCB14A
:1008D000C6B1BDB10D4927610B68E6609A689542C3
:1008E00004D91B68AD1A9A68AA42FAD35A688B4297
:1008F0002360626014605C60A56002D09868451B4C
:100900009D60F8BD0248FFF7ABFFE3E7640D0020F0
:10091000B01D0008AFF30080AFF30080AFF300809C
:1009200010B50446FFF734FF84B1E36893B1236840
:100930000A4A934203D09968A26888189860606850
:10094000002203602368E260586010BD0448FFF78E
:1009500087FFEAE70348FFF783FFE8E7640D00201D
:10096000C01D0008D01D0008AFF30080AFF3008069
:10097000044B002014225B601B6098609A615B61ED
:100980001B617047740D0020AFF30080AFF300804F
:1009900010B590F8203004468BB10E2B0FD00022FA
:1009A000094BA16884F820201B6898688842FBD214
:1009B0005968236061600C605C60204610BD03488C
:1009C000FFF74EFFEBE700BF740D0020F01D00089D
:1009D00010B590F8203004460D2B0FD8DFE803F057
:1009E000160E0E070E0B0E0E0E0E0E0E0E0B806A5E
:1009F00081684A1C82602046FFF742FF4FF0FF33B8
:100A00002046A362BDE81040FFF7C2BF10BD00BF83
:100A100070B5114C0646FFF7D3FEE569142385F83F
:100A200020602046A361FFF723FF0122014680F8E2
:100A300020202846E161FFF7EBFEEA69ADF12403CF
:100A40009A4202D90548FFF70BFFE0692946BDE845
:100A50007040FFF7F5BC00BF740D0020041E0008B5
:100A600070B50E4686B00546FFF7AAFEB6F1FF3F09
:100A700012D00C4C3146E3690B4A01A8FFF720FF66
:100A80002846FFF7C5FF049B13B101A8FFF748FFF5
:100A9000E069806A06B070BD2846FFF7B9FF014CD7
:100AA000F6E700BF740D0020D1090008AFF3008005
:100AB00070B5154D04460E46FFF782FEE869A26840
:100AC0008368A6629A4215D9FFF762FF01231422B8
:100AD000064684F82030AA61EC61FFF799FEF069C0
:100AE000ADF1240188420AD820463146BDE8704065
:100AF000FFF7A6BC2046BDE87040FFF749BF03489A
:100B0000FFF7AEFEF0E700BF740D0020041E0008E2
:100B100070B5104C14232046E569A361FFF7A8FEC9
:100B20000122014680F820202846E161FFF730FFCE
:100B30002846FFF76DFEEA69ADF124039A4202D917
:100B40000548FFF78DFEE0692946BDE87040FFF7D4
:100B500077BC00BF740D0020041E0008AFF30080B6
:100B6000F0B40022104C0125022380F8203080F8D8
:100B7000212080F82250656900F1300600F12C0C2C
:100B800000F14C0704618160456141646061026469
:100B9000C263426282612861C0F82CC0466306636A
:100BA000C761F0BC704700BF740D0020AFF3008038
:100BB000F8B504460D4616461F46FFF7E9FD0CB191
:100BC000AF2D2BD81848FFF74BFE243D6119E1608B
:100BD0006751069D15484D600023154A02270125DF
:100BE000086284F8207084F8225084F8213050691B
:100BF00004F1300104F12C0704F14C05226160611D
:100C0000A6606664546123640461E3636362A36164
:100C1000E76261632163E5612046F8BD7F2ED1D88C
:100C2000002FD2D1CEE700BF201E000851040008DB
:100C3000740D0020AFF30080AFF30080AFF30080AD
:100C4000F0B504460D461E4683B017464C30234689
:100C5000FF211A4602F8011B5970531C8342F8D138
:100C60006019834215D25521DA4303F8011B00EBCA
:100C7000020C83420CF001020BD01AB103F8011BE5
:100C8000834206D01A4602F8011B5970531C834256
:100C9000F8D1FFF76DFBFFF7BBFC2046089C3A46F6
:100CA000334629460094FFF783FF00210446FFF7EF
:100CB000FFFEFFF7CDFCFFF763FB204603B0F0BD5E
:100CC00010B5044610B90848FFF7CAFDFFF750FBFE
:100CD000FFF79EFC21460620FFF7C2FEFFF7B8FC97
:100CE000FFF74EFB10BD00BF601E0008AFF3008091
:100CF000114970B5CD69EB6A05F12C04A342A862D5
:100D000007D02046FFF7C4FDFFF742FEE86AA04285
:100D1000F7D195F8212012F0030F04D16B692869EF
:100D2000186129694B610E20FFF772FE0348BDE888
:100D30007040FFF795BD00BF740D0020701E0008C5
:100D400010B50446FFF714FBFFF762FC2046BDE830
:100D50001040FFF7CDBF00BFAFF30080AFF30080BE
:100D600010B5044620B1002364602460A36010BD68
:100D70000348FFF775FD002364602460A36010BD85
:100D8000C01E0008AFF30080AFF30080AFF3008017
:100D9000054B064A064823F00701064B116020F078
:100DA00007021A60704700BF0F100020980D002046
:100DB00000280020940D0020AFF30080AFF30080E6
:100DC00010B50446FFF7E4FC074A084913680968B0
:100DD000E01D20F00700C91A884203D818181060D7
:100DE000184610BD002010BD980D0020940D002065
:100DF00010B50446FFF7BCFAFFF70AFC2046FFF7E0
:100E0000DFFF0446FFF724FCFFF7BAFA204610BDC7
:100E1000044B0549002203F1100019609A60DA6062
:100E2000FFF79EBFA00D0020F10D0008AFF300807A
:100E300010B500F08DFA00F01BF9054800F060FDD8
:100E400000F00EF800F094F8BDE8104000F040BE4D
:100E500030220008AFF30080AFF30080AFF30080D2
:100E600000F0A6BBAFF30080AFF30080AFF30080CB
:100E700000230122027043608360C3600361436109
:100E80001830FFF76DBF00BFAFF30080AFF30080F5
:100E900038B504460D46B0B1FFF76AFAFFF7B8FB64
:100EA0002178481EC3B2012B02D90948FFF7D8FCAC
:100EB0002046656000F0B4FB02222270FFF7C8FBF9
:100EC000FFF75EFA38BD0348FFF7CAFCE4E700BF4E
:100ED000801F0008701F0008AFF30080AFF3008090
:100EE0002DE9F04104460D4616461F46FFF750FC1B
:100EF000D4B1CDB1C6B1012F02D017F0010F13D17B
:100F00002378022B06D0042B04D0052B02D00848EE
:100F1000FFF7A6FC03232046A660E7602561237047
:100F2000BDE8F04100F0ACBB0248FFF799FCE7E7F1
:100F3000C41F0008AC1F0008AFF30080AFF30080AF
:100F4000F8B507460E4615461C46FFF711FAFFF79F
:100F50005FFB384631462A462346FFF7C1FFFFF7BD
:100F600077FBFFF70DFAF8BDAFF30080AFF3008019
:100F700000F0FEBBAFF30080AFF30080AFF3008062
:100F80000121002301704360704700BFAFF3008070
:100F900038B504460D46C8B1C1B1FFF7E9F9FFF70E
:100FA00037FB2178481EC3B2012B02D90948FFF74D
:100FB00057FC6560AD882046258100F0E9FB0222E0
:100FC0002270FFF745FBFFF7DBF938BD0248FFF75A
:100FD00047FCE2E79020000880200008AFF3008083
:100FE00070B504460D461646A8B1032913D8FFF77D
:100FF000BFF9FFF70DFB2378022B02D00848FFF75B
:101000002FFC20462946324600F05AFCFFF720FB11
:10101000FFF7B6F970BD0348FFF722FCE7E700BF12
:1010200000210008E8200008AFF30080AFF3008043
:1010300001494B6883607047001000E0AFF3008007
:10104000084B09495A6883680968D31AC2685B1A51
:101050009342836004D80269934238BF03617047AA
:10106000C3607047001000E0C00D0020AFF30080A7
:1010700010B50B4A86B00B490B4C002301A8019216
:101080004FF0FF3223600393049302910592FFF720
:10109000CFFF01A802998847039B236006B010BDCB
:1010A0003110000841100008C00D0020AFF300808F
:1010B00010B5FFF72DFB0848084A03680F24116894
:1010C000546013B1406821409847FFF741FBBDE8E9
:1010D0001040FFF75DB900BFC40D002000000240C2
:1010E00010B5FFF715FB0848084A8368F02411681B
:1010F00054601BB1C068C1F303119847FFF728FB88
:10110000BDE81040FFF744B9C40D002000000240C4
:1011100010B5FFF7FDFA0948094A03694FF47064F6
:10112000116854601BB14069C1F303219847FFF770
:101130000FFBBDE81040FFF72BB900BFC40D002026
:1011400000000240AFF30080AFF30080AFF30080F7
:1011500010B5FFF7DDFA0948094A83694FF4704476
:10116000116854601BB1C069C1F303319847FFF7A0
:10117000EFFABDE81040FFF70BB900BFC40D002027
:1011800000000240AFF30080AFF30080AFF30080B7
:1011900010B5FFF7BDFA0948094A036A4FF47024F5
:1011A000116854601BB1406AC1F303419847FFF7CF
:1011B000CFFABDE81040FFF7EBB800BFC40D002028
:1011C00000000240AFF30080AFF30080AFF3008077
:1011D00010B5FFF79DFA0948094A836A4FF4700475
:1011E000116854601BB1C06AC1F303519847FFF7FF
:1011F000AFFABDE81040FFF7CBB800BFC40D002028
:1012000000000240AFF30080AFF30080AFF3008036
:1012100010B5FFF77DFA0948094A036B4FF0706477
:10122000116854601BB1406BC1F303619847FFF72D
:101230008FFABDE81040FFF7ABB800BFC40D002027
:1012400000000240AFF30080AFF30080AFF30080F6
:10125000124BF0B4D3F800C0DF689E695D6A1C6B66
:10126000D86B996C0023CCF800300D4ADFF838C0F9
:101270003B601360336093602B6013612360936164
:101280000360136293621363CCF800300B60054B6C
:101290004FF0FF325A60F0BC704700BF7021000869
:1012A000C40D002000000240FC0D0020AFF30080C0
:1012B000F0B5044685B0002833D0667A012505FADA
:1012C00006FC1D4F38681CEA000F26D11B4D4CEA66
:1012D000000010F07F0F05EBC60C45F83620CCF867
:1012E0000430386004D0164B5F6947F001065E6138
:1012F000236860681F6827F001051D60267A0F27A4
:1013000017FA06F6002506601D6042B1A07A0901B1
:10131000FFF7AEF8284605B0F0BD2846FBE71046BB
:10132000F9E70848039102920193FFF799FA019BAC
:10133000029A0399C1E700BFFC0D0020C40D0020F4
:101340000010024030210008AFF30080AFF30080AE
:10135000214B00224FF0FF3030B420491C69186146
:101360001A61DD68D86043F67F60DA601C4C486023
:1013700007208A600860E1681A4841F08071E160E6
:101380000468194944F001040460D86940F08050B1
:10139000D861D86940F00060D861086840F4807076
:1013A0000860186A00F44071B1F5407F03D04FF433
:1013B000803119621A62084B1A6A12F4004F07D181
:1013C000186A40F440721A62196A41F400401862C7
:1013D00030BCFFF73DBF00BF0010024010E000E04E
:1013E000F0ED00E0001000E000700040AFF300807E
:1013F0001F4B1868194640F001021A600B681C4A1E
:1014000013F0020FFAD01368002003F0F901116005
:10141000114650604868164A10F00C0FFAD1106857
:10142000114640F4803313600B68114A13F4003FF7
:10143000FAD05368114643F480305060136843F08B
:101440008070106008680A4A10F0007FFAD00948DE
:10145000094B1021506019605068114640F002039A
:1014600053604A6802F00C0CBCF1080FF9D17047C8
:10147000001002400064410000200240AFF30080F1
:1014800011F0080FF8B50D4604462AD0C36A016969
:101490001A685D68166826F0010616601B7A0F262A
:1014A0009E40826ACB6800212E6091602BB1052599
:1014B00005709847207805286AD000252561FEF739
:1014C00057FFFFF7E5F8636933B14FF0FF3265610D
:1014D00018469A62FFF75CFAFFF7FAF8FEF750FF3A
:1014E000F8BD11F0040F06D003699B681BB1C268F8
:1014F00081685208984715F0020F37D021690A68B1
:10150000002A34D1E36AA56A18685E68076827F084
:1015100001070760187A0F2717FA00F08B68306010
:10152000AA60002B37D0E2680425012A257039D93A
:10153000B1F804C052080CFB02FEA168204601EB82
:101540004E0198472278042A25D000252561FEF710
:101550000FFFFFF79DF8636923B1656118469D622F
:10156000FFF716FAFFF7B4F8FEF70AFFF8BD8B682D
:10157000002BFBD0E268012A10D9B1F804C0520850
:101580000CFB02F5A168204601EB45019847F8BD28
:101590000221217091E702232370D6E72046A1683B
:1015A0009847F8BD2046A1689847CBE7AFF3008085
:1015B00010B5144C2046FFF75BFC134B1349986998
:1015C00040F400729A61124B0020A162012248602F
:1015D000E36242F28A5009238A6020638B608B6841
:1015E0000A4A13F0080FFAD105219160906810F0B3
:1015F0000403FBD10548044A8360916921F4007318
:10160000936110BD000E0020001002400024014034
:1016100070210008AFF30080AFF30080AFF30080CB
:1016200038B503780446012B00D038BD0E4DA842D2
:1016300004D0A36A00215960996038BDC06A0521B1
:101640000A4A2346FFF734FE48B9E86A084B0268A5
:1016500008489360816941F400728261E9E70648B5
:10166000FFF7FEF8F1E700BF000E0020811400082C
:101670004C24014000100240D0210008AFF300804C
:1016800003692DE9F0031968026B09B142F02002E9
:10169000C1689E880129C56A88BF4E43846829684D
:1016A00088BF42F00402D3F81480CC604E600A6018
:1016B0001F69D1F800C0826AD3F81890DE691D6AEC
:1016C0005C6A986A48F4807343F003034CF0010CA1
:1016D00047F48077C1F800C057609360C2F80C905F
:1016E0001661D562146350639360BDE8F0037047E0
:1016F00070B51B4DFFF70CF82B694FF6E0711A8A95
:101700009C891982144014F0020F24D114F0040FA4
:101710001CD114F0080F14D114F0100F0CD114F0D8
:10172000010F03D06A680E4893689847FFF710F8D6
:10173000BDE87040FEF72CBE696809488A6A904788
:10174000EDE76B680648196A8847E5E76A68044868
:1017500093699847DDE7696828460A699047D5E7A5
:10176000340E0020AFF30080AFF30080AFF30080B1
:1017700010B5044C2046FFF703FC4FF08043236173
:1017800010BD00BF340E0020AFF30080AFF3008027
:10179000037870B5012B04466DD0036900201880D2
:1017A0009881188258639863D86318645862626895
:1017B000E1681668B1FBF6F0451EB5F5803F03D22F
:1017C00006FB00FC614504D03948FFF749F8626820
:1017D00023692089D168441E01F00F01908DA4B2C5
:1017E00001291D85DC62988003D002290CBF0321EA
:1017F0000021506900F00F00012821D002281DD0DF
:10180000D06900F00F00012821D002282ED0506AA4
:1018100000F00F00012821D0022822D092681984FC
:10182000B2F1000C18BF4FF0010C012000218522FD
:101830009882A3F80CC019821A8070BD41F0200173
:10184000D06941F0100100F00F000128DDD141F412
:101850008071506A00F00F000128DDD141F4805101
:10186000DCE741F4005141F48051D7E741F40071C5
:1018700041F48071EDE70F49884207D0236946F6AD
:10188000680CA3F818C0A3F81CC090E70A4D1C20F0
:10189000EA6942F00101E9612B69002243F0010687
:1018A0002E6170212A61FEF7E3FD0448E060E5E760
:1018B000F0210008340E0020001002400024F40043
:1018C0004368006903EBC10C10B4DCF8103001F17F
:1018D0000C0400EB840462605BB1022313FA01F193
:1018E000828993B2194204D189B2CA4319438181D2
:1018F000028210BC704700BFAFF30080AFF30080DE
:10190000154B30B49A69154D42F07D049C61016815
:10191000134CE960826813496A604368124A2B607D
:10192000C568124BE5604569656005692560846995
:10193000CC60046A4C60C4690C60416AD160C16AC1
:101940005160816A1160026BDA60816B5960426B91
:101950001A6030BC704700BF001002400008014010
:10196000000C01400010014000140140001801402B
:10197000032AF0B400F09A80042A08BF41614C4B5E
:1019800011F080079B5C40F088800F2411F4004523
:1019900040F089800F264A002401360139012D01CB
:1019A00012F0800F14BF194344F00F0412F4004FDB
:1019B00014BF1D4346F00F065200240136010901F1
:1019C0002D0112F0800F14BF194344F00F0412F4DC
:1019D000004F14BF1D4346F00F065200240136018C
:1019E00009012D0112F0800F14BF194344F00F04B8
:1019F00012F4004F14BF1D4346F00F06520024019D
:101A0000360109012D0112F0800F14BF194344F073
:101A10000F0412F4004F14BF1D4346F00F0652008E
:101A20002401360109012D0112F0800F14BF194362
:101A300044F00F0412F4004F14BF1D4346F00F068C
:101A400052002401360109012D0112F0800F14BF4C
:101A5000194344F00F0412F4004F14BF1D4346F025
:101A60000F0652002401360109012D0112F0800FEA
:101A700014BF194344F00F0412F4004F18BF1D4364
:101A8000436808BF46F00F061E40354345600268B4
:101A9000144021430160F0BC7047002411F400455C
:101AA0001F463FF477AF1D46002674E7016166E7E5
:101AB00010220008AFF30080AFF30080AFF3008086
:101AC000FFF796BCAFF30080AFF30080AFF3008068
:101AD000704700BFAFF30080AFF30080AFF300802A
:101AE000114870B5C369114C11489C614FF4005105
:101AF0000622FFF73DFF0E484FF480410622FFF714
:101B000037FF0B4C4FF400564FF480454FF496705E
:101B1000FFF7D6F826614FF496706561FFF7D0F8AD
:101B200066612561F2E700BF740D00207022000895
:101B3000000C0140AFF30080AFF30080AFF30080F2
:101B400010B54FF4D87182B000244022034B0448F2
:101B50000094FFF775F802B010BD00BFE11A00084D
:101B6000480E0020AFF30080AFF30080AFF3008099
:101B700008B5FFF75DF9FEF7CBFCFFF7E1FF00F0DA
:101B800097F84FF47A70FFF79BF8FAE7AFF300800D
:101B90003B488A88038870B59A420C4614D32ED8E5
:101BA000384920880B88984207D33748B4F802C0D8
:101BB000028894454ED332D870BD344801210022AA
:101BC000BDE87040FFF77CBE314A324B1688B3F84F
:101BD00000C02E4806EB0C05ADB242F2107102892E
:101BE0008D4228BF0D4602FB05F62B4A0221A2FBBF
:101BF000066C1D80CCF34F32FFF762FED0E7244D18
:101C0000244BB5F800E0198820488E452CBFCEEB58
:101C10000E0ECEEB010E02891FFA8EF5E3E71F4E82
:101C20001F4B3488B3F800C0184864452CBFC4EB80
:101C30000404C4EB0C040289A4B202FB04F61649A6
:101C4000A1FB06620121C2F34F321C80BDE8704047
:101C5000FFF736BE1148124B0588B3F800C00B4899
:101C600005EB0C0442F22832A4B2B0F808C094424A
:101C700028BF14460CFB04F50749A1FB0552E1E718
:101C8000340800203808002000080020340E00200E
:101C900002080020061000205917B7D1360800208E
:101CA00004100020AFF30080AFF30080AFF300809A
:101CB00070B5194D0222194C19484FF40041FFF735
:101CC00057FE28461749FFF763F9042110222046E2
:101CD000FFF74EFE204602211022FFF749FE28465C
:101CE00001210022FFF77CF92846022100220E4D37
:101CF000FFF776F905222046F821FFF739FE00218B
:101D00002846FFF7C5F80949094A28460223BDE8D5
:101D10007040FFF715B900BF340E002000080140E5
:101D2000000C014004080020000E00208022000862
:101D3000F80F0020AFF30080AFF30080AFF3008016
:101D400069646C65000000006D61696E0000000050
:101D50005356233100000000535623320000000088
:101D60005356233300000000535623340000000074
:101D70005356233500000000535623360000000060
:101D8000535623370000000053562338000000004C
:101D90005356233900000000535623313000000011
:101DA0005356233131000000000000000000000005
:101DB00022636856545365744922282900000000A4
:101DC00022636856545265736574492228290000BD
:101DD0006368565452657365744928292C20233151
:101DE00000000000000000000000000000000000F3
:101DF000636853636852656164794928292C2023FC
:101E000031000000737461636B206F766572666CDD
:101E10006F770000000000000000000000000000DC
:101E20002263685468644372656174654922282995
:101E3000000000002263685468645365745072693E
:101E40006F72697479222829000000006368546861
:101E500064526573756D6528292C202331000000BC
:101E6000226368546864536C6565702228290000F9
:101E70006368546864457869745328292C20233199
:101E80000000000022636854686457616974222866
:101E90002900000063685468645761697428292C1C
:101EA0002023310063685468645761697428292CC1
:101EB00020233200000000000000000000000000AD
:101EC0002263684D7478496E6974222829000000E5
:101ED0002263684D74784C6F636B5322282900008D
:101EE00063684D74784C6F636B5328292C20233121
:101EF0000000000063684D74784C6F636B532829B1
:101F00002C202332000000002263684D7478547244
:101F1000794C6F636B5322282900000063684D746D
:101F200078556E6C6F636B28292C202331000000DC
:101F300063684D7478556E6C6F636B28292C202371
:101F40003200000063684D7478556E6C6F636B539C
:101F500028292C202331000063684D7478556E6C5D
:101F60006F636B5328292C202332000000000000EF
:101F70002261646353746172742228290000000096
:101F8000616463537461727428292C20233100002A
:101F90002261646353746F70222829006164635363
:101FA000746F7028292C20233100000022616463A3
:101FB0005374617274436F6E76657273696F6E49A4
:101FC000222829006164635374617274436F6E76D2
:101FD000657273696F6E4928292C20233100000037
:101FE0002261646353746F70436F6E7665727369B8
:101FF0006F6E22282900000061646353746F704380
:102000006F6E76657273696F6E28292C20233100FC
:102010002261646353746F70436F6E766572736987
:102020006F6E49222829000061646353746F704306
:102030006F6E76657273696F6E4928292C20233183
:1020400000000000616463436F6E76657274282936
:102050002C2023310000000022616463416371750C
:102060006972654275732228290000002261646349
:1020700052656C6561736542757322282900000002
:102080002270776D53746172742228290000000059
:1020900070776D537461727428292C2023310000ED
:1020A0002270776D53746F702228290070776D53FA
:1020B000746F7028292C2023310000002270776D66
:1020C0004368616E6765506572696F6422282900F4
:1020D00070776D4368616E6765506572696F6428DB
:1020E000292C2023310000002270776D456E61623B
:1020F0006C654368616E6E656C22282900000000E3
:1021000070776D456E61626C654368616E6E656C7B
:1021100028292C202331000070776D446973616297
:102120006C654368616E6E656C28292C2023310034
:1021300022646D61416C6C6F6361746522282900B3
:1021400022646D6152656C65617365222829000007
:10215000646D6152656C6561736528292C2023319B
:10216000000000000000000000000000000000006F
:10217000080002400400024000000B001C00024066
:102180000400024004010C00300002400400024040
:1021900008020D0044000240040002400C030E003F
:1021A000580002400400024010040F006C0002407E
:1021B00004000240140510008000024004000240A8
:1021C00018061100000000000000000000000000E0
:1021D0006164635F6C6C645F737461727428292C32
:1021E000202331000000000000000000000000007B
:1021F00070776D5F6C6C645F737461727428292CE6
:10220000202331000000000000000000000000005A
:10221000040204080800030708080808080808085A
:102220000B0F000000000000000000000000000094
:10223000FFFFFFFF844B888888888888FFFFFFFFA7
:10224000888888888888B8B4FFFFFFFF888884441E
:1022500088338388FFFFFFFF4488888888888888C0
:10226000FFFFFFFF88888888888888880000000032
:102270007077720000000000000000000000000005
:102280000100000003000000911B00080000000096
:102290000000000000000000000000000024010019
:0C22A0000000200000000000831400007B
:1022B000F40BE8030024F400A0000000000000007C
:1022C000000000000000000001000000000000000D
:1022D00001000000000000000000000000000000FD
:0C22E000000000001408E803B109000031
:04000005080000F0FF
:00000001FF
