:100000003FC0BCC158C057C056C055C054C053C0F3
:1000100052C051C050C04FC04EC04DC04CC04BC06C
:100020004AC049C048C0040309041A037700770096
:1000300077002E006F0062006400650076002E00DD
:1000400061007400180350006F00770065007200B3
:10005000530077006900740063006800120110010A
:10006000FF000008C016DC050001010200010902C2
:10007000120001010080400904000000000000009F
:1000800011241FBECFE5D4E0DEBFCDBF10E0A0E657
:10009000B0E0EEE1F7E002C005900D92A236B107A4
:1000A000D9F711E0A2E6B0E001C01D92AB31B10773
:1000B000E1F702D032C3A4CFCF93DF93F89421D3DA
:1000C0002EE088E190E00FB6F894A89581BD0FBEB0
:1000D00021BD17BA9FEF98BB82E084BB95BB83EF2D
:1000E00081BB8B9A20E040E757E104C0A895CA0184
:1000F0000197F1F72150D1F78B9836D07894C8EB5F
:10010000DBE0A89538D0CFD2CE010197F1F7F9CF37
:100110000F931F9302E610E010937C0000937B0086
:10012000FC0181817CD2C801A9D290E0882309F426
:1001300091E0892F1F910F91089590BD89B988E1B1
:100140008AB98EE880BD08955D9902C081E0089566
:100150008CB980E00895FC015F9902C081E00895A8
:100160008CB1808380E0089585B7826085BF8BB7AE
:1001700080648BBF08951F93CF93DF9390917D0090
:10018000935097FD87C020917A00809179008D323D
:1001900009F07EC0983009F07BC0CCE0D0E0C21BF3
:1001A000D109CF57DF4F83EC80936D008AE58093B0
:1001B000600010926A008881807621F0CE01A8DF6D
:1001C000282F5DC09A81109276008981882321F4BE
:1001D0001092770022E04DC0853019F490937E0094
:1001E00047C08630B1F58B81813019F48CE590E001
:1001F00004C0823041F48EE690E090937C008093BE
:100200007B0022E122C08330F9F48A81882341F403
:1002100086E290E090937C0080937B0024E015C000
:10022000813041F48AE290E090937C0080937B00DF
:100230002AE10BC0823041F484E490E090937C008A
:1002400080937B0028E101C020E080E480936A0075
:1002500016C0883021F421E080E890E00CC089309D
:1002600019F49093800004C08A3011F421E001C099
:1002700020E086E790E090937C0080937B008F8164
:10028000882321F48E81821708F4282F209361009F
:1002900010927D008091600084FF49C080916100D0
:1002A0008F3F09F444C0182F893008F018E0811BF3
:1002B0008093610080916D0098E8892780936D009C
:1002C000112341F120917B0030917C0080916A00E4
:1002D00086FF0DC0AEE6B0E080E090E0F901E80FE7
:1002E000F91FE491ED9301961817C1F708C0912FFB
:1002F000D901EEE6F0E08D9181939150E1F7115034
:10030000812F90E01F5F0196820F931F90937C00D6
:1003100080937B008EE690E0612F2CD0612F6C5F84
:100320006C3019F08FEF809361006093600094E16E
:1003300080B38C7031F49150D9F710927E001092F6
:100340007800DF91CF911F910895A82FB92F80E0F9
:1003500090E041E050EA609530E009C02D9182279D
:100360009795879510F084279527305EC8F36F5FC7
:10037000A8F30895EADF8D939D930895CF93CFB7A7
:10038000CF93C395839BE9F7839B09C0839B07C0E9
:10039000839B05C0839B03C0839B01C0A1C0DF93E7
:1003A000C0917A00DD27CF57DF4F839B02C0DF91DA
:1003B000EBCF2F930F931F9300B32FEF03FB20F985
:1003C0004F933F9310B34FEF012703FB21F93BE01D
:1003D00031C04E7F012F10B3216028C0102F4D7FF8
:1003E0002260000000B329C04B7F2460012F000071
:1003F00010B32BC010B3477F28602AC04F7E00B3D4
:1004000020612CC04F7D10B320622FC04F7B00B302
:10041000206432C0422700B349934FEF00001027F9
:1004200013FB20F910B31C70C9F1297F91F2012749
:1004300003FB21F900B3237F89F2315058F11027D3
:1004400013FB22F910B3277E79F2012703FB23F96E
:100450002F7C81F200B3102713FB24F92F7971F25E
:1004600000C010B3012703FB25F92F7359F200C018
:1004700000B3102713FB26F9223040F200C010B35E
:10048000012703FB27F9243028F64F77206810B3A3
:100490000000F9CF10E41ABF002717C03B50319578
:1004A000C31BD04010E41ABF0881033CE9F00B34B1
:1004B000D9F0209178001981110F1213EDCF093670
:1004C00041F10D3211F0013E39F700937F003F9169
:1004D0004F911F910F912F91DF91CAB7C6FD51CF58
:1004E000CF91CFBFCF91189520917F00222379F330
:1004F00010917D00112311F5343012F130937D00FD
:100500002093790010917A003BE0311B30937A0000
:1005100017C000917D0001308CF40AE53091600035
:1005200034FD10C000936000CDE6D0E00FC02795E9
:10053000A8F45150A9F4220F0000F9CF4AE503C0F6
:1005400042ED01C0432FC4E1D0E032E011B31C60A2
:10055000939A11BB02B320E41CE05F93012756E09D
:1005600002BB279520F4515021F4220FF9CF012727
:1005700056E000003B5A02BBD0F2279528F45150B8
:1005800029F4220F0000F9CF012756E0279502BB7E
:1005900020F4515021F4220FF9CF012756E0299180
:1005A000332302BB21F6037F10917E00110FC65149
:1005B000D04002BB11F01093780010E41ABF08601D
:1005C00011B3137F402F437F5F9100C000C002BB77
:1005D00011BB42BB7CCFDC018C91FD01E80FF11D0A
:1005E00062838F5F8F738C9380E00895CF93DF9346
:1005F000DC01EB0111969C9111978C91981711F4E5
:1006000081E00AC0FD01E90FF11D828188839F5FAF
:100610009F7311969C9380E0DF91CF910895909104
:10062000D900E92FF0E0E752FF4F82839F5F9F736D
:100630009093D90080E00895DC019091DA008091D8
:10064000D900981711F481E00895E92FF0E0E752FE
:10065000FF4F82818C939F5F9F739093DA0080E0BD
:10066000089590919700E92FF0E0E956FF4F8283BB
:100670009F5F9F739093970080E00895DC019091B5
:10068000980080919700981711F481E00895E92F60
:10069000F0E0E956FF4F82818C939F5F9F739093A8
:1006A000980080E00895DF93CF930F92CDB7DEB727
:1006B00080916B00882349F48CE690E0BDDF8823AD
:1006C00059F481E080936B0007C080916C003CDDA1
:1006D000882311F410926B00CE0101963CDD882333
:1006E00061F480919700E82FF0E0E956FF4F99817F
:1006F00092838F5F8F73809397000F90CF91DF91DC
:1007000008951092DA001092D90010929800109279
:0E07100097008DE490E011DD0895F894FFCF7E
:02071E005AFF80
:00000001FF
