:020000040800F2
:1000000000040020B10200088104000881040008F7
:1000100081040008810400088104000881040008AC
:10002000810400088104000881040008B10400086C
:10003000810400088104000881040008810500088B
:10004000810400088104000881040008810400087C
:10005000810400088104000881040008810400086C
:10006000810400088104000881040008D17B000895
:10007000017C0008317C0008717C0008B17C00081C
:10008000F17C0008317D00088104000881800008AF
:10009000E18300088104000881040008810400084D
:1000A000810400088104000881040008810400081C
:1000B000717F0008810400088104000881040008A1
:1000C00081040008810400088104000881040008FC
:1000D00081040008810400088104000881040008EC
:0C00E0008104000881040008810400086D
:1000F00040F60003C2F2000370B41D6810F8013B23
:10010000EC181A46647804F00304012C11F8014B32
:1001100008BF03F120022E192346767806F0030665
:10012000012E08BF04F12003D21A01D1002BE5D122
:10013000104670BC704700BF0000000000000000C7
:10014000C9B2F0B4002950D010F0030F10D00378DA
:10015000002B79D0994246D0431C05E013F8012BBF
:10016000002A3FD091423ED013F0030F1846F5D13C
:10017000036841EA01270646A3F1013247EA07472F
:1001800022EA030212F0803F1DD187EA0303A3F1A4
:10019000013222EA030313F0803F14D1043002E05D
:1001A00012F0803F0FD1064650F8043BA3F1013511
:1001B00087EA030225EA0303A2F1013413F0803F2A
:1001C00024EA0202ECD033783046002B3CD099422E
:1001D00009D0731C01E0914205D0184613F8012B99
:1001E000002AF8D11046F0BC704710F0030F0CD075
:1001F0000378002BF7D0431C03E013F8012B002AEF
:10020000F1D013F0030F1846F7D102680346A2F1AC
:10021000013121EA020212F0803F0AD10430034684
:1002200050F8042BA2F1013121EA020212F0803FC2
:10023000F5D01A781846002AD5D00133184613F89D
:10024000012B002AFAD1CEE71846CCE700000000C7
:10025000F0B40646047874B10F780546064657B1E7
:10026000BC4218BF0A4602D108E09C4206D012F8F0
:10027000013F002BF9D1301AF0BC70476C786E1C2E
:10028000002CF8D03546EBE700000000000000002D
:10029000704700BFAFF30080AFF30080AFF3008082
:1002A000FEE700BFAFF30080AFF30080AFF3008044
:1002B00072B6634C84F30988022383F31488BFF376
:1002C0006F8F08F055FA5F4A5F48824217D2134693
:1002D0004FF05531D64343F8041B85198342C5F3CB
:1002E00080050CD225B1196002F10803834206D2C1
:1002F0001A4642F8041B5960131D8342F8D3534A2F
:10030000A24217D213464FF05531D54343F8041B90
:100310006019A342C0F380000CD220B1196002F131
:100320000803A34206D21E4646F8041B5960331D3B
:10033000A342F8D34649474CA14222D246480B4635
:10034000024652F8046BCD4343F8046B04EB050CF2
:10035000A342CCF3800514D23DB1166800F1080227
:100360001E6001F10803A3420BD2104650F8045B53
:10037000194641F8045B5668021D5E600B1DA342DE
:10038000F3D3364A3648824216D200211346D6436A
:1003900043F8041B84198342C4F380040CD224B1B3
:1003A000196002F10803834206D21A4642F8041B80
:1003B0005960131D8342F8D32A4D2B4EFFF768FF77
:1003C000B54219D22C4654F8043BE94377189847B4
:1003D000B442C7F380070FD22FB1236805F1080498
:1003E0009847B44208D2254655F8042B90476068D8
:1003F0002C1D8047B442F6D31C4D1D4E08F010FF53
:10040000B5421AD22C46EF4354F8043B06EB070ED4
:10041000CEF380079847B4420FD22FB1226805F17E
:1004200008049047B44208D2254655F8040B80478B
:1004300061682C1D8847B442F6D3FFF731BF00BF77
:10044000000800200000002000040020000400201C
:1004500000080020D4080020A8AE0008D80800201A
:100460004C180020EC000008EC000008EC0000082C
:10047000EC000008AFF30080AFF30080AFF3008022
:10048000FEE700BFAFF30080AFF30080AFF3008062
:1004900072B6FEE7AFF30080AFF30080AFF30080E9
:1004A00000F06EF900F0ECFB00F08AF900DF00BF0D
:1004B000EFF30983203383F30988002383F3118842
:1004C000704700BFAFF30080AFF30080AFF3008050
:1004D0000A4B002210B59A60094A07201021DA6001
:1004E00000F0A6F80A204FF4007100F0A1F80B20EC
:1004F0008021BDE8104000F09BB800BF00ED00E097
:100500000000FA05AFF30080AFF30080AFF3008086
:10051000202383F311881648436813F4006316D030
:10052000EFF30983203B83F30988124A4FF0807070
:100530009169D86171B11068D269816892689142FD
:1005400094BF002201227AB10B499961704783F36D
:10055000118870471068D26981689268914234BFEF
:1005600000220122002AEFD1044A9A61704700BF9D
:1005700000ED00E00C0E0020A1040008AC0400080F
:1005800010B500F07DF9202383F3118800F038F9CD
:1005900000F0AEF800F054F9002383F3118800F066
:1005A0008FF9BDE81040FFF7B3BF00BFAFF3008085
:1005B0002DE9F04FC1F80CD0D0F80CD0BDE8F08F89
:1005C00008B500F0FDF8002383F311882846A04702
:1005D00000F03EFD08BD00BFAFF30080AFF3008028
:1005E000F0B400F00307FE00FF2313FA06F200F058
:1005F0001F04B1400125A5408608094CC03654F8B7
:100600002670400927EA020242EA010300F160076E
:1006100044F8263044F8275044F82050F0BC704786
:1006200000E100E0AFF30080AFF30080AFF30080A3
:1006300000F0030210B4FF23D40013FA04F2A14027
:100640008008064C063054F8203023EA020242EAC1
:10065000010344F8203010BC704700BF00ED00E0FB
:100660000248034AC3699A61FEE700BF0C0E0020EE
:10067000E0930008AFF30080AFF30080AFF3008099
:1006800030B583B0FFF724FF00F02AFA00F0A8F994
:1006900002F096F902F0ECF900F062F940210E4800
:1006A00000F02EFB0D4D0E490124E86180F820403A
:1006B000C16100F04DF8002383F3118862B6EA6946
:1006C0001D46084BC021936107482246074B009501
:1006D00000F0A6FB03B030BDD80800200C0E0020AF
:1006E00000040020E89300082809002061060008A3
:1006F00070B500F005F9114B9A69002A01DD013A45
:100700009A61DA690E4C516A2368481C5062E168AC
:10071000481CA342E0600FD09D68013D9D605DB91B
:1007200026461968DA681869DD604E6021609047D6
:10073000236898680028F4D070BD00BF0C0E00201C
:10074000FC0D0020AFF30080AFF30080AFF300801A
:100750000548036813B9054A116821B10448054BDF
:100760001860FFF795BE7047E8090020F40D0020DF
:1007700000940008F80D0020AFF30080AFF3008074
:10078000084810B5036853B9074C216821B1074ADE
:10079000074B1A60FFF77CFE0120206010BD024C61
:1007A000F5E700BFE8090020F40D002008940008D8
:1007B000F80D0020AFF30080AFF30080AFF30080AE
:1007C000094810B5036833B9084C2168002903DDD6
:1007D0000020206010BD054C054A064B1A60FFF74B
:1007E00057FE0020206010BDE8090020F40D002015
:1007F00010940008F80D0020AFF30080AFF30080E4
:10080000084810B50368002B0ADD074C216821B1A8
:10081000064A074B1A60FFF73BFE0120206010BD1F
:10082000014CF5E7E8090020F40D002018940008B9
:10083000F80D0020AFF30080AFF30080AFF300802D
:100840000A4810B50368002B06DD094C2168002911
:1008500003DD0020206010BD054C064A064B1A60DF
:10086000FFF716FE0020206010BD00BFE809002041
:10087000F40D002020940008F80D0020AFF3008054
:1008800010B5202383F31188094C2368002B02DB69
:10089000084802682AB1084B08491960FFF7F8FDBB
:1008A00023685A1C2260002383F3118810BD00BF07
:1008B000E8090020F40D0020F80D0020289400081D
:1008C00010B5202383F31188094C2368002B02DD27
:1008D000084802682AB1084B08491960FFF7D8FD9B
:1008E00023685A1E2260002383F3118810BD00BFC5
:1008F000E8090020F40D0020F80D002030940008D5
:1009000006480368002B04DB054A1168002900DD56
:1009100070470448044B1860FFF7BABDE80900208F
:10092000F40D002038940008F80D0020AFF300808B
:100930000648036823B9064A1168002900DD70479C
:100940000448054B1860FFF7A3BD00BFE80900206D
:10095000F40D002040940008F80D0020AFF3008053
:10096000034A4021134643F8081B5360704700BFF9
:10097000EC090020AFF30080AFF30080AFF30080FC
:1009800010B40D4A0D4C0E495368E468C9691C60E7
:100990005960846A03F110019C6090F8204002F5D0
:1009A000816081421C7328BF02F10803516028BF97
:1009B000536010BC704700BFEC090020FC0D002004
:1009C0000C0E0020AFF30080AFF30080AFF3008087
:1009D000014B1860FFF75CBDF80D0020AFF30080FD
:1009E000044B4FF0FF3000225B601B609860DA60C0
:1009F000704700BFFC0D0020AFF30080AFF3008014
:100A0000F8B504460D4616461F46FFF779FFCCB1F0
:100A1000C6B1BDB10D4927610B68E6609A68954281
:100A200004D91B68AD1A9A68AA42FAD35A688B4255
:100A30002360626014605C60A56002D09868451B0A
:100A40009D60F8BD0248FFF7C3FFE3E7FC0D0020FF
:100A500050940008AFF30080AFF30080AFF3008044
:100A600010B50446FFF74CFF84B1E36893B12368E7
:100A70000A4A934203D09968A2688818986060680F
:100A8000002203602368E260586010BD0448FFF74D
:100A90009FFFEAE70348FFF79BFFE8E7FC0D002014
:100AA0006094000870940008AFF30080AFF30080FA
:100AB000084B8142DB6806D9834208D38B422CBFA6
:100AC0000020012070478342F8D3012070470020A6
:100AD000704700BFFC0D0020AFF30080AFF3008033
:100AE000044B002014225B601B6098609A615B617C
:100AF0001B6170470C0E0020AFF30080AFF3008045
:100B000010B590F8203004468BB10E2B0FD0002288
:100B1000094BA16884F820201B6898688842FBD2A2
:100B20005968236061600C605C60204610BD03481A
:100B3000FFF74EFFEBE700BF0C0E0020909400087B
:100B400090F820300D2B11D8DFE803F015101007B6
:100B5000100B101010101010100B816A8B685A1CAB
:100B60008A60416803680B60026851604FF0FF3291
:100B70008262FFF7C5BF7047AFF30080AFF300801C
:100B800070B5114C0646FFF7D3FEE569142085F8D1
:100B90002060236801211A6883F82010A061546046
:100BA00028462260E361FFF7EBFEEA69ADF124031A
:100BB0009A4202D90548FFF70BFFE0692946BDE8D4
:100BC0007040FFF7F5BC00BF0C0E0020A494000895
:100BD00070B50E4686B00546FFF7AAFEB6F1FF3F98
:100BE00012D00C4C3146E3690B4A01A8FFF708FF0D
:100BF0002846FFF7C5FF049B13B101A8FFF730FF9C
:100C0000E069806A06B070BD2846FFF7B9FF014C65
:100C1000F6E700BF0C0E0020410B0008AFF3008088
:100C200070B5154D04460E46FFF782FEE869A268CE
:100C30008368A6629A4215D9FFF762FF0123142246
:100C4000064684F82030AA61EC61FFF799FEF0694E
:100C5000ADF1240188420AD820463146BDE87040F3
:100C6000FFF7A6BC2046BDE87040FFF749BF034828
:100C7000FFF7AEFEF0E700BF0C0E0020A4940008C2
:100C800070B5104C01212368E5691A681420A06131
:100C900083F82010546028462260E361FFF730FF9C
:100CA0002846FFF76DFEEA69ADF124039A4202D9A6
:100CB0000548FFF78DFEE0692946BDE87040FFF763
:100CC00077BC00BF0C0E0020A4940008AFF3008096
:100CD00010B5FFF72DFE064AD069116883688A684F
:100CE0009A4200D810BDBDE81040FFF7C9BF00BF51
:100CF0000C0E0020AFF30080AFF30080AFF3008054
:100D0000F0B40022104C0125022380F8203080F836
:100D1000212080F82250656900F1300600F12C0C8A
:100D200000F14C07046181604561416460610264C7
:100D3000C263426282612861C0F82CC046630663C8
:100D4000C761F0BC704700BF0C0E0020AFF30080FD
:100D5000884213D2C34300F8012BCB18884203F01A
:100D600001030CD01BB100F8012B884208D00346C8
:100D700003F8012B4270581C8842F8D17047704725
:100D8000704700BFAFF30080AFF30080AFF3008087
:100D9000F8B504460D4616461F46FFF7B1FD0CB1E7
:100DA000AF2D2BD81848FFF713FE243D6119E160E1
:100DB0006751069D15484D600023154A02270125FD
:100DC000086284F8207084F8225084F82130506939
:100DD00004F1300104F12C0704F14C05226160613B
:100DE000A6606664546123640461E3636362A36183
:100DF000E76261632163E5612046F8BD7F2ED1D8AB
:100E0000002FD2D1CEE700BFC0940008C105000872
:100E10000C0E0020AFF30080AFF30080AFF3008032
:100E2000F0B504460D461F4683B016464C302346A7
:100E3000FF211A4602F8011B5970531C8342F8D156
:100E40006019834215D25521DA4303F8011B00EBE8
:100E5000020C83420CF001020BD01AB103F8011B03
:100E6000834206D01A4602F8011B5970531C834274
:100E7000F8D1202383F31188FFF782FC2046089CD9
:100E80003B46324629460094FFF782FF0021044684
:100E9000FFF7C6FEFFF794FC002383F3118820467A
:100EA00003B0F0BDAFF30080AFF30080AFF300807C
:100EB0007F2838B5044617D8202383F31188FFF71D
:100EC0005FFC0B4BDB695D6C9A68954201D09442E4
:100ED00000D99C605C64FFF7FBFEFFF771FC002308
:100EE00083F31188284638BD0248FFF771FDE3E718
:100EF0000C0E0020D4940008AFF30080AFF3008004
:100F000010B52023044683F31188FFF739FC94F8C9
:100F10002030022B02D00748FFF75AFD204600215F
:100F2000FFF77EFEFFF74CFC002383F31188204679
:100F300010BD00BFEC940008AFF30080AFF3008059
:100F400010B52023044683F31188FFF719FC94F8A9
:100F5000210040F0040384F82130FFF731FC002326
:100F600083F3118810BD00BFAFF30080AFF30080A2
:100F700010B5044610B90948FFF72AFD202383F372
:100F80001188FFF7FDFB21460620FFF721FEFFF742
:100F900017FC002383F3118810BD00BF00950008E3
:100FA00010B52023044683F31188FFF7E9FB064BB5
:100FB000D968611A02D00620FFF70AFEFFF700FC8D
:100FC000002383F3118810BDFC0D0020AFF30080D7
:100FD00008B5202383F31188FFF7D2FB074AD069B5
:100FE000116883688A689A4201D3FFF749FEFFF7C8
:100FF000E7FB002383F3118808BD00BF0C0E00201F
:10100000114B70B5DC69254655F82C3FA062AB4208
:1010100007D01A681846E262FFF772FDE36AAB4236
:10102000F7D194F8210010F0030F04D1636922690D
:101030001A6121694B610E20FFF7A2FD0348BDE84C
:101040007040FFF7C5BC00BF0C0E002010950008D3
:1010500010B52023044683F31188FFF791FB204647
:10106000BDE81040FFF7CCBFAFF30080AFF30080C6
:1010700038B5044648B3202383F31188154DFFF794
:101080007FFBEB69A3421CD094F82200A8B194F82E
:1010900020100E2906D0ED69E26A07202A60E56279
:1010A000FFF76EFDA56AFFF78BFB002383F3118822
:1010B000204600F045F8284638BD0748FFF788FC71
:1010C000E5E70648FFF784FCDEE70548FFF780FC0C
:1010D000D1E700BF0C0E00204495000834950008AD
:1010E00024950008AFF30080AFF30080AFF30080D9
:1010F00010B52023044683F31188FFF741FB94F8D1
:101100002230FF2B09D0013384F82230FFF758FB3F
:10111000002383F31188204610BD0748FFF758FCD1
:1011200094F82230013384F82230FFF749FB002382
:1011300083F31188204610BD60950008AFF300804E
:1011400070B52023044683F31188FFF719FB94F848
:101150002250002D21D0013DEDB284F82250FFF73E
:101160002FFB002383F311881DB994F820300E2B38
:1011700000D070BD94F8210000F00303012B12D0C1
:10118000022BF6D163692169A06C1961226921469D
:101190005361BDE8704001F0C3BD0848FFF718FC7B
:1011A00094F82250D7E76169236920460B612269D0
:1011B0005161BDE8704001F0D3BC00BF74950008D8
:1011C0002DE9F04182B00D4616461F4601F080FC25
:1011D000044618B300F14C084146FF22FFF7B8FD62
:1011E000404661195522FFF7B3FD202383F3118890
:1011F000FFF7C6FA2046089C32463B462946009433
:10120000FFF7C6FD012380F8213000210446FFF7D7
:1012100007FDFFF7D5FA002383F31188204602B0BB
:10122000BDE8F081AFF30080AFF30080AFF3008042
:101230002DE9F043044683B00E4617469846002831
:101240002ED0204601F03CFD054628B300F14C09A4
:101250004946FF22FFF77CFD616848466918552220
:10126000FFF776FD202383F31188FFF789FA616881
:1012700032463B462846CDF80080FFF789FD022321
:1012800080F82130002184640546FFF7C9FCFFF790
:1012900097FA002383F31188284603B0BDE8F08352
:1012A0000148FFF795FBCCE788950008AFF3008075
:1012B00010B5202383F31188FFF762FA06490C6901
:1012C00094F82200431C84F82230FFF779FA0023B7
:1012D00083F31188204610BD0C0E0020AFF3008070
:1012E00038B50546202383F31188FFF749FA2C69A6
:1012F0000D4B9C4216D094F82230FF2B0CD0581C7A
:1013000084F82200FFF75CFA002383F31188284653
:10131000FFF716FF204638BD0448FFF759FB94F845
:101320002230ECE70024EDE70C0E0020B095000819
:1013300038B504460D4628B1002903DB64602460FB
:10134000A56038BD0348FFF743FB64602460A560D7
:1013500038BD00BFD0950008AFF30080AFF3008028
:10136000F8B504460E46FFF7CBFA002C3FD0002E0E
:101370003DDBA568002D36DB2368A34203D01F4860
:10138000FFF726FBA5680135002DA6602ADC606802
:101390006FF0010741686E1C61600C60FFF7B0FBE5
:1013A00005F001038762002D25D04BB1606801363E
:1013B000416861600C60FFF7A3FB012E87621BD0C0
:1013C0006068751C4368023663601C60FFF798FB19
:1013D00087626068426862601460FFF791FB876211
:1013E000002DEDD1F8BD2068A042CCD1C7E704485C
:1013F000FFF7EEFABDE7F8BDF8BD00BFF0950008B5
:10140000E0950008AFF30080AFF30080AFF30080F9
:1014100038B505460C46202383F31188FFF7B0F951
:1014200028462146FFF79CFFFFF752FCFFF7C8F95B
:10143000002383F3118838BDAFF30080AFF3008041
:1014400038B50446FFF774FA002C24D0A368002BAB
:101450000CDB2268A24203D01148FFF7B9FAA36857
:10146000013B002BA36008DB002038BD2068A042B0
:10147000F2D0013B002BA360F6DA0A4D0320EB69A2
:101480009C6262681C605A6063601360FFF778FBBF
:10149000E969886A38BD0448FFF79AFAD6E700BFC1
:1014A000149600080C0E002004960008AFF300808C
:1014B00010B52023044683F31188FFF761F9204615
:1014C000FFF7BEFF0446FFF77BF9002383F3118883
:1014D000204610BDAFF30080AFF30080AFF3008073
:1014E00070B504460D46FFF723FA002C25D0A368FB
:1014F000002B0CDB2268A24203D01448FFF768FAE5
:10150000A368591E0029A16008DB002070BD206877
:10151000A042F2D0591E0029A160F6DA8DB10C4923
:101520000320CB6929469C6262681C605A60636034
:101530001360BDE87040FFF74BBB0648FFF748FA61
:10154000D5E7A3604FF0FF3070BD00BF40960008A4
:101550000C0E002028960008AFF30080AFF3008047
:1015600038B505460C46202383F31188FFF708F9A8
:1015700021462846FFF7B4FF0446FFF721F9002370
:1015800083F31188204638BDAFF30080AFF30080AD
:1015900010B50446002832D0A368002B15DB206864
:1015A000A04202D01848FFF713FA202383F31188D2
:1015B000FFF7E6F8A3685A1C002AA26012DDFFF7C5
:1015C000FFF8002383F3118810BD2168A142E9D000
:1015D000202383F31188FFF7D3F8A3685A1C002A4D
:1015E000A260ECDC20680021026822605460FFF7F2
:1015F00017FBFFF7E5F8002383F3118810BD0348BC
:10160000FFF7E6F9C8E700BF68960008589600089B
:1016100010B50446FFF774F9002C20D0A368002B06
:101620000BDB2268A24203D00F48FFF7D1F9A36871
:101630000133002BA36007DD10BD2068A042F3D06A
:101640000133002BA360F7DC236800211A681846D9
:10165000226054609962BDE81040FFF751BA034818
:10166000FFF7B6F9DAE700BF909600087C9600080D
:10167000F8B504460D46FFF743F9002C48D0002D7D
:1016800046DDA368002B3FDB2068A04202D02B4838
:10169000FFF79EF9002D36DDA6686F1E721C00262E
:1016A000B242A26007F0010736DD013D2BD077B1D1
:1016B000A268501C0028A06036DD013D07D13BE048
:1016C000A3685A1C002AA26013DD013D1AD0A0684D
:1016D000013D431C002BA360F2DC206801682160FF
:1016E0004C60FFF70DFA8662A3685A1C002AA260BC
:1016F000EBDC2068016821604C60FFF701FA013DD6
:101700008662E4D1F8BDF8BD2168A142C2D1BEE72E
:101710000B48FFF75DF9B4E72068016821604C6071
:10172000FFF7EEF98662C0E72068036823605C601B
:10173000FFF7E6F98662C0E7F8BD00BFBC96000877
:10174000A4960008AFF30080AFF30080AFF30080F1
:1017500038B504460D4600285FD000295DD0A36847
:10176000002B27DB2068A04202D02E48FFF730F97B
:10177000AA68002A24DB2B68AB4202D02A48FFF774
:1017800027F9202383F31188FEF7FAFFA268511C82
:101790000029A16021DDA968481E0028A86029DB76
:1017A000FFF796FA0024FFF70BF8002383F3118864
:1017B000204638BD2168A142D7D0AA68002ADADACB
:1017C0002868A842DAD0202383F31188FEF7D8FFD7
:1017D000A268511C0029A160DDDC20680368236039
:1017E0005C60FFF78DF900248462A968481E002818
:1017F000A860D5DA0D4A6B68D46903202560636060
:101800006C601C60A562FFF7BBF9A46AFEF7D8FF05
:10181000002383F31188204638BD0548FFF7D8F828
:101820009DE700BFE8960008009700080C0E002016
:10183000D4960008AFF30080AFF30080AFF30080D0
:1018400010B5044620B1002364602460A36010BD7D
:101850000348FFF7BDF8002364602460A36010BD57
:1018600020970008AFF30080AFF30080AFF3008053
:101870003B4B2DE9F0410546DC69FFF759F8002D97
:101880006AD0A868002836D0A2688168914208D240
:1018900090F820308260042B46D0052B31D0002BED
:1018A0001ED02B461B689D4203D09868A1688842D1
:1018B000F8D25A682360626004205C601460A562FC
:1018C000FFF75EF9AB68A34202D02648FFF780F825
:1018D000206CA84213D02448BDE8F041FFF778B847
:1018E0004368026801211A60026880F82010536082
:1018F000FFF706F9D5E7216CAC60E9602564BDE827
:10190000F08141680768866A0F600768334679602E
:101910001B689E4202D099689142F9D25A680360CE
:10192000426010605860BCE741680768866A0F60D3
:101930000768334679601B689E4202D099689142DD
:10194000F9D25A680360426010605860B068A268BB
:10195000836893429CD3A4E70448FFF739F890E7E3
:101960000C0E00204097000854970008309700089C
:1019700010B52023044683F31188FEF701FF2046AB
:10198000FFF776FFFEF71CFF002383F3118810BDDD
:1019900010B50446FEF7CCFF5CB1A3680BB1002084
:1019A00010BD064B0120D9690A6CA160E2600C648D
:1019B00010BD0348FFF70CF8EFE700BF0C0E002046
:1019C00068970008AFF30080AFF30080AFF30080AA
:1019D00010B52023044683F31188FEF7D1FE20467C
:1019E000FFF7D6FF0446FEF7EBFE002383F31188D2
:1019F000204610BDAFF30080AFF30080AFF300804E
:101A0000214A70B52023D56983F31188FEF7B8FE0B
:101A10002C6C002C33D0A368AB4203D01B48FEF7DC
:101A2000D7FF2C6C2368E268A3422A641ED0686C3E
:101A30004AB11168914203D08968884238BF08468C
:101A4000D268002AF5D11A681E6CA86000212260B5
:101A500018465460A360E6601C64FFF7E1F8FEF7E7
:101A6000AFFE002383F31188204670BD0020A060E4
:101A7000FEF7A6FE002383F31188204670BD0448BC
:101A8000FEF7A6FF2C6CC6E70C0E0020909700080E
:101A90007C970008AFF30080AFF30080AFF30080C5
:101AA00038B51A4BDD69FEF743FF2C6C002C28D0AB
:101AB000A068A84203D01648FEF78AFF2C6C236862
:101AC000E268A3422A6418D0686C4AB11168914256
:101AD00003D08968884238BF0846D268002AF5D109
:101AE0001A68196CA860226018465460A360E1600F
:101AF0001C64FFF705F8204638BD0023A36020468C
:101B000038BD0448FEF764FF2C6CD1E70C0E0020B2
:101B1000B8970008A4970008AFF30080AFF30080E7
:101B2000154A70B52023D46983F31188FEF728FE87
:101B3000236CB3B100251A68D9689A421046216413
:101B400015D01168166C19604B609A60DE601364E2
:101B5000FEF7D6FF236C002BEDD1636CA360FFF77B
:101B6000B7F8FEF72DFE002383F3118870BD9D604A
:101B70000B46002BDFD1F0E70C0E0020AFF3008006
:101B800010B5044610B16460246010BD0248FEF731
:101B90001FFF6460246010BDD0970008AFF3008081
:101BA00010B5044698B1202383F31188FEF7E8FDB1
:101BB0002068A04205D00368002123605C60FFF725
:101BC0002FF8FEF7FDFD002383F3118810BD0248B6
:101BD000FEF7FEFEE7E700BFE0970008AFF30080E6
:101BE00010B50446FEF78CFE54B12068A04206D022
:101BF000016821604C60FEF783FF0023836210BD03
:101C00000148FEF7E5FEF0E7F4970008AFF3008027
:101C100038B50446FEF774FE74B12068A0420AD0BD
:101C20006FF00105036823605C60FEF769FF856261
:101C30002068A042F6D138BD0148FEF7C9FEECE7A6
:101C400008980008AFF30080AFF30080AFF3008086
:101C500010B52023044683F31188FEF791FD20463A
:101C6000FFF7D6FFFFF734F8FEF7AAFD002383F352
:101C7000118810BDAFF30080AFF30080AFF3008098
:101C8000174B70B50546DC69FEF752FE002D23D0D8
:101C9000206CE8B1FFF704FFA56206462B462A46F2
:101CA00003E09068A168884210D312689542F8D189
:101CB0005A682360626014605C600520FEF760FF74
:101CC000A46A3046FFF7D4FD204670BD1346EFE707
:101CD0000448FEF77DFEDDE70348FEF779FED7E70F
:101CE0000C0E00203098000820980008AFF3008008
:101CF00010B52023044683F31188FEF741FD2046EA
:101D0000FFF7BEFF0446FEF75BFD002383F3118857
:101D1000204610BDAFF30080AFF30080AFF300802A
:101D2000F8B504460F46FEF703FE002C27D0002F1F
:101D300025D0184EF069036C002B26D0FFF7B0FEBB
:101D40000546F06923462646846203E09968826866
:101D5000914218D31B689C42F8D1746806604460B5
:101D60002060706039460520FEF732FFB0F1FF3F7A
:101D7000044602D02846FFF77BFD2046F8BD064802
:101D8000FEF726FED5E71E46E7E70448FEF720FEED
:101D9000D4E700BF0C0E0020449800085C980008AF
:101DA00038B505460C46202383F31188FEF7E8FC7E
:101DB00021462846FFF7B4FF0446FEF701FD002345
:101DC00083F31188204638BDAFF30080AFF3008065
:101DD00070B504460D46164690B189B1202383F3B1
:101DE0001188FEF7CDFC08482268C3692A60256087
:101DF0006B60AE60FEF7E4FC002383F3118870BDD6
:101E00000248FEF7E5FDE9E70C0E00208098000887
:101E100038B504460D46D8B1D1B1202383F31188DB
:101E2000FEF7AEFC224602E09D4209D01A46136836
:101E30009C42F9D1FEF7C4FC002383F3118838BD1E
:101E40002B681360FEF7BCFC002383F3118838BDB8
:101E50000148FEF7BDFDE0E798980008AFF3008069
:101E600038B50546202383F31188FEF789FC07481F
:101E7000C369DC6B24EA0502DA63FEF7A1FC0023E8
:101E800083F3118805EA040038BD00BF0C0E002062
:101E900010B52023044683F31188FEF771FC064831
:101EA000C369DA6B1443DC63FEF78AFC002383F317
:101EB0001188204610BD00BF0C0E0020AFF300803B
:101EC00038B504460D46FEF71BFDBCB1E26B94F835
:101ED00020301543082BE5630CD0092B00D038BD0A
:101EE000A06A0540A842FAD12046FEF709FE00216B
:101EF000816238BDA36A1D42F6D138BD0148FEF7A4
:101F000067FDE3E7AC980008AFF30080AFF3008013
:101F100038B504460D4680B1202383F31188FEF7BF
:101F20002FFC20462946FFF7CBFFFEF7D1FEFEF738
:101F300047FC002383F3118838BD0248FEF748FDB3
:101F4000EAE700BFC0980008AFF30080AFF300805D
:101F500070B505460E46FEF7D3FC65B12C68AC4261
:101F600008D0A168606846EA0101FFF7A9FF24686C
:101F7000AC42F6D170BD0248FEF72AFDEEE700BF85
:101F8000D0980008AFF30080AFF30080AFF300807B
:101F900038B505460C46202383F31188FEF7F0FB85
:101FA00028462146FFF7D4FFFEF792FEFEF708FC15
:101FB000002383F3118838BDAFF30080AFF30080B6
:101FC0002DE9F04104460E46C8B18EB100273D46CA
:101FD0004FF0010808FA05F3334205D026EA03065C
:101FE000E3593BB12846984704370EB10135F1E774
:101FF000BDE8F0810448FEF7EBFCE359F2E7034843
:10200000FEF7E6FCE1E700BFFC980008E89800084E
:1020100038B50F4B0546DC69202383F31188FEF7A2
:10202000AFFBE36B15EA030206D1A5620820FEF7B9
:10203000A7FDE36B05EA03025542154023EA0500BC
:10204000E063FEF7BDFB002383F31188284638BD0B
:102050000C0E0020AFF30080AFF30080AFF30080E0
:102060000E4B70B5DC690546202383F31188FEF71B
:1020700087FBE36B15EA030606D1A5620820FEF78D
:102080007FFDE36B05EA030623EA0600E063FEF743
:1020900097FB002383F31188304670BD0C0E00209F
:1020A00038B50E4B0446DD69202383F31188FEF713
:1020B00067FBEB6B04EA0302A24204D0AC62092086
:1020C000FEF75EFDEB6B23EA0400E863FEF778FBA6
:1020D000002383F31188204638BD00BF0C0E00207A
:1020E000F8B5184B0546DE690F46202383F31188A7
:1020F000FEF746FBF36B15EA03040AD1AFB10820E3
:10210000B5623946FEF764FD002815DBF36B05EA7E
:1021100003046242144023EA0400F063FEF750FB1C
:10212000002383F311882046F8BDFEF749FB2346C0
:1021300083F311882046F8BDFEF742FB234683F364
:102140001188F0E70C0E0020AFF30080AFF30080A1
:10215000F8B5174B0446DD690F46202383F3118839
:10216000FEF70EFBEB6B14EA03060AD19FB10820C1
:10217000AC623946FEF72CFD002813DBEB6B04EA5A
:10218000030623EA0600E863FEF71AFB002383F345
:1021900011883046F8BDFEF713FB334683F31188F0
:1021A0003046F8BDFEF70CFB334683F31188F0E7A9
:1021B0000C0E0020AFF30080AFF30080AFF300807F
:1021C000184B70B5DD6904460E46202383F3118851
:1021D000FEF7D6FAEB6B04EA0302A24208D08EB1F6
:1021E0000920AC623146FEF7F3FC002812DBEB6BF2
:1021F00023EA0400E863FEF7E3FA002383F311887F
:10220000204670BDFEF7DCFA334683F3118834466E
:10221000204670BDFEF7D4FA002383F311881C46D4
:10222000EEE700BF0C0E0020AFF30080AFF300809C
:10223000154B70B504460E46DD6900B3202383F3C9
:102240001188FEF79DFA94F82010606B04F13002BB
:102250000C292A60AE63AA626860656305600AD0D3
:102260000A20FEF78DFCAC6AFEF7AAFA002383F37E
:102270001188204670BD2046FEF742FCF0E7034877
:10228000FEF7A6FBDAE700BF0C0E0020109900084D
:1022900038B5202383F311880E4DFEF771FAEA69F1
:1022A000134653F8304F9C420CD021684B600B23EF
:1022B00084F820301163FEF783FA002383F311883A
:1022C000204638BD0C20FEF75BFCEA69134653F844
:1022D000304FEAE70C0E0020AFF30080AFF3008030
:1022E00038B504460D46202383F31188FEF748FADB
:1022F00094F820300B2B02D00648FEF769FB2046ED
:102300002946FEF78DFCFEF75BFA002383F3118864
:1023100038BD00BF20990008AFF30080AFF3008004
:1023200070B504460D461646A0B199B1002A11DDDC
:1023300005EB860304F11C003146E560A5602560CD
:102340006360FEF7F5FF04F110000021BDE8704066
:10235000FEF7EEBF0148FEF73BFBE9E740990008B6
:1023600010B50446D8B1202383F31188FEF708FA8C
:1023700023686268E360D11AA36004F11C0089102D
:10238000FEF7EEFF04F110000021FEF7E9FFFEF773
:102390009FFCFEF715FA002383F3118810BD024855
:1023A000FEF716FBDFE700BF50990008AFF300808F
:1023B00070B504460D461646FEF7BAFAC4B131466A
:1023C00004F11C00FFF78CF8064678B9A368626830
:1023D00043F8045B9342A36028BF236804F1100014
:1023E00028BFA360FFF714F9FEF772FC304670BDFA
:1023F0000148FEF7EDFAE2E760990008AFF30080CC
:1024000070B5202306460D46144683F31188FEF767
:10241000B7F9224629463046FFF7CAFF0446FEF7C1
:10242000CFF9002383F31188204670BDAFF30080FD
:1024300038B504460D46FEF763FABCB1636A002B5B
:1024400011DDA268013B6168636242F8045B8A4265
:1024500028BF2368A26004F1100028BFA360FFF723
:10246000D7F8002038BD4FF0FF3038BD0148FEF7E7
:10247000AFFAE3E770990008AFF30080AFF3008094
:1024800070B504460D461646FEF752FACCB13146F9
:1024900004F11C00FFF724F8064660B9E3682268DF
:1024A000043B9342E36008D304F110001D60FFF782
:1024B000AFF8FEF70DFC304670BD6068031FE360A7
:1024C000F2E70248FEF784FAE1E700BF80990008CE
:1024D00070B5202306460D46144683F31188FEF797
:1024E0004FF9224629463046FFF7CAFF0446FEF759
:1024F00067F9002383F31188204670BDAFF3008095
:1025000038B504460D46FEF7FBF9BCB1636A002BF3
:1025100011DDE2682168043A013B8A426362E260AD
:1025200002D26068021FE26004F110001560FFF73C
:102530006FF8002038BD4FF0FF3038BD0148FEF77E
:1025400047FAE3E794990008AFF30080AFF3008007
:1025500070B504460D461646FEF7EAF9CCB1C5B192
:10256000314604F11000FEF7BBFF064678B9E36878
:10257000626853F8041B04F11C0093422960E36075
:1025800024BF2368E360FFF743F8FEF7A1FB304662
:1025900070BD0248FEF71CFAE2E700BFA8990008E8
:1025A00070B5202306460D46144683F31188FEF7C6
:1025B000E7F8224629463046FFF7CAFF0446FEF7F1
:1025C000FFF8002383F31188204670BDAFF300802D
:1025D00038B504460D46FEF793F9B4B1ADB1A36921
:1025E000002B18DDE268581EA06152F8041B6368D6
:1025F00004F11C009A4228BF23682960E26028BFCA
:10260000E360FFF705F8002038BD0448FEF7E0F965
:10261000A369002BE6DC4FF0FF3038BDB899000805
:1026200010B4034619B94FF0FF3010BC7047064C88
:102630000D20E26993625C68136054605A60226006
:1026400010BCFEF7C5BA00BF0C0E0020AFF300802F
:1026500010B48A1800244060006084604161816188
:10266000C1600261C36110BC704700BFAFF300805E
:1026700038B50446FEF744F92068E1680023A0421B
:102680006161A161A3600AD06FF001050268226058
:102690005460FEF735FA85622068A042F6D138BD55
:1026A00038B504460D46FEF72BF96369A2699342DB
:1026B00019D0A268511CA16003F8015B2069636115
:1026C000834228BFE368206828BF6361A04208D026
:1026D000026822605460FEF713FA002383621846F2
:1026E00038BD002038BDA268002AE3D06FF0030097
:1026F00038BD00BFAFF30080AFF30080AFF30080C0
:10270000F8B504460D46202383F31188FEF738F808
:10271000E3690BB120469847A6682046294656B97A
:10272000FFF77EFF071EF7DAFEF74AF8334683F31A
:1027300011883846F8BDA369013EA66013F8017BF5
:102740002269A361934224BFE368A361FEF738F8CE
:10275000002383F311883846F8BD00BFAFF3008033
:102760002DE9F0470446904689461D46C769002A70
:1027700037D0202383F31188FEF702F800260FB12B
:102780002046B847D4F808A020462946BAF1000FE1
:102790000BD1FFF745FF0028F4D0FEF711F85346A0
:1027A00083F311883046BDE8F087A3690AF1FF3151
:1027B000A16013F8010B09F806002269A361934296
:1027C00024BFE368A361FDF7FBFF002383F31188B7
:1027D00001364645E6D0202383F31188FDF7D0FF6C
:1027E000CDE70248FEF7F4F8C3E700BFD099000830
:1027F00010B48C1840600060826041618161C160EA
:102800000461C36110BC7047AFF30080AFF3008078
:1028100038B50446FEF774F8E36821692068CA1ADF
:10282000A0426361A361A2600AD06FF00105026853
:1028300022605460FEF764F985622068A042F6D1F8
:1028400038BD00BFAFF30080AFF30080AFF300806E
:102850002DE9F041202304460D46164683F31188E6
:10286000FDF78EFFA7682046314667B9FFF7D8FE0F
:10287000B0F10008F6DAFDF7A3FF3B4683F31188B9
:102880004046BDE8F0816369013FA76003F8015B42
:1028900022696361934224BFE3686361E3690BB11A
:1028A00020469847FDF78CFF002383F31188984654
:1028B0004046BDE8F08100BFAFF30080AFF3008079
:1028C00038B50446FEF71CF8A36962699A4217D02E
:1028D000A268511CA16013F8015B2069A3618342C7
:1028E00028BFE368206828BFA361A04206D0026821
:1028F00022605460FEF704F900238362284638BD45
:10290000A268002AE5D06FF0020038BDAFF3008066
:102910002DE9F047044615460E469946D0F81C802E
:10292000002A40D0202383F31188FDF729FF0027D8
:10293000D4F808A020460AF1FF33BAF1000F24D0E2
:10294000A3603178636903F8011B226963619342D4
:1029500024BFE3686361B8F1000F00D0C047FDF702
:102960002FFF002383F311880137013D18D0013672
:10297000202383F31188FDF703FFD4F808A0204635
:102980000AF1FF33BAF1000FDAD120464946FFF7CA
:1029900047FE0028CCD0FDF713FF534683F3118880
:1029A0003846BDE8F0870248FEF712F8BAE700BFE4
:1029B000E4990008AFF30080AFF30080AFF300802C
:1029C000054B064A064823F00701064B116020F02C
:1029D00007021A60704700BF53180020300E002015
:1029E000005000202C0E0020AFF30080AFF30080D9
:1029F00010B50446FDF784FF074A084913680968C3
:102A0000E01D20F00700C91A884203D8181810608A
:102A1000184610BD002010BD300E00202C0E0020E6
:102A200010B52023044683F31188FDF7A9FE204644
:102A3000FFF7DEFF0446FDF7C3FE002383F3118892
:102A4000204610BDAFF30080AFF30080AFF30080ED
:102A5000024A034910680B68C01A70472C0E002008
:102A6000300E0020AFF30080AFF30080AFF30080A2
:102A7000044B0549002203F1100019609A60DA60E6
:102A8000FEF7DEBE380E0020212A0008AFF30080DA
:102A900011F0070F70B50D460446164602D112F02C
:102AA000070F02D00748FDF793FF0023083E04F10B
:102AB00010002360A560E3602B606E60BDE870408D
:102AC000FEF7BEBE009A0008AFF30080AFF30080AF
:102AD000F8B5204E0731002818BF064606F1100051
:102AE00021F0070506F10804FEF742FF00E01C464E
:102AF0002368F3B15A689542F9D805F108018A4272
:102B000014D36FF00707D3F800E0C5EB070C0CEB0C
:102B100002005F1843F801E0786027605D601C46A2
:102B200044F8086BFEF76CFF2046F8BD1A68226077
:102B3000F5E7FEF765FF3468002CF5D005F10800D5
:102B4000A04720B10660456000F10804ECE70446A8
:102B5000EAE700BF380E0020AFF30080AFF300803B
:102B60002DE9F041074600284BD057F8086CA7F133
:102B7000080506F11000FEF7FBFE08363446AC42AD
:102B800004D86068083023189D4220D3B44204D092
:102B9000AC4202D323681C46F1E723680BB19D4287
:102BA000F9D26A6847F8083C256002F1080357F833
:102BB000080CE91881420ED0636803F1080E04EB9B
:102BC0000E0CAC4515D0BDE8F041FEF719BF0F481B
:102BD000FDF7FEFEDAE74968EB58521808326A60E2
:102BE00047F8083C636803F1080E04EB0E0CAC4593
:102BF000E9D16A6857F8080C9B18083363602060B5
:102C0000E1E70348FDF7E4FEAFE700BF209A0008C4
:102C1000109A0008AFF30080AFF30080AFF300809C
:102C200038B50E4C0D46002818BF044604F11000BC
:102C3000FEF79EFEA3686BB10022144659681B681C
:102C400052180134002BF9D105B12A60FEF7D8FEE5
:102C5000204638BD1A461C46F6E700BF380E002055
:102C600070B504460D46164608B1032902D805483A
:102C7000FDF7AEFE073525F00705002323606560EC
:102C8000A66070BD409A0008AFF30080AFF30080EB
:102C900010B50446FDF734FE4CB1206810B103684E
:102CA000236010BDA3680BB16068984710BD02484F
:102CB000FDF78EFEF1E700BF509A0008AFF30080E9
:102CC00010B52023044683F31188FDF759FD2046F3
:102CD000FFF7DEFF0446FDF773FD002383F3118841
:102CE000204610BDAFF30080AFF30080AFF300804B
:102CF00038B504460D46FDF703FE1CB115B115F0BD
:102D0000070F02D00348FDF763FE23682B602560A0
:102D100038BD00BF649A0008AFF30080AFF30080B5
:102D200038B505460C46202383F31188FDF728FDAE
:102D300028462146FFF7DCFFFDF742FD002383F321
:102D4000118838BDAFF30080AFF30080AFF300808F
:102D5000014B01221A60704750140020AFF300802D
:102D600070B5114D4C2428682D2103684FF0FF32B7
:102D70001E69B0472868013C01684FF0FF320B69BB
:102D80002D219847013C084EEDD130680D21036894
:102D90004FF0FF321B69984730680A2102681369B7
:102DA0004FF0FF32984770BD84140020AFF30080CD
:102DB000F0B585B0002837D020496E466F46A1FB9C
:102DC0000023DB0803EB8302A0EB420C0CF1300282
:102DD000184607F8012B002BF1D1B74222D9184D24
:102DE0003C462868F31B026814F8011DDF43136991
:102DF0004FF0FF329847B44207F0010712D03FB9B5
:102E0000286814F8011D03684FF0FF321B699847CA
:102E1000286814F8011D026813694FF0FF329847C3
:102E2000B442EDD105B0F0BD0548302100684FF047
:102E3000FF3203681B699847F4E700BFCDCCCCCCC8
:102E400084140020AFF30080AFF30080AFF3008064
:102E500038B5017859B1064D0446286802681369EF
:102E60004FF0FF32984714F8011F0029F5D138BD03
:102E700084140020AFF30080AFF30080AFF3008034
:102E800010B5094CFFF7E4FF20680D2103684FF0EF
:102E9000FF321B69984720680A21026813694FF0C6
:102EA000FF32984710BD00BF84140020AFF30080AC
:102EB00010B52023044683F31188FDF761FC054A11
:102EC000136803F8014B1360FDF77AFC002383F3CA
:102ED000118810BD54140020AFF30080AFF30080C0
:102EE00041B9054A012313600449054A0B6010608B
:102EF00018467047002070474C14002058140020DA
:102F000048140020AFF30080AFF30080AFF30080DF
:102F10002DE9F001194C1A4A236815469E1A16F03D
:102F2000010F17D0934219D9154615F8017B11F8F6
:102F3000016BB7420ED016E017F8018B16F801CBE3
:102F4000E04510D195F8018091F801C07D1C711CFD
:102F5000E04508D1AB422F460E46EDD80B7813B9A9
:102F60002260184607E0074A012313600649074A12
:102F70000B6010601846BDE8F00170475414002043
:102F8000881400204C1400205814002048140020FD
:102F900010B5044608461146FDF78AFD38B9054AC2
:102FA0000549064B0120106008601C6010BD002020
:102FB00010BD00BF4C1400205814002048140020FD
:102FC00010B50C4C206808B1FDF7BAFF606808B175
:102FD000FDF7B6FFA06808B1FDF7B2FFE06808B1E1
:102FE000FDF7AEFF206918B1BDE81040FDF7A8BF9E
:102FF00010BD00BF70140020AFF30080AFF300805D
:1030000010B5124C206818B1FEF732F80023236087
:10301000606820B1FEF72CF80C4800224260A068DE
:1030200020B1FEF725F8094B00219960E06820B136
:10303000FEF71EF805480022C260206920B1FEF7A5
:1030400017F8024B0021196110BD00BF7014002059
:103050004FF47A7101FB00FC10B40D4C0D4AE46989
:10306000ACF57A73A2FB0331626A501C00EB91113C
:103070008A42636A03D29A4203D910BC70479A42CB
:10308000F6D9994294BF00230123002BF0D1F4E735
:103090000C0E0020D34D6210AFF30080AFF3008020
:1030A00008B50120FDF764FF014BD86808BD00BFDB
:1030B000FC0D0020AFF30080AFF30080AFF3008081
:1030C00038B50F4D00242C602023054683F311886A
:1030D000FDF756FB4FF47A7101FB05FC094BACF58B
:1030E0007A72A3FB02208109234607480131074A6F
:1030F000FDF786FCFDF764FB234683F3118838BD9A
:1031000050140020D34D62105C140020512D000893
:103110002DE9F04F6B4F83B038606B48FFF7B0FE7E
:103120006A48FFF7ADFE6A48FFF7AAFE6948FFF755
:103130008FFE6948FFF7A4FE6848FFF789FE6848DC
:10314000FFF79EFE6748FFF783FE6748FFF798FE8C
:103150006648FFF77DFE6648FFF792FE6548FFF779
:1031600077FE6548FFF78CFE6448FFF771FE644800
:10317000FFF786FE6348FFF76BFE6348FFF780FEAC
:103180006248FFF765FE6248FFF77AFE4E48FFF798
:1031900077FE604A0023604CDFF8B8B15F4DDFF87E
:1031A0009CA1DFF8B491DFF8B48113600193019919
:1031B0004E1C0196002654F82600B30000285FD06C
:1031C0000093FFF7CDFD5648FFF742FE0198FFF749
:1031D000EFFD01365348FFF73BFE3046FFF7E8FDB1
:1031E0005148FFF735FE009AA3581868FFF730FEE4
:1031F0004E48FFF745FEC820FDF7BAFE00990020B3
:103200006458C5F800A06368C9F80000C8F8000059
:10321000C8F80400C8F80800C8F80C00C8F8100086
:1032200003B19847E0688047A36803B19847FFF768
:10323000E7FED9F80040002C39D03D48FFF708FEE2
:103240003C4B1868FFF7B4FD3B48FFF701FE2968C7
:1032500051450BD9394C386814F8011B02681369C1
:103260004FF0FF3298472A68A242F4D83448FFF75B
:1032700007FE5BF8044C54F82600B30000289FD1E9
:103280005BF8044B002C92D1FFF76AFD0E48FFF764
:10329000F7FD2C48FFF7DCFD1E4A13686BB92A487E
:1032A000FFF7EEFD1B48006803B0BDE8F08F27482C
:1032B000FFF7E6FD5BF8044CDDE72548FFF7E0FD8E
:1032C000F0E700BF84140020D8AA0008A09A0008E4
:1032D000BC9A0008C09A0008D49A0008DC9A00083A
:1032E000F09A0008089B00081C9B0008289B000817
:1032F0003C9B0008449B0008589B0008649B000806
:10330000789B0008909B0008A49B0008CC9B0008B9
:10331000E09B000858140020D09C000854140020A2
:10332000F49B0008049C0008089C0008049800080E
:103330000C9C000848140020249C000888140020DD
:10334000289C0008409C0008389C00082C9C000821
:10335000509C0008649C00084C140020701400204D
:1033600070B51C4CFFF79CFEE5686420FDF700FE7D
:10337000012005F1640105F16502FFF709FE00B1C6
:1033800070BDE5686420FDF7F3FD022005F16401DE
:1033900005F16502FFF7FCFD0028F1D1E5684FF467
:1033A0007A70FDF7E5FD05F57A7103204A1CFFF7F9
:1033B000EFFD0028E4D1E46804F164052846FDF738
:1033C000EFFD0420294604F16502BDE87040FFF7D7
:1033D000DFBD00BFFC0D0020AFF30080AFF3008025
:1033E000F8B5574EF0698468651C2846FDF760FD06
:1033F000031B594241EB030107460120FFF770FD13
:1034000000B1F8BDF36902209968C1EB050CDCF14D
:10341000000242EB0C01FFF763FD0028F1D13846B2
:10342000FDF746FDC0EB050EDEF1000040EB0E019E
:103430000320FFF755FD0028E3D1F36904209968C4
:103440000F1B7A4242EB0701FFF74AFD07460028AF
:10345000D7D1202383F31188FDF792F9F369996896
:103460008A1C9A60FDF7ACF93B4683F31188F0693A
:10347000A71C81680520CA1BD2F1000C4CEB02018D
:10348000FFF72EFD0028BCD12846FDF711FD001BDB
:10349000D0F1000C4CEB00010620FFF721FD0028C5
:1034A000AFD1F16907208B68FA1AD2F1000E4EEB0A
:1034B0000201FFF715FD0028A3D1F36908205A6C1B
:1034C000C2EB050EDEF1000C4CEB0E01FFF708FD20
:1034D000002896D1E71C3846FDF7EAFC281A41423D
:1034E00041EB00010920FFF7FBFC002889D1F369BB
:1034F0000A309A68C2EB070EDEF1000C4CEB0E01AD
:10350000FFF7EEFC00287FF47CAFF3690B305A6CB8
:10351000B91A4D4245EB0101FFF7E2FC05460028D0
:103520007FF46FAF202383F31188FDF729F9F06949
:1035300084604464FDF744F92B4683F3118860E707
:103540000C0E0020AFF30080AFF30080AFF30080DB
:10355000F0B5304F304EF869304D8168304C83B053
:103560000A1F2B4670684FF498710094FDF758FCC1
:10357000FB692C4C9A683168DFF8B4E06060053A6A
:103580002B4608464FF49871CDF800E0FDF748FC53
:10359000FB6931699A68DFF89CC02060013A2B46CC
:1035A00008464FF49871CDF800C0FDF739FCFB696F
:1035B000F1689A68DFF880E020612B460846023AFD
:1035C0004FF49871CDF800E0FDF72AFC2023E0606D
:1035D00083F31188FDF7D4F8FB694FF498719A686A
:1035E0002B46114D033AB0680095FDF7D1FBA06062
:1035F000FDF7E6F8002383F31188A068FDF780FC4F
:10360000FFF7FEFC0949012003B0BDE8F040FFF7D9
:103610007FBC00BF0C0E0020809A000821370008F4
:10362000FCAC000870140020F89C0008FC9C00080A
:10363000009D0008F09C0008F49C0008AFF3008097
:10364000F0B52B4F2B4DF8692B4E82682B4C83B075
:10365000053A2B4630684FF498710094FDF7E0FB73
:10366000F969274C8B68D6F804C0DFF8A0E0206029
:103670001A1F4FF498712B466046CDF800E0FDF715
:10368000CFFBFA69D6F808C09368DFF884E0606081
:10369000DA1E4FF498712B466046CDF800E0FDF736
:1036A000BFFBF969D6F80CC08A68DFF868E0A06053
:1036B000023A60462B464FF49871CDF800E0FDF7D2
:1036C000AFFBFB6936699A682B460E4DE0604FF4FC
:1036D0009871013A30460095FDF7A2FB2061FFF793
:1036E0008FFC0949012003B0BDE8F040FFF710BC92
:1036F0000C0E002021370008809A0008009D000869
:1037000070140020F09C0008FC9C0008FCAC000831
:10371000F89C0008F49C0008AFF30080AFF3008031
:1037200008B50078FFF7C4FB002008BDAFF30080A8
:1037300001480021FDF7FCBD04080020AFF3008024
:1037400001480021FDF7F4BD04080020AFF300801C
:1037500001480021FDF7ECBD04080020AFF3008014
:1037600010B586B0002103A8FDF7E2FD002103A8F3
:10377000FDF74EFE059901200029CCBF0021012153
:10378000FFF7AEFB08B106B010BD364C3648E16914
:10379000364B8A6800684FF49871013A03AC009484
:1037A000FDF73EFB324B186003A8FDF781FE05993B
:1037B00002200029CCBF00210121FFF791FB002846
:1037C000E1D1202383F31188FCF7DAFF059B002B5E
:1037D0003FDDFDF77DFAFCF7F3FF002383F311884B
:1037E000059903209942D4BF00210121FFF778FBFE
:1037F0000028C8D1059A0420A2F1010EDEF1000CC8
:103800004CEB0E01FFF76CFB0028BCD1202383F3A7
:103810001188FCF7B5FF059800281EDDFDF758FA62
:10382000FCF7CEFF002383F311880599032099420A
:10383000D4BF00210121FFF753FB0028A3D1059A33
:103840000520A2F10103594241EB0301FFF748FBB8
:1038500099E703A8FDF7DCFEBBE703A8FDF7D8FE58
:10386000DCE700BF0C0E0020809A000881380008B9
:1038700070140020AFF30080AFF30080AFF300803E
:1038800010B52023044683F31188FCF779FFA36861
:10389000002B08DDFDF71CFAFCF792FF002383F3F1
:1038A0001188184610BD2046FDF7B2FEFDF710FA4C
:1038B000FCF786FF002383F31188184610BD00BF74
:1038C000234B10B5D96923488A6882B0013200249D
:1038D0004FF49871204B00680094FDF7A1FA1F4C3B
:1038E0001F4B214618602046FDF732FF2268012059
:1038F000C4EB020CDCF1000141EB0C01FFF7F0FA24
:1039000008B102B010BDA2680220D2F1010138BF97
:103910000021FFF7E5FA0028F3D121462046FDF704
:1039200017FF21680320C1EB040EDEF1000C4CEB05
:103930000E01FFF7D5FA0028E3D1A3680420D3F1E4
:10394000010138BF002102B0BDE81040FFF7C8BA3E
:103950000C0E0020809A000871390008040800202D
:1039600070140020AFF30080AFF30080AFF300804D
:1039700010B5044C2046FDF79BFD2046FDF708FEE0
:10398000002010BD04080020AFF30080AFF30080DA
:1039900010B504460348FDF78BFD2078FFF788FA41
:1039A000002010BD04080020AFF30080AFF30080BA
:1039B000F0B5A34C002183B02046FDF7D1FDA0F166
:1039C000FF33594241EB03010120FFF789FA08B1A7
:1039D00003B0F0BD21680220C4EB010CDCF1000251
:1039E00042EB0C01FFF77CFA0028F1D1A668032016
:1039F000D6F1010138BF0021FFF772FA0646002810
:103A0000E6D1904B9048D96900688A688F4B013A9B
:103A10004FF498710096FDF703FA8D4B4FF4FA714D
:103A200018602046FDF79CFD0646FFF7E9FA0420E2
:103A3000D6F1010138BF0021FFF752FA0028C7D1A3
:103A400022680520C2EB040EDEF1000C4CEB0E01E7
:103A5000FFF746FA0028BBD1A1680620D1F1010189
:103A600038BF0021FFF73CFA0028B1D1794FFFF7AA
:103A700017FB4120FF68FFF71BFA4FF4FA7120464D
:103A8000FDF76EFDA0F1FF33584240EB0301072024
:103A9000FFF726FA00289BD122680820C2EB040E0B
:103AA000DEF1000C4CEB0E01FFF71AFA00288FD163
:103AB000A1680920D1F1010138BF0021FFF710FAF8
:103AC000002885D14220FFF7F3F94FF4FA71204620
:103AD000FDF746FDA0F1FF33584240EB03010720FC
:103AE000FFF7FEF900287FF473AF22680820C2EBCD
:103AF000040EDEF1000C4CEB0E01FFF7F1F900288B
:103B00007FF466AFA1680920D1F1010138BF00211F
:103B1000FFF7E6F900287FF45BAF4320FFF7C8F911
:103B20004FF4FA712046FDF71BFDA0F1FF33584218
:103B300040EB03010720FFF7D3F900287FF448AFDB
:103B400022680820C2EB040EDEF1000C4CEB0E01E3
:103B5000FFF7C6F900287FF43BAFA1680920D1F137
:103B6000010138BF0021FFF7BBF900287FF430AF17
:103B70004420FFF79DF94FF4FA712046FDF7F0FC61
:103B8000A0F1FF33584240EB03010720FFF7A8F9EB
:103B900000287FF41DAF22680820C2EB040EDEF17E
:103BA000000C4CEB0E01FFF79BF900287FF410AFDF
:103BB000A1680920D1F1010138BF0021FFF790F978
:103BC00000287FF405AF4520FFF772F94FF4FA7132
:103BD0002046FDF7C5FCA0F1FF33584240EB03013E
:103BE0000720FFF77DF900287FF4F2AE2268082055
:103BF000C2EB040EDEF1000C4CEB0E01FFF770F986
:103C000000287FF4E5AEA1680920D1F1010138BF99
:103C10000021FFF765F900287FF4DAAE0A200E498B
:103C2000FFF776F900287FF4D3AE07F51C62111D6B
:103C30000B20093203B0BDE8F040FFF7A9B900BF7F
:103C4000040800200C0E0020809A0008613C000847
:103C500070140020FC0D0020FC9C0008AFF30080D5
:103C600008B53220FDF784F9202383F31188FCF78F
:103C700087FD0648FDF7CCFCFDF72AF8FCF7A0FD10
:103C8000002383F31188184608BD00BF04080020F4
:103C90002DE9F043484E494CF569D4F80090A868E6
:103CA000474F83B0421D4FF49871464B48460097EA
:103CB000FDF7B6F8F169444D8B68D4F804C0DFF81D
:103CC000188128605A1C4FF498713E4B6046CDF81D
:103CD0000080FDF7A5F8F269D4F808E09368DFF8F2
:103CE000FCC06860DA1C4FF49871364B7046CDF812
:103CF00000C0FDF795F8F169D4F80C808A68DFF808
:103D0000E0E0A8604FF4987104322E4B4046CDF8A5
:103D100000E0FDF785F8F36924699A68E8602046B9
:103D20002A4C4FF498710232264B0094FDF778F834
:103D3000274C28612046FDF72BFC2046FDF728FC88
:103D40002046FDF725FC2046FDF722FC2046FDF726
:103D50001FFCFFF755F901201E49FFF7D9F88046EF
:103D600010B103B0BDE8F083F16948468A68154B8D
:103D70004FF4987105320097FDF752F82023286020
:103D800083F31188FCF7FCFC20460221FDF770FC50
:103D9000FCF716FD434683F31188FFF731F9A3685A
:103DA0000220A3F10102D2F1000C4CEB020103B09E
:103DB000BDE8F043FFF794B80C0E0020809A00088D
:103DC000F09C00089139000870140020009D000844
:103DD00004080020FC9C0008F49C0008F89C0008E3
:103DE000FCAC0008AFF30080AFF30080AFF30080BD
:103DF0001B48F0B5C3691B4E9D681B4C83B06A1C01
:103E000030684FF49871194B0094FDF709F8184C7D
:103E1000776820603846174FAA1C4FF49871164BEC
:103E20000097FCF7FDFFB668EA1C144D4FF498713B
:103E3000134B606030460095FCF7F2FF114DA06017
:103E40002846FDF7ADFE2846FDF7AAFEFFF7D8F895
:103E50000D49012003B0BDE8F040FFF759B800BF9D
:103E60000C0E0020809A0008F09C0008013F00081A
:103E700070140020F89C0008D13E0008F49C000853
:103E8000913E000830080020809E0008AFF30080BB
:103E900010B504460448FDF76BFD2078FFF708F8DD
:103EA000FDF7AEFD002010BD20080020AFF300801C
:103EB00010B504460448FDF75BFD2078FEF7F8FFD7
:103EC000FDF79EFD002010BD10080020AFF300801C
:103ED00010B504460648FDF74BFD0648FDF708FF00
:103EE0002078FEF7E5FFFDF78BFD002010BD00BF39
:103EF0001008002030080020AFF30080AFF30080EE
:103F000010B504460948FDF733FD0948FDF730FDBB
:103F10004FF0FF310748FDF743FF2078FEF7C8FF59
:103F2000FDF76EFDFDF76CFD002010BD20080020A0
:103F30001008002030080020AFF30080AFF30080AD
:103F400010B50548FDF71CFE0448FDF779FC044850
:103F5000BDE81040FDF774BC3008002010080020B8
:103F600020080020AFF30080AFF30080AFF30080A3
:103F700010B50448FDF704FE0348BDE81040FDF706
:103F80005FBC00BF3008002010080020AFF30080A5
:103F900010B50448FDF7F4FD0348BDE81040FDF7F7
:103FA0004FBC00BF3008002010080020AFF3008095
:103FB0000148FDF745BC00BF10080020AFF30080AA
:103FC00010B50448FDF73CFC0348BDE81040FDF780
:103FD00037BC00BF1008002020080020AFF300808D
:103FE00010B50448FDF72CFC0348BDE81040FDF770
:103FF00027BC00BF1008002020080020AFF300807D
:104000000148FDF71DBC00BF10080020AFF3008081
:104010000148FDF715BC00BF10080020AFF3008079
:104020002948F0B5C369294D9E68294F294C83B0B2
:10403000721C2B4638684FF498710094FCF7F0FE20
:10404000254CD7F804C0DFF8A0E02060B21C2B4656
:104050004FF498716046CDF800E0FCF7E1FED7F828
:1040600008C0DFF888E06060F21C2B464FF49871BE
:104070006046CDF800E0FCF7D3FED7F80CC0DFF8BF
:1040800070E0A060321D60462B464FF49871CDF869
:1040900000E0FCF7C5FE3F692B46104D4FF49871C8
:1040A000721DE06038460095FCF7BAFE20610C48AE
:1040B000FDF7CEFDFEF7A4FF0A49012003B0BDE8DD
:1040C000F040FEF725BF00BF0C0E0020D13E0008D7
:1040D000809A0008009D000870140020F09C0008E1
:1040E00030080020FC9C0008FCAC0008F89C00088C
:1040F000F49C0008AFF30080AFF30080AFF30080C2
:104100003448F0B5C369344F9D68344E344C83B0A5
:104110006A1C334638684FF498710094FCF780FEAF
:10412000304C7968DFF8CCE02060AA1C33460846A2
:104130004FF49871CDF800E0FCF772FEB968DFF833
:10414000B8C06060EA1C334608464FF49871CDF859
:1041500000C0FCF765FEF968DFF8A0E0A0602A1D4A
:10416000334608464FF49871CDF800E0FCF758FE4E
:104170003A69E06010466A1D1B4D33464FF4987152
:104180000095FCF74DFE2023206183F31188174C26
:10419000FCF7F6FA2046FDF723FD2046FDF720FD4B
:1041A0002046FDF71DFD2046FDF71AFD2046FDF7D0
:1041B00017FDFCF78DFDFCF703FB002383F311884B
:1041C000FEF71EFF0A49012003B0BDE8F040FEF7EC
:1041D0009FBE00BF0C0E0020809A0008D13E000850
:1041E000009D000870140020F09C0008300800209A
:1041F000FC9C0008FCAC0008F89C0008F49C00083B
:10420000F0B52F4F2F4EFC6983B0A4682E482F4D78
:10421000FDF7AEFB621C30684FF498712C4B009593
:10422000FCF7FEFD2B4DD6F804C0DFF8B4E02860A3
:10423000A21C4FF49871264B6046CDF800E0FCF7C5
:10424000EFFDD6F808C0DFF89CE06860E21C4FF490
:1042500098711F4B6046CDF800E0FCF7E1FDD6F801
:104260000CC0DFF884E0A860221D60464FF498710E
:10427000174BCDF800E0FCF7D3FD3669E860304617
:10428000154E621D4FF49871114B0096FCF7C8FD56
:104290002861FDF7B5FBFEF7B3FEF96901208A68D6
:1042A000131B594241EB0301FEF71AFE08B103B09C
:1042B000F0BD0A49022003B0BDE8F040FEF728BE79
:1042C0000C0E0020809A000810080020009D0008B5
:1042D000B13E000870140020F09C0008FC9C00080F
:1042E000FCAC0008F89C0008F49C0008AFF30080C8
:1042F0002DE9F041314D324CEB6920469E68FDF7C7
:1043000067FB01460120FEF7EBFD08B1BDE8F08137
:104310002046FDF75DFBD0F1010138BF00210220EE
:10432000FEF7DEFD07460028F0D1202383F3118835
:10433000FCF726FAFDF7B4FBFCF742FA3B4683F3A1
:10434000118822680320C4EB020CDCF1000141EB70
:104350000C01FEF7C5FD0028D8D1A3680420D3F1D5
:10436000010138BF0021FEF7BBFD0028CED1EB696B
:1043700005209A68C6EB020EDEF1000141EB0E014A
:10438000FEF7AEFD0028C1D12046FDF7F1FAFDF79A
:10439000C7FB22680620A11AD1F1000C4CEB0101E9
:1043A000FEF79EFD0028B1D1A3680720D3F10101DB
:1043B00038BF0021BDE8F041FEF792BD0C0E002091
:1043C00010080020AFF30080AFF30080AFF300804F
:1043D0002DE9F047964D974FE869D7F800A084681B
:1043E000954E04F1010882B04FF498714246934B08
:1043F00050460096FCF714FD914ED7F80490DFF874
:1044000050E2A71C4FF4987130603A468D4B4846F5
:10441000CDF800E0FCF704FD70608B48FDF7A8FACA
:10442000E96901208B681A1B514241EB0201FEF73A
:1044300057FD10B102B0BDE8F0876420FCF798FD8D
:10444000E96902208B68C8EB0302D2F1000C4CEB47
:104450000201FEF745FD0028ECD17C48FDF788FA03
:10446000E96903208B68C8EB030CDCF1000242EB26
:104470000C01FEF735FD0028DCD16420FCF778FD47
:10448000E96904208B68C7EB030EDEF1000242EB02
:104490000E01FEF725FD0028CCD1FDF7B1FAE96940
:1044A00005208B68C8EB0302D2F1000C4CEB020133
:1044B000FEF716FD0028BDD16420FCF759FDE9691F
:1044C00006208B68C8EB0302D2F1000C4CEB020112
:1044D000FEF706FD0028ADD1FDF722FBE9690720B4
:1044E0008B68C4EB030CDCF1000242EB0C01FEF71D
:1044F000F7FC00289ED1FEF783FDDFF858E14FF46A
:10450000987142464D4B5046CDF800E0FCF788FCD0
:10451000DFF844C14FF4987130603A46494B484641
:10452000CDF800C0FCF77CFC70604748FDF720FA2E
:10453000E96908208B68C4EB030EDEF1000242EB50
:104540000E01FEF7CDFC00287FF474AF6430FCF759
:104550000FFDEB6909209968C8EB0102534243EB58
:104560000201FEF7BDFC00287FF464AF3748FDF779
:10457000FFF9EB690A209968C8EB0102D2F1000C3F
:104580004CEB0201FEF7ACFC00287FF453AF643023
:10459000FCF7EEFCE9690B208A68C7EB020CDCF142
:1045A000000646EB0C01FEF79BFC064600287FF454
:1045B00041AF202383F31188FCF7E2F8FDF770FA8E
:1045C000FCF7FEF8334683F31188E9690C208A680A
:1045D000C8EB020EDEF1000343EB0E01FEF780FC98
:1045E00000287FF427AF6430FCF7C2FCE9690D2096
:1045F0008A68C8EB0203D3F1000C4CEB0301FEF711
:104600006FFC00287FF416AFFDF78AFAE9690E20E7
:104610008A68131BD3F1000C4CEB0301FEF760FC1E
:1046200000287FF407AF02B0BDE8F047FEF7E8BC12
:104630000C0E0020809A0008F49C000881460008B7
:104640007014002061460008200800201008002097
:10465000F09C0008FCAC0008F89C0008AFF3008058
:1046600008B59620FCF784FC0348FDF781F9FDF7B7
:10467000C7F9002008BD00BF10080020AFF300807C
:1046800008B53220FCF774FC0348FDF771F9FDF71B
:10469000B7F9002008BD00BF20080020AFF300805C
:1046A0002DE9F0412D4F82B0FEF7FAFCFD692C4E4A
:1046B000AA682C4C002530684FF49871053A2A4BB3
:1046C000D4F80C800095FCF7ABFBF969274C8B689C
:1046D000D6F804E020601A1F70464FF49871244BFE
:1046E0000095FCF79DFBFA69D6F808C093684FF473
:1046F00098716060DA1E60461E4B0095FCF790FBD7
:10470000F969D6F80CE08A681B4BA0604FF49871E9
:104710007046023A0095FCF783FBFB6936699A689C
:104720004FF49871E060013A144B30460095FCF765
:1047300077FB2061FEF764FC01201149FEF7E8FBDE
:1047400010B102B0BDE8F081022008F16E0108F15D
:10475000730202B0BDE8F041FEF71ABC0C0E002057
:10476000809A0008FC0D0020014900087014002008
:10477000C1480008914800087148000841480008F5
:10478000FC9C0008AFF30080AFF30080AFF3008023
:104790002DE9F041204F82B0FEF782FCFD691F4EEB
:1047A000AB681F4C00255A1E30684FF498711D4BA2
:1047B000D4F80C800095FCF733FBF969D6F804E0D7
:1047C0008A68194C4FF498712060023A7046174B72
:1047D0000095FCF725FBFB69B6689A684FF4987161
:1047E0006060033A124B30460095FCF719FBA0605D
:1047F000FEF706FC01200F49FEF78AFB10B102B05C
:10480000BDE8F081022008F1640108F1690202B0FC
:10481000BDE8F041FEF7BCBB0C0E0020809A0008FA
:10482000FC0D002071490008701400205149000857
:1048300021490008809E0008AFF30080AFF300809C
:1048400008B53220FCF794FB0648FDF791F80A20E2
:10485000FEF7FEFBFDF7D4F84120FEF729FB002010
:1048600008BD00BF20080020AFF30080AFF3008038
:1048700008B52820FCF77CFB1420FEF7E9FB42205A
:10488000FEF716FB002008BDAFF30080AFF30080F9
:1048900008B51420FCF76CFB0648FDF769F80A2000
:1048A000FEF7D6FBFDF7ACF84320FEF701FB002036
:1048B00008BD00BF20080020AFF30080AFF30080E8
:1048C00008B50A20FCF754FB0B48FDF751F81420FB
:1048D000FEF7BEFB0948FDF74BF80A20FEF7B8FBD0
:1048E000FDF78EF80A20FEF7B3FBFDF789F84420A8
:1048F000FEF7DEFA002008BD200800201008002086
:1049000008B50648FDF734F81E20FEF7A1FBFDF7B9
:1049100077F84520FEF7CCFA002008BD10080020EB
:1049200008B50848FDF724F82820FEF791FBFDF7AD
:1049300067F80A20FEF78CFB4320FEF7B9FA002047
:1049400008BD00BF10080020AFF30080AFF3008067
:1049500008B51420FCF70CFB2820FEF779FB422059
:10496000FEF7A6FA002008BDAFF30080AFF3008089
:1049700008B52820FCF7FCFA0648FCF7F9FF0A20E6
:10498000FEF766FBFDF73CF84120FEF791FA0020A8
:1049900008BD00BF10080020AFF30080AFF3008017
:1049A000184910B5CC691848A26882B001324FF49A
:1049B0009871164B00680094FCF732FA144B18609B
:1049C000FDF766FC846B2146FDF78AFCE0B2FEF73A
:1049D0006FFAFDF75DFC846B2146FDF781FCE0B2C8
:1049E000FEF766FAFDF754FC846B2146FDF778FC70
:1049F000E0B2FEF75DFA0749012002B0BDE81040C1
:104A0000FEF786BA0C0E0020809A0008214A0008A2
:104A100070140020809E0008AFF30080AFF3008088
:104A200010B541210446FDF703FC42212046FDF765
:104A3000FFFB20464321FDF7FBFB002010BD00BF1C
:104A400070B52B4C0120626A82B0A2F1050EDEF136
:104A5000000141EB0E01FEF743FA002845D1422147
:104A600020464FF0FF32FDF7CBFCD0F1010138BFFB
:104A700000210220FEF734FAB8BB432120464FF054
:104A8000FF32FDF7BDFCD0F1010138BF002102204B
:104A9000FEF726FA48BB442120464FF0FF32FDF7CF
:104AA000AFFCD0F1010138BF00210220FEF718FA57
:104AB000D8B9452120464FF0FF32FDF7A1FCD0F1D7
:104AC000010138BF00210220FEF70AFA68B941212E
:104AD00020464FF0FF32FDF7FBFCD0F1010138BF5B
:104AE00000210320FEF7FCF920B102B070BD00BF29
:104AF00038080020582101222046FDF781FCA0F152
:104B0000FF33584240EB03010420FEF7E9F9054664
:104B10000028EAD1202383F31188FBF731FE5821C6
:104B20002046FDF785FC0646FBF74AFE2B4683F33D
:104B30001188A6F1FF310520D1F1000C4CEB0101E9
:104B4000FEF7CEF90028D0D1582101222046FDF7EA
:104B5000BFFCA0F1FF32554245EB02010620FEF7F3
:104B6000BFF905460028C0D1202383F31188FBF745
:104B700007FE58212046FDF7C3FC0646FBF720FE42
:104B80002B4683F31188A6F1FF3E0720DEF10003D8
:104B900043EB0E01FEF7A4F90028A6D1202383F3EE
:104BA0001188FBF7EDFD666A0820D6F1010138BFD8
:104BB0000021FEF795F90646002840F03283FBF706
:104BC000FFFD334683F31188202383F31188FBF71D
:104BD000D7FDA5690920A5F10501D1F1000C4CEB29
:104BE0000101FEF77DF90546002840F02083FBF720
:104BF000E7FD2B4683F31188202383F31188FBF70D
:104C0000BFFDE668A1680A20721A534243EB020115
:104C1000FEF766F90646002840F00F83FBF7D0FD4B
:104C2000334683F311884FF0FF3201A92046FDF788
:104C3000B7FCD0F1010138BF00210B20FEF750F97D
:104C400000287FF452AF9DF80400FEF731F901A966
:104C500020464FF0FF32FDF7A3FCD0F1010138BF31
:104C600000210B20FEF73CF900287FF43EAF9DF8B1
:104C70000400FEF71DF901A920464FF0FF32FDF7B1
:104C80008FFCD0F1010138BF00210B20FEF728F97D
:104C900000287FF42AAF9DF80400FEF709F901A966
:104CA00020464FF0FF32FDF77BFCD0F1010138BF09
:104CB00000210B20FEF714F900287FF416AF9DF8B1
:104CC0000400FEF7F5F801A920464FF0FF32FDF78A
:104CD00067FCD0F1010138BF00210B20FEF700F97D
:104CE00000287FF402AF9DF80400FEF7E1F80C20E5
:104CF000CC49FEF70DF900287FF4F7AE4721204696
:104D00004FF0FF32FDF77CFBD0F1010138BF0021ED
:104D10000D20FEF7E5F800287FF4E7AEC24C01A9AC
:104D200020464FF0FF32FDF73BFCD0F1010138BFC8
:104D300000210E20FEF7D4F800287FF4D6AE2268BA
:104D4000A3680F30C3EB020CDCF1000E4EEB0C013C
:104D5000FEF7C6F800287FF4C8AE2268E36810307A
:104D6000C3EB020EDEF1000141EB0E01FEF7B8F8D5
:104D700000287FF4BAAE012201A92046FDF710FCFD
:104D8000A0F1FF35684240EB05011120FEF7A8F8BD
:104D9000054600287FF4A9AE202383F31188FBF792
:104DA000EFFC01A92046FDF713FC0646FBF708FDC2
:104DB0002B4683F31188A6F1FF311220D1F1000CAC
:104DC0004CEB0101FEF78CF8054600287FF48DAE10
:104DD000202383F31188FBF7D3FC636A1320A3F12C
:104DE0000502564246EB0201FEF77AF80646002815
:104DF00040F03B82FBF7E4FC334683F31188202329
:104E000083F31188FBF7BCFCA5691420D5F10101DF
:104E100038BF0021FEF764F80546002840F01F82E5
:104E2000FBF7CEFC2B4683F31188202383F31188F4
:104E3000FBF7A6FCA668E2681520911BD1F1000CD7
:104E40004CEB0101FEF74CF80646002840F0FB81D0
:104E5000FBF7B6FC334683F31188202383F31188D4
:104E6000FBF78EFC41212046FDF7E2FAD0F101016B
:104E700038BF00211620FEF733F800287FF435AE46
:104E800042212046FDF7D4FAD0F1010138BF0021BC
:104E90001720FEF725F800287FF427AE624C432147
:104EA0002046FDF7C5FAD0F1010138BF00211820D6
:104EB000FEF716F800287FF418AE44212046FDF7CF
:104EC000B7FAD0F1010138BF00211920FEF708F828
:104ED000054600287FF409AE45212046FDF7A8FAD3
:104EE0000646FBF76DFC2B4683F311881A20D6F19A
:104EF000010138BF0021FDF7F3FF00287FF4F5AD75
:104F0000E168A2681B308B1AD3F1000E4EEB03014F
:104F1000FDF7E6FF00287FF4E8AD0535202383F395
:104F20001188414CFBF72CFC01A92046FDF750FBF2
:104F30000646FBF745FC002383F31188C3EB060EFE
:104F40001C20DEF1000C4CEB0E01FDF7C9FF002820
:104F50007FF4CBAD9DF80400FDF7AAFF013DDDD144
:104F60001D203049FDF7D4FF00287FF4BEAD20237B
:104F700083F31188FBF704FC626A1E20A2F105018D
:104F80004B4243EB0101FDF7ABFF002840F073817A
:104F9000FBF716FC2B4683F31188202383F311883B
:104FA000FBF7EEFBA3691F20D3F1010138BF0021FD
:104FB000FDF796FF002840F04C81FBF701FC2B46E3
:104FC00083F31188E368A2682020991AD1F1000CBC
:104FD0004CEB0101FDF784FF00287FF486AD202310
:104FE00083F31188FBF7CCFB45212046FDF788FAB7
:104FF000D0F1010138BF00212120FDF771FF002809
:105000007FF473AD44212046FDF77AFAD0F1010117
:1050100038BF00212220FDF763FF00287FF465AD33
:1050200004E000BFFC9C0008380800204321204613
:10503000FDF766FAD0F1010138BF00212320FDF70A
:105040004FFF00287FF451AD42212046FDF758FA6A
:10505000D0F1010138BF00212420FDF741FF0028D5
:105060007FF443AD964C41212046FDF749FA0546B1
:10507000FBF7A6FB002383F31188C3EB050C252067
:10508000DCF1000141EB0C01FDF72AFF00287FF461
:105090002CADE168A3682630C3EB010EDEF10002FF
:1050A00042EB0E01FDF71CFF00287FF41EAD052426
:1050B000202383F31188824DFBF762FB01A9284668
:1050C000FDF786FA0646FBF77BFB002383F3118886
:1050D000F21A2720D2F1000C4CEB0201FDF700FF81
:1050E00000287FF402AD9DF80400FDF7E1FE013CCD
:1050F000DED128207349FDF70BFF00287FF4F5ACC3
:10510000202383F31188FBF73BFB6A6A2920A2F175
:105110000503594241EB0301FDF7E2FE002840F090
:10512000C880FBF74DFB234683F31188202383F3CC
:105130001188FBF725FBA9692A20D1F1010138BFAD
:105140000021FDF7CDFE002840F0AD80FBF738FBD5
:10515000234683F31188A968EA682B20C1EB020C6F
:10516000DCF1000343EB0C01FDF7BAFE00287FF4ED
:10517000BCAC2846FDF7F4F8202383F31188FBF735
:10518000FFFA6A6A2C20A2F1050EDEF1000343EB60
:105190000E01FDF7A5FE00287FD1FBF711FB23468A
:1051A00083F31188202383F31188FBF7E9FAA969B7
:1051B0002D20D1F1010138BF0021FDF791FE00281B
:1051C00065D1FBF7FDFA234683F31188202383F38F
:1051D0001188FBF7D5FAA9682A682E20531AD3F153
:1051E000000C4CEB0301FDF77BFE002849D1FBF7D7
:1051F000E7FA234683F31188202383F31188FBF712
:10520000BFFA2968EA682F208B1AD3F1000C4CEB07
:105210000301FDF765FEFBF7D3FA002383F3118842
:1052200063E4FBF7CDFA002383F311885DE4FBF719
:10523000C7FA334683F3118857E4FBF7C1FA2B46CC
:1052400083F3118851E4FBF7BBFA2B4683F31188F3
:105250004BE4FBF7B5FA2B4683F3118845E4FBF7E3
:10526000AFFA334683F311883FE4FBF7A9FA2B46E4
:1052700083F3118839E4FBF7A3FA2B4683F31188F3
:1052800033E4FBF79DFA234683F311882DE4FBF703
:1052900097FA234683F3118827E4FBF791FA234614
:1052A00083F3118821E4FBF78BFA234683F31188FB
:1052B0001BE4FBF785FA234683F3118815E400BF4E
:1052C00038080020FC9C0008AFF30080AFF300809A
:1052D000024803490522FDF723B800BF3808002023
:1052E000580E0020AFF30080AFF30080AFF30080D2
:1052F000002110B54FF0FF30FCF7F2FED0F10101B4
:1053000038BF00210120FDF7EBFD00B110BD0146C3
:105310004FF0FF30FCF71CFFD0F1010138BF002136
:105320000220FDF7DDFD0028F0D101464FF0FF30EF
:10533000FCF746FFD0F1010138BF00210320FDF743
:10534000CFFD0028E2D10A214FF0FF30FCF7C8FE64
:10535000D0F1010138BF00210420FDF7C1FD002874
:10536000D4D10A214FF0FF30FCF7F2FED0F1010159
:1053700038BF00210520FDF7B3FD0028C6D10A2162
:105380004FF0FF30FCF71CFFD0F1010138BF0021C6
:105390000620BDE81040FDF7A3BD00BFAFF30080BD
:1053A0004FF0FF30FCF75CBDAFF30080AFF300803F
:1053B0004FF0FF30FCF754BDAFF30080AFF3008037
:1053C0004FF0FF30FCF74CBDAFF30080AFF300802F
:1053D0002DE9F047052088B0FCF75AFD4FF0FF306B
:1053E000FCF716FEA0F10100414241EB0001012053
:1053F000FDF776FD10B108B0BDE8F0874FF0FF3043
:10540000FCF706FEA0F10402534243EB0201022026
:10541000FDF766FD0028EED14FF0FF30FCF720FDD0
:10542000D0F1010138BF00210320FDF759FD00280C
:10543000E1D1794FFDF734FE784EFD69D6F8008052
:10544000AC68774E621E4FF49871764B4046F46814
:105450000095FBF7E5FC744D04F1320A28604FF02B
:10546000FF30FCF7D5FD5146814604F13702042098
:10547000FDF78EFD0028BED1A9F1010E0520DEF159
:10548000000C4CEB0E01FDF72BFD0028B3D14FF0C3
:10549000FF30FCF7E5FCD0F1010138BF0021062008
:1054A000FDF71EFD0028A6D1FDF7AAFD0520FCF79B
:1054B000EFFC4FF0FF30FCF7D3FDA0F105004142B7
:1054C00041EB00010720FDF70BFD002893D14FF0C1
:1054D000FF30FCF7C5FCD0F1010138BF00210820E6
:1054E000FDF7FEFC002886D1FDF7DAFDD7F81C9009
:1054F0004FF49871D9F808204A4B013A4046F468B5
:10550000CDF80090FBF78CFC28604FF0FF30FCF7E3
:10551000A7FD04F1320A81465146092004F1370201
:10552000FDF736FD00287FF466AFA9F1010C0A30C3
:10553000DCF1000343EB0C01FDF7D2FC00287FF403
:105540005AAF0138FCF78CFCD0F1010138BF0021C3
:105550000B20FDF7C5FC00287FF44DAF334CDFF87E
:10556000D890FDF74DFD204605A901222460C9F819
:105570000090FCF72DFC02A904224846FCF728FC09
:10558000FDF78EFDF9692A4F88682A4B421E4FF4B9
:1055900098714046F6680097FBF742FC06F1320727
:1055A00028600520FCF77CFD0C20394606F1370207
:1055B000FDF7EEFC00287FF41EAF0138FCF750FC2D
:1055C000D0F1010138BF00210D20FDF789FC002832
:1055D0007FF411AFFDF714FD204605A9FCF718FC78
:1055E000484602A9FCF714FC21680E200A1B53420E
:1055F00043EB0201FDF774FC00287FF4FCAED9F800
:1056000000300F30C9EB030CDCF1000E4EEB0C0147
:10561000FDF766FCEFE600BF0C0E0020809A000844
:10562000FC0D002071560008701400206008002056
:10563000F09C00084156000864080020AFF3008089
:1056400008B500210548FCF7A3FC3220FBF790FCCD
:1056500003480021FCF79CFC002008BD60080020E6
:1056600064080020AFF30080AFF30080AFF3008048
:1056700010B504463220FBF77BFC20460121FCF7E5
:1056800047FC002010BD00BFAFF30080AFF30080E7
:1056900010B51E4C86B00122204603A92460FCF7F9
:1056A00097FB204669460222FCF792FB2168012005
:1056B000091B18BF0121FDF713FC08B106B010BD8E
:1056C000204603A9FCF7A4FB22680220111B18BF87
:1056D0000121FDF705FC0028F0D120466946FCF7C2
:1056E00097FB21680320C4EB010EDEF1000343EBBE
:1056F0000E01FDF7F5FB0028E0D107210448FCF777
:105700005FFC04200349FDF703FCD7E76008002095
:10571000E0A00008809E0008AFF30080AFF3008097
:105720004320FDF7C5BB00BFAFF30080AFF300809F
:105730004220FDF7BDBB00BFAFF30080AFF3008098
:105740004120FDF7B5BB00BFAFF30080AFF3008091
:1057500070B582B0FDF77CF969460020FDF760FA6C
:1057600010210020FDF7B4F9011E18BF01210446E5
:105770000120FDF7B5FB054608B102B070BD20461B
:10578000FDF7EEF96FF0FF012846FDF7A1F9D0F122
:10579000010138BF00210220FDF7A2FB0028ECD157
:1057A00069468348FDF73CFA10218148FDF790F9DE
:1057B000102105467E48FDF78BF9102104467C48F0
:1057C000FDF786F906462846FDF7CAF92046FDF79B
:1057D000C7F93046FDF7C4F901A97548FDF720FA6D
:1057E000A0F1010EDEF1000141EB0E010320FDF7F7
:1057F00077FB0028C1D110216D48FDF769F9102110
:1058000004466B48FDF764F9102105466848FDF72A
:105810005FF9FDF7A5F92846FDF7A2F92046FDF747
:105820009FF901A96248FDF7FBF9A0F1010042428E
:1058300042EB00010420FDF753FB00289DD111210C
:105840005B48FDF745F9102104465948FDF740F93A
:1058500005462046FDF784F901A95548FDF7E0F912
:10586000A0F1020CDCF1000343EB0C010520FDF775
:1058700037FB002881D110214D48FDF729F901A9F6
:1058800004464B48FDF7CCF9012800F08E8001A9B1
:105890004748FDF7C5F9A0F10202514241EB020170
:1058A0000620FDF71DFB00287FF467AF2846FDF7B3
:1058B00057F92046FDF754F901A93D48FDF7B0F925
:1058C000A0F10103584240EB03010720FDF708FB5C
:1058D00000287FF452AF10213548FDF7F9F8102168
:1058E00005463348FDF7F4F804462846FDF738F935
:1058F00001A92F48FDF794F9A0F1020EDEF1000C8A
:105900004CEB0E010820FDF7EBFA00287FF435AFD1
:1059100020212748FDF7DCF8FDF722F92046FDF7A6
:105920001FF901A92248FDF77BF9A0F101025142BC
:1059300041EB02010920FDF7D3FA00287FF41DAFE7
:1059400001A91B48FDF76CF901991948FDF7C0F84A
:1059500001A904461648FDF763F9D0F1010138BFEB
:1059600000210A20FDF7BCFA00287FF406AF20468C
:10597000FDF7F6F801A90E48FDF752F9A0F1010371
:10598000584240EB03010B20FDF7AAFA00287FF4F0
:10599000F4AE0199009A0C30C2EB010EDEF1000C5E
:1059A0004CEB0E01FDF79CFAE7E6014678E700BFF5
:1059B00098140020AFF30080AFF30080AFF30080B5
:1059C000024803494FF4BE62FDF762B89814002004
:1059D000580E0020AFF30080AFF30080AFF30080DB
:1059E00000207047AFF30080AFF30080AFF300807A
:1059F00010B5324C32482168FDF792F930486168A1
:105A0000FDF78EF92E48A168FDF78AF92C48E16868
:105A1000FDF786F921692A48FDF782F92848FDF744
:105A20004FF9011E18BF01210120FDF759FA002886
:105A300032D12348FDF744F9011E18BF012101208E
:105A4000FDF74EFA40BB1E48FDF73AF9011E18BF9C
:105A500001210120FDF744FAF0B91948FDF730F9AA
:105A6000011E18BF01210120FDF73AFAA0B9144820
:105A7000FDF726F9011E18BF01210120FDF730FABC
:105A800050B90F48FDF71CF9D0F1010138BF0021D2
:105A90000220FDF725FA00B110BD1021094A08487F
:105AA000FDF7DEF80648FDF70BF9D0F1010138BF2C
:105AB00000210320BDE81040FDF712BA809A0008CB
:105AC00068080020E1590008AFF30080AFF30080C0
:105AD00002484FF498710022FDF7C2B86808002010
